:020000022000DC
:1060000000000120756302005D6302005F6302000F
:106010006163020063630200656302000000000028
:1060200000000000000000000000000067630200A4
:1060300069630200000000006B6302006D630200F0
:1060400005EE02006F6302002DFB02006F63020089
:106050006F6302006F6302004DF802006F6302007D
:106060006F6302006F6302006F6302006F630200E0
:106070006F6302008D1703006F6302006F630200FD
:106080006F630200F19402006F6302006F6302000D
:106090006F6302006F63020031E103006F6302006F
:1060A0006F6302006F6302006F6302006F630200A0
:1060B0006F6302006F630200000000000000000038
:1060C0006F6302006F6302006F6302006F63020080
:1060D0006F6302006F6302006F6302000000000044
:1060E00000000000000000000000000000000000B0
:1060F00000000000000000000000000000000000A0
:10610000000000000000000000000000000000008F
:10611000000000000000000000000000000000007F
:10612000000000000000000000000000000000006F
:10613000000000000000000000000000000000005F
:10614000000000000000000000000000000000004F
:10615000000000000000000000000000000000003F
:10616000000000000000000000000000000000002F
:10617000000000000000000000000000000000001F
:10618000000000000000000000000000000000000F
:1061900000000000000000000000000000000000FF
:1061A00000000000000000000000000000000000EF
:1061B00000000000000000000000000000000000DF
:1061C00000000000000000000000000000000000CF
:1061D00000000000000000000000000000000000BF
:1061E00000000000000000000000000000000000AF
:1061F000000000000000000000000000000000009F
:10620000354936480A1A02D0072291438D4634494F
:1062100034480A1A06D00722914381F309880222E2
:1062200082F3148830483149314A00F044F831484B
:106230003149324A00F03FF831483249324A00F0E1
:106240003AF832483249334A00F035F83248334997
:10625000334A00F030F833483349344A00F02BF821
:1062600033483449344A00F026F83448344900228F
:1062700000F02CF833483449002200F027F8334866
:106280003349091A082902DB002202604160314AC1
:1062900090471F481F49884205D00268043003B464
:1062A000904703BCF7E700208646EC46002000211B
:1062B000294A9047FEE7884207D0521A05D0037852
:1062C00001300B700131013AF9D17047884202D098
:1062D00002700130FAE770470000012000E0002062
:1062E0000000012000000120489504003C2A002005
:1062F00018310020D0630200D06302000043040084
:10630000489504003C2A00203C2A00201045040047
:106310001045040010450400104504001045040019
:106320001045040010450400104504004895040081
:10633000249C04001831002018310020183100205E
:106340002C6D00202C6D00202C6D00202C6D002069
:106350002C8D00209D6302001D3B0300FEE7FEE73D
:10636000FEE7FEE7FEE7FEE7FEE7FEE7FEE7FEE705
:1063700000F002B8FFF7FCBF0F484FF00701884359
:1063800085460E4880470E48016841F4700101605F
:10639000BFF34F8FBFF36F8FFFF732BF09480A4932
:1063A0000A4A884207D0521A05D0037801300B7090
:1063B0000131013AF9D1704700000120ADDC020043
:1063C00088ED00E0FC440400282A00203C2A00203C
:1063D00000B585B00190019B002B0AD0074B43F01C
:1063E00001030393019B9B010293039B029898472F
:1063F00000E000BF05B05DF804FB00BF20450400CD
:1064000000B583B00190019B002B0AD04FF47A7045
:10641000FFF7DEFF019B013B0193019B002BF5D1B0
:1064200000E000BF03B05DF804FB08B50EF0E2F831
:1064300000BF08BD00B589B0039002910192019B95
:10644000002B33D00023079303230693029A079B64
:106450001344019A194600200EF07CF80590079A23
:10646000059B13440793019A059BD31A0193059B3F
:10647000002B13D10F4B1B7883F00103DBB2002BF1
:1064800013D10120FFF7BCFF069B013B0693069B3F
:10649000002B03D1074B00221A7007E0054B0122A5
:1064A0001A70019B002BD1D100E000BF00BF09B0E2
:1064B0005DF804FB1831002000B585B0039002910F
:1064C000054B00934023054A0299039800F012F807
:1064D00000BF05B05DF804FB356402001C310020EC
:1064E00082B0019000BF02B0704782B0019000BF3F
:1064F00002B0704700B5A1B00590049103920293D9
:10650000049803F099FF039B1593029B16930023B5
:10651000179300238DF8603000231993229B1A9360
:1065200000231F930FA91F9B0822049804F05EF814
:1065300008231F93119B1293BDF84030ADF84C30E7
:10654000BDF84230ADF84E3000238DF851309DF843
:106550003C3003F00303DBB2012B26D10F9BC3F3C6
:1065600095231C939DF83C30C3F3C203DBB28DF836
:106570005030BDF83C30C3F38313DBB21B931B9B3D
:106580009A0009A91F9B049804F030F81B9B9B00FC
:106590001F9A13441F9312AA09A915AB009313461F
:1065A0001B9A1C9800F0C2FF2FE09DF83C3003F0CE
:1065B0000303DBB2022B28D1BDF83E30C3F38913AD
:1065C0009BB21E939DF83C30C3F3C203DBB28DF83F
:1065D00050301E9B082B28BF08231D9307A91F9B23
:1065E0001D9A049804F002F81F9A1D9B13441F93F0
:1065F0001E9A1D9BD31A1E9315AB12AA07A81D99AC
:1066000001F036F81E9B002BE3D1049803F023FF22
:1066100000BF21B05DF804FB82B00190019BDB68F4
:1066200001225A7100BF02B07047000000B583B06C
:106630004FF0FF330193FFF7F8FE0421084800F004
:106640008FFE0190019B002B03DA064941200BF0DD
:10665000E7FF0348FFF7E0FF00BF03B05DF804FB6E
:10666000EC4404003845040000B583B0019000916B
:10667000019B1B681B6800990198984700BF03B0F5
:106680005DF804FB00B583B00190019B1B685B685B
:106690000198984700BF03B05DF804FB00B583B0D4
:1066A0000190019B1B689B680198984700BF03B04D
:1066B0005DF804FB82B001900B468DF80330019B1E
:1066C000DB689DF803201A7100BF02B0704782B0EA
:1066D0000190019BDB681B79184602B0704782B0BD
:1066E0000190019BDB6801225A7100BF02B0704724
:1066F00082B00190019BDB685B79184602B070475D
:1067000000B585B001900091154BFF229A60144BA3
:1067100000221A60124B00225A60114B0022C3F86B
:1067200018240F4B0022C3F814240D4B002283F8C9
:1067300020240C4803F0E4FD0390039B002B01D0C0
:10674000039B08E0084804F0DFFB084A084BD31A13
:10675000DB0802930023184605B05DF804FB00BF78
:10676000C43200201C440400944504001C4404006E
:106770001C430400024A034BD31ADB081846704737
:106780001C4404001C43040000B587B001900B4674
:106790008DF803309DF80330002B1FD0FFF7EAFF80
:1067A00004900023059313E0059B9B000E4A1344BD
:1067B0000393039B1B881A46019B1B689A4204D1D2
:1067C000019B059A1A60002309E0059B013305939C
:1067D000059A049B9A42E7D3052300E0002318465C
:1067E00007B05DF804FB00BF282A002000B585B083
:1067F00001900B468DF803309DF8032001AB114644
:106800001846FFF7C1FF0346002B07D1019BDB00B1
:10681000054A13440393039B1B6800E000231846BA
:1068200005B05DF804FB00BF1C43040084B0019078
:106830000B468DF80330019BDB00174A134402938B
:106840009DF80330013B032B1CD801A252F823F022
:106850006168020069680200716802007B680200DA
:1068600002238DF80F3011E004238DF80F300DE076
:10687000029B1B798DF80F3008E0029B5B798DF845
:106880000F3003E000238DF80F3000BF9DF80F306C
:10689000184604B0704700BF1C43040084B0019048
:1068A000009100238DF80F30019B1B7803F0040347
:1068B000DBB2002B24D0019B1B78C3F30103DBB2B6
:1068C000012B02D0022B0CD017E0009B1B68019A11
:1068D0001288C2F38312D2B213449A1C009B1A602E
:1068E0000BE0009B1B68019A5288C2F3891292B296
:1068F00013449A1C009B1A6000BF01238DF80F30CF
:106900009DF80F30184604B07047000000B58BB0FA
:106910000023ADF826303E4802F0FDFF3D4802F06E
:10692000FAFF3D4B5B6804933B4B9B680693049ACC
:10693000069B134002339B00374A134404330893E9
:1069400004AB19460898FFF7A9FF0346002B09D0AE
:10695000049A069B134002339B002F4A13440433CE
:106960000893EDE700BF0023079311E0049B5A1C36
:106970000492069A1340079A920001A90A442649F4
:1069800002339B000B445B681360079B0133079342
:10699000079B012BEAD99DF80430C3F30103DBB256
:1069A000012B10D0022B1CD1BDF80A30ADF82630D7
:1069B000BDF80630C3F389139BB203339A08049BD6
:1069C0001344049313E0BDF80A30ADF82630BDF847
:1069D0000430C3F38313DBB21A46049B13440493BD
:1069E00005E00E494FF4BF700BF01AFE00BF0948D6
:1069F00002F09DFF0590059B002B02D0049B064AE8
:106A00005360BDF8263018460BB05DF804FB00BF9C
:106A1000DC360020D8360020C4320020A445040013
:106A200000B585B00021074802F0AAFE0390039B41
:106A30000293029B83F310030193019B184605B058
:106A40005DF804FBE036002000B589B003900291A8
:106A500001920093039B1B0C0793FFF7E1FF069045
:106A6000FFF788FE0246079B934204D3214940F278
:106A7000A3100BF0D5FD069B1904009B5A1C0A9B22
:106A80001340079A0A431C4902339B000B445A6087
:106A9000009A0A9B134002339B00174A13440433A5
:106AA0000593039B03F00703D9B2059A137861F3AA
:106AB000C5031370019B03F00F03D9B2059A138825
:106AC00061F389131380029BC3F31501059A1368C0
:106AD00061F39F231360059A1378012161F3010389
:106AE0001370059A13786FF38203137000BF09B017
:106AF0005DF804FBA4450400C432002000B58DB04D
:106B00000390029113468DF80730039B02330A93DA
:106B100001238DF8273000238DF81B300DF11B0366
:106B2000184602F0D1F8404B1A68029B1A603E4B9F
:106B30009A683D4B59683C4B1B68CB1A1344013390
:106B40000B9314E00121394802F0A9FEFFF7DEFEA5
:106B500007900799354802F0A2FE334B9A68324BF2
:106B60005968314B1B68CB1A134401330B930A9AB3
:106B70000B9B9A42E6D89DF82730002B48D0002383
:106B800005939DF80730002B17D09DF81430012293
:106B900062F301038DF814309DF8143043F00403C0
:106BA0008DF81430039B03F00F03DAB2BDF81430F4
:106BB00062F38913ADF8143016E09DF81430022208
:106BC00062F301038DF814309DF8143043F0040390
:106BD0008DF81430039BC3F309039AB2BDF8163045
:106BE00062F38F13ADF816300F4B1A680E4B9B688B
:106BF000134002339B000C4A134404330893059A54
:106C0000089B1A60084B1A680A9B1344064A1360D3
:106C10009DF81B30184602F06DF89DF82730184695
:106C20000DB05DF804FB00BFC4320020E036002048
:106C300000B58BB005900491039202931F4B9B68A3
:106C4000079306AB012219460298FFF757FF034648
:106C5000002B24D0069B023309930023089311E0F4
:106C6000089B9B00039A1A44099B591C0991079998
:106C70000B401268114902339B000B445A60089B79
:106C800001330893089A029B9A42E9D3069A079B1C
:106C900000931346029A04990598FFF7D5FE074B17
:106CA00093F82034002B05D000BF00F051F90346C3
:106CB000002BFAD100BF0BB05DF804FBC4320020FA
:106CC00000B583B001900091002300220099019843
:106CD000FFF7AEFF00BF03B05DF804FB00B587B05F
:106CE000039002910192019B059305AA0123029949
:106CF0000398FFF79DFF00BF07B05DF804FB00B5E8
:106D000087B00390029101920093019B0493009B32
:106D1000059304AA022302990398FFF789FF00BF95
:106D200007B05DF804FB00B589B0039002910192B1
:106D30000093019B0593009B06930A9B079305AA6A
:106D4000032302990398FFF773FF00BF09B05DF8B2
:106D500004FB00B589B00390029101920093019B5E
:106D60000493009B05930A9B06930B9B079304AA2D
:106D7000042302990398FFF75BFF00BF09B05DF899
:106D800004FB00B58BB00390029101920093019B2C
:106D90000593009B06930C9B07930D9B08930E9BFA
:106DA000099305AA052302990398FFF741FF00BF45
:106DB0000BB05DF804FB00B58BB00390029101921B
:106DC0000093019B0493009B05930C9B06930D9BE2
:106DD00007930E9B08930F9B099304AA062302991D
:106DE0000398FFF725FF00BF0BB05DF804FB000020
:106DF00000B58DB0039002911346ADF806304B4BB1
:106E00009B680B93BDF8063003339B0805A900224D
:106E10001846FFF773FE0346002B78D0059B0A93B4
:106E2000059B02330593414B9A6805990B9B0B40D8
:106E3000D31A01339B000993BDF80630099A9A4290
:106E40000ED3059A0B9B134002339B00374A134421
:106E50000433BDF80620029918461AF084F817E0AA
:106E6000059A0B9B134002339B00304A13440433B2
:106E7000099A029918461AF076F8029A099BD118D5
:106E8000BDF80620099BD31A1A4629481AF06BF858
:106E9000039B1B0C0893FFF7C3FD0790079B190486
:106EA0000A9B5A1C0B9B1340089A0A431F49023342
:106EB0009B000B445A600A9A0B9B134002339B00C1
:106EC0001A4A134404330693039B03F00703D9B211
:106ED000069A137861F3C5031370069A13886FF34B
:106EE0008F131380BDF80630C3F3090399B2069AD5
:106EF000538861F38F135380069A1378022161F34C
:106F000001031370069A13786FF382031370074B13
:106F100093F82034002B05D000BF00F019F8034689
:106F2000002BFAD100BF0DB05DF804FBC432002085
:106F3000D0320020054B5A68044B1B689A420CBFA4
:106F400001230023DBB21846704700BFC432002083
:106F500000B599B0FFF7EEFF0346002B01D00023E8
:106F6000BEE19B4B0022C3F81824BFF34F8F00BF34
:106F7000974B5B680493964B9B681093049A109B05
:106F8000134002339B00924A1344043311930023AD
:106F900017930023169300230F9304AB19461198FF
:106FA000FFF77CFC0346002B19D0894BD3F818342B
:106FB000002B14D1864B1A68049B9A4205D8844B47
:106FC0001B68834A536000238AE1049A109B134094
:106FD00002339B007E4A134404331193DDE7002300
:106FE000159311E0049B5A1C0492109A1340159AB1
:106FF000920001A90A44764902339B000B445B6866
:107000001360159B01331593159B012BEAD99DF84D
:10701000043003F00303DBB2022B40F09C80BDF888
:107020000630C3F389139BB20D93BDF80630C3F34A
:1070300089139BB2502B28BF50239BB20C930C9BFF
:10704000C3F309039AB2BDF8063062F38F13ADF8AB
:1070500006300C9B08330B939DF80430C3F3C20336
:10706000DBB20F930B995B4803F055F91790179B10
:10707000002B00F0D180179803F0DEF901A9169BD0
:107080000822179803F094FA169B08331693049B72
:10709000DA43109B134001339B000A930C9A0A9B1E
:1070A0009A4242D90A9B002B08D0049A109B1340A5
:1070B00002339B00464A1344043300E0464B0893D6
:1070C0000A9B002B02D00A9BDBB201E00C9BDBB2D7
:1070D0008DF81F300A9B002B01D03F4B00E00023AE
:1070E00006930A9B002B06D00C9BDAB20A9BDBB2FC
:1070F000D31ADBB200E000238DF817309DF81F2073
:10710000169B0899179803F053FA9DF81F30169AAA
:1071100013441693069B002B16D09DF81720169B40
:107120000699179803F044FA0EE0049A109B134056
:1071300002339B00264A134404330993169B0C9A8E
:107140000999179803F034FA0D9B03339A08049BAE
:107150001344049360E09DF8043003F00303DBB2B2
:10716000012B59D1BDF80430C3F38313DBB2062BD6
:1071700028BF0623DAB2BDF8043062F38913ADF8F4
:107180000430BDF80430C3F38313DBB202330E9333
:107190009DF80430C3F3C203DBB20F930E9B9B0038
:1071A00019460C4803F0B7F81790179B002B33D003
:1071B000179803F041F901A9169B0822179803F0CC
:1071C000F7F9169B08331693002315931BE000BFB5
:1071D000C43200201C440400D0320020049B5A1CFE
:1071E0000492109A134002339B003F4A1344191D26
:1071F000169B0422179803F0DBF9169B04331693B1
:10720000159B01331593BDF80430C3F38313DBB230
:107210001A46159B9342E1D3179B002B40D0324B6B
:10722000D3F810341493304BD3F81834002B1BD000
:10723000179803F010F94DE000238DF84F301498A3
:10724000FFF756FA0346002B02D001238DF84F308A
:107250009DF84F30002B03D017991498FFF704FACC
:10726000149BDB681B681493149B002BE4D11798C4
:1072700003F0F1F800238DF803300DF103031846F5
:1072800001F022FD184BD3F81834002B02D1049BD7
:10729000154A53609DF80330184601F02BFD19E0A4
:1072A000114BD3F81034129306E01298FFF7F6F959
:1072B000129BDB681B681293129B002BF5D10B4AC3
:1072C0000B4BD31ADB081B0443F002030949184691
:1072D000FFF7F6FCFFF72EFE034683F00103DBB257
:1072E000184619B05DF804FBC43200204C4304007A
:1072F0001C430400F845040000B585B00023039347
:1073000023E0164BD3F81034029301238DF8073095
:107310000FE00298FFF7DBF903461A46039B9342FE
:1073200003D100238DF8073006E0029BDB681B6861
:107330000293029B002BECD19DF80730002B01D06B
:10734000039B07E0039B01330393039B092BD8DDC9
:107350004FF0FF33184605B05DF804FBC43200203F
:1073600000B585B001900B468DF80330FFF7C4FFE0
:107370000390039BB3F1FF3F01D1039B22E0039BEA
:10738000DBB219460198FFF795F9104BD3F810348A
:10739000002B08D10D4A019BC2F81034019BDB6819
:1073A00000221A600DE0094BD3F81034DA68019B13
:1073B000DB6812681A60054BD3F81034DB68019A59
:1073C0001A60039B184605B05DF804FBC432002028
:1073D00000B583B00D4BD3F8103401930B4B012251
:1073E00083F8202409E00198FFF779F90198FFF765
:1073F00049F9019BDB681B680193019B002BF2D1CB
:1074000000BF00BF03B05DF804FB00BFC432002022
:1074100082B00190009100BF02B0704710B584B0F7
:1074200003900291039BDB88002B0AD0039BDB882F
:107430001A461F4B009313461E4A1F49029802F03A
:10744000B3FB039B1B7A052B2ED0039B5B7A002B8F
:1074500012D0039B9B881A46039B1B7A1946104641
:10746000FFF7E4F903461A46144B53F822301A4644
:107470001349029802F098FB039B1B681946029877
:10748000FFF7C6FF039B1B7A1A460E4B53F82240A8
:10749000039B9B8800211846FFF7A8F90346224664
:1074A0000949029802F080FB00BF04B010BD00BF84
:1074B0002C4604003C46040074460400582A002070
:1074C0008C460400442A00209046040000B585B094
:1074D0000390029113468DF80730039B1B7A052B0E
:1074E0000FD0039B5B7A002B06D00D4B1B681A460E
:1074F0000C49029802F058FB0B49029802F054FB29
:1075000007E09DF80730002B03D00749029802F0EE
:107510004BFB029802F026FB00BF05B05DF804FBB0
:10752000582A00208C4604009C46040030B58BB0DD
:1075300007900691059204930E9B1B7B8DF82730D4
:107540000E9B00221A730E990498FFF767FF059BA4
:10755000062B7FD801A252F823F000BF79750200F4
:107560008375020093750200A7750200C5750200BD
:10757000ED7502001D76020007990E9802F014FBCB
:1075800069E0069B1B681A4607990E9802F00CFBEF
:1075900061E0069B1A68069B04331B6807990E98E6
:1075A00002F002FB57E0069B1A68069B0433196839
:1075B000069B08331B6800930B4607990E9802F050
:1075C000F3FA48E0069B1968069B04331868069B8B
:1075D00008331B68069A0C32126801920093034626
:1075E0000A4607990E9802F0DFFA34E0069B186805
:1075F000069B04331C68069B08331B68069A0C32F2
:10760000126806991031096802910192009323468D
:10761000024607990E9802F0C7FA1CE0069B1C6808
:10762000069B04331D68069B08331B68069A0C32C0
:1076300012680699103109680698143000680390A2
:107640000291019200932B46224607990E9802F070
:10765000ABFA00E000BF00220E990498FFF736FF56
:107660000E9B9DF827201A7300BF0BB030BD00BFE2
:1076700000B587B00390029101920093029B082B02
:1076800060D8009B1B7B8DF81330009B00221A737F
:1076900000990198FFF7C2FE0023059314E0059AB4
:1076A000029B9A4209D2039A059B13441B781A46FF
:1076B0002649009802F078FA03E02549009802F084
:1076C00073FA059B01330593059B072BE7D92149E5
:1076D000009802F069FA0023059326E0059A029BC0
:1076E0009A421BD2039A059B13441B788DF81230E3
:1076F0009DF812307E2B0AD89DF81230184619F0EA
:10770000B1FB0346002B02D09DF8123000E02E237F
:107710001A461149009802F047FA03E00F49009811
:1077200002F042FA059B01330593059B072BD5D93F
:10773000012200990198FFF7C9FE009B9DF81320D4
:107740001A7300E000BF07B05DF804FBA046040018
:10775000A8460400AC460400B0460400B446040049
:1077600084B003468DF807309DF807305B08DBB224
:107770001A460D4B9B5C8DF80F309DF8073003F0D7
:107780000103002B04D09DF80F301B09DBB204E08D
:107790009DF80F3003F00F03DBB28DF80E309DF82B
:1077A0000E30184604B070472037002084B00346DE
:1077B0000A468DF8073013468DF806309DF80730DD
:1077C00003F00103002B01D00F2300E0F0238DF81C
:1077D0000F309DF8073003F00103002B04D09DF813
:1077E00006301B01DBB201E09DF806308DF80E304B
:1077F0009DF807305B08DBB21A46114B9A5C9DF886
:1078000007305B08DBB219469DF80F301340DAB23F
:107810000B4B5A549DF807305B08DBB21A46084BF5
:107820009A5C9DF807305B08DBB219469DF80E3074
:107830001343DAB2024B5A5400BF04B0704700BF82
:107840002037002000B585B003468DF807300023AF
:10785000039310E00F4B1A68039BDB001344029361
:10786000029B1B789DF807209A4201D1029B0DE0F4
:10787000039B01330393084B1B781A46039B9342E7
:10788000E8DB064988200AF0CBFE0023184605B045
:107890005DF804FBE8360020EC360020C446040006
:1078A00000B585B003460A468DF8073013468DF8BB
:1078B00006309DF807301846FFF7C4FF0390039B7E
:1078C000002B0BD0039B5B68002B07D0039B5B68EE
:1078D0009DF806109DF807201046984700BF05B098
:1078E0005DF804FB2DE9F04F87B003460A468DF89A
:1078F0000F3013468DF80E309DF80F301846FFF705
:107900002FFF0346042B00F2C28001A252F823F09D
:107910002579020099790200B5790200E579020023
:10792000FB7902009DF80E30002B00F0AD809DF831
:107930000F3001211846FFF739FF00238DF817306B
:107940000DF11703184601F0BFF99DF80F104FF025
:1079500001024FF00003A1F12004C1F1200003FA5D
:1079600001F702FA04F4274322FA00F0074302FA6F
:1079700001F6494BD3E9002346EA020100913B435B
:107980000193454BDDE90012C3E900129DF8173061
:10799000184601F0AFF977E09DF80E30002B01D0CA
:1079A000022200E000229DF80F3011461846FFF732
:1079B000FDFE6CE09DF80E30002B0CD09DF80F30D2
:1079C00003211846FFF7F2FE9DF80F3001211846FB
:1079D000FFF766FF5BE09DF80F3001211846FFF7C7
:1079E000E5FE54E09DF80E30002B4FD19DF80F308E
:1079F00004211846FFF7DAFE48E09DF80E30002B10
:107A000006D09DF80F3003211846FFF7CFFE3EE069
:107A10009DF80F3000211846FFF7C8FE9DF80F3083
:107A200000211846FFF73CFF00238DF816300DF1BA
:107A30001603184601F048F99DF80F104FF00102A7
:107A40004FF00003A1F12006C1F1200003FA01F577
:107A500002FA06F6354322FA00F0054302FA01F471
:107A60006FEA04086FEA05090B4BD3E9002308EA23
:107A7000020A09EA030B084BC3E900AB9DF8163074
:107A8000184601F037F902E000BF00E000BF00BF78
:107A900007B0BDE8F08F00BF1837002000B583B0F5
:107AA0000648074B1B685B080022194600F010FED1
:107AB000019000BF03B05DF804FB00BFF836002062
:107AC000F036002000B587B001900023059328E030
:107AD0001C4B1A68059BDB0013440493049B1B7822
:107AE000184607F099FE03468DF80F30049B5B782B
:107AF000012B0CBF01230023DBB21A469DF80F3087
:107B00009A420CBF012300238DF80E30049B1B7892
:107B10009DF80E2011461846FFF7E4FE059B013341
:107B20000593094B1B781A46059B9342D0DB074B04
:107B3000D3E90023134301D0FFF7B0FF00BF07B024
:107B40005DF804FBE8360020EC36002018370020F2
:107B500000B585B001900B468DF80330019BDBB278
:107B60001846FFF76FFE0390039B1B78184607F03B
:107B700053FE03468DF80B30039B5B78012B0CBF43
:107B800001230023DBB21A469DF80B309A420CBF4A
:107B9000012300238DF80A309DF80A30002B06D00F
:107BA000054BD3E90023134301D1FFF777FF00BF53
:107BB00005B05DF804FB00BF1837002000B58BB09E
:107BC00003900B4601928DF80B30019B092B01D8D5
:107BD000072367E007F012FD034683F00103DBB2E1
:107BE000002B09D007F0B8FC0990099B0893089B6B
:107BF000002B01D0089B55E02C4A039B13602C4AB4
:107C00009DF80B3013702B4A019B1360102200214A
:107C1000294819F0D1F929494FF000024FF000032B
:107C2000C1E9002331E09DF80B30DB00039A1344D7
:107C3000079303238DF8143000238DF815309DF839
:107C400016306FF300038DF816309DF816306FF381
:107C500041038DF816309DF816306FF382038DF8CE
:107C60001630079B9B788DF81530079B1B781846BC
:107C700005AB134A194607F0CDFC0990099B069302
:107C8000069B002B01D0069B0CE09DF80B305A1E82
:107C90008DF80B20002BC6D10A4A00210A4800F0BB
:107CA000E3FC034618460BB05DF804FBE836002001
:107CB000EC360020F0360020203700201837002056
:107CC000517B0200C57A02001047040000B583B062
:107CD000114B1B68002B04D1104940F235100AF0FB
:107CE0009FFC002301930CE00B4B1A68019BDB0007
:107CF00013441B780121184607F006FD019B013350
:107D00000193074B1B781A46019B9342ECD3002347
:107D1000184603B05DF804FBE8360020C4460400B2
:107D2000EC36002086B003900291019201238DF879
:107D300017309DF81730214A039B13601F4A029B9E
:107D400053601E4A019B9360039B44F201029342DD
:107D500013D0039B44F20202934221D1019B174AA4
:107D6000D360164BDB681B881A46144B9A61134B81
:107D7000DB685B68114AD36112E0019B0F4A136113
:107D80000E4B1B699B680D4A53610C4B1B691B68AA
:107D90000A4A9361094B1B695B68084AD36100BFBB
:107DA00072B600BF00BF9DF81730DBB2002BFAD1CE
:107DB00062B600BF00BF06B0704700BF303700207A
:107DC00000B583B002900091019244F20100714627
:107DD0006A4600F003F803B000BD00BF30B58BB0B9
:107DE00007900691059272B600BFFFF7F1FA00BF47
:107DF000FFF7AEF80346002BFAD1079B44F20202CC
:107E000093422FD0079B44F20202934269D8079B0A
:107E100044F20102934237D0079B44F2010293429D
:107E20005FD8079B012B05D0079B41F201029342CB
:107E30000CD056E0394A3A4BD31ADB081B0443F006
:107E4000010338491846FEF73BFF57E0334A344BED
:107E5000D31ADB081B0443F0010333491846FEF72D
:107E60002FFF4BE0059B09932C4A2D4BD31ADB08BF
:107E70001B0443F00100099B5B681A46099B1B88A1
:107E80002A49FEF73CFF39E0059B0893234A244B1F
:107E9000D31ADB081B0443F00104089B9D68089B70
:107EA0009B68184603F050F903461846089B5B6828
:107EB0001946089B1B68069A02920193009103469B
:107EC0002A461B492046FEF75CFF144A144BD31A7E
:107ED000DB081B0443F0010316491846FEF7F0FEC9
:107EE0000CE00E4A0E4BD31ADB081B0443F00103CF
:107EF000069A11491846FEF7F1FE00BF0F4B1B68AA
:107F000003F00103002B00D000BE059A06990798E4
:107F1000FFF708FF00BF0BB030BD00BF4C430400AB
:107F20001C4304001447040034470400584704006D
:107F3000744704009C470400B0470400F0ED00E0E3
:107F400084B00190019B9B680393019BDA68039BBB
:107F5000D31A184604B0704782B001900B468DF8D2
:107F60000330019B1A68019BDB68019989880B40EB
:107F700013449DF803201A70019BDB685A1C019B77
:107F8000DA6000BF02B0704784B003900B460192E4
:107F9000ADF80A30039B1A68039B9968BDF80A3054
:107FA0000B44039989880B4013441A78019B1A707B
:107FB00000BF04B0704700B583B001900091009AF3
:107FC00000210198FFF7E0FF019B9B685A1C019B71
:107FD0009A6000BF03B05DF804FB84B00390029187
:107FE0001346ADF80630029B002B01D10E231DE095
:107FF000BDF80630002B07D0BDF806305A1EBDF87C
:1080000006301340002B01D009230FE0039B029A96
:108010001A60BDF80630013B9AB2039B9A80039B1D
:1080200000229A60039B0022DA600023184604B005
:10803000704700B583B001900B468DF8033001986E
:10804000FFF77EFF0246019B9B889A4207D89DF866
:10805000033019460198FFF77FFF002300E0042357
:10806000184603B05DF804FB00B583B001900091A1
:108070000198FFF765FF0346002B05D00099019892
:10808000FFF799FF002300E00523184603B05DF8D1
:1080900004FB0000F0B583B0124801F00FFA03466C
:1080A00018464FF00001104BD3E90023861841EB2E
:1080B0000307CDE900670D4BD3E90023DDE900019B
:1080C000994208BF904207D2DDE9002312F1807483
:1080D00043F10005CDE90045DDE9002310461946CE
:1080E00003B0F0BD7C2A0020583700206037002004
:1080F00088B001900091019B0793009B0693079B1A
:10810000D3E90223CDE90423069BD3E90223CDE979
:108110000223DDE90423DDE90201994208BF904210
:108120002CBF01230023DBB2184608B070470000C3
:1081300030B585B00190019B5B69002B03D12B49C1
:10814000A2200AF06DFA00238DF80F30284B1B781F
:10815000002B45D0019B002B42D0019B1B7FDBB243
:10816000002B3DD0FFF796FF019BD3E902239942F4
:1081700008BF90422CD3019B1B69002B02D1019BAD
:1081800000221A77019B5B69019A92691046984711
:10819000019B1B69002B23D0019B1B7FDBB2002BB3
:1081A0001ED0019BD3E90201019B1B691A464FF0C7
:1081B0000003841841EB0305019BC3E90245019BC1
:1081C00019460C4802F01AFF01238DF80F3007E022
:1081D000019B1946074802F011FF01238DF80F306B
:1081E0009DF80F30184605B030BD00BFD4470400DD
:1081F0005437002024480400F0B589B00190009164
:108200000D230793009B00221A70019BD3E90245BE
:10821000FFF740FF02460B46A61A65EB0307CDE9C0
:108220000467DDE90423012A73F100031BDB049BCF
:10823000B3F5350F05D300F0A9FA0246154B1344E8
:1082400003E0019BD3E90223134603934FF4960303
:10825000039A0021104801F033F80790079B002B88
:1082600005D1012313E000210B4801F001F9079B20
:108270000D2B07D10198FFF75BFF03461A46009BC1
:108280001A7003E00549F5200AF0CAF900231846E0
:1082900009B0F0BDFFFFB4007C2A0020D4470400E1
:1082A00000B583B0044802F0E3FE0190019B18463C
:1082B00003B05DF804FB00BF2448040000B583B0A0
:1082C000044802F0F7FE0190019B184603B05DF8E8
:1082D00004FB00BF2448040000B583B0FFF7E0FFB3
:1082E0000190019B002B02D0019B00221A77019B79
:1082F000002BF3D100BF00BF03B05DF804FB00000A
:10830000054BD3E9002312F1807043F10001024BC9
:10831000C3E9000100BF70475837002000B583B0A3
:108320000190134B1B68002B1DD0019801F0C6F87B
:108330000F4B1B68D3E90223134623F07F431946F2
:1083400000F018FA0346B3F5960F04D309494FF429
:1083500095700AF065F9064B1B681846FFF7E8FEB2
:10836000034B00221A6000BF03B05DF804FB00BF9E
:1083700050370020D447040000B583B00190FFF7C8
:1083800089FE02460B460349C1E9002300BF03B042
:108390005DF804FB6037002000B585B00190FFF761
:1083A0008DFF039000238DF80B30039B002B48D0EA
:1083B0002B4B1B68002B03D101238DF80B3019E0E8
:1083C000039BD3E90201264B1B68D3E902239942A0
:1083D00008BF90420ED201238DF80B30204B1B6852
:1083E0001B7FDBB2002B05D01D4B1B6819461D48B7
:1083F00002F004FE9DF80B30002B2AD0FFF750FF4F
:1084000003900DF10A0319460398FFF7F5FE0346A2
:10841000002B12D0124B1B68002B02D1019800F0E8
:108420005BFE0F4A039B13609DF80A3083F0010343
:10843000DBB2002BB3D000BF0EE0094B00221A6064
:10844000ADE7074B1B68002B05D1019800F05AFEE1
:1084500001E000BF00E000BF00BF05B05DF804FB15
:10846000503700202448040000B587B001902C4A02
:1084700003AB1946104601F056F9059048E0059BFC
:108480001B78022B2ED0022B32DC002B02D0012BCA
:1084900014D02DE0059B5B681B7FDBB283F00103EA
:1084A000DBB2002B26D0059B5B6801221A77059B67
:1084B0005B6819461B4802F0A1FD1BE0059B5A684A
:1084C000194B1B689A4203D1174B00221A6012E025
:1084D000059B5B681946134802F000FE03468DF8C1
:1084E000133008E0FFF7F8FE104B01221A7002E08B
:1084F00000BF00E000BF0A4A03AB1946104601F076
:108500002BF9074A03AB1946104601F00CF9059008
:10851000059B002BB3D100BF00BF07B05DF804FB83
:10852000C037002024480400503700205437002072
:1085300000B583B00190019800F08DFF0346002B39
:1085400001D0FFF7DDFE0021019800F0A2FF0346F5
:10855000002B02D00198FFF7E1FE0121019800F005
:1085600098FF0346002B02D00198FFF705FF019802
:10857000FFF77AFF0198FFF70FFF00BF03B05DF828
:1085800004FB000008B5024800F0A5FF00BF08BDCD
:108590007C2A002000B585B0034600918DF8073095
:1085A000114A02AB1946104601F090F80390039B64
:1085B000002B13D0039B9DF807201A70039B009A91
:1085C0005A60094A02AB1946104601F098F8034672
:1085D000002B01D0FFF7D6FF002300E0042318464C
:1085E00005B05DF804FB00BFC037002000B583B0C4
:1085F000164B1B680093164808235822154901F0B2
:108600001EF80190019B002B01D0019B19E06B46E5
:10861000114A1946114800F0E1FC0190019B002B22
:1086200001D0019B0DE001210C4800F003FF012364
:108630000B4A0121094800F07BFD0A4B01221A7008
:10864000019B184603B05DF804FB00BF20480400FE
:10865000C037002068370020318502007C2A0020C6
:10866000FFFF7F005437002000B587B003900B4612
:1086700001928DF80B30039B002B04D1134940F27B
:108680002E2009F0CDFF019B002B04D10F4940F2B1
:108690002F2009F0C5FF019B002B01D1072310E01B
:1086A000039B1B680593059B019A5A619DF80B304B
:1086B000012B0CBF01230023DBB21A46059B1A6174
:1086C0000023184607B05DF804FB00BFD447040040
:1086D00030B587B0039002910192039B002B04D127
:1086E000154940F23E2009F09BFF039B0593059B33
:1086F0001B7FDBB2002B01D000231AE0059B019AFF
:108700009A61FFF7C7FC029B1A464FF000038418DA
:1087100041EB0305059BC3E90245059B1B69002B43
:1087200002D0059B029A1A6105990020FFF732FFDB
:108730000346184607B030BDD447040000B585B0E5
:108740000190019B002B04D109494FF4157009F0E9
:1087500067FF019B0393039B00221A770399012073
:10876000FFF718FF0346184605B05DF804FB00BF8D
:10877000D447040082B001900091019A009BD31A63
:1087800023F07F43184602B07047000008B5034845
:1087900000F094FE0346184608BD00BF7C2A002066
:1087A00000B587B00390029113468DF8073000237F
:1087B0000593039B1B781A46114B9B5C002B09D039
:1087C000039B04339DF807200299184608F05AFBD2
:1087D00005900FE0039B1B781A46094B9B5C002B0E
:1087E00008D1039B0C339DF807200299184607F027
:1087F0001BFD0590059B184607B05DF804FB00BF04
:10880000203A002000B585B0019000238DF80F308C
:10881000019B1B781A46114B9B5C002B08D0019BD7
:108820000433184608F0ECFB03468DF80F300EE0D9
:10883000019B1B781A46094B9B5C002B07D1019BBF
:108840000C33184607F078FD03468DF80F309DF87D
:108850000F30184605B05DF804FB00BF203A002039
:1088600000B587B00390029113468DF807300023BE
:108870000593039B1B781A46114B9B5C002B09D078
:10888000039B04339DF807200299184608F0D0FB9B
:1088900005900FE0039B1B781A46094B9B5C002B4D
:1088A00008D1039B0C339DF807200299184607F066
:1088B0009BFD0590059B184607B05DF804FB00BFC3
:1088C000203A002084B00190019B9B680393019B98
:1088D000DA68039BD31A184604B0704700B587B016
:1088E00001900091019B1B78022B45D0022B6ADC82
:1088F000002B52D0012B66D1019B1B7A002B05D196
:10890000012233493348FFF7ABFF5DE0019B5B6811
:108910001B7819463048FFF78CFB0590059B002B10
:108920000AD001238DF80C30059B04932B4B1B6858
:1089300003AA104698470DE02748FFF7C3FF0346F8
:10894000002B07D000238DF80C30244B1B6803AAA2
:10895000104698472048FFF7B5FF03461E4A928805
:10896000934205D801221A491A48FFF779FF2BE0F4
:108970001B4B01221A7027E002238DF80C30019B5B
:10898000DB680493012212491248FFF769FF134B79
:108990001B6803AA1046984716E012491248FFF7D1
:1089A00063FB0346002B05D101220E490948FFF75E
:1089B000F7FE09E003238DF80C30084B1B6803AA6F
:1089C0001046984700E000BF00BF07B05DF804FB09
:1089D000DC370020842A0020E0370020D437002034
:1089E000DD370020D8370020F037002030B591B0B7
:1089F0000390029101928DF803303C4A019B136071
:108A0000029B002B01D107236DE0029B1968029B9A
:108A10005B689BB21A463648FFF7DFFA0F900F9B50
:108A20000E930E9B002B01D00E9B5CE0029B99687D
:108A3000029BDB689BB21A462E48FFF7CEFA0F90D6
:108A40000F9B0D930D9B002B01D00D9B4BE02A4BF0
:108A500004AC1D460FCD0FC495E80F0084E80F004D
:108A6000039B5B690A93039B1B7C002B14BF0123B0
:108A70000023DBB28DF824309DF803308DF82C30C4
:108A8000039B5B7C002B01D00E2300E000238DF8BC
:108A90002530039BDB680693039B9B680793039B2E
:108AA0001B680593039B5B68049304AB134A194648
:108AB000134805F0CDFF0F900F9B0C930C9B002BE0
:108AC00001D00C9B0FE00F4B00221A70039B1B6818
:108AD000B3F1FF3F06D001220B490948FFF7C0FE62
:108AE000034600E00023184611B030BDD437002003
:108AF000E0370020F037002030480400DD88020015
:108B0000842A0020DD370020DC37002000B587B044
:108B10000190019B002B03D11449CA2009F080FD6C
:108B2000134B1B788DF8173001991248FFF79CFA08
:108B300004909DF81730002B12D00D4B00221A70B4
:108B400001220D490D48FFF78BFE0390039B029312
:108B5000029B002B04D0054AD6210298FFF730F97A
:108B6000049B184607B05DF804FB00BF50480400A2
:108B7000DD370020E0370020DC370020842A002089
:108B800000B585B003468DF807309DF807301946CB
:108B90001048FFF74EFA0390039B002B15D10E48A7
:108BA000FFF730FE034683F00103DBB2002B0CD04D
:108BB0000A490848FFF758FA0346002B05D101225D
:108BC00006490548FFF7ECFD0390039B184605B0E6
:108BD0005DF804FBF0370020842A0020D8370020FD
:108BE00082B0EFF310830093009B019372B600BF35
:108BF000019B184602B0704762B600BF00BF7047C5
:108C000000B585B00190FFF7EBFF0390164B9B6812
:108C1000002B1BD1144B01229A60144BD3F88020F7
:108C2000134B1340104A1360104B114AC3F88020B5
:108C30000E4BD3F884300C4A53600C4B4FF0FF328C
:108C4000C3F88420019B00221A7002E0019B0122DC
:108C50001A70039B002B01D1FFF7CEFF00231846AB
:108C600005B05DF804FB00BF0038002000E100E023
:108C7000FC06FFBD00B585B003468DF80730104BEC
:108C80009B68002B16D09DF80730002B12D1FFF700
:108C9000A7FF03900B4A0A4B1B681360094A084B55
:108CA0005B685360064B00229A60039B002B01D146
:108CB000FFF7A2FF0023184605B05DF804FB00BFD4
:108CC0000038002000E100E000B583B0019000F022
:108CD0002BF80346012B03D00549432009F0A0FCE3
:108CE0000198FFF78DFF00BF03B05DF804FB00BFE4
:108CF0009C48040000B583B003468DF8073000F0AF
:108D000013F80346012B03D00649512009F088FCD3
:108D10009DF807301846FFF7ADFF00BF03B05DF8C0
:108D200004FB00BF9C48040084B0EFF3058301936B
:108D3000019BC3F308030393039B002B0DD1EFF3B7
:108D400014830093009B0293029B03F00103002B0A
:108D50000CBF01230023DBB200E00123184604B05E
:108D60007047000082B003468DF807309DF8073049
:108D700003F01F0205499DF907305B09012000FA45
:108D800002F241F8232000BF02B0704700E100E08A
:108D900082B003468DF807309DF8073003F01F02BC
:108DA00006499DF907305B09012000FA02F24033C1
:108DB00041F8232000BF02B0704700BF00E100E08F
:108DC00082B0034600918DF807309DF90730002BE3
:108DD0000CDA009BDAB20C499DF8073003F00F0360
:108DE000043B5201D2B20B441A7609E0009BDAB27E
:108DF00006499DF907305201D2B20B4483F8002393
:108E000000BF02B0704700BF00ED00E000E100E0ED
:108E100000B583B003460A468DF8073013468DF837
:108E200006309DF80630012B03D99DF80630032B40
:108E30000BD99DF80630042B03D99DF80630072B7B
:108E400003D908496B2009F0EBFB9DF806209DF93A
:108E5000073011461846FFF7B3FF00BF03B05DF8B7
:108E600004FB00BFEC48040000B583B003468DF856
:108E700007309DF907301846FFF774FF00BF03B0B5
:108E80005DF804FB00B585B00190019B002B0AD072
:108E9000074B43F001030393019B9B010293039B48
:108EA0000298984700E000BF05B05DF804FB00BFE2
:108EB000E049040084B0039002910192039B029A5E
:108EC00002F5A872019943F8221000BF04B0704760
:108ED00082B001900091019B009A02F5A87253F8AC
:108EE0002230184602B0704782B001900091019B79
:108EF000009AC3F8042300BF02B0704782B001900B
:108F00000091019B009AC3F8082300BF02B070478C
:108F100082B001900B46ADF80230BDF80230019AE4
:108F200013441B68184602B0704784B001900B468A
:108F3000ADF80230BDF80230019A134400221A60E5
:108F4000BDF80230019A13441B680393039B00BFD2
:108F500004B0704782B00190019BD3F804351846E5
:108F600002B0704700B583B001900091009BB3F54B
:108F7000805F04D306494FF4BE7009F051FB019B9A
:108F8000009AC3F8082500BF03B05DF804FB00BFDA
:108F90001C49040082B001900B468DF803309DF807
:108FA0000320019B13441A460123136000BF02B043
:108FB000704782B001900091019B009AC3F844234E
:108FC00000BF02B0704782B001900091019B009AEF
:108FD000C3F8482300BF02B07047000000B587B057
:108FE000039002910192039B002B03D1334955203A
:108FF00009F016FB029B002B03D13049562009F0E3
:109000000FFB019B002B03D12C49572009F008FBD3
:10901000039B5B7919462A4A019B42F82130039B46
:109020005B79284ADB0013441B79002B0ED0082300
:109030000593254A254BD31ADB081B0443F0020392
:1090400023491846FDF73CFE059B32E0039B1A6856
:10905000029B1B8819461046FFF784FF039B93F978
:109060000420029B9B7819461046FFF7D1FE039B14
:1090700093F904301846FFF7F7FE039B5B79114A1A
:10908000DB00134401221A71039B5B7919460D4AD8
:10909000039B42F83130002305930B4A0B4BD31A44
:1090A000DB081B0443F003030A491846FDF708FEDA
:1090B000059B184607B05DF804FB00BF4C4904004F
:1090C0000C380020103800205C4304001C430400CE
:1090D00094490400B849040000B583B00190019B95
:1090E000002B03D10649872009F09AFA019B1B68DF
:1090F00000211846FFF74EFF00BF03B05DF804FBE8
:109100004C49040000B583B00190019B002B03D1B2
:1091100006498D2009F084FA019B1B68042118463A
:10912000FFF738FF00BF03B05DF804FB4C490400B3
:1091300000B587B00390029101928DF80330039B34
:10914000002B03D12149962009F06AFA4FF48032AE
:10915000029B02FA03F30593029B50339BB29B00E0
:10916000ADF81230019B23F07F430193039B1B68F2
:1091700005991846FFF7C2FE039B1B680599184620
:10918000FFF721FF039B1B68BDF81220114618460C
:10919000FFF7CBFE039B1B68019A02991846FFF765
:1091A00089FE039B1B6805991846FFF702FF9DF88F
:1091B0000330002B05D0039B1B6805991846FFF769
:1091C00093FE00BF07B05DF804FB00BF4C490400EC
:1091D00000B585B00390029113468DF80730039BCC
:1091E000002B03D10B49A92009F01AFA039B1B6835
:1091F00002991846FFF7DDFE9DF80730002B05D0D9
:10920000039B1B6802991846FFF76EFE00BF05B06E
:109210005DF804FB4C49040000B583B00190009157
:10922000019B002B03D10A49B32009F0F9F9019BF6
:109230001B6800991846FFF7C6FE019B1B68009942
:109240001846FFF75BFE00BF03B05DF804FB00BFEC
:109250004C49040000B583B001900B46ADF80230D4
:10926000019B002B03D10F49BA2009F0D9F9019BCA
:109270001B68BDF8022011461846FFF749FE034659
:10928000002B09D0019B1B68BDF80220114618462F
:10929000FFF74BFE012300E00023184603B05DF802
:1092A00004FB00BF4C49040082B001900091019A78
:1092B000009BD31A23F07F43184602B0704700008A
:1092C00000B58BB00390029101920093039B002B99
:1092D00003D15749CD2009F0A3F94FF48032029B06
:1092E00002FA03F30993029B50339BB29B00ADF843
:1092F0002230019B23F07F43019309990398FFF7E4
:109300008BFF039B1B681846FFF724FE0790039B07
:109310001B6802991846FFF7DBFD0690039B1B684C
:10932000079A02991846FFF7C5FD039B1B68BDF815
:10933000222011461846FFF7F8FD07990698FFF717
:10934000B3FF0346012B0AD11020FFF79BFD039BBF
:109350001B68BDF8222011461846FFF7E6FD039B67
:109360001B681846FFF7F6FD079007990198FFF76D
:109370009BFF0590039B1B6809991846FFF719FE90
:10938000059B012B15D1039B1868019B01331A46DD
:109390000299FFF78FFD1020FFF774FD039B1B68F8
:1093A0001846FFF7D7FD0246079B934235D00D23A1
:1093B00039E0039B1B68019A02991846FFF77AFD72
:1093C000039B1B681846FFF7C5FD0790019B013BF7
:1093D00007991846FFF768FF0590009BC3F1FF133C
:1093E00003F57F43059A9A4201D90D231BE0059BA3
:1093F000002B12D1039B1868019B01331A46029976
:10940000FFF758FD039B1B681846FFF7A3FD0246B4
:10941000079B934201D00D2305E00122099903988F
:10942000FFF7D6FE002318460BB05DF804FB00BF23
:109430004C49040000B583B001900B468DF8033011
:109440009DF803301A4602210198FFF7C1FE00BFC4
:1094500003B05DF804FB00B583B001904FF4827156
:109460000198FFF7F7FE0346184603B05DF804FBCA
:1094700000B583B0019000914FF48032009B02FA56
:1094800003F319460198FFF7C7FE00BF03B05DF86C
:1094900004FB00B585B001900091009B50339BB256
:1094A0009B00ADF80E30BDF80E3019460198FFF75D
:1094B000D1FE0346184605B05DF804FB00B583B045
:1094C0000190019B1B681846FFF744FD03461846B0
:1094D00003B05DF804FB00B583B00190019B93F9E4
:1094E00004301846FFF754FC00BF03B05DF804FBDE
:1094F00008B5044B1B68044A12681046984700BF21
:1095000008BD00BF0C3800201038002086B0019044
:109510000091019B53E8011F8AB2D88902449889BF
:10952000824228BF121A1889824202BFBFF32F8FCE
:10953000002307E0C2EA010243E801200028E9D144
:109540004FF001038DF80F30059002910492029ABA
:10955000009B1A609DF80F30DBB2184606B07047CA
:1095600084B00190019951E8013FC3EA034341E807
:109570000132002AF7D10392029300BF04B0704772
:1095800086B001900091019B53E8021F1FFAA1F2DF
:10959000D888824202BFBFF32F8F00230DE0D88905
:1095A00002449889824228BF121AC1EA024243E863
:1095B00002200028E8D14FF001038DF80F3005900C
:1095C00002910492029A009B1A609DF80F30DBB260
:1095D000184606B0704784B00190019951E8023FE7
:1095E000C3EA234341E80232002AF7D103920293EF
:1095F00000BF04B0704786B00190019B53E8021F82
:10960000DA88B1EB314F4FF0000017BF89B242EA60
:10961000024241EA024204E05968B1EB314F08BF0F
:10962000012043E802210029E8D18DF80F000591BF
:1096300004929DF80F30DBB2184606B0704784B034
:109640000390029111461A460B46ADF806301346B8
:10965000ADF80430029B002B01D10E231FE0BDF8B2
:109660000630BDF80420B3FBF2F102FB01F29B1AB5
:109670009BB2002B01D0092311E0039B029A1A60D0
:10968000039B00225A60039B00229A60039BBDF853
:1096900006209A81039BBDF80420DA810023184636
:1096A00004B0704700B585B001900198FFF7A3FFA3
:1096B00003468DF80F309DF80F30002B01D00023AA
:1096C00000E01123184605B05DF804FB00B585B035
:1096D00001900091009B19460198FFF717FF034680
:1096E000002B07D0019B1B68009A12881344039338
:1096F000039B00E00023184605B05DF804FB00B5AD
:1097000083B001900091009B1A88009B5B889A426D
:1097100004D10198FFF724FF012300E0002318463D
:1097200003B05DF804FB00B585B001900091009B8B
:1097300019460198FFF724FF0346002B07D0019B31
:109740001B68009A528813440393039B00E0002394
:10975000184605B05DF804FB00B583B00190009198
:10976000009B1A88009B5B889A4204D10198FFF7FE
:1097700032FF012300E00023184603B05DF804FB2C
:1097800010B487B001900091019B009A53E8004FFC
:10979000104643E8000191F0000FF7D105940490C2
:1097A0000391059B184607B05DF8044B704710B451
:1097B00087B001900091019B009A53E8004F44EA62
:1097C000020043E8000191F0000FF6D105940490E7
:1097D0000391059B184607B05DF8044B704710B421
:1097E00087B001900091019B009A53E8004F44EA32
:1097F000020043E8000191F0000FF6D105940490B7
:109800000391049B184607B05DF8044B704710B4F1
:1098100087B001900091019B009A53E8004F04EA41
:10982000020043E8000191F0000FF6D10594049086
:109830000391059B184607B05DF8044B704710B4C0
:1098400087B001900091019B009A53E8004F04EA11
:10985000020043E8000191F0000FF6D10594049056
:109860000391049B184607B05DF8044B704710B491
:1098700087B001900091019B009A53E8004F04EBE0
:10988000020043E8000191F0000FF6D10594049026
:109890000391059B184607B05DF8044B704710B460
:1098A00087B001900091019B009A53E8004F04EBB0
:1098B000020043E8000191F0000FF6D105940490F6
:1098C0000391049B184607B05DF8044B704710B431
:1098D00087B001900091019B009A53E8004FA4EBE0
:1098E000020043E8000191F0000FF6D105940490C6
:1098F0000391049B184607B05DF8044B704700B510
:1099000083B0019001210198FFF751FF03461846EB
:1099100003B05DF804FB00B583B00190012101980C
:10992000FFF75DFF0346184603B05DF804FB00B582
:1099300083B0019000210198FFF769FF03461846A4
:1099400003B05DF804FB000000B583B001900B4646
:109950008DF80330019B002B03D10849E82008F063
:109960005FFE019BDA689DF803300199098A01FBCB
:1099700003F31344184603B05DF804FBE849040000
:1099800000B583B001900091019B002B03D10849E1
:10999000F52008F045FE009B019AD2689B1A019AB7
:1099A000128AB3FBF2F3DBB2184603B05DF804FB96
:1099B000E849040000B585B00190019B002B01D15E
:1099C0000E234CE0019B1B68002B03D12649FF208E
:1099D00008F026FE019B5B68002B04D122494FF45E
:1099E000807008F01DFE019B9B68002B04D11E496E
:1099F00040F2011008F014FE019BDB68002B04D13B
:109A000019494FF4817008F00BFE019B1B8A002B53
:109A100004D1154940F2031008F002FE019B9A6838
:109A2000019B5B68D31A8DF80F30019B1B68019A6C
:109A300052681A6007E0019B1A681368591C11608C
:109A40009DF80F201A709DF80F305A1E8DF80F20C8
:109A5000002BF0D1019B1B6800221A7100231846CD
:109A600005B05DF804FB00BFE849040000B585B00F
:109A70000190019B002B04D11F494FF4927008F014
:109A8000CFFD0023039300238DF80A300DF10A0364
:109A90001846FFF719F9019B1B681A68019B5B6860
:109AA0009A421FD9019B1B681A68013A1A601B6809
:109AB0001B7819460198FFF747FF0390019B9A68AE
:109AC000019B1B681B68D31A8DF80B30019B1B6828
:109AD0001B799DF80B209A4204D9019B1B689DF8C5
:109AE0000B201A719DF80A301846FFF703F9039B03
:109AF000184605B05DF804FBE849040010B584B0D1
:109B000001900091019B002B04D1154940F24710B0
:109B100008F086FD009B002B04D111494FF4A4707E
:109B200008F07EFD009B039300238DF80B300DF1B0
:109B30000B031846FFF7C8F8019B1B681C68621CE2
:109B40001A6003990198FFF71BFF034623709DF8E5
:109B50000B301846FFF7CEF800BF04B010BD00BFB1
:109B6000E849040000B583B00190019B002B03D1AC
:109B70000C49312008F054FD019B9B68002B0CD050
:109B8000019B5B69019A1069019A1168019A9268B8
:109B90009847019B00229A6000E000BF03B05DF887
:109BA00004FB00BF344A04000EB400B584B0019039
:109BB000019B002B03D11849422008F031FD019B85
:109BC0005B69002B03D11449432008F029FD019B58
:109BD0001B68002B03D11049442008F021FD019B94
:109BE0005B68002B03D10C49452008F019FD059B4B
:109BF000002B0AD00023039306AB039303AB1A4652
:109C00000599019800F0B8F900E000BF04B05DF8D4
:109C100004EB03B0704700BF344A040000B583B0C2
:109C200001900B468DF803309DF803300A2B03D1C9
:109C30000D210198FFF7F2FF019B1A68019B9B68B9
:109C4000581C0199886013449DF803201A70019BE9
:109C50009A68019B5B689A4202D30198FFF782FFE2
:109C600000BF03B05DF804FB00B587B0039002911C
:109C70000192009300230593009B03F00103002B46
:109C800024D00BE0029B01330293059B0133059323
:109C90009DF8133019460398FFF7C0FF029B1B780D
:109CA0008DF813309DF81330002BEBD106E0019BAB
:109CB000013B019320210398FFF7B0FF019A059B18
:109CC0009A422ED9019B002BF1D12AE0029B002B56
:109CD0000BD0029817F0C5F9059006E0019B013BF7
:109CE000019320210398FFF799FF019A059B9A425F
:109CF0000FD9019B002BF1D10BE0029B01330293A2
:109D0000059B013305939DF8133019460398FFF71F
:109D100085FF029B1B788DF813309DF81330002BC4
:109D2000EBD100BF07B05DF804FB000000B589B0BF
:109D30000390029101920093029B079301230693E3
:109D400007E0079A019BB2FBF3F30793069B0133ED
:109D50000693079A019B9A42F3D2009A069B9A4275
:109D600001D9009B06930B9B03F00103002B22D12A
:109D70000A9B002B1FD00B9B03F00203002B06D085
:109D8000009B002B03D130238DF8173002E02023F5
:109D90008DF8173008E00A9B013B0A939DF81730B5
:109DA00019460398FFF73AFF0A9B002B03D0069A47
:109DB0000A9B9A42EFD301230793009B012B03D9FF
:109DC000009B013B009309E0029A079BB2FBF3F36F
:109DD0000493049A019B9A4200D205E0079B019AE2
:109DE00002FB03F30793E8E7029A079BB2FBF3F346
:109DF0000493049B079A02FB03F3029AD31A02937B
:109E0000154A049B13441B7819460398FFF706FF75
:109E1000079A019BB2FBF3F30793079B002BE3D157
:109E20000B9B03F00103002B11D00A9B002B0ED0DB
:109E300006E00A9B013B0A9320210398FFF7EEFE00
:109E40000A9B002B03D0069A0A9B9A42F1D300BFCB
:109E500009B05DF804FB00BFC04A040000B589B03A
:109E60000590049103920293049B002BB8BF5B42C0
:109E700006930123079307E0039B069A92FBF3F3F3
:109E80000693079B01330793039B069A9A42F3DAE2
:109E9000029A079B9A4201D9029B07930A9B002BC7
:109EA0000AD0049B002B04DB0B9B03F00403002B64
:109EB00002D00A9B013B0A930B9B03F00203002B89
:109EC00002D0029B002B16D00B9B03F00103002B4A
:109ED00011D10A9B002B0ED006E00A9B013B0A938E
:109EE00020210598FFF79AFE0A9B002B03D0079AC2
:109EF0000A9B9A42F1D3049B002B07DA049B5B4236
:109F000004932D210598FFF789FE08E00B9B03F0D1
:109F10000403002B03D02B210598FFF77FFE0B9B3A
:109F200003F00203002B19D00B9B03F00103002B5D
:109F300014D1029B002B11D10A9B002B0ED006E0FE
:109F40000A9B013B0A9330210598FFF767FE0A9BA5
:109F5000002B03D0079A0A9B9A42F1D304990B9BDA
:109F600001930A9B0093029B039A0598FFF7DEFE7C
:109F700000BF09B05DF804FB00B58FB005900491F7
:109F80000392059B002B04D1B64940F2522008F001
:109F900047FB059B5B69002B04D1B2494FF4157058
:109FA00008F03EFB059B1B68002B04D1AD4940F235
:109FB000552008F035FB059B5B68002B04D1A949AF
:109FC00040F2562008F02CFB049B002B00F09381FC
:109FD000049B1B788DF83730049B013304939DF864
:109FE0003730002B00F07E819DF83730252B40F074
:109FF0006D8100230A9301230C93049B1B788DF839
:10A0000037309DF83730302B0DD0302B1BDC2B2B0D
:10A0100011D02D2B17D10A9B43F001030A93049B07
:10A020000133049312E00A9B43F002030A93049B5A
:10A03000013304930AE00A9B43F004030A93049B50
:10A040000133049302E000230C9300BF0C9B002B10
:10A05000D3D1002309939DF837302A2B0CD1039BD1
:10A060001B68191D039A11601B68099A1344099310
:10A07000049B013304931AE0049B1B788DF837305E
:10A080009DF837302F2B12D99DF83730392B0ED849
:10A09000049B01330493099A13469B0013445B000D
:10A0A0001A469DF837301344303B0993D3E7002319
:10A0B0000B93049B1B788DF837309DF837302E2B8F
:10A0C0001DD1049B01330493049B1B788DF837301A
:10A0D0009DF837302F2B12D99DF83730392B0ED8F9
:10A0E000049B013304930B9A13469B0013445B00BB
:10A0F0001A469DF837301344303B0B93E4E7049B3A
:10A100001B788DF837309DF837306C2B03D09DF8D5
:10A110003730682B07D1049B01330493049B1B78D1
:10A120008DF83730EFE79DF83730252B00F0C480ED
:10A13000252BC0F2C680782B00F3C380582BC0F2C9
:10A14000C080583B202B00F2BC8001A252F823F0C3
:10A150003FA20200C3A20200C3A20200C3A20200E7
:10A16000C3A20200C3A20200C3A20200C3A2020053
:10A17000C3A20200C3A20200C3A20200D5A1020032
:10A18000F7A10200C3A20200C3A20200C3A2020000
:10A19000C3A20200F7A10200C3A20200C3A20200F0
:10A1A000C3A20200C3A20200C3A20200C3A2020013
:10A1B00085A20200C3A20200C3A2020069A202009B
:10A1C000C3A202001BA20200C3A20200C3A202009B
:10A1D0003FA20200039B1B68191D039A11601B68B4
:10A1E0000C930C9B8DF81F309DF81F301946059875
:10A1F000FFF714FD66E0039B1B68191D039A1160AD
:10A200001B680C930A9B0193099B00930B9B0A22EA
:10A210000C990598FFF722FE54E0039B1B68191D5B
:10A22000039A11601B680C930C990A9B0193099B7C
:10A2300000930B9B0A220598FFF778FD42E0039BF1
:10A240001B68191D039A11601B680C930C990A9BDB
:10A250000193099B00930B9B10220598FFF766FD65
:10A2600030E000BF784A0400039B1B68191D039A65
:10A2700011601B6808930A9B099A08990598FFF7D3
:10A28000F3FC1FE0039B1B68191D039A11601B68F8
:10A290000C9330210598FFF7C1FC78210598FFF752
:10A2A000BDFC0C990023019308230093082310227E
:10A2B0000598FFF73BFD05E025210598FFF7AEFC6B
:10A2C00000E000BF049B0133049305E09DF83730A4
:10A2D00019460598FFF7A2FC049B1B78002B7FF41E
:10A2E00077AE00E000BF059B1B7B002B04D00598D8
:10A2F000FFF738FC00E000BF0FB05DF804FB00BFC3
:10A3000000B583B001900198FFF754FB034618464F
:10A3100003B05DF804FB00B58BB001900091019B88
:10A320001B8A043B0793009A079B1344DA1C079B84
:10A33000B2FBF3F38DF81B300198FFF797FB059004
:10A34000059B002B01D1002338E0059B00221A71E8
:10A35000059B01225A71079B9AB2059BDA80059BE7
:10A3600009939DF81B30013B0493099B019A1A60E5
:10A37000002308931DE00198FFF778FB0390039BEF
:10A38000002B0ED0059B5B790133DAB2059B5A7125
:10A39000099B039A1A60039B019A1A60039B099315
:10A3A00004E0059800F00EF8002307E0089B013355
:10A3B0000893089A049B9A42DDD3059B18460BB07C
:10A3C0005DF804FB00B58BB00190019B0793079BE0
:10A3D0005B798DF81B30019B08939DF81B30013B86
:10A3E00005930023099305E0089B1B680893099BCC
:10A3F00001330993099A059B9A42F5D3089B1B6880
:10A400000493019B0893002309930BE0089B1B68AE
:10A41000039308990498FFF771FB039B0893099B2A
:10A42000013309939DF81B30099A9A42EED300BF7D
:10A4300000BF0BB05DF804FB00B585B00190019B37
:10A440000393039B043301211846FFF728FA00BF4A
:10A4500005B05DF804FB00B587B00190019B059342
:10A46000059B043301211846FFF731FA0346039395
:10A4700003AB0493049B1B78002B02D10198FFF7D8
:10A48000A1FF00BF07B05DF804FB000000B591B06C
:10A490000390029101920093039B002B03D1434947
:10A4A000B62008F0BDF8039B0993039B0F93099B0B
:10A4B000DB881A46099B5B7903FB02F3043B089394
:10A4C000009A089B9A4203D33849C42008F0A8F8A0
:10A4D000099BDB880793009B1A1D079BB2FBF3F3D4
:10A4E0000E93009B0433079AB3FBF2F2079901FB2A
:10A4F00002F29B1A0D93019B1A68009B1344089A61
:10A500009A4203D2089A009BD31A01E0019B1B6870
:10A510000C93019B0C9A1A6005E00F9B1B680F932C
:10A520000E9B013B0E930E9B002BF6D100230B9349
:10A53000079A0D9BD31A0A930A9A0C9B934228BF41
:10A5400013460A932AE0029A0B9B134406930F9A30
:10A550000D9B1344043305939DF84830002B05D020
:10A560000A9A0599069816F0FEFC04E00A9A0699E4
:10A57000059816F0F8FC00230D930F9B1B680F93B2
:10A580000C9A0A9BD31A0C930B9A0A9B13440B93B5
:10A59000079A0C9B934228BF13460A930C9B002BEF
:10A5A000D1D100BF00BF11B05DF804FBD04A040058
:10A5B00000B589B00590049103920293039B079321
:10A5C00007AA00230093029B04990598FFF75EFFFA
:10A5D000079B039A9A4203D00349F62008F020F81B
:10A5E00000BF09B05DF804FBD04A040000B589B093
:10A5F0000590049103920293039B079307AA0123FA
:10A600000093029B04990598FFF740FF079B039A6C
:10A610009A4204D004494FF4807008F001F800BF5A
:10A6200009B05DF804FB00BFD04A040082B00346C5
:10A630008DF807309DF8073003F01F0206499DF999
:10A6400007305B09012000FA02F2603341F8232051
:10A6500000BF02B0704700BF00E100E0BFF34F8FC2
:10A6600000BF074BDB6803F4E0620549054B134369
:10A67000CB60BFF34F8F00BF00BF00BFFCE700BF40
:10A6800000ED00E00400FA0500B583B00190019BE5
:10A69000002B03D10449C42007F0C2FF019B5B6873
:10A6A000184603B05DF804FB1C4B040000B583B0F2
:10A6B0000190019B002B03D10649722007F0B0FFE7
:10A6C000019B00221A60BFF35F8F00BF00BF03B081
:10A6D0005DF804FB704B040000B585B00190019B50
:10A6E000002B03D10A49852007F09AFF0121019828
:10A6F000FFF746F80390BFF35F8F00BF039B002B6B
:10A700000CBF01230023DBB2184605B05DF804FB43
:10A71000704B040000B583B00190019B002B03D166
:10A720000A49922007F07CFF019B1B68012B03D094
:10A730000649932007F074FFBFF35F8F00BF019BB2
:10A7400000221A6000BF03B05DF804FB704B0400E8
:10A7500033DF704700BF184641DF704700BF18461F
:10A760004FF080430122C3F80025BFF34F8F00BF95
:10A7700020BF00BFFCE7000000B585B000238DF8C6
:10A7800003300DF103031846FEF79EFAF1EE103A7E
:10A790000193019B0393039B23F09F030293029B6E
:10A7A000E1EE103A00BFBFF35F8F00BF2620FFF736
:10A7B0003DFF9DF803301846FEF79CFA039B03F01B
:10A7C0000703002B03D004497D2007F029FF00BFB9
:10A7D00005B05DF804FB00BFB44B040008B5064BA0
:10A7E00000221A700548FFF761FF0549054800F08F
:10A7F000A9FB0023184608BD203800201C38002083
:10A80000044C04002438002000B583B0FFF7B4FFE7
:10A8100013F060FC0346002B0ED0FFF79DFF019064
:10A82000019B002B0ED0019B022B0BD007494FF44C
:10A83000B07007F0F5FE05E020BF00BF40BF00BFCD
:10A8400020BF00BF00BF03B05DF804FBB44B0400A1
:10A8500000B583B00FE02348FFF716FF0190019B7E
:10A860001B68214A1278104698470346002B34D0C3
:10A870001C4800F091FB1B48FFF706FF0346002B26
:10A88000E9D1FCF7A5FD00BFFCF762FB0346002BF6
:10A89000FAD1154B1B78032B03D0134B1B78022BDB
:10A8A00002D1FFF7DBFE19E013F014FC0346002B86
:10A8B00010D0FFF74DFF0090009B002B07D0009BAE
:10A8C000022B04D009494FF4D17007F0A9FE20BF34
:10A8D00000BFFCE7FFF744FF00E000BF03B05DF8F6
:10A8E00004FB00BF2438002018380020B44B0400BB
:10A8F00000B583B003468DF807301748FFF7ECFE2C
:10A90000034683F00103DBB2002B21D19DF8073011
:10A91000042B0ED0114B1B78002B03D00E48FFF7F1
:10A92000F9FE16E00E4A9DF8073013700B4B01221A
:10A930001A700A4B1B78002B04D10A4940F2D5103B
:10A9400007F06EFEFFF784FF0348FFF7E3FE00E029
:10A9500000BF03B05DF804FB1C3800202038002045
:10A9600018380020B44B040082B00190019B9B6812
:10A97000024A12781344184602B07047594C04003A
:10A9800000B583B001900091019B002B03D10849D1
:10A99000832007F045FE019B9B68009A9A4202D2F1
:10A9A000009B013300E00023184603B05DF804FB70
:10A9B000104C040000B585B00190019B1B681B681A
:10A9C0000393019B1B685B680293029A039B9A4264
:10A9D00003D3029A039BD31A07E00198FFF7C4FF41
:10A9E0000246039BD21A029B1344184605B05DF839
:10A9F00004FB000000B585B00190019B002B03D142
:10AA00000D49982007F00CFE019B1B681B680393FF
:10AA1000019B1B685B68029302990198FFF7B0FFE6
:10AA20000246039B93420CBF01230023DBB218466E
:10AA300005B05DF804FB00BF104C040010B588B0F1
:10AA40000190009100230793019B002B03D15649ED
:10AA5000A32007F0E5FD009B002B03D15249A42061
:10AA600007F0DEFD00238DF80F300DF10F031846BF
:10AA7000FEF72AF90198FFF7BDFF03468DF81B305A
:10AA80009DF81B3083F00103DBB2002B03D1019B47
:10AA90001B7C002B7BD1019B1B685B680593019B92
:10AAA0001B685A68019B1C6811460198FFF768FFF4
:10AAB000034663609DF81B30002B0AD0019B1B6886
:10AAC0001A68019B1C6811460198FFF759FF03465D
:10AAD0002360019BDB68013B072B38D801A252F8A9
:10AAE00023F000BF05AB020015AB02004FAB020024
:10AAF00027AB02004FAB02004FAB02004FAB02008E
:10AB000039AB0200019B5A68059B1344009A1278E6
:10AB10001A702DE0019B5A68059B5B001344009A54
:10AB200012881A8024E0019B5A68059B9B001344FD
:10AB3000009A12681A601BE0019B5A68059BDB00B3
:10AB4000D118009BD3E90023C1E9002310E0019B49
:10AB50005B681946019BDB68059A02FB03F30B4413
:10AB60001846019BDB681A46009916F0FCF900BFF5
:10AB70000198FFF71FFF0490019B1B689B68049AD4
:10AB80009A4207D9019B1B68049A9A6002E0042349
:10AB9000079300E000BF9DF80F301846FEF7AAF8B3
:10ABA000079B184608B010BD104C040010B588B0C3
:10ABB0000390029113468DF8073000230793039BFF
:10ABC000002B03D14549E72007F02AFD029B002B0B
:10ABD00003D14249E82007F023FD00238DF8173008
:10ABE0000DF117031846FEF76FF8039800F06CF9A3
:10ABF000034683F00103DBB2002B63D0039B1B6889
:10AC00001B6806939DF8073083F00103DBB2002B2D
:10AC10000AD0039B1B681A68039B1C6811460398A3
:10AC2000FFF7AEFE03462360039BDB68013B072B67
:10AC300037D801A252F823F059AC020069AC0200E7
:10AC4000A3AC02007BAC0200A3AC0200A3AC0200E8
:10AC5000A3AC02008DAC0200039B5A68069B134410
:10AC60001A78029B1A702FE0039B5A68069B5B00C0
:10AC700013441A88029B1A8026E0039B5A68069B9D
:10AC80009B0013441A68029B1A601DE0039B5A68DC
:10AC9000069BDB001344D3E900230299C1E900239A
:10ACA00012E0039B5B681946039BDB68069A02FB74
:10ACB00003F30B441946039BDB681A46029816F00F
:10ACC00052F901E0052307939DF817301846FEF767
:10ACD00011F8079B184608B010BD00BF104C0400C7
:10ACE00000B585B001900B468DF80330019B1B68C1
:10ACF0001B680393019B1B685B6802939DF80330FC
:10AD0000002B0ED0029A039B9A4206D30198FFF7BC
:10AD10002BFE0246029BD31A11E0039A029BD31A20
:10AD20000DE0029A039B9A4203D3029A039BD31A23
:10AD300005E00198FFF718FE0246039BD31A184658
:10AD400005B05DF804FB00B58BB003900291019251
:10AD5000039B1B681B68099300210398FFF7C0FF42
:10AD60000890039B5B681946039BDB68099A02FB0A
:10AD700003F30B440793019A089B9A4219D8039B4B
:10AD8000DB68019A02FB03F31A460799029816F052
:10AD9000EAF8099A019B1A44039B9B689A4203D8DC
:10ADA000099A019B134400E00023039A1268136080
:10ADB00020E0039BDA68089B02FB03F30693069AE4
:10ADC0000799029816F0CFF8019A089BD31A0593B9
:10ADD000029A069B13441846039B5968039BDB6841
:10ADE000059A02FB03F31A4616F0BDF8039B1B6895
:10ADF000059A1A6000BF0BB05DF804FB00B587B080
:10AE000003900291019200230593039B002B04D130
:10AE100019494FF4EC7007F003FC029B002B04D19E
:10AE2000154940F2D91007F0FBFB019B002B01D123
:10AE300000231CE000238DF813300DF11303184696
:10AE4000FDF742FF0398FFF7B5FD0246019B9342D1
:10AE500005D8019A02990398FFF775FF01E00523D1
:10AE600005939DF813301846FDF744FF059B1846DF
:10AE700007B05DF804FB00BF104C040000B585B0BE
:10AE80000190019B002B04D10E494FF4047007F090
:10AE9000C7FB00238DF80F300DF10F031846FDF7A7
:10AEA00013FF019B1B680C220021184616F084F842
:10AEB0009DF80F301846FDF71DFF00BF05B05DF887
:10AEC00004FB00BF104C040000B585B00190019B4D
:10AED000002B04D10B4940F22B2007F0A1FB019B72
:10AEE0001B681B680393019B1B685B680293039AB2
:10AEF000029B9A420CBF01230023DBB2184605B027
:10AF00005DF804FB104C040082B00190019B9B682B
:10AF100000229A60019B9B6800221A61019B9B683A
:10AF200000225A61019B9B680022DA60019B9B68AA
:10AF300000225A60019B9B6800221A6000BF02B089
:10AF40007047000000B583B001900091019B002B79
:10AF500003D11049502007F063FB009B002B03D165
:10AF60000C49512007F05CFB019B009A1A60019B81
:10AF70001B681A68019B5A60019B5A68019B1B68F9
:10AF80005B689A4202D1019B00225A6000BF03B065
:10AF90005DF804FB5C4C040000B583B00190019B9C
:10AFA000002B03D11449632007F03AFB019B1B6877
:10AFB000002B03D11049642007F032FB019B5B6832
:10AFC000002B14D0019B5B681A46019B1B689B6891
:10AFD00013441A46019B5A60019B5A68019B1B68E7
:10AFE0005B689A4204D1019B00225A6000E000BFD6
:10AFF00003B05DF804FB00BF5C4C040000B585B0F5
:10B0000001900091019B002B03D118493A2007F0D1
:10B0100007FB009B002B03D114493B2007F000FBEA
:10B02000019B5B6803930FE0019B9B68039A126886
:10B03000009910469847034683F00103DBB2002BCA
:10B0400007D1039B1B680393039B1B68002BEBD169
:10B0500000E000BF039B1A68009B1A60039B009AE4
:10B060001A6000BF05B05DF804FB00BFCC4C0400C3
:10B0700000B585B00190019B002B03D10C495120F4
:10B0800007F0CEFA019B5B681B680393019B5B682A
:10B090001B68002B06D0019B5B681A68019B5B68EC
:10B0A00012681A60039B184605B05DF804FB00BFE8
:10B0B000CC4C040000B583B00190019B002B03D160
:10B0C00005495D2007F0ACFA019B5B681B681846D8
:10B0D00003B05DF804FB00BFCC4C040000B585B0A4
:10B0E00001900091019B002B03D11649692007F0C4
:10B0F00097FA009B002B03D112496A2007F090FABF
:10B1000000238DF80B30019B5B6803930FE0039BDA
:10B110001B68009A9A4207D1009B1A68039B1A6029
:10B1200001238DF80B3006E0039B1B680393039B00
:10B130001B68002BEBD19DF80B30184605B05DF86D
:10B1400004FB00BFCC4C040000B585B00190019811
:10B1500000F00EF80390039B002B01D0039B00E04E
:10B16000024B184605B05DF804FB00BF1C4D0400FF
:10B1700086B00190164B0593164B04931FE0049A7A
:10B18000059BD31ADB10DA0F13445B10DB00059A22
:10B1900013440393039B1B680293029A019B9A42F8
:10B1A00002D9039B04930AE0029A019B9A4203D2BC
:10B1B000039B0833059302E0039B5B6804E0059A58
:10B1C000049B9A42DBD30023184606B0704700BFA9
:10B1D0001C5104004452040082B00190019B03F012
:10B1E0000303002B0CBF01230023DBB2184602B07F
:10B1F0007047000000B585B00190002303930EE076
:10B200000B4A039B52F82330002B05D0084A039BBE
:10B2100052F8233001989847039B01330393039B13
:10B22000032BEDD900BF00BF05B05DF804FB00BFE4
:10B230003C38002082B001900091019B1B78013BBB
:10B24000052B61D801A252F823F000BF65B20200BD
:10B250006DB2020093B20200C5B20200E5B2020074
:10B2600001B30200009B00221A704EE0009B0122F5
:10B270001A70019B1A89009B9A81019B9A88009BF6
:10B28000DA81019BDA68009B9A60009B00221A74A5
:10B290003BE0009B02221A70019B1A89009B9A8155
:10B2A000019B9A88009BDA81019BDA68009B9A6077
:10B2B000019B9B7D062B0CBF01230023DAB2009B70
:10B2C0001A7422E0009B03221A70019BDA88009B0B
:10B2D0009A81019B1A89009BDA81019BDA68009BA5
:10B2E0009A6012E0009B04221A70019BDA88009B8E
:10B2F0009A81009B0022DA81009B00229A6004E080
:10B30000009B05221A7000E000BF00BF02B070472A
:10B3100084B001900091019B0393039A009B9A4291
:10B3200006D2039B1B68B3F1FF3F01D0012300E06D
:10B33000002303F00103DBB2184604B0704782B06B
:10B340000190019B5B8803339B00019A13441846CC
:10B3500002B0704700B583B0019000910198FFF7EB
:10B36000EEFF0246009B934201D2022311E0019BB3
:10B370009B884FF6FF72934208D0019B1B88002BDD
:10B3800004D0019B9B68B3F1FF3F01D1012300E092
:10B390000023184603B05DF804FB000000B583B03D
:10B3A0000190019B002B13D00D4BDB681A46019BCB
:10B3B00093420DD30A4B1B691A46019B934207D84F
:10B3C0000198FFF709FF0346002B01D0012300E09D
:10B3D000002303F00103DBB2184603B05DF804FB61
:10B3E000282A002082B00190019B002B04D0019BF1
:10B3F0001B680B4A934201D003230DE0019B0433E9
:10B400001B68084A934204D0074A934203D10123A0
:10B4100002E0002300E00323184602B0704700BF9B
:10B42000DEC0ADDEFE011EF1FF011EF184B0019011
:10B43000019B1B68B3F1FF3F06D0019B1B680E4ABE
:10B44000934201D0002314E0012303930CE0039BFB
:10B450009B00019A13441B68B3F1FF3F01D0002306
:10B4600007E0039B01330393039BB3F5806FEED397
:10B470000123184604B07047DEC0ADDE82B003463B
:10B480000A46ADF806301346ADF80430BDF8062084
:10B49000134913469B0013449B000B4408331A883E
:10B4A000BDF804301344ADF80430BDF806200C4953
:10B4B00013469B0013449B000B440A331A88BDF8C3
:10B4C00004301344ADF80430BDF80430B3F5806F98
:10B4D00094BF01230023DBB2184602B0704700BFBF
:10B4E000EC38002084B00190009148F20963039386
:10B4F0000023ADF80A3027E0BDF80A2016491346AC
:10B500009B0013449B000B4404331B68009A9A422F
:10B5100015D9BDF80A20104913469B0013449B001F
:10B520000B4404331B6803F58053009A9A4206D2F9
:10B5300000230393019BBDF80A201A8008E0BDF8A0
:10B540000A300133ADF80A30BDF80A30012BD3D9E7
:10B55000039B184604B07047EC38002000B589B052
:10B56000039002910192039B03F580530693039B82
:10B5700008330393029B02221A80039B079332E055
:10B5800006990798FFF7E6FE03468DF817309DF8F9
:10B590001730002B0AD1079B9A68184B1B689A42F8
:10B5A00013D9079B9B68154A13600EE0019B002B83
:10B5B00002D0019B01221A709DF81730022B04D192
:10B5C000029B4FF480621A8014E0029B1A88079B4A
:10B5D0005B8813449BB203339AB2029B1A8007988C
:10B5E000FFF7ADFE079006990798FFF791FE034617
:10B5F000002BC5D109B05DF804FB00BF4C3800201A
:10B6000082B001900091009B9B7D022B09D9019B88
:10B610001A89009BDB8813449BB203339AB2019BC7
:10B620001A81019B5A89009BDB88D31A9BB2033B8A
:10B630009AB2019B5A8100BF02B0704700B583B037
:10B64000074B1B681946002300930823054A064848
:10B6500001F07AFD0346184603B05DF804FB00BF15
:10B660001439002088520400282A002000B585B033
:10B6700003900399002300930823044A044801F02F
:10B6800063FD0346184605B05DF804FB90520400C4
:10B69000282A002000B585B003460091ADF8063099
:10B6A00000238DF80F30BDF806300333ADF80A30B3
:10B6B000BDF80A3040F2FE32934202D948F20863E4
:10B6C0004BE00023ADF80C303BE0BDF80C202549E1
:10B6D00013469B0013449B000B441B78002B2BD17B
:10B6E000BDF80A20BDF80C3011461846FFF7C6FE1B
:10B6F0000346002B20D001238DF80F30009BBDF8AE
:10B700000C201A80BDF80C20164913469B001344E8
:10B710009B000B440A331988BDF80C20BDF80A3091
:10B720000B4498B20F4913469B0013449B000B44F3
:10B730000A3302461A8008E0BDF80C300133ADF838
:10B740000C30BDF80C30012BBFD99DF80F30002B09
:10B7500001D0002301E048F20663184605B05DF809
:10B7600004FB00BFEC38002082B003460A46ADF867
:10B7700006301346ADF80430BDF804200D491346D9
:10B780009B0013449B000B440A331A88BDF8063013
:10B79000D31A9BB2BDF80420033B98B20549134667
:10B7A0009B0013449B000B440A3302461A8000BFDF
:10B7B00002B07047EC38002008B501210248FEF7BE
:10B7C0006EF80346184608BD4C38002000B585B019
:10B7D00003460091ADF80630BDF806202449134613
:10B7E0009B0013449B000B4404331B6803F58053F8
:10B7F0000293009B1B680393039B002B04D00398C8
:10B80000FFF79DFD039026E0BDF80620184913467A
:10B810009B0013449B000B4404331B6808330393C1
:10B8200019E002990398FFF795FD0346022B10D00B
:10B83000022B10DC002B02D0012B05D00BE0009B6B
:10B84000039A1A6001230EE00398FFF778FD039036
:10B8500001E0002307E002990398FFF759FD034632
:10B86000002BDED10023184605B05DF804FB00BFB5
:10B87000EC38002000B585B001900091019B5B6819
:10B880001846FFF78BFD0346002B19D0019B1A8940
:10B89000244B1B899A4213D1019B1A68019B5B6858
:10B8A0009B689A420CD1019B5B6819460098FFF790
:10B8B00019FE0346002B0CBF01230023DBB22CE052
:10B8C000009B00221A8023E00023029310E0029BD9
:10B8D0000393039B9A68019B1B689A4208D1029AC2
:10B8E000019B5A600F4B1A89019B1A81012314E0B6
:10B8F000009B1B8802AA11461846FFF767FF034604
:10B90000002BE4D1009B1B8801339AB2009B1A8064
:10B91000009B1B88012BD7D90023184605B05DF882
:10B9200004FB00BF1C39002000B587B003900291D2
:10B9300001920093324B1B78DBB283F00103DBB240
:10B94000002B02D048F2016355E0019B002B02D08E
:10B95000009B002B49D148F204634CE0009B9B887C
:10B960001946284A0B469B000B449B0013441B7846
:10B97000002B33D124E0009B1B680593039B002B15
:10B9800006D0059B9A88039B1B889A4200D017E03B
:10B99000029B002B06D0059B1A88029B1B889A42AB
:10B9A00000D00DE0059B9A68019B1A60009B1A6805
:10B9B000019B5A60144B1A89019B1A8100231AE0DB
:10B9C000009B9B88009A11461846FFF7FFFE03462E
:10B9D000002BD0D1009B00221A6000E000BF009B2A
:10B9E0009B8801339AB2009B9A80009B9B88012B15
:10B9F000B4D948F20963184607B05DF804FB00BFEC
:10BA00002C380020EC3800201C39002000B587B00D
:10BA10000291019200930346ADF80E30BDF80E205E
:10BA2000324913469B0013449B000B4404331B68AC
:10BA300008330593BDF80E202C4913469B00134490
:10BA40009B000B4404331B6803F58053049342E0CE
:10BA500004990598FFF77EFC0346022B25D0022BA4
:10BA600038DC002B16D0012B34D1019B1B8801330D
:10BA70009AB2019B1A80009B1A88059B5B8813442D
:10BA80009BB203339AB2009B1A800598FFF757FCCC
:10BA9000059020E0029B1B8801339AB2029B1A801A
:10BAA0000598FFF74CFC059015E0019B1B880133BE
:10BAB0009AB2019B1A80009B1A880499059BCB1AA5
:10BAC0009B109BB213449AB2009B1A80089B0122E0
:10BAD0001A7007E000BF04990598FFF719FC0346A8
