:020000022000DC
:10600000000001205D630200456302004763020057
:10601000496302004B6302004D6302000000000070
:106020000000000000000000000000004F630200BC
:106030005163020000000000536302005563020038
:106040003187020057630200718B02005763020020
:106050005763020057630200ED8902005763020094
:106060005763020057630200576302005763020040
:106070005763020057630200576302005763020030
:10608000576302000577020057630200576302005E
:10609000576302005763020005AF02005763020016
:1060A0005763020057630200576302005763020000
:1060B0005763020057630200000000000000000068
:1060C00057630200576302005763020057630200E0
:1060D000576302005763020057630200000000008C
:1060E00000000000000000000000000000000000B0
:1060F00000000000000000000000000000000000A0
:10610000000000000000000000000000000000008F
:10611000000000000000000000000000000000007F
:10612000000000000000000000000000000000006F
:10613000000000000000000000000000000000005F
:10614000000000000000000000000000000000004F
:10615000000000000000000000000000000000003F
:10616000000000000000000000000000000000002F
:10617000000000000000000000000000000000001F
:10618000000000000000000000000000000000000F
:1061900000000000000000000000000000000000FF
:1061A00000000000000000000000000000000000EF
:1061B00000000000000000000000000000000000DF
:1061C00000000000000000000000000000000000CF
:1061D00000000000000000000000000000000000BF
:1061E00000000000000000000000000000000000AF
:1061F000000000000000000000000000000000009F
:10620000314932480A1A02D0072291438D4630495B
:1062100030480A1A06D00722914381F309880222E6
:1062200082F314882C482D492D4A00F03CF82D4863
:106230002D492E4A00F037F82D482E492E4A00F0FD
:1062400032F82E482E492F4A00F02DF82E482F49BB
:106250002F4A00F028F82F482F49304A00F023F841
:106260002F483049304A00F01EF8304830490022AB
:1062700000F024F82F483049002200F01FF82F4A80
:1062800090471F481F49884205D00268043003B474
:10629000904703BCF7E700208646EC46002000212B
:1062A000274A9047FEE7884207D0521A05D0037864
:1062B00001300B700131013AF9D17047884202D0A8
:1062C00002700130FAE770470000012000E0002072
:1062D000000001200000012028C50200B81D002098
:1062E000E4230020B8630200B863020026B4020071
:1062F00028C50200B81D0020B81D00206CB50200A2
:106300006CB502006CB502006CB502006CB5020001
:106310006CB502006CB502006CB5020026C5020027
:1063200054CB0200E4230020E4230020E4230020D7
:10633000642E0020642E0020642E0020856302005D
:10634000AD970200FEE7FEE7FEE7FEE7FEE7FEE7A9
:10635000FEE7FEE7FEE7FEE700F002B8FFF7FCBF4E
:106360000F484FF00701884385460E4880470E4886
:10637000016841F470010160BFF34F8FBFF36F8F6D
:10638000FFF73EBF09480A490A4A884207D0521A15
:1063900005D0037801300B700131013AF9D1704713
:1063A00000000120F981020088ED00E06CB50200D8
:0863B000B81D0020B81D0020FB
:1063B800F0B595B01D46164608460C4601F050FD4E
:1063C8001A9B0D93CDE9086500252B46082205A9DF
:1063D80020460A958DF82C500C9501F05EFD079B20
:1063E8000293069B03939DF814308DF8115003F027
:1063F8000302012A1DD1BDF81420059DC3F3C20371
:10640800C2F383168DF81030B20008230EA9204677
:1064180001F043FDC5F3952508AB0093324602AB66
:106428000EA9284600F0E4FB204601F01DFD15B03A
:10643800F0BD022AF8D1BDF81650C3F3C203C5F364
:1064480089158DF810300827082D2E4628BF0826F4
:106458003B4632460EA9204601F01FFDAD1B08AB96
:1064680002AA31460EA8374400F026FC002DEBD1D5
:10647800DAE70000014B01221A707047252400203A
:106488007047000070B5124D06460FCD88B06C46B7
:106498000FC495E80F00002E84E80F004FF0FF337B
:1064A8004FF00602CDE90023CDE90233094A0A4834
:1064B8004FF0EB7308BF00226946069302F0CCF850
:1064C80008B100F0C1FD054B1E7008B070BD00BFDB
:1064D8006CB502007D640200B81D0020E423002092
:1064E80007B5044B0093044A4023FFF761FF03B04C
:1064F8005DF804FB05650200E523002038B50D4B67
:106508000D4D002018700D4804782D5DD2B21C4640
:1065180065B1043002F07EFF08B100F095FD084B2C
:106528001A7812B12378002BFBD038BD0C3002F05A
:1065380049FDF1E725240020C82A0020B81D0020C5
:10654800E423002008B50848084A0378D35C3BB127
:10655800043002F0E9FEBDE808400020FFF792BFD2
:106568000C3002F0CDFCF6E7B81D0020C82A002048
:106578000120FFF787BF000008B5FFF7F9FF0448BF
:10658800042100F09DFA034B01225A7108BD00BF97
:106598005CB50200CC1D0020037813F0040216D06D
:1065A80003F00303012B03D0022B09D0012070470D
:1065B8000A6800880232C0F3831002440A60F5E7D3
:1065C8000B684288023303EB92130B60EEE7104628
:1065D800704700002DE9F04F87B000230446861C61
:1065E8000DF107000F4615468DF8073000F016FF2D
:1065F800454801683960D0E90132134401335B1A18
:10660800824600F21C4700F5836900F21448B34241
:106618001CD30020002D73D004F00F039B0143F01E
:10662800050363F30F00DAF80020DAF808301340A6
:10663800033316444AF823009DF80700CAF800609F
:1066480000F010FF012007B0BDE8F08F01213846A7
:1066580001F031F9484601F046F9404601F043F9A6
:10666800DAF80400DAF808B0029000EA0B00033008
:106678000AEB800002A9FFF78FFF029B50BB0BEAD1
:1066880003020AEB820203F1020CD268039201337F
:1066980003EA0B0B0AEB8B0B02F00302012ADBF86F
:1066A8000C10CDF808C023D0022A16D083464046E5
:1066B80001F01CF910B1029BCAF80430594638465B
:1066C80001F0F9F8DAE901231344DAF8002001337C
:1066D8009B1A9CE70BEA0300C9E7BDF80E30C3F329
:1066E800891303334FEA114B0CEB93030293DEE754
:1066F800BDF80C30C3F383134FEA114B6344F5E73D
:10670800A40544F006008EE7F82400200B4B0C4843
:10671800FF2210B59A600022C3F81824C3E90022AA
:10672800C3F8142483F8202401F053FB044610B95D
:10673800044801F0B5FC204610BD00BFF824002035
:1067480008B50200C0B5020030B50A4C71B10A4A5A
:106758000A49121BD20800239A4201D1002030BDF9
:1067680031F82350854202D00133F5E7034654F847
:106778003300F4E770B4020008B50200B81D002029
:10678800094B013903EBC000032909D8DFE801F000
:106798000A02040604207047007970474079704760
:1067A800002070470220704770B40200034BD3E901
:1067B8000030C31A58425841704700BFF8240020DF
:1067C8002DE9F04387B0FFF7F1FF0646002840F0B7
:1067D800F9807D4DC5F81804BFF34F8F6B68AC681E
:1067E80002932340033305EB830002A9FFF7D4FE8D
:1067F800029B18B1D5F81824002A5FD004EA0302D6
:10680800991C013305EB8202234005EB8303D26810
:10681800DB68049302F00303022B0392029160D118
:10682800BDF80E306948C3F38917502FB84628BF02
:106838004FF0500868F38F1308F10801ADF80E30D7
:1068480001F0DFFA0646002800F0A78001F008FBF7
:106858000023082203A9304601F015FB029924EA17
:1068680001020132B8EB820F4FEA820332D95FFA94
:1068780088F85BB32140DCB2A8EB040803315FFA67
:1068880088F9A046524C05EB810108234246304660
:1068980001F0F9FA34B108F108034A4621463046B6
:1068A80001F0F1FA029B033703EB97070297D5F83B
:1068B8001834002B49D1D5F8104459E02A689A4277
:1068C8008FD86A60304607B0BDE8F08340491C465F
:1068D8009946DAE70C40E11C0823424605EB8101A2
:1068E800DDE7012B59D1BDF80C303848C3F38311CB
:1068F800062928BF062161F3891302318900ADF802
:106908000C3001F07EFA0646002846D001F0A8FABD
:106918000023082203A9304601F0B5FA0027BDF884
:106928000C20C2F38312BB00974203F10803BED2C6
:1069380002994A1C21400331029205EB810104228D
:10694800304601F0A0FA0137E9E7304601F08CFA49
:10695800FFF72CFF80F00100C6B2B3E7E3685B796C
:1069680023B1236831461B6820469847E3681C68B2
:10697800002CF3D1304601F077FA0DF107008DF8BD
:10698800074000F04BFDD5F818340BB9029B6B603B
:106998009DF8070000F066FDDAE7D5F8104454B911
:1069A8000C4B0D480D49C01AC008000440F0020005
:1069B80000F062F8CCE7236820469B689847E368B4
:1069C8001C68ECE700267DE7F824002008B50200E3
:1069D8000425002070B4020098B40200A9B5020092
:1069E8002DE9F74F224D04460F46924601A9012290
:1069F8001846D5F808909B46FFF7ECFD20B3019E9A
:106A08004FF00008B21CD84508EB020126D11948FE
:106A1800002100F021FF80F31000000440EA144038
:106A2800E400731C04F0380403EA090306EA0906C3
:106A380044F0010405EB8303033644EA881444EA6E
:106A48008724D86045F8264095F820341BB1FFF715
:106A5800B7FE0028FBD103B0BDE8F08F09EA0101B9
:106A680005EB81015AF82830CB6008F10108CAE724
:106A7800F82400201429002000231A46FFF7B0BF8D
:106A880007B50123019201AAFFF7AAFF03B05DF839
:106A980004FB07B5CDE9002302236A46FFF7A0FFF0
:106AA80003B05DF804FB1FB5CDE90123069B0393F2
:106AB80001AA0323FFF794FF05B05DF804FB00006B
:106AC80030B50F49D1F8102403460020144634B9D4
:106AD800DC6820714AB9C1F81034226030BDE4681E
:106AE8002579854206D02468F1E7D26811682160CB
:106AF8001360F3E701300A28E8D14FF0FF30EDE7E3
:106B0800F8240020094A38B50123D2F8104482F845
:106B180020341D4604B938BDE3685D7123682046FA
:106B28005B689847E3681C68F4E700BFF824002016
:106B380007B503460846197A052911D05B7A2BB1A7
:106B4800094A0A49019000F034FF01980849019068
:106B580000F02FFF019803B05DF804EB00F01EBFB2
:106B6800002AF8D0F2E700BFCCB50200D1B5020088
:106B7800F1B5020030B5C38885B004460D4633B17F
:106B8800144A00921449154A284600F012FF217A47
:106B980005291DD0637A4BB1A088FFF7F1FD104B92
:106BA800104953F82020284600F003FF227A0E4BA4
:106BB800A08853F8222003920021FFF7C5FD039A0D
:106BC8000A490346284605B0BDE8304000F0F1BE4A
:106BD80005B030BDCCB50200DCB50200D4B502006A
:106BE80058B60200D1B502007CB60200F4B5020026
:106BF8002DE9F04385B01F460C9D002395F80C90B5
:106C08002B7306460C46904629463846FFF7B2FFD6
:106C1800B8F1060F09D8DFE808F00412181F283366
:106C280040003146284600F0C4FE00222946384676
:106C3800FFF77EFF85F80C9005B0BDE8F083226869
:106C48003146284600F0B5FEEFE7D4E90023314687
:106C5800284600F0AEFEE8E7A36800933146D4E981
:106C68000023284600F0A5FEDFE7E3680193A36848
:106C780000933146D4E90023284600F09AFED4E771
:106C880023690293E3680193A36800933146D4E92A
:106C98000023284600F08DFEC7E763690393236944
:106CA8000293E3680193A36800933146D4E9002373
:106CB800284600F07EFEB8E708292DE9F74F804600
:106CC8000E4617461C463CD8002593F80C901D73B9
:106CD80019461046FFF74EFFDFF888A0DFF888B0A6
:106CE800AE4231D918F805205946204600F061FE19
:106CF8000135082DF4D11949194DDFF870A0204647
:106D080000F057FE4FF0000B5E4522D918F80B2013
:106D18007E2A05D81046019204F096FA019A00B925
:106D28002E225146204600F044FE0BF1010BBBF128
:106D3800080FE9D1012221463846FFF7F9FE84F809
:106D48000C9003B0BDE8F08F5146204600F031FEAC
:106D5800CEE72946204600F02CFEE6E708B60200FA
:106D680006B6020004B60200FEB502000AB602002A
:106D7800C30710B507D4F023054A4008145C234024
:106D88001943115410BD0901C9B20F23F4E700BF1C
:106D9800E829002030B5094B1C78094B19680023F5
:106DA8009C4202DC0022104630BD11F83350854267
:106DB80001EBC302F7D00133F2E700BFB42900208A
:106DC800F829002013B504460191FFF7E3FF38B115
:106DD80043682BB10199204602B0BDE8104018471E
:106DE80002B010BD034B044819680022490800F09E
:106DF8002ABA00BFB8290020C029002010B5C0B2A7
:106E0800FFF7C8FF0446007801F0E2FD63785A1ED8
:106E180053425341834208D1044BD3E9002313431F
:106E280003D1BDE81040FFF7DDBF10BDE029002009
:106E380037B54308354AD35CC2074CBF1B0903F07A
:106E48000F0304460D46042B35D8DFE803F003256D
:106E58002C383C0079B30121FFF78AFF00230DF19C
:106E680007008DF8073000F0D9FA0120A4F12003BB
:106E7800C4F12001264A20FA01F100FA03F30B437A
:106E8800A040D2E9004120430B43C2E900039DF82A
:106E9800070000F0E7FA0EE0002918BF022120469B
:106EA800FFF766FF07E041B10321FFF761FF01210A
:106EB8002046FFF787FF03B030BD0121EFE7002927
:106EC800F9D10421EBE709B10321E8E7FFF750FF07
:106ED80029462046FFF776FF0DF107008DF8075089
:106EE80000F09CFA0120A4F12003C4F12001084A13
:106EF80020FA01F100FA03F30B43A040D2E9004164
:106F080024EA000021EA0303BFE700BFE8290020C4
:106F1800E02900202DE9F041124E134F0024337868
:106F2800A34208DC114BD3E90023134318D0BDE872
:106F3800F041FFF757BF3D6805EBC40815F834006A
:106F480001F046FD98F801305A1E53425341181A71
:106F58004142414115F83400FFF76AFF0134DEE78A
:106F6800BDE8F081B4290020F8290020E02900209C
:106F7800092AF7B505460C4616463CD901F068FCC7
:106F8800D8B11E4B1E481D601E4B1F4F1C701F4B57
:106F9800002110221E6004F0B8F91D4B00200021CA
:106FA800C3E90001013CE4B20326FF2C0BD1194AC6
:106FB8001948002100F03CF903E001F011FC002819
:106FC800DFD003B0F0BD9DF8063015F834008DF819
:106FD800046005EBC40223F007038DF8063001A90D
:106FE80093788DF805303A4601F03CFC013CE4B258
:106FF8000028DAD0E5E70720E3E700BFF8290020FA
:10700800E8290020B4290020056E0200B8290020D4
:10701800E02900201D6F02009CB6020070B5084DE3
:10702800084E00242B789C4201D3002070BD3368A1
:10703800012113F8340001F087FC0134F2E700BFA6
:10704800B4290020F82900201FB50021039001AAC7
:1070580044F20100CDE9011100F004F805B05DF833
:1070680004FB000010B572B6FFF74CFDFFF7A8FB54
:107078000028FBD1104B114C1149E41AE4082404F0
:1070880044F00100FFF7F8FC0E4B1B68DB0700D546
:1070980000BE0D4944F00200FFF7EEFCBFF34F8F2E
:1070A8000A490B4BCA6802F4E0621343CB60BFF392
:1070B8004F8F00BFFDE700BF70B4020098B4020014
:1070C800A0B60200F0ED00E0ACB6020000ED00E072
:1070D8000400FA05D0E90223D1E90201994208BF68
:1070E80090422CBF012000207047000008B50B48D3
:1070F80000F0EFFA0A4B0B49D3E900231218D1E943
:10710800000143F100038B4208BF824203D212F10F
:10711800807243F100031046194608BDD41D0020B3
:10712800002A0020782A002037B505460C460A4870
:1071380001A900F000FB60B10570446001A9064890
:1071480000F023FB18B1054800F0C8FA002003B08E
:1071580030BD0420FBE700BF642A0020D41D0020B6
:1071680038B5184B1B78044613B90025284638BD96
:107178000028FAD0037F03F0FF05002BF5D0FFF7B6
:10718800B5FFD4E90223994208BF904214D323697A
:1071980003B92377D4E90530984721690029E4D059
:1071A800237F03F0FF05002BDFD0D4E90223521818
:1071B80043F10003C4E902230348214600F08FFF8E
:1071C800D4E700BF082A0020C8B6020013B5114B47
:1071D80011491868019008231048582200F098FABD
:1071E800044698B90E4A0F4801A900F05FF9044611
:1071F80060B90C48012100F04FFA01230A4A0948F6
:10720800194600F0B1F9094B01221A70204602B064
:1072180010BD00BFC4B602000C2A0020642A00205A
:107228008D720200D41D0020FFFF7F00082A002075
:107238003AB103685A614A1E51425141196100200E
:1072480070470720704738B5037F04460D4683B959
:107258008261FFF74BFF2369401941F10001C4E93E
:10726800020103B1256121460020BDE83840FFF73F
:107278005BBF002038BD0000014800F02ABA00BFFB
:10728800D41D00202DE9F04F85B0804600F00CFA9F
:1072980040B15A4AD2E9003113F1807341F100013B
:1072A800C2E900310021404600F00DFA38B1544ED1
:1072B800336823B13068FFF753FF0023336001219F
:1072C800404600F000FA20B1FFF710FF4D4BC3E92C
:1072D80000014D484A4F4D4EDFF8389103A900F0A0
:1072E80064FA002845D1DFF82491454EDFF828A13B
:1072F800484600F00AFF3368002875D07BB1336830
:10730800D0E90201D3E90223994208BF90422DD265
:1073180033681B7F1BB13168484600F0E0FE4846E1
:1073280000F0EDFED0E902B307460193FFF7DEFE59
:10733800019BBBEB000463EB0105012C75F1000315
:1073480045DBB4F5350F40D3FFF796FF304A0244CA
:107358004FF496030021504600F026F900283ED14C
:10736800336813B9404600F0F7F8376005B0BDE858
:10737800F08F0378012B1DD0022B09D14FF0000AA2
:10738800304600F0BCFE002834D080F81CA0F7E797
:107398003BB941680B7F23B901230B77304600F0D6
:1073A8009EFE03A9184800F02BFA03A9164800F01E
:1073B800FCF996E741683B68994202D100233B609B
:1073C800EFE7304600F0A4FEEBE7BA68C0E700211B
:1073D800504600F06EF93846FFF7C2FE01E00D286E
:1073E800F9D00023336083E7002BBFD1404600F07B
:1073F800B7F8BBE7012389F80030D2E7002A00205C
:10740800802A0020782A0020642A0020C8B60200BA
:10741800FFFFB400082A0020D41D002070B5EFF348
:10742800108672B60C4A946801239CB993600B4B82
:107438000B4DD3F8801029401160C3F88050D3F861
:10744800841051604FF0FF32C3F88420047006B9ED
:1074580062B670BD0370FAE7842A002000E100E0FC
:10746800FC06FFBD084B9A6810B55AB150B9EFF346
:10747800108172B6054A1C6814605C685460986094
:1074880001B962B610BD00BF842A002000E100E007
:10749800435882B03BB10023435043580193019BAA
:1074A800012002B070471846FBE70000F8B5224BF0
:1074B8004679224C43F82620214A224B9B1A04EB9A
:1074C800C602DB0812791B04F70032B143F0020050
:1074D8001D49FFF7D1FA0820F8BD02680D88C2F8E7
:1074E800085590F9045002798978002DADBF05F14F
:1074F800604CDFF85CC002F00F0E0CF5614C4FEAEF
:107508004111C9B2B4BF0CF80E108CF800136D0904
:107518000121DFF840C002F01F0201FA02F24CF824
:107528002520E21944F83600117143F00300074999
:10753800FFF7A2FA0020CFE7982A0020902A00201F
:1075480070B40200A8B40200D4B60200F6B6020075
:1075580014ED00E000E100E0036801221A607047C2
:10756800036801225A60704773B501F15005AD00F8
:107578000068ADB24FF480348C400026C0F8084350
:10758800C0F84843465101F5A8714559019522F0C4
:107598007F42019D40F82120C0F844430BB1C0F858
:1075A800044302B070BD00002DE9F74F0D4622F0EC
:1075B8007F4402684FF4803705F150068F408046BB
:1075C800B60002EB8500C2F84873B6B2C2F8087379
:1075D800D2F8041599464FF0000BD0F84035C0F8A2
:1075E800401542F806B05B1A9259009223F07F4387
:1075F800012B009A4FEA850A0CD1264B4FF4806084
:1076080043F001039847D8F8003043F806B09B5977
:107618000193019BD8F80010D1F80465C1F84473B0
:10762800A31B23F07F43012B1CD11A4B05F5A8752A
:10763800013443F0010341F825404FF48060984736
:10764800D8F80030D3F804359E4209D1D8F8003074
:107658000020C3F84473C3F8047303B0BDE8F08F87
:107668000D20FAE78A44C9F1FF13CAF84045D1F85A
:107678000405221A013A22F07F4203F57F43934220
:10768800EED3002AE2D10134CAF84045D1F80435D6
:107698009842DAE710B7020003680222C3F84423CD
:1076A80009B1C3F80423704700684FF48271FFF7EB
:1076B800EFBE4FF4803303FA01F10368C3F84813AF
:1076C800C3F80813704750318900006889B2FFF782
:1076D800DFBE0368D3F804057047000090F9043052
:1076E80001215A0903F01F0301FA03F3403202494A
:1076F80041F82230704700BF00E100E0024B034A26
:107708001B681068184700BF982A0020902A00209C
:1077180010B561B1B2FBF3F403FB1424A4B244B96D
:10772800C0E9001484608281C381204610BD0E2008
:10773800FCE70920FAE737B550E8013F9DB2C48954
:1077480025448489A54228BF2D1B0489A54202BF70
:10775800BFF32F8F002207E0C5EA030540E8015474
:10776800002CE9D14FF001028DF803200193019B11
:107778009DF803200B6002F0FF0322B10B8800681C
:10778800184403B030BD1846FBE70A884B889A4274
:1077980009D150E8012FC2EA024240E80123002B38
:1077A800F7D1012070470020704737B550E8023FF5
:1077B8001FFAA3F5C488A54202BFBFF32F8F00228A
:1077C8000DE0C48925448489A54228BF2D1BC3EA3E
:1077D800054540E80254002CE8D14FF001028DF82D
:1077E80003200193019B9DF803200B6002F0FF0327
:1077F80022B14B880068184403B030BD1846FBE737
:107808000A884B889A4209D150E8022FC2EA2242DC
:1078180040E80223002BF7D1012070470020704771
:1078280001F01F024B090121914000EB830000F099
:107838001EB801F01F0301229A404B0900EB830098
:10784800D14300F02CB84B0901F01F0150F8230078
:10785800C84000F00100704710B5034653E8000F18
:107868000A4643E8002494F0000FF7D110BD10B584
:10787800034653E8002F42EA010043E8000494F06D
:10788800000FF6D110BD10B5034653E8000F00EA0B
:10789800010243E8002494F0000FF6D110BD10B5A2
:1078A800034653E8002F02EA010043E8000494F07D
:1078B800000FF6D110BD10B5034653E8002F02EBB8
:1078C800010043E8000494F0000FF6D110BD10B594
:1078D800034653E8002FA2EB010043E8000494F0AC
:1078E800000FF6D110BD0121FFF7C1BF0021FFF73E
:1078F800CABF10B590B1D0E9012301689B1ADBB269
:107908000A60013BDBB2FF2B026802D10020107134
:1079180010BD11684C1C14600B70F2E70E20F7E7DD
:1079280037B5054600240DF107008DF80740FFF72D
:1079380075FD2A686B68116899420ED9481E106057
:1079480011F8014CEB68298A01FB0434AB68117902
:107958001B1ADBB2994238BF13719DF80700FFF775
:1079680081FD204603B030BD37B5054600230DF133
:1079780007000C468DF80730FFF750FD2A6813689A
:10798800591C1160E968641A298AB4FBF1F41C7067
:107998009DF80700FFF766FD03B030BD826810B59B
:1079A80004462AB143690168006998470023A36027
:1079B80010BD0EB403B5039921B104AB01AA01931C
:1079C80000F076F802B05DF804EB03B070470A29BE
:1079D80038B504460D4602D10D21FFF7F8FFA3681C
:1079E8002268591CA160D554D4E901329A4204D3C3
:1079F8002046BDE83840FFF7D1BF38BD2DE9F84F24
:107A08009846DDE90A43154682460F460A464FF076
:107A18000109AA420FD2C14538BFC14613F0010B74
:107A280001D16CB900240126B8F1010F1BD908F166
:107A3800FF386E43F8E709F10109B2FBF5F2E8E710
:107A48009B070ED5B8F1000F0CBF30262026A145A4
:107A5800E9D2013C31465046FFF7B9FF002CF6D178
:107A6800E0E72026F3E7B7FBF6F39D42E1D9DFF81C
:107A78003C80B7FBF6F3504618F8031006FB137763
:107A8800FFF7A5FF3346AB42B6FBF5F6F1D2BBF1E3
:107A9800000F02D00CB1A14501D3BDE8F88F202119
:107AA8005046013CFFF793FFF4E700BF16B702000A
:107AB8002DE9F74F054617468846002900F0428110
:107AC80018F8011B49B92B7B002B00F03B81284695
:107AD80003B0BDE8F04FFFF761BF252940F0B7803C
:107AE800002698F800302D2B424608F1010823D0D3
:107AF800302B24D02B2B25D000242A2B02F1010176
:107B080023D13B681A1D1B683A601C440A46137847
:107B18002E2B26D101324FF0000A104610F8011B17
:107B2800A1F1300CBCF1090F1DD80A2303FB0A137D
:107B3800A3F1300A0246F0E746F00106D1E746F025
:107B48000206CEE746F00406CBE711F8013CA3F1A4
:107B580030000928DBD80A2202FB0434303C0A46EC
:107B6800CBE74FF0000A12F8011B01F0FB00682870
:107B78009046F8D0782909D86F290CD8632962D0A3
:107B880022D8252963D0582900F0888098F8003039
:107B9800002B95D197E770390829F7D801A353F836
:107BA80021F000BF277D0200957B0200957B020033
:107BB800B57C0200957B0200937C0200957B020055
:107BC800957B0200A57C0200642901D06929DDD1DA
:107BD8003A68D2F80090111D89EAE9723960A2EB7F
:107BE800E9724FF0010B092A35DCD34538BFD3467B
:107BF8002CB1B9F1000F01DB720700D5013CB307C6
:107C080002D5BAF1000F03D0F00701D44CBB002411
:107C1800B9F1000F2DDAC9F100092D212846FFF727
:107C2800D6FE06F00302022A04D1BAF1000F01D1F0
:107C38001CBB0024CDE9004653460A224946284683
:107C4800FFF7DCFEA2E73B681A1D19783A60284660
:107C5800FFF7BDFE9AE70A230BF1010BB2FBF3F223
:107C6800C1E7A345D4D220212846013CFFF7AFFE47
:107C7800CCE77107D5D52B21D0E7A345DAD230213F
:107C88002846013CFFF7A3FED2E73968CDE9004654
:107C98000A1D3A6053460A220968D0E739680A1D66
:107CA8003A60CDE9004653461022F5E73B681A1DB5
:107CB8003A6016F00106D3F8009028D1B9F1000F08
:107CC80003D0484603F07BFB0646B44200D904BB08
:107CD80009F1FF3919F8011F00293FF457AF284669
:107CE800FFF775FEF6E728460136FFF770FE19F82C
:107CF80006100029F7D1A642BFF448AF002C3FF484
:107D080045AF20212846013CFFF761FEF3E7002636
:107D1800EDE720212846013CFFF759FED5E73B68EF
:107D28001A1D3A60302128461C68FFF750FE78215A
:107D38002846FFF74CFE00220823CDE900322146F1
:107D480010227CE703B0BDE8F08F00BF2DE9F84FA3
:107D5800B0F806A04579D2F800B09DF828900AFB43
:107D680005F5043D88460BEB0301A94203F1040421
:107D780088BFA5EB030BB4FBFAF607460AFB1644CB
:107D8800C2F800B04EB9AAEB04055D4528BF5D46B0
:107D9800BBF1000F04D1BDE8F88F3F68013EF1E761
:107DA800043408EB06003C442A46B9F1000F0DD014
:107DB8002146ABEB050B03F07FFADA452E443F680A
:107DC80055464FF0000428BF5D46E1E701462046CE
:107DD800EFE7FFF78EBDF8B546790146721E0546F6
:107DE800002393422D6803D30024A64202D8F8BD8D
:107DF8000133F6E70F682846FFF7B6FD0134394628
:107E0800F3E72DE9F843068ACD1C0746FFF788FDFE
:107E1800043E35440446B5FBF6F5F0B14FF48073E3
:107E2800EDB28380C680013D076081464FF00008AF
:107E3800A84512D23846FFF773FD064648B1637964
:107E48000133637108F10108C9F800000760814631
:107E5800EEE72046FFF7BFFF34462046BDE8F8832B
:107E680001210430FFF727BD10B501210446043075
:107E7800FFF72DFD10F0FF0F04D12046BDE810409C
:107E8800FFF7A9BF10BD1FB503920022009203AAF5
:107E9800FFF75CFF05B05DF804FB1FB503920122F4
:107EA800009203AAFFF752FF05B05DF804FB41DF1B
:107EB80070470000064B10B500241C70054B1C6071
:107EC800BFF35F8F0449054800F0F3F8204610BD62
:107ED800A42A0020A82A002030B702009C2A0020EB
:107EE80007B500230DF107008DF80730FFF796FA64
:107EF800F1EE103A23F09F03E1EE103ABFF35F8FE3
:107F0800094B4022C3F884219DF80700FFF7AAFA1D
:107F180002F0DAFF20B1FFF7CAFF03B05DF804FBF7
:107F280020BF40BF20BFF8E700E100E00268136807
:107F38005268934291BFD01A80680130801888BF78
:107F4800C01A7047036881681A685B688B4234BF3F
:107F580001330023D31A584258417047F7B500231C
:107F680004460DF107000D468DF80730FFF756FA65
:107F78002046FFF7E7FF10B1237C002B3CD1226895
:107F8800A66853685168B14234BF0131002151607D
:107F980030B11168A068814234BF013100211160FD
:107FA800E2686068511E072920D8DFE801F0041054
:107FB8001F141F1F1F182A78C2542046FFF7B6FF48
:107FC80023689A68824200D29860002415E02A88C3
:107FD80020F81320F1E72A6840F82320EDE7D5E9D7
:107FE800006700EBC300C0E90067E6E7294602FB2B
:107FF800030003F061F9E0E704249DF80700FFF7A8
:1080080031FA204603B0F0BD036818685B68C31AEC
:1080180058425841704773B5002305460DF10700D3
:108028000C4616468DF80730FFF7F8F92846FFF793
:10803800EBFF002832D129680B682EB90A68A868B6
:10804800824238BF561C0E60EA686968501E0728CD
:108058001ED8DFE800F0040E1D121D1D1D16CB5C96
:10806800237000249DF80700FFF7FCF9204602B0B2
:1080780070BD31F813302380F3E751F823302360C3
:10808800EFE701EBC301D1E90023C4E90023E8E7E6
:1080980003FB0211204603F00FF9E2E70524E1E7AC
:1080A800836800225A60C3E904229A60DA601A6081
:1080B80070470B684A684360934208BF0023016019
:1080C80008BF43607047436843B1026891685268CB
:1080D8000B449342436004BF00234360704770B56C
:1080E800446806460D46206818B1B3682946984783
:1080F80018B923682B60256070BD2468F3E74368CE
:10810800186808B102681A607047436818687047B1
:108118004368186800B97047884203D102681A603A
:108128000120704703460068F4E7000010B50D49C8
:10813800A1F59472914201D800200FE08C1AE30F48
:1081480003EBE4035B1002EBC30452F833308342C1
:1081580005D802D204F10802ECE7606810BD214698
:10816800E8E700BF3CBC020008B5FFF7DFFF024BA1
:10817800002808BF184608BDFFBA02000C4B1B7840
:10818800062B10D10B4B1B681A070CD10A4B186829
:1081980000F0F003302B08D000F0E000A0F140031D
:1081A800584258417047002070470120704700BF6F
:1081B800E00F00F0E40F00F0E80F00F0094B1B7827
:1081C800062B0CD1084B1B681A0708D1074B1868F7
:1081D80000F0F000A0F130035842584170470020E9
:1081E800704700BFE00F00F0E40F00F0E80F00F068
:1081F80008B5FFF7C3FF28B17D4B7E4A1B68C3F360
:1082080004231360FFF7DAFF10B17B4B7B4A1A6037
:10821800FFF7B4FF28B17A4B7A4A1B68C3F342339D
:108228001360FFF7CBFF20B1774AD36823F0807340
:10823800D360FFF7A3FF40B14FF080430022C3F89B
:108248000C21C3F81021C3F83825FFF7B7FF10B188
:108258006E4B03221A60FFF7B1FF40B16C4B052249
:108268001A6001229A6700229A603F225A60694B7D
:108278001B78062B50D1684B1B6819074CD1674BEC
:108288001B6803F0F003502B46D14FF08052644B2B
:10829800D2F80414C3F82015D2F80814C3F824152A
:1082A800D2F80C14C3F82815D2F81014C3F82C15FA
:1082B800D2F81414C3F83015D2F81814C3F83415CA
:1082C800D2F81C14C3F84015D2F82014C3F844158A
:1082D800D2F82414C3F84815D2F82814C3F84C155A
:1082E800D2F82C14C3F85015D2F83014C3F854152A
:1082F800D2F83414C3F86015D2F83814C3F86415EA
:10830800D2F83C14C3F86815D2F84014C3F86C15B9
:10831800D2F84424C3F87025FFF730FF28B1414B49
:10832800414A1B6803F04F031360FFF727FF48B16A
:108338004FF08043D3F80024D20744BF6FF0010206
:10834800C3F80024394B1B68062B08D1384B1B682F
:10835800062B01BF374A136843F480631360364A1B
:10836800D2F8883043F47003C2F88830BFF34F8FD7
:10837800BFF36F8F4FF01023D3F80022002A03DBDE
:10838800D3F80432002B2FDA2C4B0122C3F8042532
:10839800D3F80024002AFBD04FF010221521C2F890
:1083A8000012D3F80024002AFBD04FF01023152226
:1083B800C3F80422214B1A46D3F800140029FBD035
:1083C8000021C3F80415D2F80034002BFBD0BFF30A
:1083D8004F8F19491A4BCA6802F4E0621343CB6005
:1083E800BFF34F8F00BFFDE7164B174A1A6008BD51
:1083F800240300104035014074C007400DF0ADBAA9
:10840800440200103C050040F0ED00E0A0050040EB
:1084180010560040E00F00F0E40F00F0E80F00F005
:1084280000C0004058020010E40E00403001001067
:10843800340100103C17004000ED00E000E001406E
:108448000400FA05DC1D00200090D003044B1A5CE0
:10845800012393404FF0A042C2F80C35704700BF8B
:108468003CBC0200044B1A5C012393404FF0A0422D
:10847800C2F80835704700BF3CBC020008B50020B0
:10848800FFF7F0FF0120FFF7EDFF0220FFF7EAFFFB
:10849800BDE808400320FFF7E5BFC20708B501465D
:1084A8000CD54FF0A0430322C3F84427C3F848274C
:1084B800C3F84C27C3F85027FFF7E0FF8B070AD50E
:1084C8004FF0A0430C22C3F83427C3F83827C3F869
:1084D8003C27C3F8402708BD38B5074C051E04F1F2
:1084E800080318BF1C4623682BB11A6822605B6812
:1084F80028469847F7E738BDB42A002020B9054B2D
:1085080001225A70FFF7E8BF012802D1014A907092
:10851800F8E77047AC2A002020B9034B01225A70B3
:10852800FFF7DABF704700BFAC2A002038B50B4C04
:10853800237883B90A486360A3602361E36000F08D
:10854800C9F8054602F0C0FC08B900F0CFF80123CD
:108558002370284638BD8525FBE700BFAC2A0020DC
:108568000585020037B50B4C00230DF107008DF887
:108578000730FEF753FFE368013BE360E56815B990
:1085880000F0C6F8A5709DF80700FEF76BFF03B072
:1085980030BD00BFAC2A0020012813B508D003283D
:1085A8001CD018B9104B0122C3F8802002B010BDAE
:1085B8000E4C00230DF107008DF80730FEF72EFF53
:1085C80023780BB9FFF7B2FFE3689DF80700013382
:1085D800E3600123A370FEF745FFE7E700F086F8A4
:1085E800FFF7C0FFE2E700BF00E100E0AC2A00208F
:1085F8001FB503788DF800304368019383688DF8C0
:108608000830C368054A0393054B684653F8213080
:1086180052F82110984705B05DF804FBC02A0020E5
:10862800C42A00201FB503788DF8003043680193F1
:1086380083688DF80830C368054A0393054B68467C
:1086480053F8213052F82110984705B05DF804FB23
:10865800C02A0020C42A0020F0B5194B90F800C0A9
:1086680091F81DE043F82C20164B16460A6943F88A
:108678002C20154B03F80CE00C4607460FCC89B0AC
:108688006D460FC594E80F0085E80F00CDF810C0BF
:10869800BEF1000F09D0002E0C4A694608BF3246C9
:1086A800381D00F079FD09B0F0BD002E084A694672
:1086B80008BF324607F10C0000F066FBF3E700BF85
:1086C800C42A0020C02A0020C82A0020F9850200F8
:1086D8002D860200044A137923B901211060918084
:1086E8001846704785207047CC2A0020074B1A6827
:1086F800D2075FBFC02283F8002301221A604FF01F
:1087080080430122C3F81825704700BF00E100E04C
:10871800044B01221A604FF08042D2F81834DB0370
:10872800FBD470470C000040154B07B51A687AB1A6
:1087380000221A601B680093009B4FF080430122BF
:10874800C3F808230F4B587910B95A711B6898471A
:108758000D4B1A6882B100221A601B680193019BB5
:108768004FF080430222C3F80823064B1B68012000
:1087780003B05DF804EB184703B05DF804FB00BFD5
:1087880000010040CC2A00200401004000F1804094
:1087980000F5C040002382B0036003680193019B89
:1087A80002B07047800000F1A040D0F8002722F402
:1087B8004032C0F80027D0F8003743EA0141C0F83A
:1087C80000177047054B4FF0FF32072843F8202069
:1087D80084BFC01880F84820704700BFD42A002002
:1087E80010B5174C94F8583043BB04F130032021DE
:1087F800FF22013911F0FF0103F8012BF9D1C8B2AA
:10880800FFF7E0FF01310C29F9D1042200210D48BE
:1088180002F07BFD0C4BC02283F8062340221A602D
:108828004FF4BE70FFF7B2FF084B4FF00042C3F899
:108838000423012384F85830002010BD0820FCE7E9
:10884800D42A0020282B002000E100E0006000402E
:10885800034B93F85800003818BF0120704700BF39
:10886800D42A0020F0B5364D2C1894F93040002C4D
:1088780064DA8C78C4F34004002C0BBF082300236F
:108888000C260826B34201D10420F0BD55F8237008
:1088980001373FD12E1845F8232086F8303014B917
:1088A800EA1882F848008A78540713D4D60733D5D3
:1088B800820002F1A042D2F8004724F00204C2F874
:1088C8000047204EC20800F007070124BC40B75CEF
:1088D8003C43B4548A780C7812F0020225D09B00ED
:1088E80003F1804303F5C0430202D3F8101521F4C5
:1088F800473121F44071C3F810152404D3F810153A
:1089080002F4F85204F4403422430A43C3F8102511
:108918000020BAE70133B5E74C7800F5E0724FF074
:10892800A046A40046F82240CBE7083B2B4493F826
:10893800501041EA841483F85040E9E70820A4E77E
:10894800D42A0020282B002038B51F4C251895F96B
:108958003020072A16DD224492F848309B09032B61
:108968000BD14FF0A043D3F81015C14001F001011D
:108978000231BDE83840FFF715BF012B0CBF0221BB
:108988000321F6E7D3B2072B1CD8930003F18043E9
:1089980003F5C043D3F8100540F00100C3F81005F3
:1089A80002F14000800080B2FFF7F0FE51B195F966
:1089B800303054F823302BB1012303FA02F2034B71
:1089C800C3F8042338BD00BFD42A0020006000404B
:1089D8004FF0A043D3F8103523FA00F000F001005F
:1089E800704700002DE9F04F87B000245A4D0394DA
:1089F8004FF48072012102F1804303F5C04390B225
:108A08001B68012B06D1D5F804330B4202D0FFF7BF
:108A1800BDFE0C430432B2F5907F4FEA4101EAD122
:108A28004E4B1B68012B0AD14FF4BE70FFF7AEFE08
:108A38004FF0A04344F00044D3F81035039314F0EA
:108A4800FF0F1AD0464F00250126344210D0AB0044
:108A580003F1804303F5C043D3F81005D3F810158C
:108A680057F8253023B1C1F30141C0F304209847DA
:108A78000135082D4FEA4606E7D1002C65DA0021BA
:108A88004FF0FF33CDE90413354D01274FF0000AAD
:108A9800344ED1464FF0A04816F9013B5A1C45D038
:108AA800C3F3C20106AA5018DCB210F8042C03F074
:108AB8003F0B03F0070307FA03F31A4236D005EB1E
:108AC8000B02A40992F9302055F8222052B9032C40
:108AD8002CD10DF1100E1EF801C04CEA030C0EF853
:108AE80001C001E0032CF4D00BF5E07110F80C0C78
:108AF80058F821101842C1F3014105D0022915D1B7
:108B0800032C0FD1214604E003290FD1032C09D1EE
:108B180002215846019209F10109FFF743FE019A23
:108B28005FFA89F912B12146584690470AF1010ABD
:108B3800BAF1040FB0D1B9F1000F06D04FF0A0433D
:108B4800039AD3F81035934202D107B0BDE8F08FED
:108B58000393049B059399E7006000407C61004003
:108B6800D42A0020242B0020014B1B68184700BF83
:108B7800302B00200E4B984237B50C4602D000200F
:108B880003B030BD00230DF107008DF80730FEF764
:108B980045FC084B1D7915B901221C601A719DF816
:108BA8000700FEF75FFC002DE9D01120E8E700BFC1
:108BB80000200040302B0020034B984201BF034B9C
:108BC80000221A601A71704700200040302B0020E4
:108BD8000023435082B043580193019B02B0704771
:108BE8000A4610B54FF48E71FFF7F2FF136A9168C9
:108BF800C95C136A01331362C0F81C1510BD8B6978
:108C08000A4610B54FF4847123B9FFF7E1FFD0F895
:108C1800183510BDFFF7DCFF536AD168D0F8180586
:108C2800C854536A01335362F3E700001FB50123A8
:108C38008DF80030044BCDE90110D3E900126846E5
:108C4800904705B05DF804FB382B002030B54C4840
:108C5800D0F8043313F4007F85B005464DD0D0F822
:108C68002431002B49D04FF49271FFF7B1FF4FF434
:108C78000173C0F80833434B93F829200AB901223D
:108C880042603F4902228DF80020D1F88024C1F8C3
:108C9800802403929A690292DA6801920022C3E959
:108CA80006226846D3E9001290473548D0F81C31AF
:108CB8005BB134494A690B6A9A420A464AD991F823
:108CC8002830002B46D1FFF78BFF2D48D0F84431D0
:108CD8008BB14FF4A271FFF77BFF2A4B93F8292041
:108CE8000AB1012202609A692AB10022586AD96839
:108CF8009A61FFF79BFF05B030BDD5F804335B07D9
:108D0800D3D5D5F80831002BCFD01E4C1C482146AE
:108D1800FFF775FF636AA2699A422346C5D1E269E3
:108D2800E1684AB12369E3600023606AA261E361F4
:108D38006362FFF77BFFB8E794F829200AB901229C
:108D48006A600F4A4FF40170C2F808030022586A9B
:108D58009A61EEE70A484FF48E71FFF739FF5369BD
:108D6800002BB2D051690291002391688DF8003030
:108D7800019153616846D2E900139847A5E700BFFF
:108D880000200040382B00202DE9F843574B057987
:108D980091462C2202FB0532064692F82A200C4600
:108DA8009846002A40F09D8051490068FFF7E2FE8E
:108DB8000746002840F0978021683368481C0BD08C
:108DC8004FF0A04001228A40C0F8082501F5E07262
:108DD8004FF0030C40F822C06068421C1FBF00F52A
:108DE800E0724FF0A04C4FF0000E4CF822E0A26960
:108DF800C3F8242594F814C0627DBCF1010F4CEA35
:108E08000202C3F86C25C3F81405C3F80C151DD16C
:108E1800A1684A1C1FBF01F5E0724FF0A0404FF057
:108E2800000C40F822C0E268501C0BD04FF0A04C58
:108E380001209040CCF8080502F5E0704FF0030ED1
:108E48004CF820E0C3F80825C3F810152C236B4311
:108E580008EB0302C2F80490226948F80320B9F12C
:108E6800000F2BD03068247F4FF48E71FFF7B0FECF
:108E780030684FF4A271FFF7ABFE32681D4BC2F8A1
:108E88000433110B42F30732002AA8BF02F16040F5
:108E98004FEA4413BABF184801F00F0400F56140C7
:108EA800DBB2B4BF035580F8003301F01F01012382
:108EB80003FA01F15209114B43F8221033680422D6
:108EC800C3F800252C2303FB05830022C3E90622EF
:108ED80083F829205A61012283F82A203846BDE800
:108EE800F8830827FAE71127F8E700BF382B002096
:108EF800558C02008000020014ED00E000E100E063
:108F0800F8B5047900682C4D0023C0F800352C23EF
:108F180003FB04535B686BB1284BC0F8083340F37C
:108F28000733C0F304315B0901228A402033244906
:108F380041F82320D0F80C65D0F81415D0F808357E
:108F4800D0F810254FF0FF37BE42C0F8147518BF8F
:108F580006F5E076C0F80C75C0F80875C0F810750D
:108F68001EBF4FF0A0474FF0020C47F826C04E1C1A
:108F78001FBF4FF0A04601F5E071022746F82170A7
:108F8800511C1FBF4FF0A04102F5E072022641F8C4
:108F980022605A1C1FBF03F5E0734FF0A042022164
:108FA80042F82310FFF708FE2C2303FB0454002388
:108FB80084F82A306360F8BD382B00208402020050
:108FC80000E100E02DE9F047204F90F804904FF0C1
:108FD8002C0808FB097405466669002E34D16261C5
:108FE8000068A16026624FF48E7184F82860FFF74C
:108FF800EFFD2868012383602146FFF7F1FD6368D0
:10900800A0468BB92868D4F814A0236A9A4511D8C9
:109018002A68D2F81C31002BFBD00123D3602C2303
:1090280003FB097300225A613046BDE8F08794F8C3
:1090380028303BB9D0F81C31002BF8D04146FFF757
:10904800CFFDE2E70F26EAE71126EDE7382B0020EF
:109058000023435082B043580193019B02B07047EC
:109068001FB501238DF80030044BCDE90110D3E979
:1090780000126846904705B05DF804FB642B002099
:109088007FB5434AD2F82461002E60D010464FF4D1
:109098009271FFF7DDFF02238DF80030D2F880349B
:1090A800C2F880340393D2F83C350293394BDA681E
:1090B80001920022C3E906226846D3E900129047CC
:1090C8003348D0F8443173B14FF4A271FFF7C0FFB1
:1090D800304B9A693AB10022C3E90622D968D0F820
:1090E8003C05FFF7BDFF2A48D0F82031ABB14FF45B
:1090F8009071FFF7ADFF0123C360264B5A6962B137
:10910800D0F84C150291002299688DF80020019141
:109118005A616846D3E9001290471D48D0F8583183
:109128009BB14FF4AC71FFF793FF1A4B5A6962B1C8
:10913800D0F84C150291002299688DF80020019111
:109148005A616846D3E90012904704B070BDD2F85E
:109158001031002BB4D04FF488711046FFF778FF18
:109168000C4BD2F83C0599698842A9D1DC69D968C9
:1091780064B1D2F8005225F02005C2F800521A69ED
:109188009C61DA60DE61FFF76BFF99E79C61FAE7A3
:1091980000200040642B00202DE9F8435D4B067940
:1091A8009146242202FB0632044692F820200D46FE
:1091B8009846002A40F0AA8057490068FFF7DAFC71
:1091C8000746002840F0A48029682368481C0BD073
:1091D8004FF0A04001228A40C0F8082501F5E0724E
:1091E8004FF0030C40F822C06868421C1FBF00F50E
:1091F800E0724FF0A04C4FF0000E4CF822E0AA6944
:10920800C3F8242595F814C06A7DBCF1010F4CEA17
:109218000202C3F86C25C3F80C15C3F814051DD158
:10922800A9684A1C1FBF01F5E0724FF0A0404FF03B
:10923800000C40F822C0EA68501C0BD04FF0A04C3C
:1092480001209040CCF8080502F5E0704FF0030EBD
:109258004CF820E0C3F80825C3F8101524237343FD
:1092680008EB0302C2F804902A6948F80320B9F110
:10927800000F3AD020682A7F4FF48871FFF7E8FE84
:1092880020684FF49071FFF7E3FE20684FF4927165
:10929800FFF7DEFE20684FF4A271FFF7D9FE2068C1
:1092A8004FF4AC71FFF7D4FE23681C49C3F80413CC
:1092B800190B43F30733002BAEBF03F1604001F0F5
:1092C8000F0517484FEA4212A8BF00F56140D2B215
:1092D800B4BF425580F8002301F01F01012202FAB1
:1092E80001F15B090F4A42F8231023680822C3F8EA
:1092F8000025242303FB06830022C3E906225A61C2
:10930800012283F820203846BDE8F8830827FAE7C9
:109318001127F8E7642B002089900200100342000F
:1093280014ED00E000E100E0F8B5374D047924239E
:1093380003FB045302465B6800686BB1334BC0F80B
:10934800083340F30733C0F304365B090121B14009
:1093580020332F4E46F82310D0F80032012623F090
:109368002003C0F800324FF4AC714660FFF770FE7E
:109378001068C660D0F85831002BFBD00023C0F825
:109388000035D0F80C65D0F81415D0F80835D0F8A9
:1093980010254FF0FF37BE42C0F80C7518BF06F510
:1093A800E076C0F81475C0F80875C0F810751EBFCF
:1093B8004FF0A0474FF0020C47F826C04E1C1FBFC5
:1093C8004FF0A04601F5E071022746F82170511CC4
:1093D8001FBF4FF0A04102F5E072022641F822605B
:1093E8005A1C1FBF03F5E0734FF0A042022142F858
:1093F8002310FFF7E1FB242303FB0454002384F824
:1094080020306360F8BD00BF642B002010034200C9
:1094180000E100E001F06043B3F1005F2DE9F041A5
:10942800064638D11E4B0779242505FB0735984693
:109438006C69002C31D16A610068A9604FF49071A1
:10944800FFF706FE4FF4AC713068FFF701FE336892
:109458006A69A968C3F84415C3F8482501229A60C7
:109468006A68AAB9D3F82021D3F858411AB9002C50
:10947800F8D00F2407E0002CFBD10122DA60D3F8E2
:109488005821002AFBD0242303FB078700237B6194
:109498002046BDE8F0811024FAE71124F8E700BF60
:1094A800642B0020032811D8012A0AD101290FD1E1
:1094B80000F10E02D2B20D4B00EB40001A5400200E
:1094C80070470129F7D0022904D049B10720704715
:1094D8000022F8E7054B00EB400018444270EEE725
:1094E800024B00EB400018448270E8E7882B00200C
:1094F80008B5012202210020FFF7D4FF08B1072890
:1095080010D1072202210120FFF7CCFF08B107285C
:1095180008D100210A220846FFF7C4FF10B1072826
:1095280008BF002008BD00000388102B10B502D02A
:10953800112B1ED010BD1A4C2168B1B90122084662
:10954800FFF7B0FF08B1072824D107220221012024
:10955800FFF7A8FF08B107281CD104220221002028
:10956800FFF7A0FF08B1072814D12368013323604F
:10957800E0E70B4A1368013B1360002BDAD1FFF7D1
:10958800B7FF0028D6D0074B1B68002BD2D0BDE808
:1095980010401847034B1B68002BE6D09847E4E7B8
:1095A800982B0020942B002075DF704776DF7047DA
:1095B8008FDF7047FDF748BD0146014801F0E0BA6A
:1095C800282D002008B5074801F0E6F908B1FDF795
:1095D8003BFD0120FEF746FFBDE808400020FEF7EE
:1095E80035BF00BF542D00200388212B13B5044636
:1095F80048D007D8112B2ED01F2B39D0102B0AD0CA
:1096080002B010BD3B2B01D0562BF9D1A0881321F5
:10961800FFF7CCFF31E01F4B1F482049C01AC00894
:10962800000440F00300FDF727FAA1881C48002237
:1096380001F0B4FB08B1FDF707FDA188194800F057
:1096480015FC08B1FDF700FD0120FEF7FFFE002024
:10965800FEF708FFD4E70F4B0F481349C01AC0089C
:10966800000440F00300FDF707FAFFF7ABFFC7E778
:1096780000F108018088FFF797FF0028C0D0FDF7A8
:10968800E3FCBDE7002301A98088ADF80430FFF7AB
:109698008FFFF2E770B4020098B4020062BC0200C7
:1096A800282D0020001E00206DBC02000378062B28
:1096B80003D1406808B1FDF7C7BC70470D2807B54E
:1096C8000BD11048019101F039FB019A50B143F2D6
:1096D8000202904213D0082811D003B05DF804EBC1
:1096E800FDF7B2BC084B09480949C01AC008000474
:1096F80040F0030003B05DF804EBFDF7C1B903B017
:109708005DF804FB282D002070B4020098B4020014
:109718007BBC020070B50D78012D06460C4602D0C0
:10972800022D1ED070BD0A1D1948498801F036FB6C
:109738001848194B628819491B1ADB081B0443F0A7
:109748000300FDF79DF9FDF769FC08B1FDF77CFC06
:10975800304601F0CBFA0028E4D0BDE87040FDF7B0
:1097680073BC0C4B0C480A790D49C01AC008000498
:1097780040F00300FDF784F9237928461BB1BDE8C2
:109788007040FEF763BEBDE87040FEF76BBE00BFD9
:10979800282D002070B4020098B4020092BC020088
:1097A800C5BC02001FB54FF480410020FCF7AEFF96
:1097B80008B1FDF749FCFCF7DFFEFDF707FD08B12E
:1097C800FDF742FC0120FEF768FE3E4840F23332C6
:1097D8000121FDF7CDFB08B1FDF736FCFEF76AFB6A
:1097E80008B1FDF731FC01F031FB08B1FDF72CFCA5
:1097F800002369460120009301F0B0FB08B1FDF792
:1098080023FC684601F05CFC08B1FDF71DFC102242
:109818000021684601F079FD01232B4A2B488DF879
:10982800043069468DF80C3001F066F808B1FDF790
:109838000BFC26480022012101F046F808B1FDF78B
:1098480003FC234A2148002101F010F808B1FDF774
:10985800FBFB2048002100F0D7FC08B1FDF7F4FB22
:1098680008220021684601F050FD1B4C1B4B009359
:109878006846019400F0BCFA08B1FDF7E5FB184B07
:109888001848CDE900346946174B029301F0CCF92A
:1098980008B1FDF7D9FB154B15481649C01AC00881
:1098A800000440F00300FDF7E7F8FFF78BFE002007
:1098B800FEF7CCFDFCF784FF0028FBD1FEF710FB78
:1098C800F8E700BFE01D0020B5960200542D0020E7
:1098D80020BD0200402D0020E81D0020C195020097
:1098E8001D970200282D0020BD95020070B40200CB
:1098F80098B40200EBBC020070B5E8B14AB1168812
:109908000024B44203D305196D789D4208D0A142C2
:1099180001D8002010E0055D01352C44A4B2F0E721
:10992800A142F6D9005D0138A31C80B29DB210FA9D
:1099380083F38B42EDDC158070BDF7B50023064636
:10994800ADF80630144612B9002003B0F0BD092363
:109958000DF10602FFF7D0FFBDF806700546002F8F
:10996800F2D00028F0D0204601F029FDA842024696
:10997800EAD1F119204601F06CFCB0FA80F04009F8
:10998800E3E70AB1FDF74CBFFDF753BF73B501918B
:10999800019C06466CB100252C46294601A8FDF716
:1099A80052FF18B106EB440301349D800135142D94
:1099B800F3D13046346002B070BD00002DE9F047A5
:1099C80003888488103B8CB005460A2B1FD8DFE833
:1099D80003F0063F1E1E1E1E1E1E1E604400314E52
:1099E800B368DB43009371686846FDF758FF009938
:1099F80001A8FFF7CBFF0DF108094FF00008019B04
:109A0800984507D3132C13D90420FDF71DFB0CB080
:109A1800BDE8F08739F802AB00270137514606EB5D
:109A28008700FDF706FF1E2FF7D108F10108E6E7CA
:109A38001D482146FDF7F4FE1C482146FDF7F0FEBF
:109A4800EB7B012BE3D01A482146FDF7E9FEDEE760
:109A580015482146FDF7EDFED9E7027A15483F2A59
:109A68004FEA1215214694BF00220122FFF789FF11
:109A7800022D94BF002201220F482146FFF781FFE3
:109A8800012D0E4894BF002201222146FFF779FFDD
:109A9800BDE7037A002BBAD1427A0648C2F3C00266
:109AA8002146F3E7BC2D0020C42D0020C02D002046
:109AB800C82D0020D42D0020D02D0020CC2D002032
:109AC80030B50B4B19680B4B0022914201D1002095
:109AD80009E09D788478A54206D11D880488A542AE
:109AE80002D1054B186830BD01320433EDE700BFE1
:109AF800402E0020442E0020382E00202DE9F84F5B
:109B080090F8C6A24FF0760B04460AFB0B00884675
:109B18009146FFF7D5FF074670B3D4F8CC52052D10
:109B28002AD804EBC5165A46A6F8D2920BFB0A416E
:109B380006F5357001F0C0FBB8F1000F14BF002323
:109B4800022386F8D0320D4BC6F84C731A680135DB
:109B58009542C4F8CC521D460ED104F53476002740
:109B6800F36F304698472B6801379F4206F180060D
:109B7800F6D30023C4F8CC32BDE8F88F402E00207D
:109B880030B5A1B004460D467C22002101A801F0A1
:109B9800BCFB03238DF80430044BADF806501B685A
:109BA80002940BB101A8984721B030BD382E00208F
:109BB8002DE9F041074691F8C60276234FF00008D8
:109BC800A0B081F8C88200FB03100C461546FFF7C9
:109BD80077FF064660B17C22414601A801F095FB5B
:109BE80001238DF80430ADF80650029701A8B0475C
:109BF80029462046FFF7C4FF20B0BDE8F0810000E9
:109C080030B58BB0044620220D4602A8002101F091
:109C18007CFB04220DEB0200002101F076FB94F896
:109C2800C53294F8C62213B3013B7621DBB2514307
:109C3800122000FB031323445B8A01339BB2ADF867
:109C48000430762303FB024202A91389ADF80630DB
:109C580003238DF80830019BCDE90543064B049397
:109C6800064B2A46186800F0D3FC0BB030BD7623AB
:109C780003FB0243DB88E2E7B99B02005C2E00206D
:109C8800F0B5044689B020220D466846002101F04F
:109C98003CFB94F8C7321E4A01331268DBB2934288
:109CA80084F8C7324FF000022BD294F8C632194F0D
:109CB80084F8C5220133DBB2762113FB01F057F893
:109CC800237084F8C6322618275001FB03433271EB
:109CD8001B68CDF81230104B029302220F4B8DF8FF
:109CE80000200122ADF81020186803942A4669461E
:109CF80000F08EFC18B12A462146FFF759FF09B03B
:109D0800F0BD84F8C82229462046FFF739FFF6E758
:109D1800402E0020442E0020B99B02005C2E00201B
:109D28002DE9F047044688B00D461646002120224A
:109D3800684601F0EAFA94F8C62294F8C512762328
:109D480012FB03F2A018122790F804C017FB012396
:109D580001F1010E0A33E645234411D004F11C0930
:109D680000F1220E0CF1FF389144CAB294450BD988
:109D780088451B890ED102899A421BD1002312E023
:109D88001B890289934215D101232B70002008B04A
:109D9800BDE8F08707FB01FA01333EF80A20934239
:109DA8001DD109EB0A0394F8C522013284F8C522B3
:109DB8000131DAE701339BB2ADF810300A4B029358
:109DC80000210A4B297004218DF80010ADF81220EB
:109DD800186803943246694600F01AFCD7E7013A3E
:109DE8009BB292B2E8E700BFB99B02005C2E00204C
:109DF80010B570B1026862B1436853B106490020DA
:109E08000860064901240C7005490A60054A136078
:109E180010BD0E20FCE700BF402E00203C2E002085
:109E2800382E00205C2E002010B5044680B10C4B63
:109E38001B787BB1FFF744FE70B90A4A1368052BFB
:109E48000CD80949246841F823400133136010BD38
:109E58000E20FCE70820FAE70020F8E70420F6E7E0
:109E68003C2E0020402E0020442E0020F0B50D4648
:109E78008BB0044600283BD0204B1B78002B39D0F0
:109E88001F4B1B68002B35D090F8C812002933D11E
:109E98004FF4BA621B4F019101F037FA0199202261
:109EA80002A801F032FA3868294600F051FCE8B9F6
:109EB800154BC4F8CC0284F8C502A4F8C602186889
:109EC800206002238DF808300126104BCDF81A00C7
:109ED800A4F8CA523868ADF818602A4602A9059451
:109EE800049300F095FB08B984F8C8620BB0F0BD84
:109EF8000E20FBE70820F9E71120F7E73C2E0020A9
:109F0800402E00205C2E0020442E0020B99B020029
:109F18002DE9FF410C46054660B159B1904B1B78BD
:109F280043B10388322B64D007D8112B00F00A8183
:109F3800302B20D004B0BDE8F081332BFAD18288D1
:109F4800B1F8CA329342F5D1C68891F8C6C291F8E1
:109F5800C572002E00F0C080762101FB0C4C002356
:109F68009CF804108DF80F307B1C8B4200F0E480C5
:109F780084F8C532A2E08388B1F8CA229A42D9D1BE
:109F8800C3886BBB91F8C632762202FB03130269C1
:109F9800C3F8062091F8C432827A1344062B0CDCED
:109FA80081F8C432A9882046FFF72AFE0028C1D0CC
:109FB800AA882146FFF7FCFDBCE7062381F8C432D6
:109FC8006848694B6949C01AC008000440F002009B
:109FD8000190FCF751FD66490198FCF74DFDE1E75A
:109FE80000212046FFF78AFDA9882046FFF748FE92
:109FF800A0E78288B1F8CA329A429BD1C388002B65
:10A0080058D191F8C672762317FB03F701EB0708BE
:10A01800837A98F804603344062B26DC88F80430E9
:10A02800334603EBC30207EB420205F10C06224458
:10A03800002198F80400834206F10A0602F1120290
:10A0480027D31222013B02FB034394F8C622762150
:10A058003B4401FB0242598A138999422AD20628B5
:10A0680028D0A98884F8C5029DE7062388F804301B
:10A078003C483D4BCA5B3F49C01AC008000440F049
:10A0880002000190FCF7FCFC3B490198FCF7F4FC4A
:10A09800C6E73046013350F80ACD42F808CCD0F86C
:10A0A80004C042F804CC0089108051809180D1808E
:10A0B8001181BEE7002384F8C532AA880DF10F018B
:10A0C8002046FFF72DFE00287FF472AF9DF80F3071
:10A0D800002B3FF42FAF32E0762303FB0CF1122361
:10A0E80003FB0713B0F80AE023447645BFF434AF06
:10A0F800C189A1F52451082908D8DFE801F014170F
:10A108000507070707071A0081899982998A39B1D3
:10A11800D98A29B1198B19B1598B00297FF41CAF41
:10A1280001360630E1E78189D982EFE78189198311
:10A13800ECE781895983E9E701238DF80F30AA8874
:10A1480001214EE7B1F8CA3282889A4201BF002342
:10A1580081F8C8324FF6FF73A1F8CA32EAE600BFA9
:10A168003C2E0020B0B4020070B402002EBD0200E4
:10A178004DBD020092BD0200D8BD020090DF7047BD
:10A18800A5DF7047B5DF70477FB50023ADF808102D
:10A19800ADF80A106A4602A9064603930093ADF883
:10A1A8000430FFF7EBFF054600B3124B124CE41ADC
:10A1B800E408FDF7D9FF240444F0010403460F49DD
:10A1C80032462046FCF765FCBDF80020BDF8023099
:10A1D80052EA030103D00A492046FCF75AFCBDF8AD
:10A1E80004201AB107492046FCF74AFC284604B067
:10A1F80070BD00BF70B40200D0B402003EBE0200C1
:10A2080088BE0200C7BE020078B14FF01713036082
:10A218001B2303711723C380038141F61B320023DC
:10A22800016143818281184670470E207047000003
:10A2380013B5034680880C46B8B91A88242A00F05A
:10A24800958014D8112A71D0232A00F09D80102AF5
:10A258003BD0A37A4BB1E1880020FFF791FF00289B
:10A2680040F098804FF48073638102B010BD3A2AA1
:10A2780064D0552AEDD1DB88C988A072172B38BF66
:10A2880017238B4228BF0B462381FFF77BFF60B162
:10A29800FDF76AFF484B4949024649481B1ADB0843
:10A2A8001B0443F00100FCF7EBFBE37A002BD0D151
:10A2B8002369002BCDD040F6772200922289ADF891
:10A2C8000420694620469847C3E7DB7B0A790A736E
:10A2D800012B13D0022B14D0E18823898B4205D29D
:10A2E8000020FFF74DFF70B90123E372217B637BE8
:10A2F8008B42AED20020FFF747FFAAE70B88E38026
:10A30800EAE74B88FBE7112802D10123A372EDE7A6
:10A31800FDF72AFF284B2B49024629481B1ADB0860
:10A328001B0443F00100FCF7ABFBDFE71723CB80EE
:10A338000B8141F61B3348818B818AE75B89CA8888
:10A34800934228BF1346172B0A6938BF17230B817E
:10A358004AB1C97A39B140F677210091ADF8043095
:10A368006946204690470023638172E71A7A0B6991
:10A378004A73002B3FF46DAF4DF67A218DF8050036
:10A3880000918DF804209CE7197A237B994228BF15
:10A398001946B0E711283FF468AFFDF7E5FE064B14
:10A3A8000849024606481B1ADB081B0443F0010053
:10A3B800FCF766FB59E700BFD0B402004EBF0200AD
:10A3C80070B402001DBF02009BDF70479DDF70471D
:10A3D8009EDF7047A1DF7047A3DF7047AEDF70478D
:10A3E80030B5048800239AB2944206D9456835F8F6
:10A3F80013508D4203F10103F5D1104630BD8B692E
:10A4080010B50C461988102912D80231FDF7F9FC4D
:10A41800606078B1A16900230222FDF734FDA269CA
:10A4280060681288E1690223FDF72DFD002010BD48
:10A438000920FCE70420FAE710B50C46C98A102960
:10A448000AD8FDF7DEFC606040B1E28AA16900230A
:10A45800FDF719FD002010BD0920FCE70420FAE7EC
:10A46800F0B58BB0002204460DF10601C068124E0B
:10A47800FDF7D1FD142502460AB10BB0F0BDBDF8B9
:10A488000670A36805FB073702A93846FDF7C3FD28
:10A4980038B10022E0680DF10601FDF7BCFD024667
:10A4A800EAE79DF8083056F8233013B10398FDF712
:10A4B80092FC0022E8E700BFFCBF0200F7B50546A2
:10A4C8000C4C0D480092241AE40824040B460F464D
:10A4D80016460A492A7844F00100FCF7E4FAAB680A
:10A4E80033B1E9683A46304603B0BDE8F040184752
:10A4F80003B0F0BDD8B4020070B402008ABF0200F5
:10A50800F0B58FB00D46012206A90646FDF783FD7A
:10A51800044690B99DF81830052B65D8DFE803F09C
:10A52800030F1C24292EBDF82A20BDF82810284620
:10A53800FFF750FF0446112C40D10FB0F0BD02A91F
:10A548000798BDF82E200C910023FDF7A6FC0AA958
:10A558002846FFF741FFEDE7BDF828100DF12A0264
:10A568002846FFF731FFE5E70AA92846FFF72EFF3F
:10A57800E0E70AA92846FFF72BFFDBE70DF1060401
:10A5880002AB214607980D9302220023FDF785FCB4
:10A59800BDF806200D9907980C940223FDF77DFC61
:10A5A8000AA92846BDF80670FFF718FF04460028D8
:10A5B800C1D1BDF80630BB4218BF0C249DF8182045
:10A5C8000F4B53F8223013B10798FDF704FC002213
:10A5D80006A93046FDF71FFD002CAED022462946BD
:10A5E80006A8FFF76BFFA8E70648074B07491B1AA1
:10A5F800DB081B0443F00200FCF73EFADEE700BF6D
:10A60800FCBF020070B40200D8B40200D4BF02003C
:10A618002DE9F8430F461446054620B94FF00E08B9
:10A628004046BDE8F8830029F8D0FFF719FF3B78CA
:10A63800052B6AD821462846FFF7D2FE2B8883428D
:10A6480063D014264643A8683044FDF7DDFC002893
:10A6580060D03B78052B3BD8DFE803F00311171EC9
:10A66800242A7A8A398A2046FFF7B4FE112851D065
:10A6780058B3024621463846FFF720FF25E007F188
:10A6880010012046FFF7A8FEF0E7398A07F1120209
:10A698002046FFF799FEE9E707F110012046FFF78A
:10A6A80095FEE3E707F110012046FFF791FEDDE78D
:10A6B800BB6907F110012046B3F80080FFF78EFE52
:10A6C80030BBBB691B8843450DD14FF00008A7E795
:10A6D8001B4B1C481C49C01AC008000440F002006B
:10A6E800FCF7CAF9F1E70C20C3E72869002895D0E0
:10A6F800394698478046A0B192E73B7859F823300D
:10A70800BBB17868FDF767FB13E04FF0070887E7F0
:10A718001128AED10D4A3B7852F823309146002BD0
:10A72800E3D1A86839463044FDF718FC8046002874
:10A73800E3D1A86821463044FFF7E2FE70E700BF86
:10A7480070B40200D8B40200D4BF0200FCBF0200FB
:10A75800F8B50D46044678B3FFF782FE2946204631
:10A76800FFF73EFE2288824211D00020F8BD6168C2
:10A7780031F81310814203F101030BD02088002324
:10A788004FF6FF769AB282420BD30420EEE70023FD
:10A798004FF6FF7099B28A42E9D82069FDF719FB94
:10A7A800ECE761685A0001EB43078A5AB24203F1A9
:10A7B8000103E7D13D80D8E70E20D7E737B50C462F
:10A7C80008B301B30588112D15D181882046FFF7FC
:10A7D80007FE2388ADF80600834214D0112D14D14A
:10A7E80063684FF6FF7223F810200DF10601E06848
:10A7F800FDF7B4FB07E0A5F130031F2BE5D9A5F160
:10A8080050031F2BE1D903B030BDA368142202FB0B
:10A818000030FFF775FEF6E78ADF70478BDF704779
:10A828008CDF704730B590F8233089B004460D4668
:10A83800D3B190F82C300193FFF7F0FF14220021D8
:10A8480003A800F062FD019B04F1240204F12E012B
:10A85800A81CFFF7E5FF06238DF80C30049018B10B
:10A86800E36B0BB103A8984709B030BD70B5154626
:10A87800044618B312B319BB104600F0A0FD013806
:10A88800C0B21F281ED894F820600EB1042014E02E
:10A898002946204600F06CFD78B194F82000431C4E
:10A8A80084F8203004EB4014284600F088FD29463F
:10A8B8000246204600F000FD304670BD0E20FCE741
:10A8C8000720FAE70C20F8E768B1CB060DD011F0A5
:10A8D800010116BF012380F8211080F8213080F88B
:10A8E8002220002070470E2070470720704790F8FC
:10A8F8002E00C0F3C000704738B50D460446002846
:10A9080043D0C2630021232200F0FFFC65B32B79FA
:10A9180084F823302B7B84F82C302B68D3B104F1D6
:10A928002E0203F10C0153F8040B42F8040B8B427E
:10A93800F9D11B881380AA680AB31068516804F11A
:10A94800240303C304F1400323661F23A4F86430DF
:10A95800002038BDE28DA38602F0E30242F4827241
:10A96800E2850B4A2263E6E7E38DA58603F0E3035D
:10A9780043F48273E385064B236384F82350054A26
:10A988004FF0C873C4E90923DCE70E20E1E700BFF4
:10A99800A00050000600180010B5044686B048B361
:10A9A8001422002101A800F0B0FCFFF737FF204671
:10A9B800FFF79DFF30B1E36B23B101228DF804202E
:10A9C80001A8984704F1600104F12E00FFF724FF65
:10A9D800044630F008000BD00748084B08491B1AFA
:10A9E800DB081B0443F001002246FCF749F8204627
:10A9F80006B010BD0E20FBE770B40200C0B4020020
:10AA080014C002002DE9F04F054687B035F8083B21
:10AA18001D2B06460C4620D007D8102B00F0958039
:10AA28001B2B7AD007B0BDE8F08F202BFAD1142267
:10AA3800002101A800F069FCE26B002AF2D0286826
:10AA4800696805238DF8043002AB03C32E34297AD4
:10AA58000594197001A89047E4E71422002101A881
:10AA680000F053FC04F12E0320460593FFF73FFF47
:10AA780004F1600878B102238DF8043001A8E36B73
:10AA88000295984741460020FFF7C6FE2946204612
:10AA9800FFF7C8FEC6E794F8210094F8229088B31F
:10AAA80094F820A0B6F824B0274604EB4A1A574574
:10AAB80018D10020034601220295B9F1000F24D0D5
:10AAC8009A4226D100238DF8043029462046FFF704
:10AAD800A9FEE36B0BB101A8984741460020FFF798
:10AAE8009BFE9FE73A46306A5946FEF726FF203715
:10AAF8000028DCD09DF80C3043F001038DF80C30B1
:10AB08000123D8E703460246D6E710B18DF8049032
:10AB1800DBE703238DF80430DBE71422002101A8CA
:10AB280000F0F3FB327A012A7FF47CAFE36B002B51
:10AB38003FF478AF04212E348DF8041005948DF875
:10AB480008200DEB010098476CE71422002101A8AA
:10AB580000F0DBFB07238DF80430B388ADF80C3028
:10AB680004F12E030593E36B0295002B3FF45AAFD3
:10AB780001A8E8E762DF7047CB6803B11847704760
:10AB88002DE9F0430A7885B00346002A39D18C882C
:10AB980041F22350844234D18C79187C844230D1DC
:10ABA80001208DF8040091F808E04888BDF80C6091
:10ABB800BDF80A50BDF80840ADF806001746104623
:10ABC80041F2245841F2255986451DD80FB1ADF8F8
:10ABD8000C601AB1ADF80A50ADF8084019884FF664
:10ABE800FF72914209D05A683AB95A882AB902982C
:10ABF800BDF80C20C3F80200DA809A6801A918464B
:10AC0800904705B0BDE8F083B1F80EC0C44506D042
:10AC1800CC4501D1CE8A012701301231D4E7CD8A43
:10AC28000C8B0122F8E70000F0B5194A87B002AD95
:10AC380004460B4602F1100C2F46106851682E4648
:10AC480003C6083262453546F7D1FCB1F3B119683D
:10AC5800E1B15A68D2B100209B68A1604FF6FF7538
:10AC6800C4E900506261E36004F110013846FFF75F
:10AC780081FF48B9237C8DF8063001A841F223539F
:10AC8800ADF80430FFF7D0F807B0F0BD0E20FBE7B1
:10AC98004BC002001FB503460846D9B1D3B11A8884
:10ACA800112A19D0392A15D109889A888A4211D1CE
:10ACB8005C8981888C420DD1D98901290AD11B7CF4
:10ACC8008DF8083002218DF804108368ADF806204D
:10ACD80001A9984704B010BD9A880B889A4202BF10
:10ACE8004FF6FF720023C1E90023F3E700B58BB0EC
:10ACF800E8B102884FF6FF739A421AD00E49CDE99F
:10AD080004104188ADF81A104FF40031079101A9D9
:10AD1800012308914069ADF8043002A98DF8083084
:10AD28008DF81830FFF774FC0BB05DF804FB0E20AB
:10AD3800FAE70820F8E700BF81AB020010B58AB037
:10AD480004468DF8071010B302884FF6FF739A4235
:10AD58001FD02022002102A800F0D7FA01238DF885
:10AD680008300D4B22886069CDE90434E388ADF8DA
:10AD78001A300DF1070308934FF48033079302A9A3
:10AD880002238DF81830FFF743FC0AB010BD0E20DF
:10AD9800FBE70820F9E700BF81AB020048B101805A
:10ADA80022B11368C0F802309388C3804069FFF766
:10ADB800CFBC0E20704710DF7047000013B5044663
:10ADC80009496846FDF775F9019808B902B010BD40
:10ADD800D0E900212046904718B16846FDF773F97D
:10ADE800F2E71120F2E700BF68C0020013B504467D
:10ADF80007496846FDF75DF9019B0BB902B010BD24
:10AE08002046D3E9002190476846FDF75CF9F3E74F
:10AE180080C002000B4991F816335A09EC231341FC
:10AE2800DB0706D5084B9A683AB94FF480030B60E4
:10AE3800704742F20200FCF707B91A6842F4800230
:10AE48001A60704700E100E0842A0020F7B5194F26
:10AE58003C7864BB184E012520463570FFF7AEFFDD
:10AE6800112821D02046FFF7C1FF144B8DF803406D
:10AE7800186801900DF10300FCF7D0FA104901A8F9
:10AE8800FFF799FF0446B0FA80F0400938709DF842
:10AE98000300FCF7E7FA3CB90A4B34701C70FFF763
:10AEA800B9FF2846FFF7A2FF204603B0F0BD0824EB
:10AEB800FAE700BF612E0020602E002063C0020068
:10AEC8006D700200622E0020014B1878704700BF99
:10AED800612E002007B508496846FDF7EAF8019B8E
:10AEE80013B903B05DF804FBD3E900209047684626
:10AEF800FDF7E9F8F3E700BF74C00200FFF7EABF07
:10AF080060DF704769DF704761DF704730B5114B0C
:10AF18001B7891B0E3B1104D34240DF1020103A860
:10AF2800ADF80240FFF7F0FF70B9294601A8FDF718
:10AF3800C0F8029B002BF0D003A8D3E9002190476A
:10AF480001A8FDF7C0F8F4E7052801D0FCF77CF864
:10AF580011B030BD632E0020C4C2020030B50546D2
:10AF680085B00C46002900F099804D4B0B600C22EF
:10AF7800002101A800F0C9F901238DF806302268E4
:10AF88008DF80450062301A92020ADF80830FFF7FA
:10AF9800B9FF60B1FDF7E8F8424B43490246434820
:10AFA8001B1ADB081B0443F00100FBF769FD0C22A8
:10AFB800002101A800F0A9F900238DF805302268C6
:10AFC80040F2011301A94020ADF80630FFF79AFFBF
:10AFD80060B1FDF7C9F8334B3549024633481B1AAF
:10AFE800DB081B0443F00100FBF74AFD0C2200219B
:10AFF80001A800F08AF90A2322688DF8043001A913
:10B008000120FFF77FFF60B1FDF7AEF8254B294916
:10B01800024626481B1ADB081B0443F00100FBF715
:10B028002FFD0C22002101A800F06FF9F8232268F7
:10B03800019301A9A120FFF765FF60B1FDF794F81E
:10B04800184B1D49024619481B1ADB081B0443F01C
:10B058000100FBF715FD0C22002101A800F055F9AD
:10B068009DF8043022686FF3000301A9A0208DF831
:10B078000430FFF747FF034668B1FDF775F8094B41
:10B088000E49024609481B1ADB081B0443F001005D
:10B09800FBF7F6FC0023184605B030BD0E23FAE78F
:10B0A800B81D0020E8B402008CC0020070B4020091
:10B0B800D2C002001EC102006AC10200BBC1020068
:10B0C80073B505460668FFF71BFF2B68B3420446B5
:10B0D8001DD91A481A4B1B491B1ADB081B0443F0DD
:10B0E80002000190FBF7C8FC2B681749019832460B
:10B0F800FBF7CFFC4FF080532A68D3F80C31134983
:10B1080001989B0203F100539A1AFBF7B9FC2CB97A
:10B118000F4B01221A70204602B070BD2046FDF781
:10B1280023F8074B0B49024604481B1ADB081B048B
:10B1380043F00100FBF7A4FCEDE700BF70B4020088
:10B14800E8B402000EC202003DC202006EC2020054
:10B15800632E002098C202004BDF70471FB50D4CCC
:10B1680001A8FFF7F9FF70B9214602A8FCF7A1FF73
:10B17800039B002BF4D00198D3E90021904702A843
:10B18800FCF7A1FFF4E7052801D0FBF75DFF04B049
:10B1980010BD00BFDCC202007F2805D8034B185C35
:10B1A800034B5B5C1840704700207047F4C20200F4
:10B1B80074C30200A0F16103192B98BF20387047AF
:10B1C800A0F14103192B98BF203070477F2805D87C
:10B1D800034B185C034B5B5C1840704700207047BA
:10B1E800F4C2020074C30200A0F16103192B98BFD6
:10B1F80020387047A0F14103192B98BF20307047C1
:10B208007F299ABF017001206FF02E0070475AB154
:10B218000A787F2A0AD800B10260002119605960B3
:10B22800501A18BF01207047002070476FF02E0099
:10B238007047000008B5034B5B689B681B6898471C
:10B2480008BD00BFD023002008B50921FFF7F2FF91
:10B2580008BD7AB370B414460F2A15D902460B46B6
:10B2680040EA010515F0030F01D0013C0EE0194634
:10B2780010460432043306680D68AE4204D1104605
:10B288001946043C042CF2D8013C0ED00A46034669
:10B298000444114618460133013206780D78AE424F
:10B2A80003D118461146A342F3D100780B78C01A8F
:10B2B80070BC704700207047844640EA010313F0D1
:10B2C800030F18D18446202A0BD32DE9F007B1E8E3
:10B2D800F807A0E8F807A2F12002202AF7D2BDE873
:10B2E800F007042A07D351F8043B40F8043BA2F1C5
:10B2F8000402042AF7D2002A05D011F8013B00F80D
:10B30800013B013AF9D1604670478446002A2DD0A6
:10B3180010F0030F04D000F8011B013A26D0F7E71C
:10B32800C9B241EA012141EA0141202A12D3A2F11E
:10B3380020022DE9F0030B460C460D460E460F463B
:10B3480088468946A0E8FA03203AFBD2BDE8F00314
:10B3580020320BD0042A05D340F8041B043A05D048
:10B36800042AF9D200F8011B013AFBD16046704764
:10B3780010F0030F19D111F0030F16D12DE9700049
:10B388004FF001364FF0803350F8044B51F8045B0E
:10B39800AC4205D1A4EB060525EA04051D40F3D00F
:10B3A800A0F10400A1F1040170BC10F8012B11F800
:10B3B800013BD21A01D1002BF7D11046704700F19A
:10B3C800010110F0030F11D010F8012B002A23D02F
:10B3D80010F0030F0AD010F8012B002A1CD010F02F
:10B3E800030F03D010F8012B002A15D02DE97000A7
:10B3F8004FF001324FF0803350F8044BA4EB0205B4
:10B4080025EA04051D4000D1F6E7A0F1040070BC50
:0EB4180010F8012B002AFBD1A0EB01007047B9
:08B42800218502000000000074
:10B43000C5990200000000003195020000000000E4
:10B44000C5A70200E81D0020199F0200001E002071
:10B4500039A20200402D00200DAA0200542D002028
:10B460009DAC0200282D0020F19502000000000094
:10B4700046BC0200000000004CBC020000000000BE
:10B4800053BC02000000000057BC02000000000096
:10B490005CBC020000000000BAB50200000003031B
:10B4A00090B6020000000000B9B6020000000000E3
:10B4B00032BE02000000030341C00200000003038B
:10B4C00038C002000000030340BC0200000000007E
:10B4D0007DBF020000000303EFBF02000000030372
:10B4E0005BC0020000000303B5C2020000000303BA
:10B4F000D0C202000000030326B7020000000000D3
:08B500003CB70200000000004E
:10B5080028240020F0240020F824002030240020E3
:10B51800180000009C2B0020642C00206C2C0020BC
:08B52800A42B00201800000014
:10B53000702C00206C2C0020010000000200000094
:04B540000100000006
:08B54400A185020000000000D7
:10B54C0015AF02000000000065B102000000000011
:10B55C008CB502000000000098B50200CC1D002044
:10B56C00FFFFFFFFFFFFFFFFFFFFFFFFFFFFFFFFDF
:10B57C0000000000000000000000D60106010000E1
:10B58C00E96402004D650200896402007561727401
:10B59C005F6C6F675F6261636B656E6400426163D1
:10B5AC006B656E647320666C75736865640061709E
:10B5BC00700000001C2900207F0000009C29002046
:10B5CC001B5B306D002573001B5B313B33316D0011
:10B5DC0025734C6F67732064726F707065642028DC
:10B5EC0025642925730D0A003C25733E2025733AEA
:10B5FC002000202530327800202020007C0025639C
:10B60C00001B5B313B33306D001B5B313B33326DC8
:10B61C00001B5B313B33336D001B5B313B33346DB3
:10B62C00001B5B313B33356D001B5B313B33366D9F
:10B63C00001B5B313B33376D007761726E696E674F
:10B64C0000696E666F00646562756700CCB50200B8
:10B65C000DB60200D4B5020015B602001DB60200EC
:10B66C0025B602002DB6020035B602003DB602002A
:10B67C0000000000A6B6020045B602004DB602005E
:10B68C0052B602006170705F627574746F6E000068
:10B69C00C0290020466174616C206572726F720063
:10B6AC0053797374656D2072657365740061707085
:10B6BC005F74696D657200000100060000000000F7
:10B6CC00FC290020DD70020052544320696E737413
:10B6DC00616E636520616C726561647920696E6965
:10B6EC007469616C697A65642E005254433A20691E
:10B6FC006E697469616C697A65642E0000000000E3
:10B70C00000000000338FDD8704730313233343537
:10B71C00363738394142434445467077725F6D671E
:10B72C006D74000070B4020070B4020004000000DC
:10B73C00736F72746C697374004E52465F53554349
:10B74C0043455353004E52465F4552524F525F533E
:10B75C0056435F48414E444C45525F4D4953534903
:10B76C004E47004E52465F4552524F525F534F4622
:10B77C00544445564943455F4E4F545F454E4142F4
:10B78C004C4544004E52465F4552524F525F494E13
:10B79C005445524E414C004E52465F4552524F5208
:10B7AC005F4E4F5F4D454D004E52465F4552524FD6
:10B7BC00525F4E4F545F464F554E44004E52465FBB
:10B7CC004552524F525F4E4F545F535550504F524B
:10B7DC00544544004E52465F4552524F525F494EBB
:10B7EC0056414C49445F504152414D004E52465FC8
:10B7FC004552524F525F494E56414C49445F535447
:10B80C00415445004E52465F4552524F525F494E8D
:10B81C0056414C49445F4C454E475448004E5246A5
:10B82C005F4552524F525F494E56414C49445F4618
:10B83C004C414753004E52465F4552524F525F495E
:10B84C004E56414C49445F44415441004E52465F70
:10B85C004552524F525F444154415F53495A45003F
:10B86C004E52465F4552524F525F54494D454F55CB
:10B87C0054004E52465F4552524F525F4E554C4CFF
:10B88C00004E52465F4552524F525F464F5242490C
:10B89C004444454E004E52465F4552524F525F490A
:10B8AC004E56414C49445F41444452004E52465F0F
:10B8BC004552524F525F42555359004E52465F45C6
:10B8CC0052524F525F434F4E4E5F434F554E5400B2
:10B8DC004E52465F4552524F525F5245534F55524E
:10B8EC00434553004E52465F4552524F525F4D4FA7
:10B8FC0044554C455F4E4F545F494E495449414C59
:10B90C00495A4544004E52465F4552524F525F4D84
:10B91C00555445585F494E49545F4641494C45443E
:10B92C00004E52465F4552524F525F4D555445584A
:10B93C005F4C4F434B5F4641494C4544004E524689
:10B94C005F4552524F525F4D555445585F554E4CC2
:10B95C004F434B5F4641494C4544004E52465F4570
:10B96C0052524F525F4D555445585F434F4E445FB2
:10B97C00494E49545F4641494C4544004E52465F3E
:10B98C004552524F525F4D4F44554C455F414C52BE
:10B99C00454144595F494E495449414C495A4544E3
:10B9AC00004E52465F4552524F525F53544F5241D4
:10B9BC0047455F46554C4C004E52465F4552524FE0
:10B9CC00525F4150495F4E4F545F494D504C454D6D
:10B9DC00454E544544004E52465F4552524F525FBD
:10B9EC00464541545552455F4E4F545F454E41427A
:10B9FC004C4544004E52465F4552524F525F494FA0
:10BA0C005F50454E44494E47004E52465F45525298
:10BA1C004F525F4452565F5457495F4552525F4FE5
:10BA2C0056455252554E004E52465F4552524F5259
:10BA3C005F4452565F5457495F4552525F414E41E5
:10BA4C00434B004E52465F4552524F525F44525642
:10BA5C005F5457495F4552525F444E41434B004E31
:10BA6C0052465F4552524F525F424C455F495053CC
:10BA7C00505F52585F504B545F5452554E43415493
:10BA8C004544004E52465F4552524F525F424C4520
:10BA9C005F495053505F4348414E4E454C5F414CBB
:10BAAC0052454144595F455849535453004E5246F0
:10BABC005F4552524F525F424C455F495053505F65
