:020000022000DC
:1060000000000120756302005D6302005F6302000F
:106010006163020063630200656302000000000028
:1060200000000000000000000000000067630200A4
:1060300069630200000000006B6302006D630200F0
:10604000398B02006F630200798F02006F630200D8
:106050006F6302006F630200F58D02006F63020040
:106060006F6302006F6302006F6302006F630200E0
:106070006F6302006F6302006F6302006F630200D0
:106080006F630200F57902006F6302006F63020024
:106090006F6302006F63020011C502006F630200AC
:1060A0006F6302006F6302006F6302006F630200A0
:1060B0006F6302006F630200000000000000000038
:1060C0006F6302006F6302006F6302006F63020080
:1060D0006F6302006F6302006F6302000000000044
:1060E00000000000000000000000000000000000B0
:1060F00000000000000000000000000000000000A0
:10610000000000000000000000000000000000008F
:10611000000000000000000000000000000000007F
:10612000000000000000000000000000000000006F
:10613000000000000000000000000000000000005F
:10614000000000000000000000000000000000004F
:10615000000000000000000000000000000000003F
:10616000000000000000000000000000000000002F
:10617000000000000000000000000000000000001F
:10618000000000000000000000000000000000000F
:1061900000000000000000000000000000000000FF
:1061A00000000000000000000000000000000000EF
:1061B00000000000000000000000000000000000DF
:1061C00000000000000000000000000000000000CF
:1061D00000000000000000000000000000000000BF
:1061E00000000000000000000000000000000000AF
:1061F000000000000000000000000000000000009F
:10620000354936480A1A02D0072291438D4634494F
:1062100034480A1A06D00722914381F309880222E2
:1062200082F3148830483149314A00F044F831484B
:106230003149324A00F03FF831483249324A00F0E1
:106240003AF832483249334A00F035F83248334997
:10625000334A00F030F833483349344A00F02BF821
:1062600033483449344A00F026F83448344900228F
:1062700000F02CF833483449002200F027F8334866
:106280003349091A082902DB002202604160314AC1
:1062900090471F481F49884205D00268043003B464
:1062A000904703BCF7E700208646EC46002000211B
:1062B000294A9047FEE7884207D0521A05D0037852
:1062C00001300B700131013AF9D17047884202D098
:1062D00002700130FAE770470000012000E0002062
:1062E0000000012000000120D4E70200282A00203D
:1062F0005C300020D0630200D0630200BCD30200F7
:10630000D4E70200282A0020282A0020FCD402001A
:10631000FCD40200FCD40200FCD40200FCD4020035
:10632000FCD40200FCD40200FCD40200D3E702003B
:1063300008EE02005C3000205C3000205C30002061
:106340005041002050410020504100205041002089
:10635000506100209D630200BDAA0200FEE7FEE737
:10636000FEE7FEE7FEE7FEE7FEE7FEE7FEE7FEE705
:1063700000F002B8FFF7FCBF0F484FF00701884359
:1063800085460E4880470E48016841F4700101605F
:10639000BFF34F8FBFF36F8FFFF732BF09480A4932
:1063A0000A4A884207D0521A05D0037801300B7090
:1063B0000131013AF9D170470000012061850200E6
:1063C00088ED00E0FCD40200282A0020282A0020C2
:1063D0007047000007B5044B0093044A402300F0C7
:1063E00032F803B05DF804FBF16302005D30002079
:1063F0002DE9F84388461446B2B10F4B0F4E0325E2
:10640000002743F00109224608EB0701002004F0B1
:10641000C9FE0744241A48B933782BB14FF47A40A7
:10642000C847013D02D13570BDE8F88301233370C0
:10643000002CE8D1F8E700BF00D502005C30002056
:10644000704704F0E3BEF0B595B01D461646084609
:106450000C4601F059FE1A9B0D93CDE90865002505
:106460002B46082205A920460A958DF82C500C953C
:1064700001F067FE079B0293069B03939DF814307F
:106480008DF8115003F00302012A1DD1BDF814202C
:10649000059DC3F3C203C2F383168DF81030B2001A
:1064A00008230EA9204601F04CFEC5F3952508AB44
:1064B0000093324602AB0EA9284600F0D1FB2046DD
:1064C00001F026FE15B0F0BD022AF8D1BDF8165035
:1064D000C3F3C203C5F389158DF810300827082DC2
:1064E0002E4628BF08263B4632460EA9204601F01C
:1064F00028FEAD1B08AB02AA31460EA8374400F0B7
:1065000013FC002DEBD1DAE708B5FFF79AFF04483A
:10651000042100F00DFB034B01225A7108BD00BF9E
:10652000ECD40200282A0020037813F0040216D0CD
:1065300003F00303012B03D0022B09D00120704785
:106540000A6800880232C0F3831002440A60F5E74B
:106550000B684288023303EB92130B60EEE71046A0
:10656000704700002DE9F04F87B000230446861CD9
:106570000DF107000F4615468DF8073001F0CAF8F7
:10658000454801683960D0E90132134401335B1A90
:10659000824600F21C4700F5836900F21448B342BA
:1065A0001CD30020002D73D004F00F039B0143F097
:1065B000050363F30F00DAF80020DAF8083013401F
:1065C000033316444AF823009DF80700CAF8006018
:1065D00001F0C4F8012007B0BDE8F08F0121384672
:1065E00001F0BDFA484601F0D2FA404601F0CFFA78
:1065F000DAF80400DAF808B0029000EA0B00033081
:106600000AEB800002A9FFF78FFF029B50BB0BEA49
:1066100003020AEB820203F1020CD26803920133F7
:1066200003EA0B0B0AEB8B0B02F00302012ADBF8E7
:106630000C10CDF808C023D0022A16D0834640465D
:1066400001F0A8FA10B1029BCAF804305946384646
:1066500001F085FADAE901231344DAF80020013366
:106660009B1A9CE70BEA0300C9E7BDF80E30C3F3A1
:10667000891303334FEA114B0CEB93030293DEE7CC
:10668000BDF80C30C3F383134FEA114B6344F5E7B5
:10669000A40544F006008EE7703100200B4B0C4837
:1066A000FF2210B59A600022C3F81824C3E9002223
:1066B000C3F8142483F8202401F0DFFC044610B949
:1066C000044801F09DFE204610BD00BF703100203F
:1066D00060D402003CD5020030B50A4C71B10A4AC0
:1066E0000A49121BD20800239A4201D1002030BD72
:1066F00031F82350854202D00133F5E7034654F8C0
:106700003300F4E7C8D3020060D40200282A002036
:10671000094B013903EBC000032909D8DFE801F078
:106720000A020406042070470079704740797047D8
:106730000020704702207047C8D30200034BD3E902
:106740000030C31A58425841704700BF70310020D2
:106750002DE9F04387B0FFF7F1FF0646002840F02F
:10676000F9807D4DC5F81804BFF34F8F6B68AC6896
:1067700002932340033305EB830002A9FFF7D4FE05
:10678000029B18B1D5F81824002A5FD004EA03024E
:10679000991C013305EB8202234005EB8303D26889
:1067A000DB68049302F00303022B0392029160D191
:1067B000BDF80E306948C3F38917502FB84628BF7B
:1067C0004FF0500868F38F1308F10801ADF80E3050
:1067D00001F06BFC0646002800F0A78001F094FC55
:1067E0000023082203A9304601F0A1FC029924EA03
:1067F00001020132B8EB820F4FEA820332D95FFA0D
:1068000088F85BB32140DCB2A8EB040803315FFADF
:1068100088F9A046524C05EB8101082342463046D8
:1068200001F085FC34B108F108034A4621463046A0
:1068300001F07DFC029B033703EB97070297D5F825
:106840001834002B49D1D5F8104459E02A689A42EF
:106850008FD86A60304607B0BDE8F08340491C46D7
:106860009946DAE70C40E11C0823424605EB81011A
:10687000DDE7012B59D1BDF80C303848C3F3831143
:10688000062928BF062161F3891302318900ADF87A
:106890000C3001F00AFC0646002846D001F034FC1A
:1068A0000023082203A9304601F041FC0027BDF86F
:1068B0000C20C2F38312BB00974203F10803BED23F
:1068C00002994A1C21400331029205EB8101042206
:1068D000304601F02CFC0137E9E7304601F018FCA6
:1068E000FFF72CFF80F00100C6B2B3E7E3685B79E5
:1068F00023B1236831461B6820469847E3681C682B
:10690000002CF3D1304601F003FC0DF107008DF8A7
:10691000074000F0FFFED5F818340BB9029B6B60FE
:106920009DF8070000F01AFFDAE7D5F8104454B9D3
:106930000C4B0D480D49C01AC008000440F002007D
:1069400000F062F8CCE7236820469B689847E3682C
:106950001C68ECE700267DE77031002060D402005F
:106960007C310020C8D30200F0D3020024D50200FD
:106970002DE9F74F224D04460F46924601A9012208
:106980001846D5F808909B46FFF7ECFD20B3019E12
:106990004FF00008B21CD84508EB020126D1194877
:1069A000002101F0B9F880F31000000440EA14401F
:1069B000E400731C04F0380403EA090306EA09063C
:1069C00044F0010405EB8303033644EA881444EAE7
:1069D0008724D86045F8264095F820341BB1FFF78E
:1069E000B7FE0028FBD103B0BDE8F08F09EA010132
:1069F00005EB81015AF82830CB6008F10108CAE79D
:106A0000703100208C35002000231A46FFF7B0BFFC
:106A100007B50123019201AAFFF7AAFF03B05DF8B1
:106A200004FB07B5CDE9002302236A46FFF7A0FF68
:106A300003B05DF804FB1FB5CDE90123069B03936A
:106A400001AA0323FFF794FF05B05DF804FB7FB5AF
:106A5000CDE90023089B0293099B03930A9B0493AF
:106A60000B9B05936A460623FFF782FF07B05DF88C
:106A700004FB00002DE9F3472B4D0446D01C89464A
:106A8000164601A900228008AF68FFF76BFDA8B386
:106A9000DDF80480AB6808F1020001900133384052
:106AA0001B1AB6EB830F00F103004FEA830A05EBD4
:106AB00080002DD83246494606F09BF81B4800213D
:106AC00001F02AF880F3100008F101033B4007EAC7
:106AD0000807220C05EB8303033742EA0040E40079
:106AE000D86004F0380455F8273044F0020444EA32
:106AF000865203F47C131A4345F8272095F8203476
:106B00001BB1FFF725FE0028FBD102B0BDE8F087DE
:106B10005246494606F06DF8A6EB0A0209EB0A0157
:106B200005F10C00C8E700BF703100208C35002053
:106B300030B50F49D1F8102403460020144634B96B
:106B4000DC6820714AB9C1F81034226030BDE468B5
:106B50002579854206D02468F1E7D2681168216062
:106B60001360F3E701300A28E8D14FF0FF30EDE77A
:106B700070310020094A38B50123D2F8104482F858
:106B800020341D4604B938BDE3685D712368204692
:106B90005B689847E3681C68F4E700BF7031002029
:106BA00007B503460846197A052911D05B7A2BB13F
:106BB000094A0A49019001F050F8019808490190EA
:106BC00001F04BF8019803B05DF804EB01F03AB81E
:106BD000002AF8D0F2E700BF48D502004DD50200E8
:106BE0006DD5020030B5C38885B004460D4633B17B
:106BF000144A00921449154A284601F02EF8217AC9
:106C000005291DD0637A4BB1A088FFF781FD104B99
:106C1000104953F82020284601F01FF8227A0E4B25
:106C2000A08853F8222003920021FFF755FD039A14
:106C30000A490346284605B0BDE8304001F00DB8CA
:106C400005B030BD48D5020058D5020050D502002D
:106C5000D4D502004DD50200F8D5020070D502004F
:106C60002DE9F04385B01F460C9D002395F80C904C
:106C70002B7306460C46904629463846FFF7B2FF6E
:106C8000B8F1060F09D8DFE808F00412181F2833FE
:106C900040003146284600F0E0FF002229463846F1
:106CA000FFF77EFF85F80C9005B0BDE8F083226801
:106CB0003146284600F0D1FFEFE7D4E90023314602
:106CC000284600F0CAFFE8E7A36800933146D4E9FC
:106CD0000023284600F0C1FFDFE7E3680193A368C3
:106CE00000933146D4E90023284600F0B6FFD4E7EC
:106CF00023690293E3680193A36800933146D4E9C2
:106D00000023284600F0A9FFC7E7636903932369BE
:106D10000293E3680193A36800933146D4E900230A
:106D2000284600F09AFFB8E708292DE9F74F80467A
:106D30000E4617461C463CD8002593F80C901D7350
:106D400019461046FFF74EFFDFF888A0DFF888B03D
:106D5000AE4231D918F805205946204600F07DFF93
:106D60000135082DF4D11949194DDFF870A02046DE
:106D700000F073FF4FF0000B5E4522D918F80B208E
:106D80007E2A05D81046019205F02AFE019A00B924
:106D90002E225146204600F060FF0BF1010BBBF1A3
:106DA000080FE9D1012221463846FFF7F9FE84F8A1
:106DB0000C9003B0BDE8F08F5146204600F04DFF27
:106DC000CEE72946204600F048FFE6E784D50200DA
:106DD00082D5020080D502007AD5020086D5020055
:106DE000C30710B507D4F023054A4008145C2340BC
:106DF0001943115410BD0901C9B20F23F4E700BFB4
:106E00006036002030B5094B1C78094B1968002307
:106E10009C4202DC0022104630BD11F833508542FE
:106E200001EBC302F7D00133F2E700BF2C3600209C
:106E30007036002013B504460191FFF7E3FF38B127
:106E400043682BB10199204602B0BDE810401847B5
:106E500002B010BD034B044819680022490800F035
:106E60005CBA00BF303600203836002010B5C0B202
:106E7000FFF7C8FF0446007801F0B2FF63785A1E9E
:106E800053425341834208D1044BD3E900231343B7
:106E900003D1BDE81040FFF7DDBF10BD583600201C
:106EA00037B54308354AD35CC2074CBF1B0903F012
:106EB0000F0304460D46042B35D8DFE803F0032505
:106EC0002C383C0079B30121FFF78AFF00230DF134
:106ED00007008DF8073000F01DFC0120A4F120030D
:106EE000C4F12001264A20FA01F100FA03F30B4312
:106EF000A040D2E9004120430B43C2E900039DF8C2
:106F0000070000F02BFC0EE0002918BF02212046EC
:106F1000FFF766FF07E041B10321FFF761FF0121A1
:106F20002046FFF787FF03B030BD0121EFE70029BE
:106F3000F9D10421EBE709B10321E8E7FFF750FF9E
:106F400029462046FFF776FF0DF107008DF8075020
:106F500000F0E0FB0120A4F12003C4F12001084A65
:106F600020FA01F100FA03F30B43A040D2E90041FB
:106F700024EA000021EA0303BFE700BF60360020D7
:106F8000583600202DE9F041124E134F002433787B
:106F9000A34208DC114BD3E90023134318D0BDE80A
:106FA000F041FFF757BF3D6805EBC40815F8340002
:106FB00001F016FF98F801305A1E53425341181A37
:106FC0004142414115F83400FFF76AFF0134DEE722
:106FD000BDE8F0812C3600207036002058360020A5
:106FE000092AF7B505460C4616463CD901F038FE8D
:106FF000D8B11E4B1E481D601E4B1F4F1C701F4BEF
:10700000002110221E6005F01DFE1D4B00200021F6
:10701000C3E90001013CE4B20326FF2C0BD1194A5D
:107020001948002100F06EF903E001F0E1FD0028AD
:10703000DFD003B0F0BD9DF8063015F834008DF8B0
:10704000046005EBC40223F007038DF8063001A9A4
:1070500093788DF805303A4601F00CFE013CE4B21D
:107060000028DAD0E5E70720E3E700BF703600200C
:10707000603600202C3600206D6E02003036002075
:1070800058360020856F020018D6020070B5084DF2
:10709000084E00242B789C4201D3002070BD336839
:1070A000012113F8340001F057FE0134F2E700BF6C
:1070B0002C360020703600201FB50021039001AA55
:1070C00044F20100CDE9011100F004F805B05DF8CB
:1070D00004FB000010B572B6FFF74CFDFFF738FB5C
:1070E0000028FBD1104B114C1149E41AE408240488
:1070F00044F00100FFF788FC0E4B1B68DB0700D54E
:1071000000BE0D4944F00200FFF77EFCBFF34F8F35
:107110000A490B4BCA6802F4E0621343CB60BFF329
:107120004F8F00BFFDE700BFC8D30200F0D30200BD
:107130001CD60200F0ED00E028D6020000ED00E0D1
:107140000400FA0549B152B1531E1A4007D18260BA
:1071500001608380C260104670470E20704709208E
:10716000704710B58468C2688388121B934208D3A5
:10717000C26813400268D154C3680133C360002061
:1071800010BD0420FCE78268C3689A420AD0826876
:10719000838813400268D35C0B708368013383607B
:1071A0000020704705207047D0E90223D1E9020191
:1071B000994208BF90422CBF012000207047000078
:1071C00008B50B4800F001FC0A4B0B49D3E900233A
:1071D0001218D1E9000143F100038B4208BF82423B
:1071E00003D212F1807243F100031046194608BD24
:1071F000302A002078360020F036002037B50546CA
:107200000C460A4801A900F012FC60B10570446008
:1072100001A9064800F035FC18B1054800F0DAFB7A
:10722000002003B030BD0420FBE700BFDC360020A7
:10723000302A002038B5184B1B78044613B90025B6
:10724000284638BD0028FAD0037F03F0FF05002B45
:10725000F5D0FFF7B5FFD4E90223994208BF904269
:1072600014D3236903B92377D4E9053098472169FA
:107270000029E4D0237F03F0FF05002BDFD0D4E901
:107280000223521843F10003C4E9022303482146B4
:1072900001F0D5F8D4E700BF8036002044D60200C4
:1072A00013B5114B11491868019008231048582252
:1072B00000F0AAFB044698B90E4A0F4801A900F055
:1072C00071FA044660B90C48012100F061FB01230A
:1072D0000A4A0948194600F0C3FA094B01221A70FC
:1072E000204602B010BD00BF40D602008436002008
:1072F000DC36002065730200302A0020FFFF7F008B
:10730000803600203AB103685A614A1E5142514109
:107310001961002070470720704738B5037F044685
:107320000D4683B98261FFF74BFF2369401941F194
:107330000001C4E9020103B1256121460020BDE836
:107340003840FFF75BBF002038BD002301460377BC
:107350000120FFF753BF0000014800F036BB00BF1B
:10736000302A00202DE9F04F85B0804600F018FB50
:1073700040B15A4AD2E9003113F1807341F1000162
:10738000C2E900310021404600F019FB38B1544EEB
:10739000336823B13068FFF74DFF002333600121CC
:1073A000404600F00CFB20B1FFF70AFF4D4BC3E94C
:1073B00000014D484A4F4D4EDFF8389103A900F0C7
:1073C00070FB002845D1DFF82491454EDFF828A155
:1073D000484601F04AF83368002875D07BB133681D
:1073E000D0E90201D3E90223994208BF90422DD28D
:1073F00033681B7F1BB13168484601F020F84846CE
:1074000001F02DF8D0E902B307460193FFF7D8FE4B
:10741000019BBBEB000463EB0105012C75F100033C
:1074200045DBB4F5350F40D3FFF796FF304A0244F1
:107430004FF496030021504600F032FA00283ED166
:10744000336813B9404600F003FA376005B0BDE871
:10745000F08F0378012B1DD0022B09D14FF0000AC9
:10746000304600F0FCFF002834D080F81CA0F7E77D
:107470003BB941680B7F23B901230B77304600F0FD
:10748000DEFF03A9184800F037FB03A9164800F0F7
:1074900008FB96E741683B68994202D100233B60B4
:1074A000EFE7304600F0E4FFEBE7BA68C0E7002101
:1074B000504600F07AFA3846FFF7BCFE01E00D288E
:1074C000F9D00023336083E7002BBFD1404600F0A2
:1074D000C3F9BBE7012389F80030D2E778360020F2
:1074E000F8360020F0360020DC36002044D60200BA
:1074F000FFFFB40080360020302A00200648074AEB
:1075000003780749D35C012213B1043002F08EB92D
:107510000C3001F053BF00BF382A00206C37002028
:10752000243700200648074A03780749D35C012224
:1075300013B1043002F026B90C3001F0EDBE00BFEB
:10754000382A00206C3700202537002037B5057811
:10755000012D0BD0022D2ED065B91E491E48FFF714
:1075600012FE002832D1FFF7DDFF03E0037A1BB9DA
:10757000FFF7C4FF03B030BD4368184C19782046AC
:10758000FFF7EFFD80B18DF800500190144B684675
:107590001B689847A168E368A2885B1A9A42E7D201
:1075A000104B01221A70E5E7A268E3689A42F1D015
:1075B0008DF80000EAE7C3688DF800500193FFF7EB
:1075C0009DFF074B68461B689847D3E703238DF858
:1075D0000030F6E725370020143700200037002060
:1075E000FC36002010370020F0B51F46234B89B031
:1075F00004461A600D4600293DD08A882048096853
:10760000FFF7A0FD002834D1AA89A9681D48FFF71B
:1076100099FD00282DD11C4E0FCE6D460FC596E862
:107620000F0085E80F0063690693237C174A18480A
:107630008DF81C70003B18BF01238DF81430637C5B
:10764000002B14BF0E2300238DF81530E36802933E
:10765000A36803932368019369466368009301F06C
:1076600003FA30B90B4B18702368013301D0FFF7D0
:1076700045FF09B0F0BD0720FBE700BFFC36002046
:10768000003700201437002050D602004D7502004C
:10769000382A00201037002070B5084D01460848F0
:1076A0002E78FFF770FD044636B100232B70FFF7EC
:1076B00025FF08B1FFF700FD204670BD1037002000
:1076C0000037002010B501460E48FFF74AFD04467A
:1076D000A8B90D480D4A0378D35C63B1043002F0B9
:1076E00099F860B90A490748FFF74DFD38B9BDE878
:1076F0001040FFF717BF0C3001F054FEF1E72046B1
:1077000010BD00BF14370020382A00206C3700203D
:107710002537002070B5EFF3108672B60C4A9468D6
:1077200001239CB993600B4B0B4DD3F8801029407B
:107730001160C3F88050D3F8841051604FF0FF32CD
:10774000C3F88420047006B962B670BD0370FAE70E
:107750002837002000E100E0FC06FFBD084B9A68D6
:1077600010B55AB150B9EFF3108172B6054A1C68D2
:1077700014605C685460986001B962B610BD00BFC7
:107780002837002000E100E0435882B03BB10023DD
:10779000435043580193019B012002B070471846A3
:1077A000FBE70000F8B5224B4679224C43F826202F
:1077B000214A224B9B1A04EBC602DB0812791B04F8
:1077C000F70032B143F002001D49FFF71DF9082010
:1077D000F8BD02680D88C2F8085590F90450027986
:1077E0008978002DADBF05F1604CDFF85CC002F078
:1077F0000F0E0CF5614C4FEA4111C9B2B4BF0CF841
:107800000E108CF800136D090121DFF840C002F062
:107810001F0201FA02F24CF82520E21944F8360062
:10782000117143F003000749FFF7EEF80020CFE79E
:107830003C37002034370020C8D3020000D40200B7
:1078400070D6020092D6020014ED00E000E100E0E4
:10785000036801221A607047036801225A6070476A
:1078600073B501F15005AD000068ADB24FF480343E
:107870008C400026C0F80843C0F84843465101F543
:10788000A8714559019522F07F42019D40F82120C1
:10789000C0F844430BB1C0F8044302B070BD00000F
:1078A0002DE9F74F0D4622F07F4402684FF48037F0
:1078B00005F150068F408046B60002EB8500C2F805
:1078C0004873B6B2C2F80873D2F8041599464FF05F
:1078D000000BD0F84035C0F8401542F806B05B1AEE
:1078E0009259009223F07F43012B009A4FEA850AB8
:1078F0000CD1264B4FF4806043F001039847D8F831
:10790000003043F806B09B590193019BD8F8001052
:10791000D1F80465C1F84473A31B23F07F43012B06
:107920001CD11A4B05F5A875013443F0010341F849
:1079300025404FF480609847D8F80030D3F80435DC
:107940009E4209D1D8F800300020C3F84473C3F830
:10795000047303B0BDE8F08F0D20FAE78A44C9F143
:10796000FF13CAF84045D1F80405221A013A22F063
:107970007F4203F57F439342EED3002AE2D10134E4
:10798000CAF84045D1F804359842DAE7B0D602008B
:1079900003680222C3F8442309B1C3F804237047E3
:1079A00000684FF48271FFF7EFBE4FF4803303FAA3
:1079B00001F10368C3F84813C3F808137047503146
:1079C0008900006889B2FFF7DFBE0368D3F80405B9
:1079D0007047000090F9043001215A0903F01F0399
:1079E00001FA03F34032024941F82230704700BFE8
:1079F00000E100E0024B034A1B681068184700BF13
:107A00003C3700203437002010B561B1B2FBF3F4ED
:107A100003FB1424A4B244B9C0E900148460828139
:107A2000C381204610BD0E20FCE70920FAE737B5D8
:107A300050E8013F9DB2C48925448489A54228BFEE
:107A40002D1B0489A54202BFBFF32F8F002207E040
:107A5000C5EA030540E80154002CE9D14FF00102CA
:107A60008DF803200193019B9DF803200B6002F029
:107A7000FF0322B10B880068184403B030BD1846DC
:107A8000FBE70A884B889A4209D150E8012FC2EAE5
:107A9000024240E80123002BF7D10120704700206B
:107AA000704737B550E8023F1FFAA3F5C488A542D6
:107AB00002BFBFF32F8F00220DE0C48925448489C3
:107AC000A54228BF2D1BC3EA054540E80254002CFF
:107AD000E8D14FF001028DF803200193019B9DF83E
:107AE00003200B6002F0FF0322B14B8800681844AA
:107AF00003B030BD1846FBE70A884B889A4209D18B
:107B000050E8022FC2EA224240E80223002BF7D1BC
:107B1000012070470020704710B5034653E8000F5E
:107B20000A4643E8002494F0000FF7D110BD10B5C9
:107B3000034653E8002F42EA010043E8000494F0B2
:107B4000000FF6D110BD10B5034653E8000F00EA50
:107B5000010243E8002494F0000FF6D110BD10B5E7
:107B6000034653E8002F02EB010043E8000494F0C1
:107B7000000FF6D110BD10B5034653E8002FA2EB5D
:107B8000010043E8000494F0000FF6D110BD01217C
:107B9000FFF7CDBF0021FFF7D6BF10B590B1D0E9F8
:107BA000012301689B1ADBB20A60013BDBB2FF2BA9
:107BB000026802D10020107110BD11684C1C1460C5
:107BC0000B70F2E70E20F7E737B5054600240DF1FC
:107BD00007008DF80740FFF79DFD2A686B68116864
:107BE00099420ED9481E106011F8014CEB68298AA1
:107BF00001FB0434AB6811791B1ADBB2994238BF20
:107C000013719DF80700FFF7A9FD204603B030BDB2
:107C100037B5054600230DF107000C468DF80730F7
:107C2000FFF778FD2A681368591C1160E968641A27
:107C3000298AB4FBF1F41C709DF80700FFF78EFD54
:107C400003B030BD826810B504462AB143690168AB
:107C5000006998470023A36010BD0EB403B50399D3
:107C600021B104AB01AA019300F076F802B05DF8EF
:107C700004EB03B070470A2938B504460D4602D11B
:107C80000D21FFF7F8FFA3682268591CA160D554A5
:107C9000D4E901329A4204D32046BDE83840FFF7C8
:107CA000D1BF38BD2DE9F84F9846DDE90A431546A6
:107CB00082460F460A464FF00109AA420FD2C1453B
:107CC00038BFC14613F0010B01D16CB90024012665
:107CD000B8F1010F1BD908F1FF386E43F8E709F13D
:107CE0000109B2FBF5F2E8E79B070ED5B8F1000FEA
:107CF0000CBF30262026A145E9D2013C3146504632
:107D0000FFF7B9FF002CF6D1E0E72026F3E7B7FB39
:107D1000F6F39D42E1D9DFF83C80B7FBF6F350461D
:107D200018F8031006FB1377FFF7A5FF3346AB42A5
:107D3000B6FBF5F6F1D2BBF1000F02D00CB1A145B4
:107D400001D3BDE8F88F20215046013CFFF793FF97
:107D5000F4E700BFB6D602002DE9F74F05461746F7
:107D60008846002900F0428118F8011B49B92B7B95
:107D7000002B00F03B81284603B0BDE8F04FFFF731
:107D800061BF252940F0B780002698F800302D2BE0
:107D9000424608F1010823D0302B24D02B2B25D0CC
:107DA00000242A2B02F1010123D13B681A1D1B6814
:107DB0003A601C440A4613782E2B26D101324FF02C
:107DC000000A104610F8011BA1F1300CBCF1090F9C
:107DD0001DD80A2303FB0A13A3F1300A0246F0E779
:107DE00046F00106D1E746F00206CEE746F004066B
:107DF000CBE711F8013CA3F130000928DBD80A22B7
:107E000002FB0434303C0A46CBE74FF0000A12F87C
:107E1000011B01F0FB0068289046F8D0782909D8AA
:107E20006F290CD8632962D022D8252963D058291C
:107E300000F0888098F80030002B95D197E77039D2
:107E40000829F7D801A353F821F000BFC77F02002B
:107E5000357E0200357E0200557F0200357E02002D
:107E6000337F0200357E0200357E0200457F02002E
:107E7000642901D06929DDD13A68D2F80090111D3A
:107E800089EAE9723960A2EBE9724FF0010B092A25
:107E900035DCD34538BFD3462CB1B9F1000F01DB37
:107EA000720700D5013CB30702D5BAF1000F03D029
:107EB000F00701D44CBB0024B9F1000F2DDAC9F151
:107EC00000092D212846FFF7D6FE06F00302022AFC
:107ED00004D1BAF1000F01D11CBB0024CDE900464A
:107EE00053460A2249462846FFF7DCFEA2E73B68D4
:107EF0001A1D19783A602846FFF7BDFE9AE70A2353
:107F00000BF1010BB2FBF3F2C1E7A345D4D2202160
:107F10002846013CFFF7AFFECCE77107D5D52B21F2
:107F2000D0E7A345DAD230212846013CFFF7A3FE73
:107F3000D2E73968CDE900460A1D3A6053460A2265
:107F40000968D0E739680A1D3A60CDE90046534612
:107F50001022F5E73B681A1D3A6016F00106D3F8C7
:107F6000009028D1B9F1000F03D0484604F0BFFEBD
:107F70000646B44200D904BB09F1FF3919F8011FC4
:107F800000293FF457AF2846FFF775FEF6E728466D
:107F90000136FFF770FE19F806100029F7D1A64246
:107FA000BFF448AF002C3FF445AF20212846013CE8
:107FB000FFF761FEF3E70026EDE720212846013CAC
:107FC000FFF759FED5E73B681A1D3A603021284675
:107FD0001C68FFF750FE78212846FFF74CFE002270
:107FE0000823CDE90032214610227CE703B0BDE82A
:107FF000F08F00BF2DE9F84FB0F806A04579D2F810
:1080000000B09DF828900AFB05F5043D88460BEB6F
:108010000301A94203F1040488BFA5EB030BB4FBE1
:10802000FAF607460AFB1644C2F800B04EB9AAEBAE
:1080300004055D4528BF5D46BBF1000F04D1BDE8D6
:10804000F88F3F68013EF1E7043408EB06003C443A
:108050002A46B9F1000F0DD02146ABEB050B04F019
:10806000C8FDDA452E443F6855464FF0000428BF4E
:108070005D46E1E701462046EFE7FFF78EBDF8B524
:1080800046790146721E0546002393422D6803D3AC
:108090000024A64202D8F8BD0133F6E70F6828464F
:1080A000FFF7B6FD01343946F3E72DE9F843068AB8
:1080B000CD1C0746FFF788FD043E35440446B5FB5A
:1080C000F6F5F0B14FF48073EDB28380C680013DC8
:1080D000076081464FF00008A84512D23846FFF7E6
:1080E00073FD064648B163790133637108F10108F5
:1080F000C9F8000007608146EEE72046FFF7BFFFA2
:1081000034462046BDE8F88301210430FFF727BD3F
:1081100010B5012104460430FFF72DFD10F0FF0FCC
:1081200004D12046BDE81040FFF7A9BF10BD1FB520
:1081300003920022009203AAFFF75CFF05B05DF8EE
:1081400004FB1FB503920122009203AAFFF752FF1E
:1081500005B05DF804FB33DF704741DF7047000076
:10816000064B10B500241C70054B1C60BFF35F8FDD
:108170000449054800F04DF9204610BD493700205C
:108180004C370020D0D602004037002007B500232E
:108190000DF107008DF80730FFF7BCFAF1EE103A49
:1081A00023F09F03E1EE103ABFF35F8F094B4022AB
:1081B000C3F884219DF80700FFF7D0FA04F08EF988
:1081C00020B1FFF7CAFF03B05DF804FB20BF40BF3A
:1081D00020BFF8E700E100E070B5264D044601211C
:1081E0002846FFF799FCBFF35F8F2E4638B9042C61
:1081F0000AD0214B1A781AB1BFF35F8F286070BD87
:108200001E4A147001221A701D4C1C4D6368BBB9C4
:10821000FEF7B0FCFEF79CFA0028FBD1174B1B7849
:10822000023B012B14D8BFF34F8F1649164BCA6877
:1082300002F4E0621343CB60BFF34F8F00BFFDE752
:108240001B682878984788B1204600F0ECF8DDE7F5
:1082500004F044F908B1FFF77EFF4FF0804301229C
:10826000C3F80025BFF34F8F20BFFDE7BFF35F8F3B
:108270003060C4E74C3700204937002048370020E1
:108280004037002000ED00E00400FA0502681368A2
:108290005268934291BFD01A80680130801888BF1D
:1082A000C01A7047036881681A685B688B4234BFE4
:1082B00001330023D31A584258417047F7B50023C1
:1082C00004460DF107000D468DF80730FFF722FA3E
:1082D0002046FFF7E7FF10B1237C002B3CD122683A
:1082E000A66853685168B14234BF01310021516022
:1082F00030B11168A068814234BF013100211160A2
:10830000E2686068511E072920D8DFE801F00410F8
:108310001F141F1F1F182A78C2542046FFF7B6FFEC
:1083200023689A68824200D29860002415E02A8867
:1083300020F81320F1E72A6840F82320EDE7D5E97B
:10834000006700EBC300C0E90067E6E7294602FBCF
:10835000030004F04EFCE0E704249DF80700FFF75B
:10836000FDF9204603B0F0BD036818685B68C31AC6
:1083700058425841704773B5002305460DF1070078
:108380000C4616468DF80730FFF7C4F92846FFF76C
:10839000EBFF002832D129680B682EB90A68A8685B
:1083A000824238BF561C0E60EA686968501E072872
:1083B0001ED8DFE800F0040E1D121D1D1D16CB5C3B
:1083C000237000249DF80700FFF7C8F9204602B08B
:1083D00070BD31F813302380F3E751F82330236068
:1083E000EFE701EBC301D1E90023C4E90023E8E78B
:1083F00003FB0211204604F0FCFBE2E70524E1E761
:10840000836800225A60C3E904229A60DA601A6025
:1084100070470B684A684360934208BF00230160BD
:1084200008BF43607047436843B10268916852686F
:108430000B449342436004BF00234360704770B510
:10844000446806460D46206818B1B3682946984727
:1084500018B923682B60256070BD2468F3E7436872
:10846000186808B102681A60704743681868704756
:108470004368186800B97047884203D102681A60DF
:108480000120704703460068F4E7000010B50D496D
:10849000A1F59472914201D800200FE08C1AE30FED
:1084A00003EBE4035B1002EBC30452F83330834266
:1084B00005D802D204F10802ECE7606810BD21463D
:1084C000E8E700BFDCDB020008B5FFF7DFFF024B87
:1084D000002808BF184608BD9FDA020010B5044600
:1084E000C0B2FFF7EFF8204610BD00000C4B1B7820
:1084F000062B10D10B4B1B681A070CD10A4B1868BE
:1085000000F0F003302B08D000F0E000A0F14003B1
:10851000584258417047002070470120704700BF03
:10852000E00F00F0E40F00F0E80F00F0094B1B78BB
:10853000062B0CD1084B1B681A0708D1074B18688B
:1085400000F0F000A0F1300358425841704700207D
:10855000704700BFE00F00F0E40F00F0E80F00F0FC
:1085600008B5FFF7C3FF28B17D4B7E4A1B68C3F3F4
:1085700004231360FFF7DAFF10B17B4B7B4A1A60CC
:10858000FFF7B4FF28B17A4B7A4A1B68C3F3423332
:108590001360FFF7CBFF20B1774AD36823F08073D5
:1085A000D360FFF7A3FF40B14FF080430022C3F830
:1085B0000C21C3F81021C3F83825FFF7B7FF10B11D
:1085C0006E4B03221A60FFF7B1FF40B16C4B0522DE
:1085D0001A6001229A6700229A603F225A60694B12
:1085E0001B78062B50D1684B1B6819074CD1674B81
:1085F0001B6803F0F003502B46D14FF08052644BC0
:10860000D2F80414C3F82015D2F80814C3F82415BE
:10861000D2F80C14C3F82815D2F81014C3F82C158E
:10862000D2F81414C3F83015D2F81814C3F834155E
:10863000D2F81C14C3F84015D2F82014C3F844151E
:10864000D2F82414C3F84815D2F82814C3F84C15EE
:10865000D2F82C14C3F85015D2F83014C3F85415BE
:10866000D2F83414C3F86015D2F83814C3F864157E
:10867000D2F83C14C3F86815D2F84014C3F86C154E
:10868000D2F84424C3F87025FFF730FF28B1414BDE
:10869000414A1B6803F04F031360FFF727FF48B1FF
:1086A0004FF08043D3F80024D20744BF6FF001029B
:1086B000C3F80024394B1B68062B08D1384B1B68C4
:1086C000062B01BF374A136843F480631360364AB0
:1086D000D2F8883043F47003C2F88830BFF34F8F6C
:1086E000BFF36F8F4FF01023D3F80022002A03DB73
:1086F000D3F80432002B2FDA2C4B0122C3F80425C7
:10870000D3F80024002AFBD04FF010221521C2F824
:108710000012D3F80024002AFBD04FF010231522BA
:10872000C3F80422214B1A46D3F800140029FBD0C9
:108730000021C3F80415D2F80034002BFBD0BFF39E
:108740004F8F19491A4BCA6802F4E0621343CB6099
:10875000BFF34F8F00BFFDE7164B174A1A6008BDE5
:10876000240300104035014074C007400DF0ADBA3D
:10877000440200103C050040F0ED00E0A005004080
:1087800010560040E00F00F0E40F00F0E80F00F09A
:1087900000C0004058020010E40E004030010010FC
:1087A000340100103C17004000ED00E000E0014003
:1087B0000400FA054C2A00200090D003054A4FF02F
:1087C000A043105CD3F8043523FA00F0C04300F056
:1087D00001007047E0DB0200044B1A5C0123934068
:1087E0004FF0A042C2F80C35704700BFE0DB02003A
:1087F000044B1A5C012393404FF0A042C2F80835A5
:10880000704700BFE0DB020008B50020FFF7F0FF73
:108810000120FFF7EDFF0220FFF7EAFFBDE8084067
:108820000320FFF7E5BF08B50020FFF7D5FF0120C3
:10883000FFF7D2FF0220FFF7CFFFBDE8084003207B
:10884000FFF7CABF074A4FF0A041105CD1F80435CA
:108850000122824022EA03001340C1F80805C1F852
:108860000C357047E0DB0200054A4FF0A043105C76
:10887000D3F8103523FA00F0C04300F00100704730
:10888000DCDB02000D2809D00E2809D00F2809D002
:1088900010280CBF03204FF0FF30704700207047B6
:1088A0000120704702207047C20708B501460CD569
:1088B0004FF0A0430322C3F84427C3F84827C3F866
:1088C0004C27C3F85027FFF79FFF8B070AD54FF0BF
:1088D000A0430C22C3F83427C3F83827C3F83C2739
:1088E000C3F8402708BD000038B5074C051E04F149
:1088F000080318BF1C4623682BB11A6822605B6806
:1089000028469847F7E738BD5837002020B9054B6F
:1089100001225A70FFF7E8BF012802D1014A907086
:10892000F8E770475037002020B9034B01225A70F6
:10893000FFF7DABF704700BF5037002038B50B4C47
:10894000237883B90A486360A3602361E36000F081
:10895000C9F8054603F0C2FD08B900F0CFF80123BD
:108960002370284638BD8525FBE700BF503700201F
:108970000D89020037B50B4C00230DF107008DF86F
:108980000730FEF7C7FEE368013BE360E56815B911
:1089900000F0C6F8A5709DF80700FEF7DFFE03B0F3
:1089A00030BD00BF50370020012813B508D0032880
:1089B0001CD018B9104B0122C3F8802002B010BDA2
:1089C0000E4C00230DF107008DF80730FEF7A2FED4
:1089D00023780BB9FFF7B2FFE3689DF80700013376
:1089E000E3600123A370FEF7B9FEE7E700F086F825
:1089F000FFF7C0FFE2E700BF00E100E050370020D2
:108A00001FB503788DF800304368019383688DF8B3
:108A10000830C368054A0393054B684653F8213074
:108A200052F82110984705B05DF804FB6437002028
:108A3000683700201FB503788DF800304368019334
:108A400083688DF80830C368054A0393054B684670
:108A500053F8213052F82110984705B05DF804FB17
:108A60006437002068370020F0B5194B90F800C03B
:108A700091F81DE043F82C20164B16460A6943F87E
:108A80002C20154B03F80CE00C4607460FCC89B0A0
:108A90006D460FC594E80F0085E80F00CDF810C0B3
:108AA000BEF1000F09D0002E0C4A694608BF3246BD
:108AB000381D00F09FFD09B0F0BD002E084A694640
:108AC00008BF324607F10C0000F06AFBF3E700BF75
:108AD00068370020643700206C370020018A0200CC
:108AE000358A0200044A137923B90121106091806C
:108AF000184670478520704770370020074B1A686A
:108B0000D2075FBFC02283F8002301221A604FF012
:108B100080430122C3F81825704700BF00E100E040
:108B2000044B01221A604FF08042D2F81834DB0364
:108B3000FBD470470C000040154B07B51A687AB19A
:108B400000221A601B680093009B4FF080430122B3
:108B5000C3F808230F4B587910B95A711B6898470E
:108B60000D4B1A6882B100221A601B680193019BA9
:108B70004FF080430222C3F80823064B1B680120F4
:108B800003B05DF804EB184703B05DF804FB00BFC9
:108B900000010040703700200401004000F18040D7
:108BA00000F5C040002382B0036003680193019B7D
:108BB00002B07047800000F1A040D0F8002722F4F6
:108BC0004032C0F80027D0F8003743EA0141C0F82E
:108BD00000177047054B4FF0FF32072843F820205D
:108BE00084BFC01880F84820704700BF7837002045
:108BF00010B5174C94F8583043BB04F130032021D2
:108C0000FF22013911F0FF0103F8012BF9D1C8B29D
:108C1000FFF7E0FF01310C29F9D1042200210D48B2
:108C200004F010F80C4BC02283F8062340221A608F
:108C30004FF4BE70FFF7B2FF084B4FF00042C3F88D
:108C40000423012384F85830002010BD0820FCE7DD
:108C500078370020CC37002000E100E000600040C1
:108C6000034B93F85800003818BF0120704700BF2D
:108C700078370020F0B5364D2C1894F93040002C90
:108C800064DA8C78C4F34004002C0BBF0823002363
:108C90000C260826B34201D10420F0BD55F82370FC
:108CA00001373FD12E1845F8232086F8303014B90B
:108CB000EA1882F848008A78540713D4D60733D5C7
:108CC000820002F1A042D2F8004724F00204C2F868
:108CD0000047204EC20800F007070124BC40B75CE3
:108CE0003C43B4548A780C7812F0020225D09B00E1
:108CF00003F1804303F5C0430202D3F8101521F4B9
:108D0000473121F44071C3F810152404D3F810152D
:108D100002F4F85204F4403422430A43C3F8102505
:108D20000020BAE70133B5E74C7800F5E0724FF068
:108D3000A046A40046F82240CBE7083B2B4493F81A
:108D4000501041EA841483F85040E9E70820A4E772
:108D500078370020CC37002038B51F4C251895F9FE
:108D60003020072A16DD224492F848309B09032B55
:108D70000BD14FF0A043D3F81015C14001F0010111
:108D80000231BDE83840FFF715BF012B0CBF0221AF
:108D90000321F6E7D3B2072B1CD8930003F18043DD
:108DA00003F5C043D3F8100540F00100C3F81005E7
:108DB00002F14000800080B2FFF7F0FE51B195F95A
:108DC000303054F823302BB1012303FA02F2034B65
:108DD000C3F8042338BD00BF78370020006000408E
:108DE0004FF0A043D3F8103523FA00F000F0010053
:108DF000704700002DE9F04F87B000245A4D0394CE
:108E00004FF48072012102F1804303F5C04390B218
:108E10001B68012B06D1D5F804330B4202D0FFF7B3
:108E2000BDFE0C430432B2F5907F4FEA4101EAD116
:108E30004E4B1B68012B0AD14FF4BE70FFF7AEFEFC
:108E40004FF0A04344F00044D3F81035039314F0DE
:108E5000FF0F1AD0464F00250126344210D0AB0038
:108E600003F1804303F5C043D3F81005D3F8101580
:108E700057F8253023B1C1F30141C0F304209847CE
:108E80000135082D4FEA4606E7D1002C65DA0021AE
:108E90004FF0FF33CDE90413354D01274FF0000AA1
:108EA000344ED1464FF0A04816F9013B5A1C45D02C
:108EB000C3F3C20106AA5018DCB210F8042C03F068
:108EC0003F0B03F0070307FA03F31A4236D005EB12
:108ED0000B02A40992F9302055F8222052B9032C34
:108EE0002CD10DF1100E1EF801C04CEA030C0EF847
:108EF00001C001E0032CF4D00BF5E07110F80C0C6C
:108F000058F821101842C1F3014105D0022915D1AA
:108F1000032C0FD1214604E003290FD1032C09D1E2
:108F200002215846019209F10109FFF743FE019A17
:108F30005FFA89F912B12146584690470AF1010AB1
:108F4000BAF1040FB0D1B9F1000F06D04FF0A04331
:108F5000039AD3F81035934202D107B0BDE8F08FE1
:108F60000393049B059399E7006000407C610040F7
:108F700078370020C8370020014B1B68184700BF16
:108F8000D43700200E4B984237B50C4602D0002053
:108F900003B030BD00230DF107008DF80730FEF758
:108FA000B9FB084B1D7915B901221C601A719DF897
:108FB0000700FEF7D3FB002DE9D01120E8E700BF42
:108FC00000200040D43700200023435082B0435893
:108FD0000193019B02B070470A4610B54FF48E71A1
:108FE000FFF7F2FF136A9168C95C136A01331362D9
:108FF000C0F81C1510BD024608B500684FF4927108
:10900000FFF7E2FF4FF484711068FFF7DDFF13688C
:1090100001221A6008BD8B690A4610B54FF48471AD
:1090200023B9FFF7D1FFD0F8183510BDFFF7CCFFFB
:10903000536AD168D0F81805C854536A0133536293
:10904000F3E700001FB501238DF80030044BCDE994
:109050000110D3E900126846904705B05DF804FBA3
:10906000DC37002030B54C48D0F8043313F4007FCF
:1090700085B005464DD0D0F82431002B49D04FF4AF
:109080009271FFF7A1FF4FF40173C0F80833434B0F
:1090900093F829200AB9012242603F4902228DF843
:1090A0000020D1F88024C1F8802403929A690292AA
:1090B000DA6801920022C3E906226846D3E9001269
:1090C00090473548D0F81C315BB134494A690B6A86
:1090D0009A420A464AD991F82830002B46D1FFF728
:1090E0007BFF2D48D0F844318BB14FF4A271FFF7CC
:1090F0006BFF2A4B93F829200AB1012202609A697A
:109100002AB10022586AD9689A61FFF79BFF05B01F
:1091100030BDD5F804335B07D3D5D5F80831002B23
:10912000CFD01E4C1C482146FFF775FF636AA26929
:109130009A422346C5D1E269E1684AB12369E360F6
:109140000023606AA261E3616362FFF77BFFB8E717
:1091500094F829200AB901226A600F4A4FF401707D
:10916000C2F808030022586A9A61EEE70A484FF4F1
:109170008E71FFF729FF5369002BB2D0516902911C
:10918000002391688DF80030019153616846D2E95F
:1091900000139847A5E700BF00200040DC370020FF
:1091A0002DE9F843574B057991462C2202FB0532F5
:1091B000064692F82A200C469846002A40F09D80E8
:1091C00051490068FFF7DEFE0746002840F097800F
:1091D00021683368481C0BD04FF0A04001228A4020
:1091E000C0F8082501F5E0724FF0030C40F822C0EA
:1091F0006068421C1FBF00F5E0724FF0A04C4FF0BA
:10920000000E4CF822E0A269C3F8242594F814C09B
:10921000627DBCF1010F4CEA0202C3F86C25C3F871
:109220001405C3F80C151DD1A1684A1C1FBF01F518
:10923000E0724FF0A0404FF0000C40F822C0E2680E
:10924000501C0BD04FF0A04C01209040CCF80805EA
:1092500002F5E0704FF0030E4CF820E0C3F808254B
:10926000C3F810152C236B4308EB0302C2F80490DB
:10927000226948F80320B9F1000F2BD03068247F11
:109280004FF48E71FFF7A0FE30684FF4A271FFF724
:109290009BFE32681D4BC2F80433110B42F30732B8
:1092A000002AA8BF02F160404FEA4413BABF184831
:1092B00001F00F0400F56140DBB2B4BF035580F844
:1092C000003301F01F01012303FA01F15209114B90
:1092D00043F8221033680422C3F800252C2303FB33
:1092E00005830022C3E9062283F829205A6101225E
:1092F00083F82A203846BDE8F8830827FAE71127C3
:10930000F8E700BFDC370020659002008000020013
:1093100014ED00E000E100E02DE9F047204F90F867
:1093200004904FF02C0808FB097405466669002E6E
:1093300034D162610068A16026624FF48E7184F8B6
:109340002860FFF741FE2868012383602146FFF76C
:1093500043FE6368A0468BB92868D4F814A0236A3A
:109360009A4511D82A68D2F81C31002BFBD0012372
:10937000D3602C2303FB097300225A613046BDE8F9
:10938000F08794F828303BB9D0F81C31002BF8D086
:109390004146FFF721FEE2E70F26EAE71126EDE757
:1093A000DC3700200379044A2C2101FB0323586990
:1093B000003818BF01207047DC3700202DE9F84342
:1093C000394F05792C2303FB057306465C6824B1ED
:1093D00003684FF40170C3F808032C2303FB0573E3
:1093E000986950B1D86900283ED024B133684FF451
:1093F0000172C3F80423112433E09A61D9605862E2
:10940000D8612C2303FB057393F829301BB910B9DD
:109410003046FFF7F0FD4FF02C0909FB0578306866
:10942000D8F80430002B34D14FF4A271C146FFF7B5
:10943000CBFD3068D0F82431D0F80821D0F8444171
:10944000B2B90CB9002BF4D02C2202FB0575002216
:10945000AA6123BB2CBB95F8291033680122B1B156
:109460001A602046BDE8F8831961DA610120C8E777
:10947000002BE9D1002CE7D14946FFF7CCFDD8F805
:109480002430D8F818209A42D3D82346DCE75A6013
:10949000E7E74FF40173C0F804330024E1E7032445
:1094A000DFE70F24DDE700BFDC3700200023435057
:1094B00082B043580193019B02B070471FB501234E
:1094C0008DF80030044BCDE90110D3E90012684655
:1094D000904705B05DF804FB083800207FB5434A8B
:1094E000D2F82461002E60D010464FF49271FFF73D
:1094F000DDFF02238DF80030D2F88034C2F88034CA
:109500000393D2F83C350293394BDA68019200227A
:10951000C3E906226846D3E9001290473348D0F8E1
:10952000443173B14FF4A271FFF7C0FF304B9A6919
:109530003AB10022C3E90622D968D0F83C05FFF70A
:10954000BDFF2A48D0F82031ABB14FF49071FFF73E
:10955000ADFF0123C360264B5A6962B1D0F84C15A8
:109560000291002299688DF8002001915A616846A5
:10957000D3E9001290471D48D0F858319BB14FF401
:10958000AC71FFF793FF1A4B5A6962B1D0F84C15D2
:109590000291002299688DF8002001915A61684675
:1095A000D3E90012904704B070BDD2F81031002BFF
:1095B000B4D04FF488711046FFF778FF0C4BD2F807
:1095C0003C0599698842A9D1DC69D96864B1D2F8AF
:1095D000005225F02005C2F800521A699C61DA6039
:1095E000DE61FFF76BFF99E79C61FAE7002000401E
:1095F000083800202DE9F8435D4B06799146242276
:1096000002FB0632044692F820200D469846002AB6
:1096100040F0AA8057490068FFF7B4FC07460028CD
:1096200040F0A48029682368481C0BD04FF0A0406C
:1096300001228A40C0F8082501F5E0724FF0030CC2
:1096400040F822C06868421C1FBF00F5E0724FF06E
:10965000A04C4FF0000E4CF822E0AA69C3F8242574
:1096600095F814C06A7DBCF1010F4CEA0202C3F800
:109670006C25C3F80C15C3F814051DD1A9684A1C44
:109680001FBF01F5E0724FF0A0404FF0000C40F812
:1096900022C0EA68501C0BD04FF0A04C0120904033
:1096A000CCF8080502F5E0704FF0030E4CF820E00E
:1096B000C3F80825C3F810152423734308EB0302ED
:1096C000C2F804902A6948F80320B9F1000F3AD093
:1096D00020682A7F4FF48871FFF7E8FE20684FF476
:1096E0009071FFF7E3FE20684FF49271FFF7DEFE02
:1096F00020684FF4A271FFF7D9FE20684FF4AC71D7
:10970000FFF7D4FE23681C49C3F80413190B43F375
:109710000733002BAEBF03F1604001F00F0517487F
:109720004FEA4212A8BF00F56140D2B2B4BF425521
:1097300080F8002301F01F01012202FA01F15B0908
:109740000F4A42F8231023680822C3F80025242377
:1097500003FB06830022C3E906225A61012283F833
:1097600020203846BDE8F8830827FAE71127F8E7F4
:1097700008380020DD9402001003420014ED00E0E0
:1097800000E100E001F06043B3F1005F2DE9F0413A
:10979000064638D11E4B0779242505FB0735984628
:1097A0006C69002C31D16A610068A9604FF4907136
:1097B000FFF77CFE4FF4AC713068FFF777FE33683B
:1097C0006A69A968C3F84415C3F8482501229A605C
:1097D0006A68AAB9D3F82021D3F858411AB9002CE5
:1097E000F8D00F2407E0002CFBD10122DA60D3F877
:1097F0005821002AFBD0242303FB078700237B6129
:109800002046BDE8F0811024FAE71124F8E700BFF4
:10981000083800200379044A242101FB03235869F6
:10982000003818BF0120704708380020F8B501F053
:109830006043B3F1005F04460F465ED10379304DBB
:10984000242101FB0351496821B100684FF40476DB
:10985000C0F80863242000FB03539E6956B1D86901
:10986000002839D021B123684FF40472C3F80423CF
:10987000112030E09A61DF60DE6120684FF488716A
:10988000FFF714FE20684FF4A271FFF70FFE236864
:10989000C3F83475C3F8382516BB01221A60217944
:1098A000242202FB015252680ABBD3F81041D3F8BC
:1098B0004421D3F82401144302D10028F5D02246D4
:1098C000242303FB01550023984218BF03209A422A
:1098D000AB6118BF0F20F8BD1F61DA610126CCE72C
:1098E000D3F8002242F02002C3F80022D7E74FF459
:1098F0000472C3F804230020EDE71020EBE700BF5B
:10990000083800200220FEF79DBF00002DE9F04737
:1099100080460D46FEF7B6FF0328044610D8012DF9
:1099200010D0022D30D05DB91A48FDF70EFD1A4B4C
:1099300004EB440213449E78184B1B5DB34219D0CC
:10994000BDE8F087144D00EB4002A918AE5C4A78E0
:10995000470052B1DFF84C900E484A464FF4804120
:10996000FDF7DBFC08B989F800803B192B449A7895
:109970000A4B1A55002EE3D0094B1B68002BDFD091
:109980003046BDE8F047184700EB40040248044465
:109990006678EFE75038002090380020A938002082
:1099A000A43800202C38002000780221FFF7AEBF39
:1099B00008B5094B1B7853B10020FEF719FF0120B1
:1099C000FEF716FFBDE808400320FEF711BFBDE813
:1099D0000840FEF719BF00BF2D380020F8B57B4CBA
:1099E000237805461BB100232370FFF7E1FF172DF5
:1099F00000F28880DFE805F00C1717435465768085
:109A0000888D888D959A9A9A9A9AC4C9D1D9E4E496
:109A1000FFF7CEFF6E48FDF798FC6E4B0022044620
:109A20001A702046F8BD0020FEF7C8FEF8B10020ED
:109A3000FEF7DEFE022D0CBF4FF4E1614FF47A61B8
:109A4000644B1D704FF400404FF47A740025E0FB26
:109A500001454FF4FA6200232046294602F0CCFE6D
:109A600000220146BDE8F8405948FDF756BCFEF714
:109A7000B3FE022D0CBFC8214FF4C871E0E70020EF
:109A8000FEF79CFE40B10020FEF7B2FE4FF4487195
:109A9000504B03221A70D5E7FEF79EFEC821F7E768
:109AA0000020FEF78BFE38B10020FEF7A1FE4FF438
:109AB0007A61484B0422EDE7FEF78EFE4FF4C87141
:109AC000F7E70020FEF77AFE48B10020FEF790FE8F
:109AD000404B05221A7040F6CD410022C2E7FEF746
:109AE0007BFEF5E70020FEF7ADFE3A4B06221A702A
:109AF000002240F26661B5E70020FEF76DFE354BAF
:109B000007221A7000248CE701202070FEF79AFECD
:109B1000EEE701202070FEF795FE00224FF4005181
:109B2000A0E7FEF780FE2B4B0C22EAE72A482B4EDB
:109B3000FDF70BFCD5F1110504461CD0D8B9012D59
:109B400013D0C8235D434FF400474FF47A700021CF
:109B50004FF4FA620023C7FB050102F04DFE2246D6
:109B600001461D48FDF7D9FB04460220FEF734FEEE
:109B70000123337055E70220FEF73AFE0023F8E791
:109B8000FFF716FF134B1222BBE7FFF711FF002070
:109B9000FEF722FE0F4B1322B3E7FFF709FF012068
:109BA000FEF71AFE0B4B1422ABE7FFF701FF002074
:109BB000FEF712FE0120FEF70FFE064B1522A0E76E
:109BC000FEF731FE034B1D709CE700BFA03800205C
:109BD00070380020A8380020303800202D380020B0
:109BE000044B1B68DB0703D5034B1878FFF7F6BE61
:109BF000704700BF9C380020A8380020032801D8F7
:109C0000FEF732BE00207047044B1B6813F00103BF
:109C100001D0FFF7E3BE1846704700BF9C38002014
:109C200038B51C4B18601C4B10F002040546196037
:109C30001AD01A4B1A480E221A700F22DA7010220C
:109C40009A7111225A72042140F23332FDF7C8F999
:109C5000044648B9FDF71AFA044628B90146114AE4
:109C60001148FDF74FFB0446EB0711D50120FEF725
:109C70001BFE6CB921460D4A0D48FDF743FB044617
:109C800030B9BDE838400B4A0B480121FDF73ABB1B
:109C9000204638BD9C380020A43800209038002091
:109CA00008DC0200A99902002CDC0200E19B020002
:109CB00030DC02000599020028DC0200032811D8DC
:109CC000012A0AD101290FD100F10E02D2B20D4BA7
:109CD00000EB40001A54002070470129F7D00229F8
:109CE00004D049B1072070470022F8E7054B00EB8C
:109CF000400018444270EEE7024B00EB400018446D
:109D00008270E8E79038002008B501220221002087
:109D1000FFF7D4FF08B1072810D107220221012044
:109D2000FFF7CCFF08B1072808D100210A22084616
:109D3000FFF7C4FF10B1072808BF002008BD0000CE
:109D40000388102B10B502D0112B1ED010BD1A4C59
:109D50002168B1B901220846FFF7B0FF08B1072812
:109D600024D1072202210120FFF7A8FF08B107280C
:109D70001CD1042202210020FFF7A0FF08B1072810
:109D800014D1236801332360E0E70B4A1368013BD9
:109D90001360002BDAD1FFF7B7FF0028D6D0074BAE
:109DA0001B68002BD2D0BDE810401847034B1B683E
:109DB000002BE6D09847E4E7B4380020B038002004
:109DC0000D4B10B518600C4629B10120FFF716FFA6
:109DD00040B102232370094B1B6853B9BDE8104002
:109DE000FFF792BFFFF70AFF08B10B23F2E72070DD
:109DF000F1E7002010BD00BFB0380020B4380020CB
:109E000075DF704700BF184676DF704700BF184601
:109E10007FDF704700BF18468FDF704700BF1846CE
:109E200000B585B00190019B002B0AD0074B43F091
:109E300001030393019B9B010293039B02989847A4
:109E400000E000BF05B05DF804FB00BF20DF0200AA
:109E500082B001904FF0A043184602B0704700B5A1
:109E600085B0019001AB1846FFF7F2FF0390019B0C
:109E7000012202FA03F31946039800F03AF800BFF2
:109E800005B05DF804FB00B585B0019001AB184644
:109E9000FFF7DEFF0390019B012202FA03F319464C
:109EA000039800F030F800BF05B05DF804FB00B582
:109EB00085B0019001AB1846FFF7CAFF0390039BE2
:109EC000D3F804350293029BDA43019B012101FA86
:109ED00003F31A40039BC3F80825019B01229A4013
:109EE000029B1A40039BC3F80C2500BF05B05DF828
:109EF00004FB82B001900091019B009AC3F80825F1
:109F000000BF02B0704782B001900091019B009A9F
:109F1000C3F80C2500BF02B0704700B583B00190B4
:109F2000019B002B0AD04FF47A70FFF779FF019B59
:109F3000013B0193019B002BF5D100E000BF03B072
:109F40005DF804FB00B583B001900198FDF7B4F80B
:109F500000BF03B05DF804FB00B585B0134802F004
:109F60002DF90390039B0293029B002B02D00298D1
:109F7000FDF7A2F80120FFF747FE0390039B019332
:109F8000019B002B02D00198FDF796F8084A094B77
:109F9000D31ADB081B0443F0030307491846FCF7F8
:109FA00033FD00BF05B05DF804FB00BFCC380020D6
:109FB000F0D30200C8D3020050DC020070B58AB0B2
:109FC0000590059B1B78072B1CD0072B54DC042B1A
:109FD00044D0062B50D1059B5B680893294A2A4B35
:109FE000D31ADB081B0443F0030328491846FCF787
:109FF0000BFD089B0793079B002B3FD00798FDF7AD
:10A000005BF83BE0059B5B6809931E4A1E4BD31A25
:10A01000DB081B0443F00300099B5B781D46099B8A
:10A020009B781E46099BDB781A46099B1B791946CB
:10A03000099B5B791C46099B9B79039302940191D0
:10A04000009233462A461249FCF701FD099B013371
:10A05000062219460F4802F0CCFD10E0094A0A4BCF
:10A06000D31ADB081B0443F003030B491846FCF723
:10A07000CBFCFFF771FF02E000BF00E000BF00BFB4
:10A080000AB070BDF0D30200C8D3020098DC020011
:10A09000BCDC0200E83A0020ECDC020000B589B02C
:10A0A0006B4610220021184602F0CCFD01238DF8EA
:10A0B000043001238DF80C306B46174A19461748B7
:10A0C00002F021F80790079B0693069B002B02D015
:10A0D0000698FCF7F1FF124A0321104801F0E8FF4F
:10A0E0000790079B0593059B002B02D00598FCF772
:10A0F000E3FF00220421094801F0F1FF0790079BCC
:10A100000493049B002B02D00498FCF7D5FF00BFFA
:10A1100009B05DF804FB00BFBD9F0200CC380020F1
:10A120004CDC020000B583B001900199034800F0B7
:10A1300029FD00BF03B05DF804FB00BFA83A002072
:10A1400000B587B00190019B1B78022B47D0022BF2
:10A150005DDC002B02D0012B4DD058E02F4B1B684B
:10A160002F4A12881344184600F088FE2C4B1B8897
:10A1700001339AB22A4B1A801420FFF770FE284B45
:10A180001B88082B45D9274A274BD31ADB081B0409
:10A1900043F0030325491846FCF736FC214A224BBD
:10A1A000D31ADB081B0443F003031C4A116809227D
:10A1B0001846FCF75FFC194B196803AB09221846D7
:10A1C00002F017FD03AB981C03AB0ECB00F0C6FEEC
:10A1D000134B00221A801420FFF755FE19E0114A94
:10A1E000114BD31ADB081B0443F001031049184636
:10A1F000FCF70AFC0EE00B4A0B4BD31ADB081B04DE
:10A2000043F001030B491846FCF7FEFB02E000BFD8
:10A2100000E000BF00BF07B05DF804FB3C30002049
:10A22000F43A0020F0D30200C8D30200FCDC0200A4
:10A2300014DD020048DD020000B589B001900091F4
:10A24000009B1B78032B00F2218101A252F823F01E
:10A2500061A202004DA3020091A302006FA40200BC
:10A260008C4A8D4BD31ADB081B0443F003038B4944
:10A270001846FCF7C9FB009B5988009B10331A460F
:10A28000019800F0C3FD0690069B0593059B002BEB
:10A2900002D00598FCF710FF0121019800F04DFD58
:10A2A0000690069B0493049B002B02D00498FCF7B5
:10A2B00003FF0121019800F054FD0690069B0393D3
:10A2C000039B002B02D00398FCF7F6FE714A724BF9
:10A2D000D31ADB081B0443F0030371491846FCF74B
:10A2E00093FB704800F0F8FD0290029B002B07D111
:10A2F0006C4B00225A7200216B4800F047FDC5E00C
:10A30000684B01225A72029B0A330222194667489F
:10A3100002F06FFC5F4A604BD31ADB081B0443F06A
:10A320000300029B9B7C012B01D1614B00E0614B40
:10A330001A466149FCF76CFB029B9B7C19465A4804
:10A3400000F024FD029800F079FE9FE0009B9968E0
:10A35000009B9B881A46594802F04BFC4D4A4E4BD5
:10A36000D31ADB081B0443F00303022253491846A7
:10A37000FCF780FB474A484BD31ADB081B0443F029
:10A3800003034E4A12884E491846FCF741FB7DE014
:10A39000009BDB681B78002B09D0009BDB681B78D7
:10A3A000042B04D0009BDB681B78052B6DD13D4B43
:10A3B000DB79002B69D03B4B1B7A002B65D03948E9
:10A3C00000F08AFD0790334A334BD31ADB081B0495
:10A3D00043F00300079B9B7C012B01D1394B00E02C
:10A3E000394B1A463949FCF713FB2A4A2A4BD31A30
:10A3F000DB081B0443F0030335491846FCF704FB54
:10A40000009BD968009B9B881A46324802F0F1FBFA
:10A41000314B1B680C222349184602F0EAFB1D4A07
:10A420001D4BD31ADB081B0443F003032A4A1168AF
:10A430000C221846FCF71EFB1320FFF738FD264BB5
:10A440001B68184600F018FD9620FFF766FD1320E4
:10A45000FFF72DFD144B5B8813211846FFF7D4FC42
:10A4600006900C2200210F4802F0ECFB0DE0094A97
:10A47000094BD31ADB081B0443F0030317491846A2
:10A48000FCF7C2FAFFF768FD00E000BF00BF09B0AB
:10A490005DF804FBF0D30200C8D3020074DD0200B3
:10A4A00088DD0200E83A0020A83A0020F23A0020B5
:10A4B000B4DD0200BCDD0200C4DD0200EF3A002082
:10A4C000E0DD020000DE020008DE020010DE020015
:10A4D00020DE0200EE3A00203830002034DE020098
:10A4E00000B585B003468DF807300020FFF78CFBE0
:10A4F0000390039B0293029B002B02D00298FCF76F
:10A50000DBFD9DF80730002B00BF0123184605B086
:10A510005DF804FB00B58FB001900091019B0433FE
:10A520000D93019B1B883B2B62DC102BC0F2168124
:10A53000103B2B2B00F2128101A252F823F000BF36
:10A54000F9A5020053A602005DA7020093A602002F
:10A550005DA702005DA702005DA702005DA70200E3
:10A560005DA702005DA702005DA7020073A60200BE
:10A570005DA702005DA702005DA70200B5A602006C
:10A580005DA70200D9A602005DA702005DA7020038
:10A590005DA702005DA702005DA702005DA70200A3
:10A5A0005DA702005DA702005DA702005DA7020093
:10A5B0005DA702005DA702005DA702005DA7020083
:10A5C0005DA702005DA702005DA702005DA7020073
:10A5D0005DA702005DA702005DA702005DA7020063
:10A5E0005DA702005DA702005DA7020007A70200A9
:10A5F000562B00F09880B1E0019B9B880022194601
:10A60000604800F003FC0C900C9B0693069B002B0B
:10A6100002D00698FCF750FD0720FFF7F5FA0C90E2
:10A620000C9B0593059B002B02D00598FCF744FD7D
:10A63000019B9B881946544801F030F80C900C9B04
:10A640000493049B002B00F08B800498FCF734FDEE
:10A6500086E04E4A4E4BD31ADB081B0443F003003E
:10A660000D9B1B881A460D9B1B794A49FCF7D9F9AB
:10A6700083E00D9B1B79022B74D1444A444BD31ABF
:10A68000DB081B0443F0030343491846FCF7BCF9FD
:10A6900068E0019B9888002300228521FFF7B8FB22
:10A6A0000C900C9B0793079B002B5DD00798FCF741
:10A6B00003FD59E00D9B1A880D9B04331946104683
:10A6C000FFF79EFB0C900C9B0893089B002B4DD032
:10A6D0000898FCF7F1FC49E000238DF80C300023CA
:10A6E0008DF80D30019B9B8803AA11461846FFF791
:10A6F00093FB0C900C9B0993099B002B38D0099875
:10A70000FCF7DAFC34E0019B9B8813211846FFF725
:10A710007BFB0C900C9B0A930A9B002B2AD00A9877
:10A72000FCF7CAFC26E0194A194BD31ADB081B04B4
:10A7300043F0030319491846FCF766F9019B9B880F
:10A7400013211846FFF760FB0C900C9B0B930B9B9F
:10A75000002B11D00B98FCF7AFFC0DE000BF0CE014
:10A7600000BF0AE000BF08E000BF06E000BF04E051
:10A7700000BF02E000BF00E000BF00BF0FB05DF807
:10A7800004FB00BFA83A0020502A0020F0D30200AA
:10A79000C8D3020054DE020084DE0200A4DE020000
:10A7A00000B587B001F05CFE0590059B0493049B07
:10A7B000002B02D00498FCF77FFC0023019301AB2F
:10A7C0001946012001F0DAFE0590059B0393039BD7
:10A7D000002B02D00398FCF76FFC01AB184601F088
:10A7E0009FFF0590059B0293029B002B02D00298CD
:10A7F000FCF762FC00BF07B05DF804FB00B583B056
:10A8000001900091009B1B8840F6772293420AD169
:10A81000074A084BD31ADB081B0443F0030306491D
:10A820001846FCF7F1F800BF03B05DF804FB00BF69
:10A83000F0D30200C8D30200BCDE020000B585B030
:10A840000E490F4801F0F8F80390039B0293029B16
:10A85000002B02D00298FCF72FFCF721084801F0EA
:10A86000FFF80390039B0193019B002B02D00198FA
:10A87000FCF722FC00BF05B05DF804FBFDA7020059
:10A88000B838002000B585B003468DF807309DF834
:10A890000730042B10D00A2B21D1144A144BD31AA1
:10A8A000DB081B0443F0030312491846FCF7ACF81D
:10A8B0000020FDF791FC15E00F4B5B881321184633
:10A8C000FFF7A2FA0390039B082B0AD0039B029385
:10A8D000029B002B05D00298FCF7EEFB01E000BFC5
:10A8E00000E000BF00BF05B05DF804FBF0D302003C
:10A8F000C8D30200D8DE0200A83A002000B587B015
:10A900000B4B01930B4B02930B4B039301AB19467B
:10A910000A4800F09FF90590059B0493049B002BC7
:10A9200002D00498FCF7C8FB00BF07B05DF804FB39
:10A9300039A20200459F020024300020A83A0020DE
:10A9400000B585B00F490120FFF76AF90390039B1A
:10A950000293029B002B02D00298FCF7ADFB0DF195
:10A96000030319460020FFF72BFA0390039B019382
:10A97000019B002B02D00198FCF79EFB00BF05B0A5
:10A980005DF804FB85A8020000B583B001900B4B75
:10A990001B78002B07D00121094800F0F7F9074B7D
:10A9A00000221A7006E00221054800F0EFF9034B7F
:10A9B00001221A7000BF03B05DF804FB4030002094
:10A9C000A83A002000B585B0FCF76AFC0390039B11
:10A9D0000293029B002B02D00298FCF76DFB094A00
:10A9E00001210948FCF78EFC0390039B0193019B16
:10A9F000002B02D00198FCF75FFB00BF05B05DF8AB
:10AA000004FB00BF89A9020048DC020000B583B046
:10AA10004FF480410020FBF741FE0190019B009321
:10AA2000009B002B02D00098FCF746FBFBF76CFD67
:10AA300000BF03B05DF804FB00B583B0FDF790FBE9
:10AA40000190019B0093009B002B02D00098FCF723
:10AA500033FB00BF03B05DF804FB000000B585B018
:10AA60006B4608220021184602F0ECF80A4B0093CE
:10AA70000A4B01936B46184600F0D2FD0390039BEE
:10AA80000293029B002B02D00298FCF715FB00BF3B
:10AA900005B05DF804FB00BF25A1020024300020B2
:10AAA00008B5FBF755FE034683F00103DBB2002B2C
:10AAB00001D0FDF76BFB00BF08BD000008B5FFF734
:10AAC000A5FFFFF77FFF134800F0B2F9FFF738FF4B
:10AAD0001320FFF7D8F91220FFF7D5F9FFF7BEFFD3
:10AAE000FFF7AAFFFFF75CFEFFF7A8FEFFF706FFE0
:10AAF000FFF7D4FA084A094BD31ADB081B0443F0CA
:10AB0000030307491846FBF77FFFFFF725FAFFF716
:10AB1000C7FFFCE741A10200F0D30200C8D3020046
:10AB2000F0DE020062DF70474B6903B118477047DF
:10AB300070B58AB004460D4616460021202202A8B0
:10AB400002F080F800238DF8053001238DF80830DD
:10AB50000B4B6288A0698DF80460CDE904344FF492
:10AB60000033079301AB089302A940F20113ADF83B
:10AB70001A50ADF8183001F06FF90AB070BD00BF7F
:10AB800029AB02002DE9F04F0C468BB01C22054684
:10AB9000002103A802F056F82278002A3BD1A388AE
:10ABA000B3F5A05F37D1A1792B78994233D1217ABF
:10ABB000BDF82460BDF81C00BDF822C0BDF81E70B1
:10ABC000BDF820804FF0120E1EFB0141234601917B
:10ABD0009646914641F2014B01998B421ED1B9F143
:10ABE000000F01D0ADF82080BEF1000F03D0ADF80A
:10ABF00022C0ADF81E701AB1ADF82460ADF81C008B
:10AC00002B6943B16288ADF80E2000228DF80C202C
:10AC100003A9284698470BB0BDE8F08FD98941F2C7
:10AC2000024A51450BD041F2034A51450DD05945D6
:10AC300003D1B3F816804FF001091233CCE7B3F813
:10AC400016C01F8B4FF0010EF7E7DE8A188B01222A
:10AC5000F3E70000F0B5194B87B002AA04460D4691
:10AC600003F1100C174618685968164603C60833D6
:10AC700063453246F7D1F4B1EDB1AB68DBB12146A3
:10AC80003846FFF74FFFA0B923788DF806304FF410
:10AC9000A053ADF804304FF6FF7363802B68236137
:10ACA0006B686361AB68A060A081A36101A800F03C
:10ACB000D3FC07B0F0BD0E20FBE700BF41DF020070
:10ACC00010B5034688B00846F9B1F3B149884FF68C
:10ACD000FF72914219D09C888C4216D11988112993
:10ACE00021D0392911D104697CB15A8941898A421C
:10ACF0000DD162B101228DF8042003F110020392FC
:10AD0000DB89ADF8083001A9A04708B010BD8189E2
:10AD10008A42F8D1002AF6D002228DF8042003F1ED
:10AD200010020492ECE70369002BEED003218DF8AA
:10AD30000410428001A99847E7E710B40A4650B1D1
:10AD400044884FF6FF718C4209D0C18839B15DF853
:10AD5000044BFFF7EDBE0E205DF8044B7047082052
:10AD6000FAE710B40A4650B144884FF6FF718C429E
:10AD700009D0818839B15DF8044BFFF7D9BE0E20A8
:10AD80005DF8044B70470820FAE7000010B58AB060
:10AD900004468DF8071070B32022002102A801F0AC
:10ADA00051FF62884FF6FF739A420CD1134B14483F
:10ADB0001449C01AC008000440F00200FBF724FE4A
:10ADC00008200AB010BD01238DF808300E4BA06991
:10ADD000CDE904342389ADF81A304FF4803307935A
:10ADE0000DF10703089302A94FF48173ADF81830F1
:10ADF00001F032F8E5E70E20E3E700BFC8D3020018
:10AE0000F0D3020026DF020029AB020070B14180BE
:10AE10004AB15388C380D3884381138883801389C0
:10AE2000838193880381806901F0B6B80E20704752
:10AE300070B50E4D06460FCD8AB004AC0FC495E830
:10AE400003000B4B0B4A00934FF4807384E803001C
:10AE5000CDE90223019332460723694604A8FCF793
:10AE6000C3FB08B1FCF728F90AB070BD54DF02003B
:10AE7000013B0020013C002001F08ABEFCF70CBC25
:10AE800084B0019000230293002303930EE0019B02
:10AE90001B781946039A13465B019B1A0B440393D4
:10AEA000019B01330193029B01330293029B052B0B
:10AEB000EDDD039B074AA2FB0312991A49080A44D5
:10AEC0009209652101FB02F29A1A1346184604B052
:10AED000704700BF57866F4400B585B00190019858
:10AEE000FFF7CEFF03460D4A52F8233003930DE0DF
:10AEF000039B04331946019800F012F80346002B17
:10AF000001D1039B06E0039B1B680393039B002B6B
:10AF1000EED10023184605B05DF804FB043D002087
:10AF200084B0019000910023039310E0019B1A78F4
:10AF3000009B1B789A4201D001230CE0039B013354
:10AF40000393019B01330193009B01330093039B07
:10AF5000052BEBDD0023184604B0704700B587B021
:10AF60000390684680E80E000398FFF7B5FF059050
:10AF7000059B002B28D1142001F038FD0590059B7E
:10AF8000002B01D1002330E00398FFF779FF0490F4
:10AF9000184A049B52F82320059B1A60059B043332
:10AFA00006220399184601F024FE059B03F10A02CC
:10AFB0006B4603CB106051601B7813720D49049BE4
:10AFC000059A41F823200FE0059B0A33092200214E
:10AFD000184601F037FE059B03F10A026B4603CBCE
:10AFE000106051601B781372059B184607B05DF81E
:10AFF00004FB00BF043D002000B585B00190019B1B
:10B00000191D02AB0622184601F0F3FD019B043323
:10B0100006220021184601F015FE019B0A33092281
:10B020000021184601F00EFE019801F027FD0023D3
:10B03000019300BF05B05DF804FB000000B585B0CA
:10B040000190019B04331846FFF71AFF0346124A8A
:10B0500052F82330039316E0039B0293029B1A1DC0
:10B06000019B043319461046FFF75AFF0346002B95
:10B0700006D1029B1B6803930298FFF7BDFF06E011
:10B08000039B1B680393039B002BE5D100BF00BF0C
:10B0900005B05DF804FB00BF043D00200369C168F2
:10B0A0008B429DBF8268D21802F1FF3203F1FF3359
:10B0B00094BF501A581A70472DE9F843D0E902940A
:10B0C0000546A9EB04084068904520440F46144407
:10B0D00004D901F08EFDEC60BDE8F8834246A4EB94
:10B0E000090401F086FD6868224607EB0801F0E7D5
:10B0F0002DE9F843C5680646894617464FF0000813
:10B100003469B3687068A54228BFE418013C621B2B
:10B110005C1BBC4228BF3C46944228BF14464946AB
:10B120002844224601F065FDB3682544AB4208BFC0
:10B1300000253F1BA044A144F560E1D14046BDE895
:10B14000F883000010B5114C114AA2610223C4E932
:10B150000433104BE361A2644FF400730E4A0F49AD
:10B160002362E26400231022E01DA3626362E362B3
:10B17000A3656365E365226501F097FD08492046F4
:10B1800001F093FD2023A37110BD00BF983E002065
:10B190006CDF0200203F0020103F002075DF02001E
:10B1A00079DF0200F8B5184C182300FB033503FBC8
:10B1B00000402544C46A012C0F4616460FD0022CCD
:10B1C0001AD0F4B92846FFF769FF864205D83246FF
:10B1D00039462846FFF770FF34462046F8BD28461A
:10B1E000FFF75CFF8642344628BF044622463946B4
:10B1F0002846FFF761FFF0E72846BDE8F840FFF773
:10B2000077BF0024E9E700BF983E0020FFF79ABF10
:10B2100064DF704770B5E8B14AB116880024B442C3
:10B2200003D305196D789D4208D0A14201D80020B2
:10B2300010E0055D01352C44A4B2F0E7A142F6D937
:10B24000005D0138A31C80B29DB210FA83F38B42DB
:10B25000EDDC158070BDF0B587B0002306460C46C6
:10B260001046ADF8063002AA10230DF105018DF845
:10B270000530FFF7CDFF16B9002007B0F0BD00285C
:10B28000FAD19DF80550042D2BD0102D2BD0022D76
:10B29000F3D10323BDF806207AB90DF10602214649
:10B2A0003046FFF7B7FFBDF806302BB92B460DF13E
:10B2B00006023046FFF7AEFF0446BDF80670002FC9
:10B2C000DAD00025AC42D7D9E8199DF8052002A9AB
:10B2D000304401F029FC48B19DF805301D44ADB261
:10B2E000F0E70523D6E706250723D3E70120C4E7C7
:10B2F00030B50B4B19680B4B0022914201D1002055
:10B3000009E09D788478A54206D11D880488A5426D
:10B3100002D1054B186830BD01320433EDE700BFA0
:10B32000284100202C410020204100202DE9F84F29
:10B3300090F8C6A24FF0760B04460AFB0B00884635
:10B340009146FFF7D5FF074670B3D4F8CC52052DD0
:10B350002AD804EBC5165A46A6F8D2920BFB0A412E
:10B3600006F5357001F045FCB8F1000F14BF00235D
:10B37000022386F8D0320D4BC6F84C731A6801359B
:10B380009542C4F8CC521D460ED104F53476002700
:10B39000F36F304698472B6801379F4206F18006CD
:10B3A000F6D30023C4F8CC32BDE8F88F2841002042
:10B3B00030B5A1B004460D467C22002101A801F061
:10B3C00041FC03238DF80430044BADF806501B6894
:10B3D00002940BB101A8984721B030BD2041002054
:10B3E0002DE9F041074691F8C60276234FF0000898
:10B3F000A0B081F8C88200FB03100C461546FFF789
:10B4000077FF064660B17C22414601A801F01AFC94
:10B4100001238DF80430ADF80650029701A8B0471B
:10B4200029462046FFF7C4FF20B0BDE8F0810000A8
:10B4300030B58BB0044620220D4602A8002101F051
:10B4400001FC04220DEB0200002101F0FBFB94F84B
:10B45000C53294F8C62213B3013B7621DBB25143C7
:10B46000122000FB031323445B8A01339BB2ADF827
:10B470000430762303FB024202A91389ADF806309B
:10B4800003238DF80830019BCDE90543064B049357
:10B49000064B2A46186800F0DFFC0BB030BD76235F
:10B4A00003FB0243DB88E2E7E1B3020044410020F2
:10B4B000F0B5044689B020220D466846002101F00F
:10B4C000C1FB94F8C7321E4A01331268DBB29342C3
:10B4D00084F8C7324FF000022BD294F8C632194FCD
:10B4E00084F8C5220133DBB2762113FB01F057F853
:10B4F000237084F8C6322618275001FB03433271AB
:10B500001B68CDF81230104B029302220F4B8DF8BE
:10B5100000200122ADF81020186803942A466946DD
:10B5200000F09AFC18B12A462146FFF759FF09B0EE
:10B53000F0BD84F8C82229462046FFF739FFF6E718
:10B54000284100202C410020E1B3020044410020AA
:10B550002DE9F047044688B00D461646002120220A
:10B56000684601F06FFB94F8C62294F8C512762362
:10B5700012FB03F2A018122790F804C017FB012356
:10B5800001F1010E0A33E645234411D004F11C09F0
:10B5900000F1220E0CF1FF389144CAB294450BD948
:10B5A00088451B890ED102899A421BD1002312E0E3
:10B5B0001B890289934215D101232B70002008B00A
:10B5C000BDE8F08707FB01FA01333EF80A209342F9
:10B5D0001DD109EB0A0394F8C522013284F8C52273
:10B5E0000131DAE701339BB2ADF810300A4B029318
:10B5F00000210A4B297004218DF80010ADF81220AB
:10B60000186803943246694600F026FCD7E7013AF1
:10B610009BB292B2E8E700BFE1B3020044410020D0
:10B6200010B570B1026862B1436853B10649002099
:10B630000860064901240C7005490A60054A136038
:10B6400010BD0E20FCE700BF28410020244100204F
:10B65000204100204441002010B5044680B10C4B2D
:10B660001B787BB1FFF744FE70B90A4A1368052BBB
:10B670000CD80949246841F823400133136010BDF8
:10B680000E20FCE70820FAE70020F8E70420F6E7A0
:10B6900024410020284100202C410020F0B50D4617
:10B6A0008BB0044600283BD0204B1B78002B39D0B0
:10B6B0001F4B1B68002B35D090F8C812002933D1DE
:10B6C0004FF4BA621B4F019101F0BCFA019920229C
:10B6D00002A801F0B7FA3868294600F05DFCE8B925
:10B6E000154BC4F8CC0284F8C502A4F8C602186849
:10B6F000206002238DF808300126104BCDF81A0087
:10B70000A4F8CA523868ADF818602A4602A9059410
:10B71000049300F0A1FB08B984F8C8620BB0F0BD37
:10B720000E20FBE70820F9E71120F7E7244100206D
:10B7300028410020444100202C410020E1B30200B8
:10B740002DE9FF410C46054660B159B1904B1B787D
:10B7500043B10388322B64D007D8112B00F00A8143
:10B76000302B20D004B0BDE8F081332BFAD1828891
:10B77000B1F8CA329342F5D1C68891F8C6C291F8A1
:10B78000C572002E00F0C080762101FB0C4C002316
:10B790009CF804108DF80F307B1C8B4200F0E48085
:10B7A00084F8C532A2E08388B1F8CA229A42D9D17E
:10B7B000C3886BBB91F8C632762202FB0313026981
:10B7C000C3F8062091F8C432827A1344062B0CDCAD
:10B7D00081F8C432A9882046FFF72AFE0028C1D08C
:10B7E000AA882146FFF7FCFDBCE7062381F8C43296
:10B7F0006848694B6949C01AC008000440F002005B
:10B800000190FBF701F966490198FBF7FDF8E1E7C4
:10B8100000212046FFF78AFDA9882046FFF748FE51
:10B82000A0E78288B1F8CA329A429BD1C388002B24
:10B8300058D191F8C672762317FB03F701EB07087E
:10B84000837A98F804603344062B26DC88F80430A9
:10B85000334603EBC30207EB420205F10C06224418
:10B86000002198F80400834206F10A0602F1120250
:10B8700027D31222013B02FB034394F8C622762110
:10B880003B4401FB0242598A138999422AD2062875
:10B8900028D0A98884F8C5029DE7062388F80430DB
:10B8A0003C483D4BCA5B3F49C01AC008000440F009
:10B8B00002000190FBF7ACF83B490198FBF7A4F8B4
:10B8C000C6E73046013350F80ACD42F808CCD0F82C
:10B8D00004C042F804CC0089108051809180D1804E
:10B8E0001181BEE7002384F8C532AA880DF10F014B
:10B8F0002046FFF72DFE00287FF472AF9DF80F3031
:10B90000002B3FF42FAF32E0762303FB0CF1122320
:10B9100003FB0713B0F80AE023447645BFF434AFC5
:10B92000C189A1F52451082908D8DFE801F01417CE
:10B930000507070707071A0081899982998A39B193
:10B94000D98A29B1198B19B1598B00297FF41CAF01
:10B9500001360630E1E78189D982EFE781891983D1
:10B96000ECE781895983E9E701238DF80F30AA8834
:10B9700001214EE7B1F8CA3282889A4201BF002302
:10B9800081F8C8324FF6FF73A1F8CA32EAE600BF69
:10B990002441002008D40200C8D3020080DF020046
:10B9A0009FDF0200E4DF02002AE0020090DF704720
:10B9B000A5DF7047B5DF70477FB50023ADF80810ED
:10B9C000ADF80A106A4602A9064603930093ADF843
:10B9D0000430FFF7EBFF054600B3124B124CE41A9C
:10B9E000E408FCF771FD240444F0010403460F4908
:10B9F00032462046FBF715F8BDF80020BDF80230AE
:10BA000052EA030103D00A492046FBF70AF8BDF8C1
:10BA100004201AB107492046FAF7FAFF284604B075
:10BA200070BD00BFC8D3020028D4020090E002001D
:10BA3000DAE0020019E1020080B14FF0F713036071
:10BA4000FB230371F723C3801723038141F6FB32E5
:10BA50000023016143818281184670470E207047A0
:10BA600030B1A1F11703E02B04D8418000207047CA
:10BA70000E2070470720704713B5034680880C4698
:10BA8000B8B91A88242A00F0968014D8112A71D0E7
:10BA9000232A00F09E80102A3BD0A37A4BB1E18884
:10BAA0000020FFF785FF002840F099804FF4807355
:10BAB000638102B010BD3A2A65D0552AEDD1DB88EA
:10BAC000C988A072172B38BF17238B4228BF0B469B
:10BAD0002381FFF76FFF60B1FCF7F6FC484B494943
