:020000022000DC
:1060000000000120756302005D6302005F6302000F
:106010006163020063630200656302000000000028
:1060200000000000000000000000000067630200A4
:1060300069630200000000006B6302006D630200F0
:10604000D5D902006F63020049E60200190C030073
:106050006F6302006F63020069E302006F63020076
:106060006F630200EDC902006F63020099FF020036
:106070006F6302006F6302006F6302006F630200D0
:106080006F630200E18A02006F6302006F63020027
:106090006F6302006F63020059B903006F6302006F
:1060A0006F6302006F6302006F6302006F630200A0
:1060B0006F6302006F630200000000000000000038
:1060C0006F6302006F6302006F6302006F63020080
:1060D0006F6302006F6302006F6302000000000044
:1060E00000000000000000000000000000000000B0
:1060F00000000000000000000000000000000000A0
:10610000000000000000000000000000000000008F
:10611000000000000000000000000000000000007F
:10612000000000000000000000000000000000006F
:10613000000000000000000000000000000000005F
:10614000000000000000000000000000000000004F
:10615000000000000000000000000000000000003F
:10616000000000000000000000000000000000002F
:10617000000000000000000000000000000000001F
:10618000000000000000000000000000000000000F
:1061900000000000000000000000000000000000FF
:1061A00000000000000000000000000000000000EF
:1061B00000000000000000000000000000000000DF
:1061C00000000000000000000000000000000000CF
:1061D00000000000000000000000000000000000BF
:1061E00000000000000000000000000000000000AF
:1061F000000000000000000000000000000000009F
:10620000354936480A1A02D0072291438D4634494F
:1062100034480A1A06D00722914381F309880222E2
:1062200082F3148830483149314A00F044F831484B
:106230003149324A00F03FF831483249324A00F0E1
:106240003AF832483249334A00F035F83248334997
:10625000334A00F030F833483349344A00F02BF821
:1062600033483449344A00F026F83448344900228F
:1062700000F02CF833483449002200F027F8334866
:106280003349091A082902DB002202604160314AC1
:1062900090471F481F49884205D00268043003B464
:1062A000904703BCF7E700208646EC46002000211B
:1062B000294A9047FEE7884207D0521A05D0037852
:1062C00001300B700131013AF9D17047884202D098
:1062D00002700130FAE770470000012000E0002062
:1062E00000000120000001206CF303007422002054
:1062F0005C230020D0630200D063020030C20300A0
:106300006CF303007422002074220020D0C3030029
:10631000D0C30300D0C30300D0C30300D0C3030025
:10632000D0C30300D0C30300D0C303006AF303004B
:1063300054F403005C2300205C2300205C23002035
:1063400094360020943600209436002094360020A5
:10635000945600209D6302009D210300FEE7FEE7A6
:10636000FEE7FEE7FEE7FEE7FEE7FEE7FEE7FEE705
:1063700000F002B8FFF7FCBF0F484FF00701884359
:1063800085460E4880470E48016841F4700101605F
:10639000BFF34F8FBFF36F8FFFF732BF09480A4932
:1063A0000A4A884207D0521A05D0037801300B7090
:1063B0000131013AF9D170470000012045CA0200BD
:1063C00088ED00E0BCC3030060220020742200209E
:1063D00000B5A1B00590049103920293049805F0D2
:1063E0005BFF039B1593029B1693002317930023D7
:1063F0008DF8603000231993229B1A9300231F937A
:106400000FA91F9B0822049806F004F808231F9385
:10641000119B1293BDF84030ADF84C30BDF84230BE
:10642000ADF84E3000238DF851309DF83C3003F02C
:106430000303DBB2012B26D10F9BC3F395231C93DF
:106440009DF83C30C3F3C203DBB28DF85030BDF889
:106450003C30C3F38313DBB21B931B9B9A0009A947
:106460001F9B049805F0D6FF1B9B9B001F9A1344AB
:106470001F9312AA09A915AB009313461B9A1C98E7
:1064800000F0D8FF2FE09DF83C3003F00303DBB2AF
:10649000022B28D1BDF83E30C3F389139BB21E9363
:1064A0009DF83C30C3F3C203DBB28DF850301E9B25
:1064B000082B28BF08231D9307A91F9B1D9A04982A
:1064C00005F0A8FF1F9A1D9B13441F931E9A1D9B46
:1064D000D31A1E9315AB12AA07A81D9901F04CF808
:1064E0001E9B002BE3D1049805F0E5FE00BF21B010
:1064F0005DF804FB00B583B00190019B1B781A4640
:106500000C4B9B5C002B05D0019B0433184609F013
:106510006FFA0BE0019B1B781A46064B9B5C002B25
:1065200004D1019B0C33184608F06EFC00BF03B089
:106530005DF804FB482C002000B587B00390029161
:1065400013468DF8073000230593039B1B781A46EA
:10655000114B9B5C002B09D0039B04339DF8072053
:106560000299184609F09AFA05900FE0039B1B78F0
:106570001A46094B9B5C002B08D1039B0C339DF8FA
:1065800007200299184608F0B7FC0590059B1846AD
:1065900007B05DF804FB00BF482C002082B00190DA
:1065A0000091034B01221A7000BF02B0704700BF78
:1065B0009C23002030B58DB003468DF80730194B71
:1065C00002AC1D460FCD0FC495E80F0084E80F0004
:1065D000062302934FF0FF3303934FF0FF330493EE
:1065E0004FF0FF3305934FF0EB7308939DF807309E
:1065F000002B01D00C4A00E0002202AB19460B48E8
:1066000007F048F80B900B9B0A930A9B002B02D0D3
:106610000A9801F0F9FA064A9DF80730137000BF96
:106620000DB030BDD0C303009D6502007422002070
:106630009D23002000B583B001238DF807309DF81D
:1066400007301846FFF7B6FF00BF03B05DF804FB44
:1066500000B589B0039002910192019B8DF81F3023
:10666000114B00221A709DF81F301A4602990F48EC
:10667000FFF762FF0690069B0593059B002B02D057
:10668000059801F0C1FA00BF094B1B78002B07D019
:10669000054B1B78DBB283F00103DBB2002BF3D197
:1066A00000BF09B05DF804FB9C2300207422002089
:1066B0009D23002000B585B003900291054B009307
:1066C0004023054A02990398FFF782FE00BF05B0F8
:1066D0005DF804FB516602005C23002082B001904B
:1066E00000BF02B07047000000B583B001900548BC
:1066F000FFF700FF0020FFF75DFF00BF03B05DF86C
:1067000004FB00BF7422002082B00190019BDB6873
:1067100001225A7100BF02B07047000000B583B07B
:106720004FF0FF330193FFF785FF0421054800F088
:106730009BFD01900348FFF7E7FF00BF03B05DF842
:1067400004FB00BFACC3030000B583B0019000910F
:10675000019B1B681B6800990198984700BF03B014
:106760005DF804FB00B583B00190019B1B685B687A
:106770000198984700BF03B05DF804FB00B583B0F3
:106780000190019B1B689B680198984700BF03B06C
:106790005DF804FB82B001900B468DF80330019B3D
:1067A000DB689DF803201A7100BF02B0704782B009
:1067B0000190019BDB681B79184602B0704782B0DC
:1067C0000190019BDB6801225A7100BF02B0704743
:1067D00082B00190019BDB685B79184602B070477C
:1067E00000B585B001900091154BFF229A60144BC3
:1067F00000221A60124B00225A60114B0022C3F88B
:1068000018240F4B0022C3F814240D4B002283F8E8
:1068100020240C4805F0A4FC0390039B002B01D01E
:10682000039B08E0084805F049FF084A084BD31AC3
:10683000DB0802930023184605B05DF804FB00BF97
:1068400008250020B0C2030010C40300ACC303003D
:10685000C4C20300024A034BD31ADB081846704730
:10686000ACC30300C4C2030000B587B001900B465F
:106870008DF803309DF80330002B1FD0FFF7EAFF9F
:1068800004900023059313E0059B9B000E4A1344DC
:106890000393039B1B881A46019B1B689A4204D1F1
:1068A000019B059A1A60002309E0059B01330593BB
:1068B000059A049B9A42E7D3052300E0002318467B
:1068C00007B05DF804FB00BF7422002000B585B05E
:1068D00001900B468DF803309DF8032001AB114663
:1068E0001846FFF7C1FF0346002B07D1019BDB00D1
:1068F000054A13440393039B1B6800E000231846DA
:1069000005B05DF804FB00BFC4C2030084B0019071
:106910000B468DF80330019BDB00174A13440293AA
:106920009DF80330013B032B1CD801A252F823F041
:106930004169020049690200516902005B69020075
:1069400002238DF80F3011E004238DF80F300DE095
:10695000029B1B798DF80F3008E0029B5B798DF864
:106960000F3003E000238DF80F3000BF9DF80F308B
:10697000184604B0704700BFC4C2030084B0019041
:10698000009100238DF80F30019B1B7803F0040366
:10699000DBB2002B24D0019B1B78C3F30103DBB2D5
:1069A000012B02D0022B0CD017E0009B1B68019A30
:1069B0001288C2F38312D2B213449A1C009B1A604D
:1069C0000BE0009B1B68019A5288C2F3891292B2B5
:1069D00013449A1C009B1A6000BF01238DF80F30EE
:1069E0009DF80F30184604B07047000000B58BB01A
:1069F0000023ADF826303B4804F09BFA3A4804F0F7
:106A000098FA3A4B5B680493384B9B680693049A58
:106A1000069B134002339B00344A1344043308930B
:106A200004AB19460898FFF7A9FF0346002B09D0CD
:106A3000049A069B134002339B002C4A13440433F0
:106A40000893EDE700BF0023079311E0049B5A1C55
:106A50000492069A1340079A920001A90A44234916
:106A600002339B000B445B681360079B0133079361
:106A7000079B012BEAD99DF80430C3F30103DBB275
:106A8000012B10D0022B1CD1BDF80A30ADF82630F6
:106A9000BDF80630C3F389139BB203339A08049BF5
:106AA000134404930EE0BDF80A30ADF82630BDF86B
:106AB0000430C3F38313DBB21A46049B13440493DC
:106AC00000E000BF084804F040FA0590059B002B49
:106AD00002D0049B054A5360BDF8263018460BB01F
:106AE0005DF804FB202900201C2900200825002037
:106AF00000B585B00021074804F050F90390039BCE
:106B00000293029B83F310030193019B184605B087
:106B10005DF804FB2429002000B589B003900291A0
:106B200001920093039B1B0C0693FFF7E1FF079074
:106B3000079B1904009B5A1C0A9B1340069A0A43A0
:106B40001B4902339B000B445A60009A0A9B134076
:106B500002339B00164A134404330593039B03F04E
:106B60000703D9B2059A137861F3C5031370019B2B
:106B700003F00F03D9B2059A138861F389131380C8
:106B8000029BC3F31501059A136861F39F231360F9
:106B9000059A1378012161F301031370059A1378A4
:106BA0006FF38203137000BF09B05DF804FB00BFF0
:106BB0000825002000B58DB00390029113468DF892
:106BC0000730039B02330A9301238DF827300023FB
:106BD0008DF81B300DF11B03184601F023FC404BD0
:106BE0001A68029B1A603E4B9A683D4B59683C4BB1
:106BF0001B68CB1A134401330B9314E0012139486D
:106C000004F05BF9FFF7F2FE07900799354804F0AE
:106C100054F9334B9A68324B5968314B1B68CB1A85
:106C2000134401330B930A9A0B9B9A42E6D89DF8C2
:106C30002730002B48D0002305939DF80730002B08
:106C400017D09DF81430012262F301038DF814303F
:106C50009DF8143043F004038DF81430039B03F0C7
:106C60000F03DAB2BDF8143062F38913ADF81430B3
:106C700016E09DF81430022262F301038DF81430FF
:106C80009DF8143043F004038DF81430039BC3F3D4
:106C900009039AB2BDF8163062F38F13ADF81630BF
:106CA0000F4B1A680E4B9B68134002339B000C4A33
:106CB000134404330893059A089B1A60084B1A681A
:106CC0000A9B1344064A13609DF81B30184601F0D6
:106CD000B3FB9DF8273018460DB05DF804FB00BFEC
:106CE000082500202429002000B58BB005900491D0
:106CF000039202931F4B9B68079306AB0122194630
:106D00000298FFF757FF0346002B24D0069B02335F
:106D100009930023089311E0089B9B00039A1A44EF
:106D2000099B591C099107990B40126811490233BC
:106D30009B000B445A60089B01330893089A029BFE
:106D40009A42E9D3069A079B00931346029A049944
:106D50000598FFF7E1FE074B93F82034002B05D090
:106D600000BF00F079F80346002BFAD100BF0BB04A
:106D70005DF804FB0825002000B583B00190009168
:106D80000023002200990198FFF7AEFF00BF03B077
:106D90005DF804FB00B587B0039002910192019B5E
:106DA000059305AA012302990398FFF79DFF00BFF1
:106DB00007B05DF804FB00B587B003900291019223
:106DC0000093019B0493009B059304AA022302995C
:106DD0000398FFF789FF00BF07B05DF804FB00B51B
:106DE00089B00390029101920093019B0593009B4F
:106DF00006930A9B079305AA032302990398FFF7BA
:106E000073FF00BF09B05DF804FB00B589B00390C3
:106E1000029101920093019B0493009B05930A9BAE
:106E200006930B9B079304AA042302990398FFF788
:106E30005BFF00BF09B05DF804FB0000054B5A681A
:106E4000044B1B689A420CBF01230023DBB2184697
:106E5000704700BF0825002000B599B0FFF7EEFF8E
:106E60000346002B01D00023BEE19B4B0022C3F858
:106E70001824BFF34F8F00BF974B5B680493964B6A
:106E80009B681093049A109B134002339B00924A14
:106E90001344043311930023179300231693002304
:106EA0000F9304AB19461198FFF768FD0346002BBA
:106EB00019D0894BD3F81834002B14D1864B1A689B
:106EC000049B9A4205D8844B1B68834A5360002375
:106ED0008AE1049A109B134002339B007E4A1344BC
:106EE00004331193DDE70023159311E0049B5A1C32
:106EF0000492109A1340159A920001A90A44764907
:106F000002339B000B445B681360159B01331593A0
:106F1000159B012BEAD99DF8043003F00303DBB283
:106F2000022B40F09C80BDF80630C3F389139BB25E
:106F30000D93BDF80630C3F389139BB2502B28BFC5
:106F400050239BB20C930C9BC3F309039AB2BDF878
:106F5000063062F38F13ADF806300C9B08330B93A9
:106F60009DF80430C3F3C203DBB20F930B995B4867
:106F700005F001F91790179B002B00F0D1801798AE
:106F800005F08AF901A9169B0822179805F02EFA38
:106F9000169B08331693049BDA43109B134001336E
:106FA0009B000A930C9A0A9B9A4242D90A9B002B97
:106FB00008D0049A109B134002339B00464A1344A6
:106FC000043300E0464B08930A9B002B02D00A9B37
:106FD000DBB201E00C9BDBB28DF81F300A9B002B6B
:106FE00001D03F4B00E0002306930A9B002B06D004
:106FF0000C9BDAB20A9BDBB2D31ADBB200E00023AF
:107000008DF817309DF81F20169B0899179805F0EA
:10701000EDF99DF81F30169A13441693069B002B2A
:1070200016D09DF81720169B0699179805F0DEF9E3
:107030000EE0049A109B134002339B00264A13442F
:1070400004330993169B0C9A0999179805F0CEF909
:107050000D9B03339A08049B1344049360E09DF84E
:10706000043003F00303DBB2012B59D1BDF8043027
:10707000C3F38313DBB2062B28BF0623DAB2BDF8B5
:10708000043062F38913ADF80430BDF80430C3F363
:107090008313DBB202330E939DF80430C3F3C203B3
:1070A000DBB20F930E9B9B0019460C4805F063F86A
:1070B0001790179B002B33D0179805F0EDF801A916
:1070C000169B0822179805F091F9169B0833169322
:1070D000002315931BE000BF08250020B0C2030069
:1070E00014250020049B5A1C0492109A134002336A
:1070F0009B003F4A1344191D169B0422179805F064
:1071000075F9169B04331693159B01331593BDF83F
:107110000430C3F38313DBB21A46159B9342E1D3C9
:10712000179B002B40D0324BD3F810341493304BC4
:10713000D3F81834002B1BD0179805F0BCF84DE09D
:1071400000238DF84F301498FFF742FB0346002BC5
:1071500002D001238DF84F309DF84F30002B03D023
:1071600017991498FFF7F0FA149BDB681B681493C7
:10717000149B002BE4D1179805F09DF800238DF89F
:1071800003300DF10303184601F04CF9184BD3F806
:107190001834002B02D1049B154A53609DF803302C
:1071A000184601F049F919E0114BD3F81034129345
:1071B00006E01298FFF7E2FA129BDB681B68129355
:1071C000129B002BF5D10B4A0B4BD31ADB081B0487
:1071D00043F0020309491846FFF7CEFDFFF72EFEE4
:1071E000034683F00103DBB2184619B05DF804FBD7
:1071F000082500200CC30300C4C2030020C4030000
:1072000000B585B00023039323E0164BD3F8103468
:10721000029301238DF807300FE00298FFF7C7FAB9
:1072200003461A46039B934203D100238DF807308F
:1072300006E0029BDB681B680293029B002BECD1EB
:107240009DF80730002B01D0039B07E0039B01331F
:107250000393039B092BD8DD4FF0FF33184605B08D
:107260005DF804FB0825002000B585B001900B46B1
:107270008DF80330FFF7C4FF0390039BB3F1FF3F8A
:1072800001D1039B22E0039BDBB219460198FFF773
:1072900081FA104BD3F81034002B08D10D4A019B12
:1072A000C2F81034019BDB6800221A600DE0094B24
:1072B000D3F81034DA68019BDB6812681A60054B5A
:1072C000D3F81034DB68019A1A60039B184605B0A6
:1072D0005DF804FB0825002000B583B00D4BD3F802
:1072E000103401930B4B012283F8202409E001980C
:1072F000FFF765FA0198FFF735FA019BDB681B6819
:107300000193019B002BF2D100BF00BF03B05DF8D9
:1073100004FB00BF0825002082B00190009100BF4F
:1073200002B0704710B584B003900291039BDB88D4
:10733000002B0AD0039BDB881A461F4B0093134691
:107340001E4A1F49029803F0CEFE039B1B7A052BB1
:107350002ED0039B5B7A002B12D0039B9B881A468E
:10736000039B1B7A19461046FFF7D0FA03461A46CC
:10737000144B53F822301A461349029803F0B3FE17
:10738000039B1B6819460298FFF7C6FF039B1B7AF5
:107390001A460E4B53F82240039B9B880021184647
:1073A000FFF794FA034622460949029803F09BFE30
:1073B00000BF04B010BD00BF54C4030064C4030088
:1073C0009CC40300A4220020B4C403009022002027
:1073D000B8C4030000B585B00390029113468DF840
:1073E0000730039B1B7A052B0FD0039B5B7A002B86
:1073F00006D00D4B1B681A460C49029803F073FE29
:107400000B49029803F06FFE07E09DF80730002B50
:1074100003D00749029803F066FE029803F04BFE82
:1074200000BF05B05DF804FBA4220020B4C4030033
:10743000C4C4030030B58BB0079006910592049345
:107440000E9B1B7B8DF827300E9B00221A730E9922
:107450000498FFF767FF059B062B7FD801A252F81F
:1074600023F000BF817402008B7402009B74020041
:10747000AF740200CD740200F5740200257502009D
:1074800007990E9803F02FFE69E0069B1B681A46C9
:1074900007990E9803F027FE61E0069B1A68069B89
:1074A00004331B6807990E9803F01DFE57E0069BF6
:1074B0001A68069B04331968069B08331B680093FF
:1074C0000B4607990E9803F00EFE48E0069B1968DC
:1074D000069B04331868069B08331B68069A0C3217
:1074E00012680192009303460A4607990E9803F02A
:1074F000FAFD34E0069B1868069B04331C68069B63
:1075000008331B68069A0C32126806991031096814
:107510000291019200932346024607990E9803F0C8
:10752000E2FD1CE0069B1C68069B04331D68069B5D
:1075300008331B68069A0C321268069910310968E4
:1075400006981430006803900291019200932B4634
:10755000224607990E9803F0C6FD00E000BF002206
:107560000E990498FFF736FF0E9B9DF827201A739B
:1075700000BF0BB030BD00BF00B587B003900291D3
:1075800001920093029B082B60D8009B1B7B8DF817
:107590001330009B00221A7300990198FFF7C2FE76
:1075A0000023059314E0059A029B9A4209D2039A9C
:1075B000059B13441B781A462649009803F093FD57
:1075C00003E02549009803F08EFD059B01330593E8
:1075D000059B072BE7D92149009803F084FD002380
:1075E000059326E0059A029B9A421BD2039A059BBB
:1075F00013441B788DF812309DF812307E2B0AD878
:107600009DF81230184614F04FFD0346002B02D0AF
:107610009DF8123000E02E231A461149009803F01D
:1076200062FD03E00F49009803F05DFD059B013307
:107630000593059B072BD5D9012200990198FFF7E7
:10764000C9FE009B9DF813201A7300E000BF07B02D
:107650005DF804FBC8C40300D0C40300D4C4030015
:10766000D8C40300DCC4030084B003468DF807309F
:107670009DF807305B08DBB21A460D4B9B5C8DF81A
:107680000F309DF8073003F00103002B04D09DF864
:107690000F301B09DBB204E09DF80F3003F00F033D
:1076A000DBB28DF80E309DF80E30184604B07047EE
:1076B0006029002084B003460A468DF8073013463F
:1076C0008DF806309DF8073003F00103002B01D040
:1076D0000F2300E0F0238DF80F309DF8073003F002
:1076E0000103002B04D09DF806301B01DBB201E042
:1076F0009DF806308DF80E309DF807305B08DBB240
:107700001A46114B9A5C9DF807305B08DBB21946AC
:107710009DF80F301340DAB20B4B5A549DF80730E6
:107720005B08DBB21A46084B9A5C9DF807305B0891
:10773000DBB219469DF80E301343DAB2024B5A54AD
:1077400000BF04B0704700BF6029002084B003462A
:107750008DF807300023039310E00D4B1A68039B4C
:10776000DB0013440293029B1B789DF807209A428A
:1077700001D1029B09E0039B01330393054B1B7866
:107780001A46039B9342E8DB0023184604B0704777
:107790002C2900203029002000B585B003460A4678
:1077A0008DF8073013468DF806309DF807301846DF
:1077B000FFF7CCFF0390039B002B0BD0039B5B6870
:1077C000002B07D0039B5B689DF806109DF80720EF
:1077D0001046984700BF05B05DF804FB2DE9F04F57
:1077E00087B003460A468DF80F3013468DF80E30E9
:1077F0009DF80F301846FFF737FF0346042B00F2C1
:10780000C28001A252F823F01D7802009178020094
:10781000AD780200DD780200F37802009DF80E30AA
:10782000002B00F0AD809DF80F3001211846FFF7C6
:1078300041FF00238DF817300DF11703184600F0B3
:10784000F1FD9DF80F104FF001024FF00003A1F180
:107850002004C1F1200003FA01F702FA04F42743DF
:1078600022FA00F0074302FA01F6494BD3E900235C
:1078700046EA020100913B430193454BDDE90012CA
:10788000C3E900129DF81730184600F0D5FD77E0E7
:107890009DF80E30002B01D0022200E000229DF85E
:1078A0000F3011461846FFF705FF6CE09DF80E30CB
:1078B000002B0CD09DF80F3003211846FFF7FAFE7D
:1078C0009DF80F3001211846FFF766FF5BE09DF839
:1078D0000F3001211846FFF7EDFE54E09DF80E3001
:1078E000002B4FD19DF80F3004211846FFF7E2FE20
:1078F00048E09DF80E30002B06D09DF80F30032194
:107900001846FFF7D7FE3EE09DF80F3000211846DD
:10791000FFF7D0FE9DF80F3000211846FFF73CFF1F
:1079200000238DF816300DF11603184600F07AFD8D
:107930009DF80F104FF001024FF00003A1F1200657
:10794000C1F1200003FA01F502FA06F6354322FAE6
:1079500000F0054302FA01F46FEA04086FEA050932
:107960000B4BD3E9002308EA020A09EA030B084B90
:10797000C3E900AB9DF81630184600F05DFD02E04B
:1079800000BF00E000BF00BF07B0BDE8F08F00BF40
:107990005829002000B583B00648074B1B685B08D8
:1079A0000022194600F077FC019000BF03B05DF89B
:1079B00004FB00BF382900203429002000B587B01F
:1079C00001900023059328E01C4B1A68059BDB00FF
:1079D00013440493049B1B78184606F0B5FC034639
:1079E0008DF80F30049B5B78012B0CBF0123002323
:1079F000DBB21A469DF80F309A420CBF01230023D8
:107A00008DF80E30049B1B789DF80E201146184609
:107A1000FFF7E4FE059B01330593094B1B781A46DB
:107A2000059B9342D0DB074BD3E90023134301D0DE
:107A3000FFF7B0FF00BF07B05DF804FB2C29002062
:107A4000302900205829002000B585B001900B4650
:107A50008DF80330019BDBB21846FFF777FE0390E9
:107A6000039B1B78184606F06FFC03468DF80B301D
:107A7000039B5B78012B0CBF01230023DBB21A466A
:107A80009DF80B309A420CBF012300238DF80A3079
:107A90009DF80A30002B06D0054BD3E90023134391
:107AA00001D1FFF777FF00BF05B05DF804FB00BF11
:107AB0005829002000B58BB003900B4601928DF839
:107AC0000B30019B092B01D8072367E006F04CFB24
:107AD000034683F00103DBB2002B09D006F0F2FA73
:107AE0000990099B0893089B002B01D0089B55E047
:107AF0002C4A039B13602C4A9DF80B3013702B4AC1
:107B0000019B136010220021294814F02EFB294903
:107B10004FF000024FF00003C1E9002331E09DF86F
:107B20000B30DB00039A1344079303238DF81430C2
:107B300000238DF815309DF816306FF300038DF893
:107B400016309DF816306FF341038DF816309DF80E
:107B500016306FF382038DF81630079B9B788DF8F3
:107B60001530079B1B78184605AB134A194606F0DB
:107B700007FB0990099B0693069B002B01D0069BEF
:107B80000CE09DF80B305A1E8DF80B20002BC6D14F
:107B90000A4A00210A4800F05FFB034618460BB072
:107BA0005DF804FB2C290020302900203429002016
:107BB0006029002058290020497A0200BD7902007E
:107BC000ECC4030000B583B0002301930CE00C4B20
:107BD0001A68019BDB0013441B780121184606F04C
:107BE0003FFB019B01330193064B1B781A46019B17
:107BF0009342ECD30023184603B05DF804FB00BFAA
:107C00002C2900203029002000B587B001900023E6
:107C1000039300230493019B059303AB1A460021B1
:107C200044F2010000F01AF800BF07B05DF804FB51
:107C3000BFF34F8F00BF074BDB6803F4E0620549D9
:107C4000054B1343CB60BFF34F8F00BF00BF00BF96
:107C5000FCE700BF00ED00E00400FA0500B585B0C8
:107C600003900291019272B600BFFFF735FB00BF8F
:107C7000FFF7F2F80346002BFAD1114A114BD31A41
:107C8000DB081B0443F001030F491846FFF774F8A3
:107C90000E4B1B6803F00103002B00D000BE084A06
:107CA000084BD31ADB081B0443F0020308491846AB
:107CB000FFF762F8FFF7BCFF00BF05B05DF804FBFB
:107CC0000CC30300C4C20300F0C40300F0ED00E0E5
:107CD000FCC40300F0B583B0124800F0E7FE034691
:107CE00018464FF00001104BD3E90023861841EBF2
:107CF0000307CDE900670D4BD3E90023DDE900015F
:107D0000994208BF904207D2DDE9002312F1807446
:107D100043F10005CDE90045DDE900231046194691
:107D200003B0F0BDC822002078290020802900205F
:107D300088B001900091019B0793009B0693079BDD
:107D4000D3E90223CDE90423069BD3E90223CDE93D
:107D50000223DDE90423DDE90201994208BF9042D4
:107D60002CBF01230023DBB2184608B07047000087
:107D700030B585B0019000238DF80F30274B1B786C
:107D8000002B45D0019B002B42D0019B1B7FDBB217
:107D9000002B3DD0FFF79EFF019BD3E902239942C0
:107DA00008BF90422CD3019B1B69002B02D1019B81
:107DB00000221A77019B5B69019A926910469847E5
:107DC000019B1B69002B23D0019B1B7FDBB2002B87
:107DD0001ED0019BD3E90201019B1B691A464FF09B
:107DE0000003841841EB0305019BC3E90245019B95
:107DF00019460B4804F0B5FC01238DF80F3007E05D
:107E0000019B1946064804F0ACFC01238DF80F30A5
:107E10009DF80F30184605B030BD00BF7429002012
:107E20001CC50300F0B589B0019000910D230793A4
:107E3000009B00221A70019BD3E90245FFF74AFF1D
:107E400002460B46A61A65EB0307CDE90467DDE998
:107E50000423012A73F100031BDB049BB3F5350FE8
:107E600005D300F061FA0246134B134403E0019B73
:107E7000D3E90223134603934FF49603039A002198
:107E80000E4800F01FFD0790079B002B05D1012332
:107E90000EE00021094800F0E3FD079B0D2B06D101
:107EA0000198FFF765FF03461A46009B1A700023EE
:107EB000184609B0F0BD00BFFFFFB400C822002083
:107EC00000B583B0044804F075FC0190019B18468E
:107ED00003B05DF804FB00BF1CC5030000B583B010
:107EE000044804F07DFC0190019B184603B05DF846
:107EF00004FB00BF1CC5030000B583B0FFF7E0FF23
:107F00000190019B002B02D0019B00221A77019B5C
:107F1000002BF3D100BF00BF03B05DF804FB0000ED
:107F2000054BD3E9002312F1807043F10001024BAD
:107F3000C3E9000100BF70477829002000B583B075
:107F40000190084B1B68002B07D0064B1B68184696
:107F5000FFF70EFF034B00221A6000BF03B05DF86D
:107F600004FB00BF7029002000B583B00190FFF72B
:107F7000B1FE02460B460349C1E9002300BF03B02E
:107F80005DF804FB8029002000B585B00190FFF763
:107F9000A5FF039000238DF80B30039B002B48D0E6
:107FA0002B4B1B68002B03D101238DF80B3019E0FC
:107FB000039BD3E90201264B1B68D3E902239942B4
:107FC00008BF90420ED201238DF80B30204B1B6866
:107FD0001B7FDBB2002B05D01D4B1B6819461D48CB
:107FE00004F0BFFB9DF80B30002B2AD0FFF768FF91
:107FF00003900DF10A0319460398FFF713FF034698
:10800000002B12D0124B1B68002B02D1019800F0FC
:108010009FFB0F4A039B13609DF80A3083F0010316
:10802000DBB2002BB3D000BF0EE0094B00221A6078
:10803000ADE7074B1B68002B05D1019800F095FBBD
:1080400001E000BF00E000BF00BF05B05DF804FB29
:10805000702900201CC5030000B587B001902C4A90
:1080600003AB1946104602F0B0FD059048E0059BB1
:108070001B78022B2ED0022B32DC002B02D0012BDE
:1080800014D02DE0059B5B681B7FDBB283F00103FE
:10809000DBB2002B26D0059B5B6801221A77059B7B
:1080A0005B6819461B4804F05CFB1BE0059B5A68A3
:1080B000194B1B689A4203D1174B00221A6012E039
:1080C000059B5B681946134804F092FB03468DF844
:1080D000133008E0FFF710FF104B01221A7002E086
:1080E00000BF00E000BF0A4A03AB1946104602F089
:1080F00085FD074A03AB1946104602F066FD059060
:10810000059B002BB3D100BF00BF07B05DF804FB97
:10811000E02900201CC503007029002074290020DC
:1081200000B583B00190019800F08DFC0346002B50
:1081300001D0FFF7F5FE0021019800F0A2FC0346F4
:10814000002B02D00198FFF7F9FE0121019800F001
:1081500098FC0346002B02D00198FFF705FF019819
:10816000FFF77AFF0198FFF70FFF00BF03B05DF83C
:1081700004FB000008B5024800F0A5FC00BF08BDE4
:10818000C822002000B585B0034600918DF8073065
:10819000114A02AB1946104602F0EAFC0390039B19
:1081A000002B13D0039B9DF807201A70039B009AA5
:1081B0005A60094A02AB1946104602F0F2FC034627
:1081C000002B01D0FFF7D6FF002300E00423184660
:1081D00005B05DF804FB00BFE029002000B583B0C6
:1081E000164B1B680093164808235822154902F0C5
:1081F00078FC0190019B002B01D0019B19E06B469C
:10820000114A1946114800F03DFA0190019B002BDC
:1082100001D0019B0DE001210C4800F003FC01237B
:108220000B4A0121094800F0ADFA0A4B01221A70ED
:10823000019B184603B05DF804FB00BF18C503009E
:10824000E02900208829002021810200C822002086
:10825000FFFF7F007429002086B003900B46019237
:108260008DF80B30019B002B01D1072310E0039BFD
:108270001B680593059B019A5A619DF80B30012BF1
:108280000CBF01230023DBB21A46059B1A610023B1
:10829000184606B0704730B587B00390029101923E
:1082A000039B0593059B1B7FDBB2002B01D00023B2
:1082B0001AE0059B019A9A61FFF70CFD029B1A4692
:1082C0004FF00003841841EB0305059BC3E9024509
:1082D000059B1B69002B02D0059B029A1A61059928
:1082E0000020FFF74FFF0346184607B030BD00B52A
:1082F00085B00190019B0393039B00221A77039999
:108300000120FFF73FFF0346184605B05DF804FB68
:1083100082B001900091019A009BD31A23F07F4311
:10832000184602B07047000008B5034800F0BEFBD5
:108330000346184608BD00BFC822002082B0EFF3F4
:1083400010830093009B019372B600BF019B1846F7
:1083500002B0704762B600BF00BF704700B585B07D
:108360000190FFF7EBFF0390164B9B68002B1BD18E
:10837000144B01229A60144BD3F88020134B134006
:10838000104A1360104B114AC3F880200E4BD3F8EB
:1083900084300C4A53600C4B4FF0FF32C3F88420FA
:1083A000019B00221A7002E0019B01221A70039BBC
:1083B000002B01D1FFF7CEFF0023184605B05DF872
:1083C00004FB00BFF429002000E100E0FC06FFBD33
:1083D00000B585B003468DF80730104B9B68002B25
:1083E00016D09DF80730002B12D1FFF7A7FF03909E
:1083F0000B4A0A4B1B681360094A084B5B685360C1
:10840000064B00229A60039B002B01D1FFF7A2FFCD
:108410000023184605B05DF804FB00BFF4290020D6
:1084200000E100E000B583B001900198FFF796FFEE
:1084300000BF03B05DF804FB00B583B003468DF8C0
:1084400007309DF807301846FFF7C2FF00BF03B0A2
:108450005DF804FB82B003468DF807309DF80730C5
:1084600003F01F0205499DF907305B09012000FA5E
:1084700002F241F8232000BF02B0704700E100E0A3
:1084800082B003468DF807309DF8073003F01F02D5
:1084900006499DF907305B09012000FA02F24033DA
:1084A00041F8232000BF02B0704700BF00E100E0A8
:1084B00082B0034600918DF807309DF90730002BFC
:1084C0000CDA009BDAB20C499DF8073003F00F0379
:1084D000043B5201D2B20B441A7609E0009BDAB297
:1084E00006499DF907305201D2B20B4483F80023AC
:1084F00000BF02B0704700BF00ED00E000E100E007
:1085000000B583B003460A468DF8073013468DF850
:1085100006309DF806209DF9073011461846FFF7F2
:10852000C7FF00BF03B05DF804FB00B583B003468E
:108530008DF807309DF907301846FFF78BFF00BF15
:1085400003B05DF804FB000000B585B00190019B0D
:10855000002B0AD0074B43F001030393019B9B01BF
:108560000293039B0298984700E000BF05B05DF8B6
:1085700004FB00BF80C5030084B003900291019208
:10858000039B029A02F5A872019943F8221000BFDA
:1085900004B0704782B001900091019B009A02F5EF
:1085A000A87253F82230184602B0704782B001908A
:1085B0000091019B009AC3F8042300BF02B07047EA
:1085C00082B001900091019B009AC3F8082300BF7C
:1085D00002B0704782B001900B46ADF80230BDF892
:1085E0000230019A13441B68184602B0704784B0E9
:1085F00001900B46ADF80230BDF80230019A1344E9
:1086000000221A60BDF80230019A13441B680393DC
:10861000039B00BF04B0704782B00190019BD3F868
:108620000435184602B0704782B001900091019B5A
:10863000009AC3F8082500BF02B0704782B00190CD
:108640000B468DF803309DF80320019B13441A4616
:108650000123136000BF02B0704782B00190009107
:10866000019B009AC3F8442300BF02B0704782B058
:1086700001900091019B009AC3F8482300BF02B00B
:108680007047000000B587B0039002910192039BF0
:108690005B791946284A019B42F82130039B5B799C
:1086A000264ADB0013441B79002B0ED008230593C8
:1086B000234A244BD31ADB081B0443F0020322494C
:1086C0001846FEF759FB059B32E0039B1A68029B94
:1086D0001B8819461046FFF7A7FF039B93F9042058
:1086E000029B9B7819461046FFF70AFF039B93F9FC
:1086F00004301846FFF719FF039B5B790F4ADB0034
:10870000134401221A71039B5B7919460B4A039BA0
:1087100042F8313000230593094A0A4BD31ADB088B
:108720001B0443F0030309491846FEF725FB059B8C
:10873000184607B05DF804FB002A0020042A002038
:108740001CC30300C4C2030028C503004CC50300BA
:1087500000B583B00190019B1B6800211846FFF70C
:108760006DFF00BF03B05DF804FB00B583B001905E
:10877000019B1B6804211846FFF760FF00BF03B090
:108780005DF804FB00B587B00390029101928DF86B
:1087900003304FF48032029B02FA03F30593029BED
:1087A00050339BB29B00ADF81230019B23F07F4306
:1087B0000193039B1B6805991846FFF701FF039B74
:1087C0001B6805991846FFF752FF039B1B68BDF80D
:1087D000122011461846FFF70AFF039B1B68019AF7
:1087E00002991846FFF7C8FE039B1B6805991846B7
:1087F000FFF733FF9DF80330002B05D0039B1B6868
:1088000005991846FFF7D2FE00BF07B05DF804FBDC
:1088100000B585B00390029113468DF80730039B95
:108820001B6802991846FFF718FF9DF80730002BC8
:1088300005D0039B1B6802991846FFF7B7FE00BFDF
:1088400005B05DF804FB00B583B001900091019B79
:108850001B6800991846FFF70AFF019B1B680099E7
:108860001846FFF7ADFE00BF03B05DF804FB00B58E
:1088700083B001900B46ADF80230019B1B68BDF838
:10888000022011461846FFF7A5FE0346002B09D02B
:10889000019B1B68BDF8022011461846FFF7A7FE92
:1088A000012300E00023184603B05DF804FB82B00A
:1088B00001900091019A009BD31A23F07F43184640
:1088C00002B0704700B58BB0039002910192009303
:1088D0004FF48032029B02FA03F30993029B503358
:1088E0009BB29B00ADF82230019B23F07F430193A4
:1088F00009990398FFF7A7FF039B1B681846FFF72A
:108900008BFE0790039B1B6802991846FFF742FEF7
:108910000690039B1B68079A02991846FFF72CFEE6
:10892000039B1B68BDF8222011461846FFF75FFE27
:1089300007990698FFF7BBFF0346012B0AD11020C9
:10894000FFF702FE039B1B68BDF822201146184664
:10895000FFF74DFE039B1B681846FFF75DFE07906F
:1089600007990198FFF7A3FF0590039B1B680999DE
:108970001846FFF772FE059B012B15D1039B186863
:10898000019B01331A460299FFF7F6FD1020FFF70D
:10899000DBFD039B1B681846FFF73EFE0246079B64
:1089A000934235D00D2339E0039B1B68019A02994D
:1089B0001846FFF7E1FD039B1B681846FFF72CFEE6
:1089C0000790019B013B07991846FFF770FF059040
:1089D000009BC3F1FF1303F57F43059A9A4201D927
:1089E0000D231BE0059B002B12D1039B1868019BF4
:1089F00001331A460299FFF7BFFD039B1B68184617
:108A0000FFF70AFE0246079B934201D00D2305E0C3
:108A1000012209990398FFF7FBFE002318460BB0CB
:108A20005DF804FB00B583B001900B468DF8033070
:108A30009DF803301A4602210198FFF7E9FE00BFB6
:108A400003B05DF804FB00B583B001904FF4827170
:108A50000198FFF70CFF0346184603B05DF804FBCE
:108A600000B583B0019000914FF48032009B02FA70
:108A700003F319460198FFF7E6FE00BF03B05DF867
:108A800004FB00B585B001900091009B50339BB270
:108A90009B00ADF80E30BDF80E3019460198FFF777
:108AA000E6FE0346184605B05DF804FB00B583B04A
:108AB0000190019B1B681846FFF7AEFD0346184660
:108AC00003B05DF804FB00B583B00190019B93F9FE
:108AD00004301846FFF7D4FC00BF03B05DF804FB78
:108AE00008B5044B1B68044A12681046984700BF3B
:108AF00008BD00BF002A0020042A002082B0019097
:108B0000019B03F00303002B0CBF01230023DBB206
:108B1000184602B07047000000B585B001900023F0
:108B200003930EE00B4A039B52F82330002B05D031
:108B3000084A039B52F8233001989847039B01335E
:108B40000393039B032BEDD900BF00BF05B05DF875
:108B500004FB00BF1C2A002082B001900091019B01
:108B60001B78013B052B61D801A252F823F000BF0E
:108B7000898B0200918B0200B78B0200E98B020007
:108B8000098C0200258C0200009B00221A704EE026
:108B9000009B01221A70019B1A89009B9A81019BFC
:108BA0009A88009BDA81019BDA68009B9A60009B9F
:108BB00000221A743BE0009B02221A70019B1A8962
:108BC000009B9A81019B9A88009BDA81019BDA685D
:108BD000009B9A60019B9B7D062B0CBF0123002309
:108BE000DAB2009B1A7422E0009B03221A70019BE8
:108BF000DA88009B9A81019B1A89009BDA81019B8C
:108C0000DA68009B9A6012E0009B04221A70019BB4
:108C1000DA88009B9A81009B0022DA81009B002267
:108C20009A6004E0009B05221A7000E000BF00BFBC
:108C300002B0704784B001900091019B0393039AA6
:108C4000009B9A4206D2039B1B68B3F1FF3F01D001
:108C5000012300E0002303F00103DBB2184604B057
:108C6000704782B00190019B5B8803339B00019A9F
:108C70001344184602B0704700B583B001900091CC
:108C80000198FFF7EEFF0246009B934201D20223B8
:108C900011E0019B9B884FF6FF72934208D0019B25
:108CA0001B88002B04D0019B9B68B3F1FF3F01D1CF
:108CB000012300E00023184603B05DF804FB000028
:108CC00000B583B00190019B002B13D00D4BDB68E6
:108CD0001A46019B93420DD30A4B1B691A46019B0E
:108CE000934207D80198FFF709FF0346002B01D0F4
:108CF000012300E0002303F00103DBB2184603B0B8
:108D00005DF804FB6022002082B00190019B002BE3
:108D100004D0019B1B680B4A934201D003230DE052
:108D2000019B04331B68084A934204D0074A9342CC
:108D300003D1012302E0002300E00323184602B020
:108D4000704700BFDEC0ADDEFE011EF1FF011EF167
:108D500084B00190019B1B68B3F1FF3F06D0019BDB
:108D60001B680E4A934201D0002314E001230393B1
:108D70000CE0039B9B00019A13441B68B3F1FF3F77
:108D800001D0002307E0039B01330393039BB3F55A
:108D9000806FEED30123184604B07047DEC0ADDE0D
:108DA00082B003460A46ADF806301346ADF80430EB
:108DB000BDF80620134913469B0013449B000B4447
:108DC00008331A88BDF804301344ADF80430BDF8F8
:108DD00006200C4913469B0013449B000B440A33A6
:108DE0001A88BDF804301344ADF80430BDF80430DF
:108DF000B3F5806F94BF01230023DBB2184602B0A5
:108E0000704700BFCC2A002084B00190009148F246
:108E1000096303930023ADF80A3027E0BDF80A2068
:108E2000164913469B0013449B000B4404331B68F4
:108E3000009A9A4215D9BDF80A20104913469B00A2
:108E400013449B000B4404331B6803F58053009AC2
:108E50009A4206D200230393019BBDF80A201A8090
:108E600008E0BDF80A300133ADF80A30BDF80A3029
:108E7000012BD3D9039B184604B07047CC2A00209D
:108E800000B589B0039002910192039B03F58053D2
:108E90000693039B08330393029B02221A80039BD1
:108EA000079332E006990798FFF7E6FE03468DF830
:108EB00017309DF81730002B0AD1079B9A68184B82
:108EC0001B689A4213D9079B9B68154A13600EE0F2
:108ED000019B002B02D0019B01221A709DF81730D4
:108EE000022B04D1029B4FF480621A8014E0029B93
:108EF0001A88079B5B8813449BB203339AB2029B88
:108F00001A800798FFF7ADFE079006990798FFF7BC
:108F100091FE0346002BC5D109B05DF804FB00BFEC
:108F20002C2A002082B001900091009B9B7D022B97
:108F300009D9019B1A89009BDB8813449BB2033338
:108F40009AB2019B1A81019B5A89009BDB88D31A34
:108F50009BB2033B9AB2019B5A8100BF02B070479B
:108F600000B583B0074B1B68194600230093082304
:108F7000054A064802F062FC0346184603B05DF855
:108F800004FB00BFF42A002088C5030060220020F3
:108F900000B585B003900399002300930823044A89
:108FA000044802F04BFC0346184605B05DF804FB8C
:108FB00090C503006022002000B585B003460091F3
:108FC000ADF8063000238DF80F30BDF806300333BE
:108FD000ADF80A30BDF80A3040F2FE32934202D9B1
:108FE00048F208634BE00023ADF80C303BE0BDF8DD
:108FF0000C20254913469B0013449B000B441B780F
:10900000002B2BD1BDF80A20BDF80C3011461846B4
:10901000FFF7C6FE0346002B20D001238DF80F304A
:10902000009BBDF80C201A80BDF80C201649134691
:109030009B0013449B000B440A331988BDF80C2095
:10904000BDF80A300B4498B20F4913469B001344F5
:109050009B000B440A3302461A8008E0BDF80C302E
:109060000133ADF80C30BDF80C30012BBFD99DF8A1
:109070000F30002B01D0002301E048F206631846B0
:1090800005B05DF804FB00BFCC2A002082B0034687
:109090000A46ADF806301346ADF80430BDF804209A
:1090A0000D4913469B0013449B000B440A331A8856
:1090B000BDF80630D31A9BB2BDF80420033B98B22A
:1090C000054913469B0013449B000B440A33024698
:1090D0001A8000BF02B07047CC2A002008B50121D9
:1090E000024801F0EAFE0346184608BD2C2A00207B
:1090F00000B585B003460091ADF80630BDF80620F6
:10910000244913469B0013449B000B4404331B6803
:1091100003F580530293009B1B680393039B002B72
:1091200004D00398FFF79DFD039026E0BDF80620CC
:10913000184913469B0013449B000B4404331B68DF
:109140000833039319E002990398FFF795FD03464E
:10915000022B10D0022B10DC002B02D0012B05D0EB
:109160000BE0009B039A1A6001230EE00398FFF7BF
:1091700078FD039001E0002307E002990398FFF7D0
:1091800059FD0346002BDED10023184605B05DF8DB
:1091900004FB00BFCC2A002000B585B001900091EF
:1091A000019B5B681846FFF78BFD0346002B19D027
:1091B000019B1A89244B1B899A4213D1019B1A687F
:1091C000019B5B689B689A420CD1019B5B681946C6
:1091D0000098FFF719FE0346002B0CBF0123002364
:1091E000DBB22CE0009B00221A8023E000230293D4
:1091F00010E0029B0393039B9A68019B1B689A42B1
:1092000008D1029A019B5A600F4B1A89019B1A815F
:10921000012314E0009B1B8802AA11461846FFF7A1
:1092200067FF0346002BE4D1009B1B8801339AB2F1
:10923000009B1A80009B1B88012BD7D9002318465E
:1092400005B05DF804FB00BFFC2A002000B587B024
:109250000390029101920093324B1B78DBB283F0B2
:109260000103DBB2002B02D048F2016355E0019B01
:10927000002B02D0009B002B49D148F204634CE044
:10928000009B9B881946284A0B469B000B449B0079
:1092900013441B78002B33D124E0009B1B680593FB
:1092A000039B002B06D0059B9A88039B1B889A4240
:1092B00000D017E0029B002B06D0059B1A88029B6A
:1092C0001B889A4200D00DE0059B9A68019B1A60AA
:1092D000009B1A68019B5A60144B1A89019B1A81E2
:1092E00000231AE0009B9B88009A11461846FFF75E
:1092F000FFFE0346002BD0D1009B00221A6000E045
:1093000000BF009B9B8801339AB2009B9A80009B10
:109310009B88012BB4D948F20963184607B05DF861
:1093200004FB00BF0C2A0020CC2A0020FC2A0020CD
:1093300000B587B00291019200930346ADF80E305C
:10934000BDF80E20324913469B0013449B000B448A
:1093500004331B6808330593BDF80E202C491346CF
:109360009B0013449B000B4404331B6803F580539C
:10937000049342E004990598FFF77EFC0346022B14
:1093800025D0022B38DC002B16D0012B34D1019BC9
:109390001B8801339AB2019B1A80009B1A88059B97
:1093A0005B8813449BB203339AB2009B1A800598E2
:1093B000FFF757FC059020E0029B1B8801339AB20F
:1093C000029B1A800598FFF74CFC059015E0019B65
:1093D0001B8801339AB2019B1A80009B1A8804995A
:1093E000059BCB1A9B109BB213449AB2009B1A8028
:1093F000089B01221A7007E000BF04990598FFF747
:1094000019FC0346002BB5D107B05DF804FB00BF83
:10941000CC2A002000B585B00190084B0199184670
:1094200001F0A6FB03901C220021039812F09DFE80
:10943000039B184605B05DF804FB00BFBC2A002062
:1094400000B583B00190044B0199184601F0A9FBC7
:1094500000BF03B05DF804FBBC2A002000B583B058
:109460000190054B0199184601F0AFFB03461846E1
:1094700003B05DF804FB00BFBC2A002000B583B038
:109480000190044B0199184601F0B8FB00BF03B0EE
:109490005DF804FBBC2A002008B50121054801F055
:1094A00024FD0346002B14BF01230023DBB2184622
:1094B00008BD00BF142A002000B587B00023059323
:1094C0000023ADF812300323ADF8103000238DF8DF
:1094D0000F300023ADF80C30F7E0BDF80C301A0364
:1094E000824BDB68134402930298FFF70DFC03469E
:1094F0008DF807309DF80730032B08D0032B00F3BD
:10950000DE80002B65D0012B00F09880D7E0029818
:10951000FFF71EFC0346002B3BD0754B1B68002B4E
:1095200029D0BDF81220734913469B0013449B00B9
:109530000B4402221A70BDF812206E4913469B009C
:1095400013449B000B440433029A1A60BDF81220A6
:10955000684913469B0013449B000B4408330222C6
:109560001A80654ABDF812305380BDF812300133BD
:10957000ADF8123008E05E4A029B13605C4B022299
:109580009A8001238DF80F30059B43F0010305936A
:1095900096E0BDF81030013BADF81030BDF8122058
:1095A000544913469B0013449B000B440433029A16
:1095B0001A60BDF812204F4913469B0013449B00CC
:1095C0000B4403221A70BDF812300133ADF812308B
:1095D00076E0BDF81220474913469B0013449B00D8
:1095E0000B4400221A70BDF81220424913469B001A
:1095F00013449B000B440433029A1A60BDF81220F6
:1096000013469B0013449B0008333A4A9918BDF84F
:10961000122013469B0013449B001033354A134419
:109620001A460298FFF72CFC059B43F002030593B2
:10963000BDF812300133ADF8123041E09DF80F3023
:10964000002B29D0BDF812202A4913469B00134451
:109650009B000B4402221A70BDF81220244B19689B
:10966000244813469B0013449B00034404331960B1
:10967000BDF812201F4913469B0013449B000B4466
:10968000083302221A801C4ABDF812305380BDF8FC
:1096900012300133ADF81230154A029B13600022DC
:1096A00016490298FFF7ECFB114B9B88022B01D166
:1096B000042300E00823059A1343059300E000BF4C
:1096C000BDF80C300133ADF80C30BDF80C30022B76
:1096D0007FF603AFBDF81030012B01D800230593AE
:1096E000059BDBB2184607B05DF804FB6022002042
:1096F000F42A0020CC2A0020FC2A0020F82A00208E
:1097000000B587B003900291039B02229A750299DB
:10971000039B1A1D002300930423074802F08EF8D0
:109720000590059B002B01D1002301E048F20D6359
:10973000184607B05DF804FB6022002000B587B032
:1097400003900291039B1B69002B01D0032200E0D0
:109750000122039B9A75029B08331946039B03F170
:109760000C02002300930423074802F067F80590D9
:10977000059B002B01D1002301E048F20D63184640
:1097800007B05DF804FB00BF6022002000B587B081
:1097900003900291039B1B78032B01D1052200E06B
:1097A0000622039B9A75029B04331946039B03F11F
:1097B0000802002300930423074802F03FF80590B5
:1097C000059B002B01D1002301E048F20D631846F0
:1097D00007B05DF804FB00BF6022002000B587B031
:1097E00003900B46ADF80A3003990023009304233D
:1097F0000D4A0E4802F022F80590059B002B02D07E
:1098000048F20D630BE0BDF80A20094913469B009E
:1098100013449B000B44103301221A700023184696
:1098200007B05DF804FB00BF98C50300602200206C
:10983000CC2A002000B589B0019002AB00221A604A
:109840005A609A60019BDB6802930DF1160202AB2D
:1098500011461846FFF7A0FC0346002B12D0039BCD
:109860000693069B9A88019BDA80069B1A88019BC7
:109870001A81039BBDF8162011461846FFF7AEFF6C
:10988000079002E048F209630793079B184609B066
:109890005DF804FB00B587B00190019B981D02AAFA
:1098A0000D4B0021FFF7D2FC0590059B002B08D142
:1098B000039B094A928811461846FFF78FFF0590CF
:1098C00004E008220021044812F04FFC059B1846D2
:1098D00007B05DF804FB00BF0C2B002000B587B07B
:1098E00003900291039B01229A75029B0C33184648
:1098F000039B1A69039BDB889B00002100910146B2
:10990000074801F09BFF0590059B002B01D1002328
:1099100001E048F20D63184607B05DF804FB00BF94
:109920006022002082B0184B1B8901339AB2164B7B
:109930001A81154B00225A80134B00221A73002300
:10994000ADF8063018E0BDF80620104913469B001C
:1099500013449B000B441A78BDF80630002A0CBF54
:1099600001220022D1B2084A13440A469A72BDF875
:1099700006300133ADF80630BDF80630012BE2D9D0
:1099800000BF00BF02B07047FC2A0020CC2A002094
:1099900084B0019000238DF80F300023ADF80C3017
:1099A00031E0BDF80C301C4A13449B7A002B25D0C3
:1099B000BDF80C30184A134400229A72BDF80C20EE
:1099C000164913469B0013449B000B440C331B6841
:1099D000002B13D1BDF80C20104913469B001344F3
:1099E0009B000B4410331B78002B07D0019BBDF864
:1099F0000C201A8001238DF80F3008E0BDF80C30E0
:109A00000133ADF80C30BDF80C30012BC9D99DF8ED
:109A10000F30184604B07047FC2A0020CC2A0020E2
:109A200008B5084B05221A70074B02229A80064B94
:109A30001B68194600230122044801F0E1FF034698
:109A4000184608BDFC2A0020F42A002060220020CD
:109A500000B583B0164B5B88ADF80230BDF802202C
:109A6000144913469B0013449B000B440C331B68A2
:109A7000002B14D10E4B04221A70BDF802200D49A0
:109A800013469B0013449B000B4404331B68194688
:109A900000230122084801F0B3FF019002E0FFF724
:109AA000BFFF0190019B184603B05DF804FB00BFA7
:109AB000FC2A0020CC2A00206022002000B587B0BC
:109AC000104B5B680593104B1A680F4B9B889B00EB
:109AD00013440493059B5B880333ADF80E30094BA8
:109AE00003221A700499074B5A68BDF80E309B0088
:109AF00000200090054801F0A1FE0346184607B07B
:109B00005DF804FBFC2A0020F42A002060220020DB
:109B100000B583B00A4B5B880A491846FFF7E8FA9C
:109B20000346002B03D0FFF7C9FF019002E0FFF7C7
:109B30008FFF0190019B184603B05DF804FB00BF46
:109B4000FC2A0020002B002008B50A4B06221A70C0
:109B5000084B5B881946084A0B469B000B449B0048
:109B6000134404331B681846FFF712FA03461846DD
:109B700008BD00BFFC2A0020CC2A002008B5054BF8
:109B800007221A70034B00225A60FFF7E9F90346D7
:109B9000184608BDFC2A002008B50D48FFF7F8FE5E
:109BA000034683F00103DBB2002B0BD0094B0022EC
:109BB0001A70084B00225A80064B00225A6041F668
:109BC0001D5302E0FFF7A4FF0346184608BD00BF7F
:109BD000FE2A0020FC2A002082B0094B5B6801931A
:109BE000019B5B880333ADF80230064B9A88BDF8C1
:109BF000023013449AB2034B9A8000BF02B0704700
:109C0000FC2A0020F42A002082B0184B1B68019324
:109C1000174B5B881946174A0B469B000B449B0069
:109C2000134404331B68114A1360114B5B881946B7
:109C3000104A0B469B000B449B0013440433019ACB
:109C40001A600B4B5B881946084B9888094A0B46EB
:109C50009B000B449B001344083302461A80034BBD
:109C600002229A8000BF02B0704700BFF42A002091
:109C7000FC2A0020CC2A002008B51A4B1B78072BA1
:109C80002CD801A252F823F0A99C0200DD9C02000E
:109C9000DD9C0200B59C0200C19C0200CD9C02002C
:109CA000CD9C0200D59C0200FFF73CFE0D4B01222B
:109CB0001A7014E0FFF790FF0A4B02221A700EE0B0
:109CC000FFF7A2FF074B06221A7008E0054B072298
:109CD0001A7004E0034B01221A7000E000BF00BFBD
:109CE00008BD00BFFC2A002000B587B0019000919C
:109CF00048F20E630593019B002B05D0634B0022B5
:109D00005A604FF40643BCE0009B1B79032B00F222
:109D1000AB8001A252F823F0299D0200379D02007A
:109D2000C59D0200E59D0200009B01221A71FFF70C
:109D300017F905909BE000238DF813300023ADF850
:109D400010302BE0BDF81020514913469B001344FE
:109D50009B000B441B78022B1BD1BDF810204C49F3
:109D600013469B0013449B000B4400221A700123EE
:109D70008DF81330BDF81020454913469B0013445D
:109D80009B000B4404331B681846FFF701F905904C
:109D900008E0BDF810300133ADF81030BDF81030D8
:109DA000012BCFD99DF8133083F00103DBB2002BD8
:109DB0005CD0364B01221A70344B00225A6041F6B7
:109DC0001D535EE0009B00221A71324B02229A80E2
:109DD000304B1B681946002301222F4801F010FE6A
:109DE000059044E0009B00221A712A4B1B6818461C
:109DF000FFF7CEF80590294B5B88ADF80E30254B68
:109E00001B680293BDF80E20214913469B001344A2
:109E10009B000B4404331B681E4A1360BDF80E20E0
:109E20001B4913469B0013449B000B440433029AC6
:109E30001A60BDF80E20174B9888154913469B00F1
:109E400013449B000B44083302461A80114B022234
:109E50009A80BDF80E200E4913469B0013449B00C8
:109E60000B4400221A7002E000BF00E000BF059B17
:109E7000002B05D0054B00225A6048F20D6300E02C
:109E80000023184607B05DF804FB00BF0C2A002031
:109E9000CC2A0020F42A002060220020FC2A002086
:109EA00000B587B001900091009B9B8A1A4613462B
:109EB0009B0013449B003B4A13440493019B002BDB
:109EC00006D000990498FFF72DF84FF4064364E09C
:109ED000049B5A68049B1B899B0013440393009BBB
:109EE0009B7D062B4DD801A252F823F0319F020032
:109EF000559F02003D9F0200499F0200099F0200FA
:109F0000619F02007B9F0200274B00225A60009B4A
:109F10009B69254A136025492348FFF73DF903460D
:109F200083F00103DBB2002B02D048F2096334E076
:109F300003990098FFF7E4FB059026E00399009849
:109F4000FFF7FCFB059020E003990098FFF7C6FCA3
:109F500005901AE003990098FFF718FC059014E0AB
:109F6000009B06229A75104B5B68104A12881146B6
:109F70001846FFF733FC059007E041F61D530593A3
:109F800003E048F20E63059300BF059B002B03D04E
:109F900000990498FEF7C6FF059B184607B05DF8C8
:109FA00004FB00BFCC2A0020142B0020202B002013
:109FB00000B585B001900091019B002B02D04FF4B9
:109FC000064329E0009B1B79022B1BD0022B1DDCD2
:109FD000002B02D0012B08D018E0009B02221A713E
:109FE0000098FFF727FC039015E00098FFF752FC5C
:109FF0000390039B48F2096293420BD141F61D5333
:10A00000039307E041F61D53039304E048F20E6307
:10A01000039300E000BF039B184605B05DF804FB06
:10A0200000B585B00190019B002B02D04FF4064390
:10A030003DE0214B1B7B002B03D01F4B00221A73EA
:10A0400001E0FFF719FE1C4B1B78013B062B29D8BA
:10A0500001A252F823F000BF75A002007DA002000B
:10A0600085A002008DA00200A5A0020095A002001C
:10A070009DA00200FFF790FD039017E0FFF748FD59
:10A08000039013E0FFF71AFD03900FE0FFF7E0FCE9
:10A0900003900BE0FFF758FD039007E0FFF76EFD1C
:10A0A000039003E048F20E63039300BF039B18463E
:10A0B00005B05DF804FB00BFFC2A002000B589B0A4
:10A0C00001903B4B1B68002B05D13A48FFF7C6F9BE
:10A0D0000346374A1360364B1B681B78013B052B40
:10A0E0002BD801A252F823F001A1020011A1020015
:10A0F00011A1020021A1020021A1020031A1020050
:10A100002B4B1B6819460198FFF7EEFD019018E0F4
:10A11000274B1B6819460198FFF7C2FE019010E01B
:10A12000234B1B6819460198FFF742FF019008E096
:10A130000198FFF775FF019003E048F20E63019369
:10A1400000BF019B002B2BD003AB00221A605A608A
:10A150009A60DA601A61019B41F61D52934201D068
:10A16000019B00E000230493114B1B6803AA1146D6
:10A170001846FEF7F1FC03AB1846FEF7CDFC0C4B7E
:10A1800000221A60002301930A48FFF777F9FFF7CE
:10A1900083F9034683F00103DBB2002B02D190E781
:10A1A00000BF00E000BF00BF09B05DF804FB00BFC6
:10A1B000242B0020282B002008B50121054800F0A1
:10A1C00064FE0346002B02D10020FFF777FF00BF9B
:10A1D00008BD00BF142A002000B583B00190019B88
:10A1E0005B681846FFF76AFF00BF03B05DF804FB29
:10A1F00000B58BB00390029101928DF803300023DB
:10A20000ADF824300023ADF82630534B1B78DBB279
:10A2100083F00103DBB2002B02D048F2016397E028
:10A22000029B002B02D148F2046391E0029B1B8841
:10A230004FF6FF72934203D0029B5B88002B02D142
:10A2400048F2036384E0029B5B681846FEF756FC05
:10A25000034683F00103DBB2002B02D048F2026315
:10A2600076E0019B002B11D1029B9B68ADF8263054
:10A270000DF11A02BDF8263011461846FEF79CFE75
:10A280000890089B002B09D0089B61E0019B1B886C
:10A29000ADF81A30019B5B88ADF8263005AB184647
:10A2A000FFF7B8F80790079B002B0AD1BDF81A20DA
:10A2B000BDF8263011461846FEF7E8FE48F207635F
:10A2C00046E0079B9DF803201A70079B00229A75B1
:10A2D000BDF81A20079B9A82029B5A68079B1A6155
:10A2E000FEF7FCFE0246079BDA60029B1A88079B7A
:10A2F0001A81029B5A88079B9A80079BBDF82620EB
:10A30000DA809DF80330032B06D1079B04229A754F
:10A31000039B1A68079B9A61079BBDF824205A810A
:10A3200005AB1846FFF78CF8039B002B0DD0039B61
:10A3300000225A60079BDA68039B1A60039B002285
:10A340009A72064B1A89039B1A81FFF735FF002387
:10A3500018460BB05DF804FB0C2A0020FC2A0020F4
:10A3600000B585B001900C4B1B68042B03D148F25B
:10A370000B6303930BE0084B1B680849019A41F8F3
:10A3800023200121044800F098FD00230393039B40
:10A39000184605B05DF804FB182A00201C2A00208E
:10A3A00084B040F6F8731B68B3F1FF3F02D10F4B46
:10A3B0001B6802E040F6F8731B6803934FF080536C
:10A3C0001B6902934FF080535B690193039BB3F1C8
:10A3D000FF3F04D1019B029A02FB03F300E0039BC1
:10A3E0000093009B184604B0704700BF1410001083
:10A3F00000B583B04FF440530193FFF7D1FF0346FC
:10A40000054A1361044B1A69019BD31A024AD360AF
:10A4100000BF03B05DF804FB6022002008B5FFF721
:10A42000E7FF00220349044801F0C0F9034618463B
:10A4300008BD00BFA8C703006022002008B504487B
:10A440001C238C22034900F04CFB00BF08BD00BF59
:10A45000BC2A0020302A002000B58BB002AB0022BD
:10A460001A605A609A60DA601A61424B1B78DBB25C
:10A47000002B05D002AB1846FEF74EFB002375E01B
:10A480003D4800F04AFD0346002B01D000236DE05B
:10A49000FFF7C4FF0990099B002B01D0099B65E0E1
:10A4A000FFF7CCFFFFF708F803468DF823309DF83F
:10A4B0002330062B08D0062B12DC002B01D0022BF8
:10A4C0000ED148F20A6351E02A4B01221A70294B3F
:10A4D00000225A6002AB1846FEF71EFB002345E03F
:10A4E00000BF01AB1846FEF795FF0790079B002BB6
:10A4F00002D148F2076339E0079B01221A709DF8E8
:10A500002330013B0A2B29D801A252F823F000BFC7
:10A510003DA502005DA502003DA502005DA502006B
:10A5200055A502005DA5020055A502005DA502002B
:10A5300045A502004DA5020045A50200079B00228B
:10A540001A710CE0079B03221A7108E0079B022294
:10A550001A7104E0079B01221A7100E000BF01ABF1
:10A560001846FEF76DFFFFF727FE002318460BB0D5
:10A570005DF804FB0C2A0020102A002000B585B0ED
:10A5800001900091019B002B02D0009B002B02D177
:10A5900048F204632AE00DF10A0319460198FEF718
:10A5A000FBFD0346002B1FD0019B5B680393BDF8A6
:10A5B0000A301A4613469B0013449B0008330D4A89
:10A5C000134404330121184600F077FC009B039AE2
:10A5D0001A60019B5B6803F10C02009B5A60019BAF
:10A5E00001229A72002301E048F20963184605B07F
:10A5F0005DF804FBCC2A002000B585B00190019BDA
:10A60000002B02D148F204633BE00DF10A03194626
:10A610000198FEF7C1FD0346002B2ED0BDF80A308D
:10A6200019461A4A0B469B000B449B0013440C33FB
:10A630001B68002B1DD0019B9B7A002B19D0BDF805
:10A640000A301A46114913469B0013449B000B44E1
:10A650000C331B68591E0D4813469B0013449B0086
:10A6600003440C331960019B00229A720023039368
:10A6700006E048F20563039302E048F2096303939E
:10A68000039B184605B05DF804FB00BFCC2A0020F0
:10A6900000B583B001900091022300220099019837
:10A6A000FFF7A6FD0346184603B05DF804FB00B5AE
:10A6B00083B001900091019B002B02D148F204630A
:10A6C00006E00323002200990198FFF791FD03465D
:10A6D000184603B05DF804FB00B585B00346ADF83D
:10A6E00006301A4B1B78DBB283F00103DBB2002B80
:10A6F00002D048F2016324E0BDF806304FF6FF7245
:10A70000934202D148F203631BE002AB1846FEF706
:10A7100081FE0390039B002B02D148F2076310E0F7
:10A72000039B05221A70039B01221A71039BBDF83B
:10A730000620DA8002AB1846FEF782FEFFF73CFDEA
:10A740000023184605B05DF804FB00BF0C2A00206A
:10A7500000B583B0154B1B78DBB283F00103DBB28D
:10A76000002B02D048F201631BE06B461846FEF74F
:10A7700051FE0190019B002B02D148F2076310E0CB
:10A78000019B06221A706B461846FEF759FE084BCD
:10A790001B78002B02D0064B01221A73FFF70CFD29
:10A7A0000023184603B05DF804FB00BF0C2A00200C
:10A7B000FC2A002000B585B0029201930346ADF853
:10A7C0000E300B46ADF80C3003A90DF10E00019BC5
:10A7D000029AFEF73BFD0346184605B05DF804FB00
:10A7E00000B585B0034602910192ADF80E300DF12F
:10A7F0000E01019B029A0020FEF728FD0346184631
:10A8000005B05DF804FB00B585B0034602910192E6
:10A81000ADF80E300DF10E00019B029A0021FEF7FB
:10A8200015FD0346184605B05DF804FB82B00190A3
:10A830000091019B002B02D0009B002B02D148F21B
:10A84000046304E0019B1A68009B1A600023184609
:10A8500002B0704710B586B003904FF48063ADF836
:10A8600014300023ADF812304F4B1B78DBB283F06D
:10A870000103DBB2002B02D048F2016391E0039B9D
:10A88000002B02D148F204638BE0122200210398CE
:10A8900011F06BFC039B03221A800023ADF81630E5
:10A8A0007AE0BDF81620414913469B0013449B00F3
:10A8B0000B4408331988BDF816203C4813469B000A
:10A8C00013449B0003440A331B880B44ADF810303B
:10A8D000BDF81620354913469B0013449B000B44DA
:10A8E00004331B681846FEF70FFA0346032B05D105
:10A8F000039B1B88013B9AB2039B1A80BDF816206C
:10A900002A4913469B0013449B000B440C331968DF
:10A91000039B5A888BB213449AB2039B5A80039BC1
:10A920001989BDF81620214813469B0013449B004B
:10A9300003440A331B880B449AB2039B1A81039B7E
:10A940005A89BDF8103013449AB2039B5A81BDF85E
:10A950001420BDF81030D31AADF81230039B9B8938
:10A96000BDF812209A4203D9039BBDF812209A81A8
:10A97000039B191D039B9A1D039B03F10E04039B6C
:10A980001033BDF8160000932346FEF7D1FCBDF846
:10A9900016300133ADF81630BDF81630012B80D9D2
:10A9A0000023184606B010BD0C2A0020CC2A002037
:10A9B00086B001900091019B53E8011F8AB2D889AB
:10A9C00002449889824228BF121A1889824202BF23
:10A9D000BFF32F8F002307E0C2EA010243E8012002
:10A9E0000028E9D14FF001038DF80F300590029156
:10A9F0000492029A009B1A609DF80F30DBB2184651
:10AA000006B0704784B00190019951E8013FC3EA54
:10AA1000034341E80132002AF7D10392029300BFB9
:10AA200004B0704786B001900091019B53E8021F6B
:10AA30001FFAA1F2D888824202BFBFF32F8F0023F2
:10AA40000DE0D88902449889824228BF121AC1EACF
:10AA5000024243E802200028E8D14FF001038DF8BC
:10AA60000F30059002910492029A009B1A609DF8A3
:10AA70000F30DBB2184606B0704784B001900199E0
:10AA800051E8023FC3EA234341E80232002AF7D1EA
:10AA90000392029300BF04B0704786B00190019BFF
:10AAA00053E8021FDA88B1EB314F4FF0000017BFB7
:10AAB00089B242EA024241EA024204E05968B1EB3B
:10AAC000314F08BF012043E802210029E8D18DF869
:10AAD0000F00059104929DF80F30DBB2184606B0C6
:10AAE000704784B00390029111461A460B46ADF8A8
:10AAF00006301346ADF80430029B002B01D10E2323
:10AB00001FE0BDF80630BDF80420B3FBF2F102FBF4
:10AB100001F29B1A9BB2002B01D0092311E0039B89
:10AB2000029A1A60039B00225A60039B00229A60DB
:10AB3000039BBDF806209A81039BBDF80420DA81AF
:10AB40000023184604B0704700B585B00190019805
:10AB5000FFF7A3FF03468DF80F309DF80F30002B51
:10AB600001D0002300E01123184605B05DF804FB76
:10AB700000B585B001900091009B19460198FFF740
:10AB800017FF0346002B07D0019B1B68009A128811
:10AB900013440393039B00E00023184605B05DF8BF
:10ABA00004FB00B583B001900091009B1A88009BC4
:10ABB0005B889A4204D10198FFF724FF012300E04B
:10ABC0000023184603B05DF804FB00B585B0019082
:10ABD0000091009B19460198FFF724FF0346002BC4
:10ABE00007D0019B1B68009A528813440393039B70
:10ABF00000E00023184605B05DF804FB00B583B003
:10AC000001900091009B1A88009B5B889A4204D1B6
:10AC10000198FFF732FF012300E00023184603B03C
:10AC20005DF804FB00B585B001900091009B5B09C5
:10AC30009B00019A1A44009B03F01F03012101FAB3
:10AC400003F31946104600F0D8F8039000BF05B092
:10AC50005DF804FB00B583B001900091009B5B0997
:10AC60009B00019A1A44009B03F01F03012101FA83
:10AC700003F31946104600F0A8F80246009B03F0C3
:10AC80001F0322FA03F303F00103002B14BF012377
:10AC90000023DBB2184603B05DF804FB00B585B0B5
:10ACA00001900091009B5B099B00019A1A44009B54
:10ACB00003F01F03012101FA03F3DB431946104699
:10ACC00000F0CBF8039000BF05B05DF804FB82B044
:10ACD00001900091009B5B099B00019A13441A6844
:10ACE000009B03F01F0322FA03F303F00103002B80
:10ACF00014BF01230023DBB2184602B0704700B531
:10AD00008BB001900091002309933BE0099B9B00CD
:10AD1000019A13441B68DB430693069B93FAA3F343
:10AD20000593059BB3FA83F3089323E0099B5B012A
:10AD3000089A13440793079A009B9A421ED20799D8
:10AD40000198FFF787FF034683F00103DBB2002B76
:10AD500001D0079B1EE0099B9B00019A13441B68CE
:10AD6000DB430493049B93FAA3F30393039BB3FA8B
:10AD700083F30893089B1F2BD8D900E000BF099BE1
:10AD800001330993009B013B5B090133099A9A4205
:10AD9000BCD3009B18460BB05DF804FB10B487B021
:10ADA00001900091019B009A53E8004F104643E840
:10ADB000000191F0000FF7D1059404900391059BD9
:10ADC000184607B05DF8044B704710B487B0019087
:10ADD0000091019B009A53E8004F44EA020043E8C7
:10ADE000000191F0000FF6D1059404900391059BAA
:10ADF000184607B05DF8044B704710B487B0019057
:10AE00000091019B009A53E8004F44EA020043E896
:10AE1000000191F0000FF6D1059404900391049B7A
:10AE2000184607B05DF8044B704710B487B0019026
:10AE30000091019B009A53E8004F04EA020043E8A6
:10AE4000000191F0000FF6D1059404900391059B49
:10AE5000184607B05DF8044B704710B487B00190F6
:10AE60000091019B009A53E8004F04EA020043E876
:10AE7000000191F0000FF6D1059404900391049B1A
:10AE8000184607B05DF8044B704710B487B00190C6
:10AE90000091019B009A53E8004F04EB020043E845
:10AEA000000191F0000FF6D1059404900391059BE9
:10AEB000184607B05DF8044B704710B487B0019096
:10AEC0000091019B009A53E8004F04EB020043E815
:10AED000000191F0000FF6D1059404900391049BBA
:10AEE000184607B05DF8044B704710B487B0019066
:10AEF0000091019B009A53E8004FA4EB020043E845
:10AF0000000191F0000FF6D1059404900391049B89
:10AF1000184607B05DF8044B704700B583B0019048
:10AF200001210198FFF751FF0346184603B05DF871
:10AF300004FB00B583B0019001210198FFF75DFF8C
:10AF40000346184603B05DF804FB00B583B00190DA
:10AF500000210198FFF769FF0346184603B05DF82A
:10AF600004FB82B001900B468DF80330019BDA6838
:10AF70009DF803300199098A01FB03F31344184635
:10AF800002B0704782B001900091009B019AD26894
:10AF90009B1A019A128AB3FBF2F3DBB2184602B095
:10AFA000704784B00190019B002B01D10E2320E05B
:10AFB000019B9A68019B5B68D31A8DF80F30019B47
:10AFC0001B68019A52681A6007E0019B1A681368AF
:10AFD000591C11609DF80F201A709DF80F305A1EF1
:10AFE0008DF80F20002BF0D1019B1B6800221A71F5
:10AFF0000023184604B0704700B585B001900023C7
:10B00000039300238DF80A300DF10A031846FDF76B
:10B0100009FA019B1B681A68019B5B689A421FD959
:10B02000019B1B681A68013A1A601B681B78194655
:10B030000198FFF796FF0390019B9A68019B1B689C
:10B040001B68D31A8DF80B30019B1B681B799DF888
:10B050000B209A4204D9019B1B689DF80B201A71A2
:10B060009DF80A301846FDF7E7F9039B184605B02E
:10B070005DF804FB10B584B001900091009B039330
:10B0800000238DF80B300DF10B031846FDF7CAF9BC
:10B09000019B1B681C68621C1A6003990198FFF7EA
:10B0A00071FF034623709DF80B301846FDF7C4F975
:10B0B00000BF04B010BD00B583B00190019B9B6838
:10B0C000002B0CD0019B5B69019A1069019A1168F1
:10B0D000019A92689847019B00229A6000E000BFA5
:10B0E00003B05DF804FB0EB400B584B00190059B7D
:10B0F000002B0AD00023039306AB039303AB1A463D
:10B100000599019800F0B4F900E000BF04B05DF8C3
:10B1100004EB03B0704700B583B001900B468DF887
:10B1200003309DF803300A2B03D10D210198FFF75E
:10B13000F2FF019B1A68019B9B68581C019988606B
:10B1400013449DF803201A70019B9A68019B5B6869
:10B150009A4202D30198FFF7AEFF00BF03B05DF83B
:10B1600004FB00B587B00390029101920093002385
:10B170000593009B03F00103002B24D00BE0029BFE
:10B1800001330293059B013305939DF81330194653
:10B190000398FFF7C0FF029B1B788DF813309DF8D2
:10B1A0001330002BEBD106E0019B013B01932021E2
:10B1B0000398FFF7B0FF019A059B9A422ED9019B95
:10B1C000002BF1D12AE0029B002B0BD0029810F04B
:10B1D000FFFF059006E0019B013B019320210398AE
:10B1E000FFF799FF019A059B9A420FD9019B002B0B
:10B1F000F1D10BE0029B01330293059B01330593D0
:10B200009DF8133019460398FFF785FF029B1B78C2
:10B210008DF813309DF81330002BEBD100BF07B031
:10B220005DF804FB00B589B0039002910192009390
:10B23000029B07930123069307E0079A019BB2FB49
:10B24000F3F30793069B01330693079A019B9A42F7
:10B25000F3D2009A069B9A4201D9009B06930B9B5E
:10B2600003F00103002B22D10A9B002B1FD00B9B64
:10B2700003F00203002B06D0009B002B03D13023E8
:10B280008DF8173002E020238DF8173008E00A9B74
:10B29000013B0A939DF8173019460398FFF73BFFCF
:10B2A0000A9B002B03D0069A0A9B9A42EFD30123F4
:10B2B0000793009B012B03D9009B013B009309E0FE
:10B2C000029A079BB2FBF3F30493049A019B9A4200
:10B2D00000D205E0079B019A02FB03F30793E8E71E
:10B2E000029A079BB2FBF3F30493049B079A02FBB9
:10B2F00003F3029AD31A0293154A049B13441B7852
:10B3000019460398FFF707FF079A019BB2FBF3F377
:10B310000793079B002BE3D10B9B03F00103002B4A
:10B3200011D00A9B002B0ED006E00A9B013B0A932A
:10B3300020210398FFF7EFFE0A9B002B03D0069A0B
:10B340000A9B9A42F1D300BF09B05DF804FB00BF2D
:10B350009CC5030000B589B0059004910392029347
:10B36000049B002BB8BF5B4206930123079307E0C1
:10B37000039B069A92FBF3F30693079B0133079313
:10B38000039B069A9A42F3DA029A079B9A4201D9E2
:10B39000029B07930A9B002B0AD0049B002B04DB23
:10B3A0000B9B03F00403002B02D00A9B013B0A9382
:10B3B0000B9B03F00203002B02D0029B002B16D044
:10B3C0000B9B03F00103002B11D10A9B002B0ED025
:10B3D00006E00A9B013B0A9320210598FFF79BFE9C
:10B3E0000A9B002B03D0079A0A9B9A42F1D3049B35
:10B3F000002B07DA049B5B4204932D210598FFF78D
:10B400008AFE08E00B9B03F00403002B03D02B21E2
:10B410000598FFF780FE0B9B03F00203002B19D069
:10B420000B9B03F00103002B14D1029B002B11D1C5
:10B430000A9B002B0ED006E00A9B013B0A933021A9
:10B440000598FFF768FE0A9B002B03D0079A0A9B1A
:10B450009A42F1D304990B9B01930A9B0093029BA0
:10B46000039A0598FFF7DEFE00BF09B05DF804FB04
:10B4700000B58FB0059004910392049B002B00F05F
:10B480009181049B1B788DF83730049B0133049322
:10B490009DF83730002B00F07C819DF83730252B4C
:10B4A00040F06B8100230A9301230C93049B1B78CB
:10B4B0008DF837309DF83730302B0DD0302B1BDC1A
:10B4C0002B2B11D02D2B17D10A9B43F001030A938C
:10B4D000049B0133049312E00A9B43F002030A9396
:10B4E000049B013304930AE00A9B43F004030A938C
:10B4F000049B0133049302E000230C9300BF0C9BD8
:10B50000002BD3D1002309939DF837302A2B0CD17F
:10B51000039B1B68191D039A11601B68099A134449
:10B520000993049B013304931AE0049B1B788DF864
:10B5300037309DF837302F2B12D99DF83730392B03
:10B540000ED8049B01330493099A13469B001344BD
:10B550005B001A469DF837301344303B0993D3E71C
:10B5600000230B93049B1B788DF837309DF8373000
:10B570002E2B1DD1049B01330493049B1B788DF863
:10B5800037309DF837302F2B12D99DF83730392BB3
:10B590000ED8049B013304930B9A13469B0013446B
:10B5A0005B001A469DF837301344303B0B93E4E7B9
:10B5B000049B1B788DF837309DF837306C2B03D007
:10B5C0009DF83730682B07D1049B01330493049B0B
:10B5D0001B788DF83730EFE79DF83730252B00F0DA
:10B5E000C280252BC0F2C480782B00F3C180582B79
:10B5F000C0F2BE80583B202B00F2BA8001A252F864
:10B6000023F000BFF3B6020071B7020071B7020069
:10B6100071B7020071B7020071B7020071B7020082
:10B6200071B7020071B7020071B7020071B7020072
:10B6300089B60200ABB6020071B7020071B7020012
:10B6400071B7020071B70200ABB6020071B7020019
:10B6500071B7020071B7020071B7020071B7020042
:10B6600071B7020033B7020071B7020071B7020070
:10B6700017B7020071B70200CFB6020071B702001F
:10B6800071B70200F3B60200039B1B68191D039AF1
:10B6900011601B680C930C9B8DF81F309DF81F30B8
:10B6A00019460598FFF737FD63E0039B1B68191DDA
:10B6B000039A11601B680C930A9B0193099B0093EA
:10B6C0000B9B0A220C990598FFF744FE51E0039B5F
:10B6D0001B68191D039A11601B680C930C990A9B37
:10B6E0000193099B00930B9B0A220598FFF79AFD93
:10B6F0003FE0039B1B68191D039A11601B680C93A4
:10B700000C990A9B0193099B00930B9B10220598AF
:10B71000FFF788FD2DE0039B1B68191D039A11603C
:10B720001B6808930A9B099A08990598FFF719FD69
:10B730001FE0039B1B68191D039A11601B680C9383
:10B7400030210598FFF7E7FC78210598FFF7E3FC27
:10B750000C990023019308230093082310220598D5
:10B76000FFF760FD05E025210598FFF7D4FC00E018
:10B7700000BF049B0133049305E09DF83730194660
:10B780000598FFF7C8FC049B1B78002B7FF479AE6B
:10B7900000E000BF059B1B7B002B04D00598FFF742
:10B7A0008AFC00E000BF0FB05DF804FB00B587B075
:10B7B000059004910392059B002B10D1194A1A4B56
:10B7C000D31ADB081B0443F00100184A18490E2362
:10B7D00000930B461749FBF702FB0E231DE0049B69
:10B7E000002B10D10F4A104BD31ADB081B0443F077
:10B7F0000100114A0E490E2300930B460D49FBF739
:10B80000EEFA0E2309E0059B049A1A60059B1B685B
:10B810001B680399059898470346184607B05DF8DA
:10B8200004FB00BF34C30300C4C20300BCC5030053
:10B8300060C70300C4C50300F0C5030010B586B09F
:10B840000590049103920293059B002B10D1604A4E
:10B85000604BD31ADB081B0443F001005E4A5F49CA
:10B860000E2300930B465E49FBF7B9FA0E23ABE0BB
:10B87000039B002B10D1564A564BD31ADB081B04EE
:10B8800043F00100574A55490E2300930B46544993
:10B89000FBF7A5FA0E2397E0059B1B68002B10D140
:10B8A0004B4A4C4BD31ADB081B0443F001004E4AB1
:10B8B0004A49082300930B464949FBF790FA0823AD
:10B8C00082E0029B002B10D1414A424BD31ADB0885
:10B8D0001B0443F00100454A4049092300930B46ED
:10B8E0003F49FBF77CFA09236EE0059B5B685A68C9
:10B8F000029BB3FBF2F102FB01F29B1A002B10D06A
:10B90000334A344BD31ADB081B0443F00100384A96
:10B910003249092300930B463149FBF760FA0923AA
:10B9200052E0049800F01EF90346002B10D1284A7B
:10B93000284BD31ADB081B0443F001002D4A27498A
:10B94000102300930B462649FBF749FA10233BE0EE
:10B95000039B184600F006F90346002B10D11C4A41
:10B960001C4BD31ADB081B0443F00100224A1B497D
:10B97000102300930B461A49FBF731FA102323E0FA
:10B98000029A0499059800F0D3F80346002B10D1D1
:10B990000F4A104BD31ADB081B0443F00100174A6F
:10B9A0000E49102300930B460D49FBF718FA10239C
:10B9B0000AE0059B1B68DC68089B0093029B039AC6
:10B9C00004990598A0470346184606B010BD00BF6D
:10B9D00034C30300C4C20300BCC5030074C7030022
:10B9E000C4C5030050C60300F8C503000CC603001D
:10B9F00058C6030084C603009CC60300C0C60300EB
:10BA000010B586B00590049103920293059B002B1C
:10BA100010D13E4A3E4BD31ADB081B0443F0010011
:10BA20003C4A3D490E2300930B463C49FBF7D7F9AE
:10BA30000E2368E0059B1B68002B10D1334A344B62
:10BA4000D31ADB081B0443F00100354A32490823AE
:10BA500000930B463149FBF7C2F9082353E0039BDF
:10BA6000002B10D1294A2A4BD31ADB081B0443F0C0
:10BA700001002C4A2849092300930B462749FBF76C
:10BA8000AEF909233FE00499059800F078F80346E1
:10BA9000002B10D11D4A1E4BD31ADB081B0443F0A8
:10BAA0000100214A1C49102300930B461B49FBF758
:10BAB00096F9102327E0059B5B681B68039A02FB3D
:10BAC00003F31A460499059800F032F80346002B58
:10BAD00010D10E4A0E4BD31ADB081B0443F00100B1
