:020000022000DC
:1060000000000120756302005D6302005F6302000F
:106010006163020063630200656302000000000028
:1060200000000000000000000000000067630200A4
:1060300069630200000000006B6302006D630200F0
:106040000D8B02006F6302004D8F02006F63020030
:106050006F6302006F630200C98D02006F6302006C
:106060006F6302006F6302006F6302006F630200E0
:106070006F6302006F6302006F6302006F630200D0
:106080006F630200C97902006F6302006F63020050
:106090006F6302006F630200F1BA02006F630200D7
:1060A0006F6302006F6302006F6302006F630200A0
:1060B0006F6302006F630200000000000000000038
:1060C0006F6302006F6302006F6302006F63020080
:1060D0006F6302006F6302006F6302000000000044
:1060E00000000000000000000000000000000000B0
:1060F00000000000000000000000000000000000A0
:10610000000000000000000000000000000000008F
:10611000000000000000000000000000000000007F
:10612000000000000000000000000000000000006F
:10613000000000000000000000000000000000005F
:10614000000000000000000000000000000000004F
:10615000000000000000000000000000000000003F
:10616000000000000000000000000000000000002F
:10617000000000000000000000000000000000001F
:10618000000000000000000000000000000000000F
:1061900000000000000000000000000000000000FF
:1061A00000000000000000000000000000000000EF
:1061B00000000000000000000000000000000000DF
:1061C00000000000000000000000000000000000CF
:1061D00000000000000000000000000000000000BF
:1061E00000000000000000000000000000000000AF
:1061F000000000000000000000000000000000009F
:10620000354936480A1A02D0072291438D4634494F
:1062100034480A1A06D00722914381F309880222E2
:1062200082F3148830483149314A00F044F831484B
:106230003149324A00F03FF831483249324A00F0E1
:106240003AF832483249334A00F035F83248334997
:10625000334A00F030F833483349344A00F02BF821
:1062600033483449344A00F026F83448344900228F
:1062700000F02CF833483449002200F027F8334866
:106280003349091A082902DB002202604160314AC1
:1062900090471F481F49884205D00268043003B464
:1062A000904703BCF7E700208646EC46002000211B
:1062B000294A9047FEE7884207D0521A05D0037852
:1062C00001300B700131013AF9D17047884202D098
:1062D00002700130FAE770470000012000E0002062
:1062E00000000120000001208CDB0200282A002091
:1062F00050300020D0630200D063020058C8020072
:106300008CDB0200282A0020282A002098C90200DD
:1063100098C9020098C9020098C9020098C90200F1
:1063200098C9020098C9020098C902008BDB0200DC
:10633000B4E10200503000205030002050300020E6
:106340008C3F00208C3F00208C3F00208C3F0020A1
:106350008C5F00209D630200B1A10200FEE7FEE712
:10636000FEE7FEE7FEE7FEE7FEE7FEE7FEE7FEE705
:1063700000F002B8FFF7FCBF0F484FF00701884359
:1063800085460E4880470E48016841F4700101605F
:10639000BFF34F8FBFF36F8FFFF732BF09480A4932
:1063A0000A4A884207D0521A05D0037801300B7090
:1063B0000131013AF9D17047000001203585020012
:1063C00088ED00E098C90200282A0020282A002031
:1063D0007047000007B5044B0093044A402300F0C7
:1063E00032F803B05DF804FBF16302005130002085
:1063F0002DE9F84388461446B2B10F4B0F4E0325E2
:10640000002743F00109224608EB0701002004F0B1
:10641000B9F90744241A48B933782BB14FF47A40BC
:10642000C847013D02D13570BDE8F88301233370C0
:10643000002CE8D1F8E700BFA0C9020050300020CE
:10644000704704F0D3B9F0B595B01D46164608461E
:106450000C4601F043FE1A9B0D93CDE9086500251B
:106460002B46082205A920460A958DF82C500C953C
:1064700001F051FE079B0293069B03939DF8143095
:106480008DF8115003F00302012A1DD1BDF814202C
:10649000059DC3F3C203C2F383168DF81030B2001A
:1064A00008230EA9204601F036FEC5F3952508AB5A
:1064B0000093324602AB0EA9284600F0D1FB2046DD
:1064C00001F010FE15B0F0BD022AF8D1BDF816504B
:1064D000C3F3C203C5F389158DF810300827082DC2
:1064E0002E4628BF08263B4632460EA9204601F01C
:1064F00012FEAD1B08AB02AA31460EA8374400F0CD
:1065000013FC002DEBD1DAE708B5FFF79AFF04483A
:10651000042100F00DFB034B01225A7108BD00BF9E
:1065200088C90200282A0020037813F0040216D03C
:1065300003F00303012B03D0022B09D00120704785
:106540000A6800880232C0F3831002440A60F5E74B
:106550000B684288023303EB92130B60EEE71046A0
:10656000704700002DE9F04F87B000230446861CD9
:106570000DF107000F4615468DF8073001F0B4F80D
:10658000454801683960D0E90132134401335B1A90
:10659000824600F21C4700F5836900F21448B342BA
:1065A0001CD30020002D73D004F00F039B0143F097
:1065B000050363F30F00DAF80020DAF8083013401F
:1065C000033316444AF823009DF80700CAF8006018
:1065D00001F0AEF8012007B0BDE8F08F0121384688
:1065E00001F0A7FA484601F0BCFA404601F0B9FABA
:1065F000DAF80400DAF808B0029000EA0B00033081
:106600000AEB800002A9FFF78FFF029B50BB0BEA49
:1066100003020AEB820203F1020CD26803920133F7
:1066200003EA0B0B0AEB8B0B02F00302012ADBF8E7
:106630000C10CDF808C023D0022A16D0834640465D
:1066400001F092FA10B1029BCAF80430594638465C
:1066500001F06FFADAE901231344DAF8002001337C
:106660009B1A9CE70BEA0300C9E7BDF80E30C3F3A1
:10667000891303334FEA114B0CEB93030293DEE7CC
:10668000BDF80C30C3F383134FEA114B6344F5E7B5
:10669000A40544F006008EE7643100200B4B0C4843
:1066A000FF2210B59A600022C3F81824C3E9002223
:1066B000C3F8142483F8202401F0C9FC044610B95F
:1066C000044801F087FE204610BD00BF6431002061
:1066D000FCC80200DCC9020030B50A4C71B10A4A9C
:1066E0000A49121BD20800239A4201D1002030BD72
:1066F00031F82350854202D00133F5E7034654F8C0
:106700003300F4E764C80200FCC80200282A002015
:10671000094B013903EBC000032909D8DFE801F078
:106720000A020406042070470079704740797047D8
:10673000002070470220704764C80200034BD3E971
:106740000030C31A58425841704700BF64310020DE
:106750002DE9F04387B0FFF7F1FF0646002840F02F
:10676000F9807D4DC5F81804BFF34F8F6B68AC6896
:1067700002932340033305EB830002A9FFF7D4FE05
:10678000029B18B1D5F81824002A5FD004EA03024E
:10679000991C013305EB8202234005EB8303D26889
:1067A000DB68049302F00303022B0392029160D191
:1067B000BDF80E306948C3F38917502FB84628BF7B
:1067C0004FF0500868F38F1308F10801ADF80E3050
:1067D00001F055FC0646002800F0A78001F07EFC81
:1067E0000023082203A9304601F08BFC029924EA19
:1067F00001020132B8EB820F4FEA820332D95FFA0D
:1068000088F85BB32140DCB2A8EB040803315FFADF
:1068100088F9A046524C05EB8101082342463046D8
:1068200001F06FFC34B108F108034A4621463046B6
:1068300001F067FC029B033703EB97070297D5F83B
:106840001834002B49D1D5F8104459E02A689A42EF
:106850008FD86A60304607B0BDE8F08340491C46D7
:106860009946DAE70C40E11C0823424605EB81011A
:10687000DDE7012B59D1BDF80C303848C3F3831143
:10688000062928BF062161F3891302318900ADF87A
:106890000C3001F0F4FB0646002846D001F01EFC47
:1068A0000023082203A9304601F02BFC0027BDF885
:1068B0000C20C2F38312BB00974203F10803BED23F
:1068C00002994A1C21400331029205EB8101042206
:1068D000304601F016FC0137E9E7304601F002FCD2
:1068E000FFF72CFF80F00100C6B2B3E7E3685B79E5
:1068F00023B1236831461B6820469847E3681C682B
:10690000002CF3D1304601F0EDFB0DF107008DF8BE
:10691000074000F0E9FED5F818340BB9029B6B6014
:106920009DF8070000F004FFDAE7D5F8104454B9E9
:106930000C4B0D480D49C01AC008000440F002007D
:1069400000F062F8CCE7236820469B689847E3682C
:106950001C68ECE700267DE764310020FCC80200DB
:106960007031002064C802008CC80200C4C9020053
:106970002DE9F74F224D04460F46924601A9012208
:106980001846D5F808909B46FFF7ECFD20B3019E12
:106990004FF00008B21CD84508EB020126D1194877
:1069A000002101F0A3F880F31000000440EA144035
:1069B000E400731C04F0380403EA090306EA09063C
:1069C00044F0010405EB8303033644EA881444EAE7
:1069D0008724D86045F8264095F820341BB1FFF78E
:1069E000B7FE0028FBD103B0BDE8F08F09EA010132
:1069F00005EB81015AF82830CB6008F10108CAE79D
:106A0000643100208035002000231A46FFF7B0BF14
:106A100007B50123019201AAFFF7AAFF03B05DF8B1
:106A200004FB07B5CDE9002302236A46FFF7A0FF68
:106A300003B05DF804FB1FB5CDE90123069B03936A
:106A400001AA0323FFF794FF05B05DF804FB7FB5AF
:106A5000CDE90023089B0293099B03930A9B0493AF
:106A60000B9B05936A460623FFF782FF07B05DF88C
:106A700004FB00002DE9F3472B4D0446D01C89464A
:106A8000164601A900228008AF68FFF76BFDA8B386
:106A9000DDF80480AB6808F1020001900133384052
:106AA0001B1AB6EB830F00F103004FEA830A05EBD4
:106AB00080002DD83246494605F0EBFA1B480021EC
:106AC00001F014F880F3100008F101033B4007EADD
:106AD0000807220C05EB8303033742EA0040E40079
:106AE000D86004F0380455F8273044F0020444EA32
:106AF000865203F47C131A4345F8272095F8203476
:106B00001BB1FFF725FE0028FBD102B0BDE8F087DE
:106B10005246494605F0BDFAA6EB0A0209EB0A0106
:106B200005F10C00C8E700BF64310020803500206B
:106B300030B50F49D1F8102403460020144634B96B
:106B4000DC6820714AB9C1F81034226030BDE468B5
:106B50002579854206D02468F1E7D2681168216062
:106B60001360F3E701300A28E8D14FF0FF30EDE77A
:106B700064310020094A38B50123D2F8104482F864
:106B800020341D4604B938BDE3685D712368204692
:106B90005B689847E3681C68F4E700BF6431002035
:106BA00007B503460846197A052911D05B7A2BB13F
:106BB000094A0A49019001F03AF801980849019000
:106BC00001F035F8019803B05DF804EB01F024B84A
:106BD000002AF8D0F2E700BFE8C90200EDC90200C0
:106BE00092D2020030B5C38885B004460D4633B159
:106BF000144A00921449154A284601F018F8217ADF
:106C000005291DD0637A4BB1A088FFF781FD104B99
:106C1000104953F82020284601F009F8227A0E4B3B
:106C2000A08853F8222003920021FFF755FD039A14
:106C30000A490346284605B0BDE8304000F0F7BFDA
:106C400005B030BDE8C90200F8C90200F0C9020071
:106C500074CA0200EDC9020098CA020010CA0200FC
:106C60002DE9F04385B01F460C9D002395F80C904C
:106C70002B7306460C46904629463846FFF7B2FF6E
:106C8000B8F1060F09D8DFE808F00412181F2833FE
:106C900040003146284600F0CAFF00222946384607
:106CA000FFF77EFF85F80C9005B0BDE8F083226801
:106CB0003146284600F0BBFFEFE7D4E90023314618
:106CC000284600F0B4FFE8E7A36800933146D4E912
:106CD0000023284600F0ABFFDFE7E3680193A368D9
:106CE00000933146D4E90023284600F0A0FFD4E702
:106CF00023690293E3680193A36800933146D4E9C2
:106D00000023284600F093FFC7E7636903932369D4
:106D10000293E3680193A36800933146D4E900230A
:106D2000284600F084FFB8E708292DE9F74F804690
:106D30000E4617461C463CD8002593F80C901D7350
:106D400019461046FFF74EFFDFF888A0DFF888B03D
:106D5000AE4231D918F805205946204600F067FFA9
:106D60000135082DF4D11949194DDFF870A02046DE
:106D700000F05DFF4FF0000B5E4522D918F80B20A4
:106D80007E2A05D81046019205F01AF9019A00B939
:106D90002E225146204600F04AFF0BF1010BBBF1B9
:106DA000080FE9D1012221463846FFF7F9FE84F8A1
:106DB0000C9003B0BDE8F08F5146204600F037FF3D
:106DC000CEE72946204600F032FFE6E724CA02005B
:106DD00022CA020020CA02001ACA020026CA020001
:106DE000C30710B507D4F023054A4008145C2340BC
:106DF0001943115410BD0901C9B20F23F4E700BFB4
:106E00005036002030B5094B1C78094B1968002317
:106E10009C4202DC0022104630BD11F833508542FE
:106E200001EBC302F7D00133F2E700BF20360020A8
:106E30006036002013B504460191FFF7E3FF38B137
:106E400043682BB10199204602B0BDE810401847B5
:106E500002B010BD034B044819680022490800F035
:106E60005CBA00BF243600202836002010B5C0B21E
:106E7000FFF7C8FF0446007801F09CFF63785A1EB4
:106E800053425341834208D1044BD3E900231343B7
:106E900003D1BDE81040FFF7DDBF10BD483600202C
:106EA00037B54308354AD35CC2074CBF1B0903F012
:106EB0000F0304460D46042B35D8DFE803F0032505
:106EC0002C383C0079B30121FFF78AFF00230DF134
:106ED00007008DF8073000F007FC0120A4F1200323
:106EE000C4F12001264A20FA01F100FA03F30B4312
:106EF000A040D2E9004120430B43C2E900039DF8C2
:106F0000070000F015FC0EE0002918BF0221204602
:106F1000FFF766FF07E041B10321FFF761FF0121A1
:106F20002046FFF787FF03B030BD0121EFE70029BE
:106F3000F9D10421EBE709B10321E8E7FFF750FF9E
:106F400029462046FFF776FF0DF107008DF8075020
:106F500000F0CAFB0120A4F12003C4F12001084A7B
:106F600020FA01F100FA03F30B43A040D2E90041FB
:106F700024EA000021EA0303BFE700BF50360020E7
:106F8000483600202DE9F041124E134F002433788B
:106F9000A34208DC114BD3E90023134318D0BDE80A
:106FA000F041FFF757BF3D6805EBC40815F8340002
:106FB00001F000FF98F801305A1E53425341181A4D
:106FC0004142414115F83400FFF76AFF0134DEE722
:106FD000BDE8F081203600206036002048360020D1
:106FE000092AF7B505460C4616463CD901F022FEA3
:106FF000D8B11E4B1E481D601E4B1F4F1C701F4BEF
:10700000002110221E6005F06DF81D4B00200021AC
:10701000C3E90001013CE4B20326FF2C0BD1194A5D
:107020001948002100F06EF903E001F0CBFD0028C3
:10703000DFD003B0F0BD9DF8063015F834008DF8B0
:10704000046005EBC40223F007038DF8063001A9A4
:1070500093788DF805303A4601F0F6FD013CE4B234
:107060000028DAD0E5E70720E3E700BF603600201C
:1070700050360020203600206D6E0200243600209D
:1070800048360020856F0200B8CA020070B5084D6E
:10709000084E00242B789C4201D3002070BD336839
:1070A000012113F8340001F041FE0134F2E700BF82
:1070B00020360020603600201FB50021039001AA71
:1070C00044F20100CDE9011100F004F805B05DF8CB
:1070D00004FB000010B572B6FFF74CFDFFF738FB5C
:1070E0000028FBD1104B114C1149E41AE408240488
:1070F00044F00100FFF788FC0E4B1B68DB0700D54E
:1071000000BE0D4944F00200FFF77EFCBFF34F8F35
:107110000A490B4BCA6802F4E0621343CB60BFF329
:107120004F8F00BFFDE700BF64C802008CC802009B
:10713000BCCA0200F0ED00E0C8CA020000ED00E0A9
:107140000400FA0549B152B1531E1A4007D18260BA
:1071500001608380C260104670470E20704709208E
:10716000704710B58468C2688388121B934208D3A5
:10717000C26813400268D154C3680133C360002061
:1071800010BD0420FCE78268C3689A420AD0826876
:10719000838813400268D35C0B708368013383607B
:1071A0000020704705207047D0E90223D1E9020191
:1071B000994208BF90422CBF012000207047000078
:1071C00008B50B4800F0EBFB0A4B0B49D3E9002351
:1071D0001218D1E9000143F100038B4208BF82423B
:1071E00003D212F1807243F100031046194608BD24
:1071F000302A002068360020E036002037B50546EA
:107200000C460A4801A900F0FCFB60B1057044601F
:1072100001A9064800F01FFC18B1054800F0C4FBA6
:10722000002003B030BD0420FBE700BFCC360020B7
:10723000302A002038B5184B1B78044613B90025B6
:10724000284638BD0028FAD0037F03F0FF05002B45
:10725000F5D0FFF7B5FFD4E90223994208BF904269
:1072600014D3236903B92377D4E9053098472169FA
:107270000029E4D0237F03F0FF05002BDFD0D4E901
:107280000223521843F10003C4E9022303482146B4
:1072900001F0BFF8D4E700BF70360020E4CA020056
:1072A00013B5114B11491868019008231048582252
:1072B00000F094FB044698B90E4A0F4801A900F06B
:1072C0005BFA044660B90C48012100F04BFB012336
:1072D0000A4A0948194600F0ADFA094B01221A7012
:1072E000204602B010BD00BFE0CA02007436002084
:1072F000CC36002065730200302A0020FFFF7F009B
:10730000703600203AB103685A614A1E5142514119
:107310001961002070470720704738B5037F044685
:107320000D4683B98261FFF74BFF2369401941F194
:107330000001C4E9020103B1256121460020BDE836
:107340003840FFF75BBF002038BD002301460377BC
:107350000120FFF753BF0000014800F020BB00BF31
:10736000302A00202DE9F04F85B0804600F002FB66
:1073700040B15A4AD2E9003113F1807341F1000162
:10738000C2E900310021404600F003FB38B1544E01
:10739000336823B13068FFF74DFF002333600121CC
:1073A000404600F0F6FA20B1FFF70AFF4D4BC3E963
:1073B00000014D484A4F4D4EDFF8389103A900F0C7
:1073C0005AFB002845D1DFF82491454EDFF828A16B
:1073D000484601F034F83368002875D07BB1336833
:1073E000D0E90201D3E90223994208BF90422DD28D
:1073F00033681B7F1BB13168484601F00AF84846E4
:1074000001F017F8D0E902B307460193FFF7D8FE61
:10741000019BBBEB000463EB0105012C75F100033C
:1074200045DBB4F5350F40D3FFF796FF304A0244F1
:107430004FF496030021504600F01CFA00283ED17C
:10744000336813B9404600F0EDF9376005B0BDE888
:10745000F08F0378012B1DD0022B09D14FF0000AC9
:10746000304600F0E6FF002834D080F81CA0F7E793
:107470003BB941680B7F23B901230B77304600F0FD
:10748000C8FF03A9184800F021FB03A9164800F023
:10749000F2FA96E741683B68994202D100233B60CB
:1074A000EFE7304600F0CEFFEBE7BA68C0E7002117
:1074B000504600F064FA3846FFF7BCFE01E00D28A4
:1074C000F9D00023336083E7002BBFD1404600F0A2
:1074D000ADF9BBE7012389F80030D2E76836002018
:1074E000E8360020E0360020CC360020E4CA020056
:1074F000FFFFB40070360020302A00200648074AFB
:1075000003780749D35C012213B1043002F078B943
:107510000C3001F03DBF00BF382A00205C3700204E
:10752000143700200648074A03780749D35C012234
:1075300013B1043002F010B90C3001F0D7BE00BF17
:10754000382A00205C3700201537002037B5057831
:10755000012D0BD0022D2ED065B91E491E48FFF714
:1075600012FE002832D1FFF7DDFF03E0037A1BB9DA
:10757000FFF7C4FF03B030BD4368184C19782046AC
:10758000FFF7EFFD80B18DF800500190144B684675
:107590001B689847A168E368A2885B1A9A42E7D201
:1075A000104B01221A70E5E7A268E3689A42F1D015
:1075B0008DF80000EAE7C3688DF800500193FFF7EB
:1075C0009DFF074B68461B689847D3E703238DF858
:1075D0000030F6E71537002004370020F036002091
:1075E000EC36002000370020F0B51F46234B89B051
:1075F00004461A600D4600293DD08A882048096853
:10760000FFF7A0FD002834D1AA89A9681D48FFF71B
:1076100099FD00282DD11C4E0FCE6D460FC596E862
:107620000F0085E80F0063690693237C174A18480A
:107630008DF81C70003B18BF01238DF81430637C5B
:10764000002B14BF0E2300238DF81530E36802933E
:10765000A36803932368019369466368009301F06C
:10766000EDF930B90B4B18702368013301D0FFF7E7
:1076700045FF09B0F0BD0720FBE700BFEC36002056
:10768000F036002004370020F0CA02004D750200D9
:10769000382A00200037002010B501460E48FFF7B9
:1076A00060FD0446A8B90D480D4A0378D35C63B168
:1076B000043002F099F860B90A490748FFF763FD02
:1076C00038B9BDE81040FFF72DBF0C3001F054FE73
:1076D000F1E7204610BD00BF04370020382A002003
:1076E0005C3700201537002070B5EFF3108672B6B6
:1076F0000C4A946801239CB993600B4B0B4DD3F853
:10770000801029401160C3F88050D3F88410516074
:107710004FF0FF32C3F88420047006B962B670BD22
:107720000370FAE71837002000E100E0FC06FFBD17
:10773000084B9A6810B55AB150B9EFF3108172B680
:10774000054A1C6814605C685460986001B962B6B0
:1077500010BD00BF1837002000E100E0435882B0A0
:107760003BB10023435043580193019B012002B0D9
:1077700070471846FBE70000F8B5224B4679224CCB
:1077800043F82620214A224B9B1A04EBC602DB0851
:1077900012791B04F70032B143F002001D49FFF7D4
:1077A00033F90820F8BD02680D88C2F8085590F931
:1077B000045002798978002DADBF05F1604CDFF8E7
:1077C0005CC002F00F0E0CF5614C4FEA4111C9B2DA
:1077D000B4BF0CF80E108CF800136D090121DFF80E
:1077E00040C002F01F0201FA02F24CF82520E21913
:1077F00044F83600117143F003000749FFF704F91C
:107800000020CFE72C3700202437002064C8020076
:107810009CC8020010CB020032CB020014ED00E045
:1078200000E100E0036801221A607047036801224A
:107830005A60704773B501F15005AD000068ADB2F4
:107840004FF480348C400026C0F80843C0F8484309
:10785000465101F5A8714559019522F07F42019DDD
:1078600040F82120C0F844430BB1C0F8044302B0F3
:1078700070BD00002DE9F74F0D4622F07F440268ED
:107880004FF4803705F150068F408046B60002EB7A
:107890008500C2F84873B6B2C2F80873D2F804156E
:1078A00099464FF0000BD0F84035C0F8401542F82B
:1078B00006B05B1A9259009223F07F43012B009A85
:1078C0004FEA850A0CD1264B4FF4806043F0010348
:1078D0009847D8F8003043F806B09B590193019BB4
:1078E000D8F80010D1F80465C1F84473A31B23F045
:1078F0007F43012B1CD11A4B05F5A875013443F0C9
:10790000010341F825404FF480609847D8F80030D3
:10791000D3F804359E4209D1D8F800300020C3F8CE
:107920004473C3F8047303B0BDE8F08F0D20FAE789
:107930008A44C9F1FF13CAF84045D1F80405221A58
:10794000013A22F07F4203F57F439342EED3002AAF
:10795000E2D10134CAF84045D1F804359842DAE75B
:1079600050CB020003680222C3F8442309B1C3F8D4
:107970000423704700684FF48271FFF7EFBE4FF4A5
:10798000803303FA01F10368C3F84813C3F80813FE
:10799000704750318900006889B2FFF7DFBE036885
:1079A000D3F804057047000090F9043001215A090A
:1079B00003F01F0301FA03F34032024941F8223079
:1079C000704700BF00E100E0024B034A1B681068EB
:1079D000184700BF2C3700202437002010B561B1B4
:1079E000B2FBF3F403FB1424A4B244B9C0E90014BD
:1079F00084608281C381204610BD0E20FCE70920EF
:107A0000FAE737B550E8013F9DB2C489254484891F
:107A1000A54228BF2D1B0489A54202BFBFF32F8FAB
:107A2000002207E0C5EA030540E80154002CE9D133
:107A30004FF001028DF803200193019B9DF8032074
:107A40000B6002F0FF0322B10B880068184403B0FA
:107A500030BD1846FBE70A884B889A4209D150E8A6
:107A6000012FC2EA024240E80123002BF7D1012096
:107A700070470020704737B550E8023F1FFAA3F562
:107A8000C488A54202BFBFF32F8F00220DE0C48936
:107A900025448489A54228BF2D1BC3EA054540E83B
:107AA0000254002CE8D14FF001028DF8032001931D
:107AB000019B9DF803200B6002F0FF0322B14B886D
:107AC0000068184403B030BD1846FBE70A884B88AD
:107AD0009A4209D150E8022FC2EA224240E802232A
:107AE000002BF7D1012070470020704710B50346E6
:107AF00053E8000F0A4643E8002494F0000FF7D142
:107B000010BD10B5034653E8002F42EA010043E8D8
:107B1000000494F0000FF6D110BD10B5034653E8F1
:107B2000000F00EA010243E8002494F0000FF6D1B0
:107B300010BD10B5034653E8002F02EB010043E8E7
:107B4000000494F0000FF6D110BD10B5034653E8C1
:107B5000002FA2EB010043E8000494F0000FF6D1DF
:107B600010BD0121FFF7CDBF0021FFF7D6BF10B533
:107B700090B1D0E9012301689B1ADBB20A60013B96
:107B8000DBB2FF2B026802D10020107110BD11681A
:107B90004C1C14600B70F2E70E20F7E737B5054672
:107BA00000240DF107008DF80740FFF79DFD2A68BE
:107BB0006B68116899420ED9481E106011F8014C8B
:107BC000EB68298A01FB0434AB6811791B1ADBB21C
:107BD000994238BF13719DF80700FFF7A9FD2046B1
:107BE00003B030BD37B5054600230DF107000C4644
:107BF0008DF80730FFF778FD2A681368591C11606B
:107C0000E968641A298AB4FBF1F41C709DF8070036
:107C1000FFF78EFD03B030BD826810B504462AB16F
:107C200043690168006998470023A36010BD0EB442
:107C300003B5039921B104AB01AA019300F076F8D2
:107C400002B05DF804EB03B070470A2938B504466A
:107C50000D4602D10D21FFF7F8FFA3682268591CD9
:107C6000A160D554D4E901329A4204D32046BDE83C
:107C70003840FFF7D1BF38BD2DE9F84F9846DDE910
:107C80000A43154682460F460A464FF00109AA42AA
:107C90000FD2C14538BFC14613F0010B01D16CB9F9
:107CA00000240126B8F1010F1BD908F1FF386E43FB
:107CB000F8E709F10109B2FBF5F2E8E79B070ED5F9
:107CC000B8F1000F0CBF30262026A145E9D2013CB7
:107CD00031465046FFF7B9FF002CF6D1E0E72026E9
:107CE000F3E7B7FBF6F39D42E1D9DFF83C80B7FB41
:107CF000F6F3504618F8031006FB1377FFF7A5FFBD
:107D00003346AB42B6FBF5F6F1D2BBF1000F02D021
:107D10000CB1A14501D3BDE8F88F20215046013CAC
:107D2000FFF793FFF4E700BF56CB02002DE9F74FB2
:107D3000054617468846002900F0428118F8011BC5
:107D400049B92B7B002B00F03B81284603B0BDE8EE
:107D5000F04FFFF761BF252940F0B780002698F863
:107D600000302D2B424608F1010823D0302B24D0BF
:107D70002B2B25D000242A2B02F1010123D13B68B3
:107D80001A1D1B683A601C440A4613782E2B26D114
:107D900001324FF0000A104610F8011BA1F1300C1F
:107DA000BCF1090F1DD80A2303FB0A13A3F1300A03
:107DB0000246F0E746F00106D1E746F00206CEE7BC
:107DC00046F00406CBE711F8013CA3F13000092886
:107DD000DBD80A2202FB0434303C0A46CBE74FF0E2
:107DE000000A12F8011B01F0FB0068289046F8D049
:107DF000782909D86F290CD8632962D022D825297F
:107E000063D0582900F0888098F80030002B95D175
:107E100097E770390829F7D801A353F821F000BF7C
:107E20009B7F0200097E0200097E0200297F02007A
:107E3000097E0200077F0200097E0200097E02001F
:107E4000197F0200642901D06929DDD13A68D2F88E
:107E50000090111D89EAE9723960A2EBE9724FF0D6
:107E6000010B092A35DCD34538BFD3462CB1B9F113
:107E7000000F01DB720700D5013CB30702D5BAF150
:107E8000000F03D0F00701D44CBB0024B9F1000F60
:107E90002DDAC9F100092D212846FFF7D6FE06F09C
:107EA0000302022A04D1BAF1000F01D11CBB002445
:107EB000CDE9004653460A2249462846FFF7DCFE34
:107EC000A2E73B681A1D19783A602846FFF7BDFE05
:107ED0009AE70A230BF1010BB2FBF3F2C1E7A345CA
:107EE000D4D220212846013CFFF7AFFECCE7710732
:107EF000D5D52B21D0E7A345DAD230212846013C45
:107F0000FFF7A3FED2E73968CDE900460A1D3A60C3
:107F100053460A220968D0E739680A1D3A60CDE95C
:107F2000004653461022F5E73B681A1D3A6016F0EA
:107F30000106D3F8009028D1B9F1000F03D04846CC
:107F400004F025F90646B44200D904BB09F1FF3913
:107F500019F8011F00293FF457AF2846FFF775FEB7
:107F6000F6E728460136FFF770FE19F806100029DB
:107F7000F7D1A642BFF448AF002C3FF445AF202113
:107F80002846013CFFF761FEF3E70026EDE72021DC
:107F90002846013CFFF759FED5E73B681A1D3A60B9
:107FA000302128461C68FFF750FE78212846FFF74D
:107FB0004CFE00220823CDE90032214610227CE746
:107FC00003B0BDE8F08F00BF2DE9F84FB0F806A070
:107FD0004579D2F800B09DF828900AFB05F5043DDC
:107FE00088460BEB0301A94203F1040488BFA5EB0B
:107FF000030BB4FBFAF607460AFB1644C2F800B0BE
:108000004EB9AAEB04055D4528BF5D46BBF1000FE4
:1080100004D1BDE8F88F3F68013EF1E7043408EB76
:1080200006003C442A46B9F1000F0DD02146ABEBC7
:10803000050B04F02EF8DA452E443F6855464FF004
:10804000000428BF5D46E1E701462046EFE7FFF761
:108050008EBDF8B546790146721E0546002393424F
:108060002D6803D30024A64202D8F8BD0133F6E7F9
:108070000F682846FFF7B6FD01343946F3E72DE9CE
:10808000F843068ACD1C0746FFF788FD043E3544B9
:108090000446B5FBF6F5F0B14FF48073EDB2838082
:1080A000C680013D076081464FF00008A84512D206
:1080B0003846FFF773FD064648B1637901336371B3
:1080C00008F10108C9F8000007608146EEE7204684
:1080D000FFF7BFFF34462046BDE8F8830121043096
:1080E000FFF727BD10B5012104460430FFF72DFD31
:1080F00010F0FF0F04D12046BDE81040FFF7A9BFE4
:1081000010BD1FB503920022009203AAFFF75CFF87
:1081100005B05DF804FB1FB503920122009203AA8B
:10812000FFF752FF05B05DF804FB33DF704741DF16
:1081300070470000064B10B500241C70054B1C60F6
:10814000BFF35F8F0449054800F04DF9204610BD8C
:10815000393700203C37002070CB02003037002038
:1081600007B500230DF107008DF80730FFF7BCFAC3
:10817000F1EE103A23F09F03E1EE103ABFF35F8F68
:10818000094B4022C3F884219DF80700FFF7D0FA7D
:1081900003F094FC20B1FFF7CAFF03B05DF804FBC5
:1081A00020BF40BF20BFF8E700E100E070B5264DDA
:1081B000044601212846FFF799FCBFF35F8F2E4646
:1081C00038B9042C0AD0214B1A781AB1BFF35F8F4B
:1081D000286070BD1E4A147001221A701D4C1C4D7F
:1081E0006368BBB9FEF7C6FCFEF7B2FA0028FBD104
:1081F000174B1B78023B012B14D8BFF34F8F164946
:10820000164BCA6802F4E0621343CB60BFF34F8F92
:1082100000BFFDE71B682878984788B1204600F02A
:10822000ECF8DDE703F04AFC08B1FFF77EFF4FF002
:1082300080430122C3F80025BFF34F8F20BFFDE725
:10824000BFF35F8F3060C4E73C3700203937002030
:10825000383700203037002000ED00E00400FA0538
:10826000026813685268934291BFD01A8068013047
:10827000801888BFC01A7047036881681A685B68F5
:108280008B4234BF01330023D31A58425841704700
:10829000F7B5002304460DF107000D468DF80730B1
:1082A000FFF722FA2046FFF7E7FF10B1237C002BEF
:1082B0003CD12268A66853685168B14234BF01318D
:1082C0000021516030B11168A068814234BF013192
:1082D00000211160E2686068511E072920D8DFE89C
:1082E00001F004101F141F1F1F182A78C2542046C3
:1082F000FFF7B6FF23689A68824200D29860002494
:1083000015E02A8820F81320F1E72A6840F8232096
:10831000EDE7D5E9006700EBC300C0E90067E6E7D9
:10832000294602FB030003F0B4FEE0E704249DF8B5
:108330000700FFF7FDF9204603B0F0BD0368186899
:108340005B68C31A58425841704773B5002305460D
:108350000DF107000C4616468DF80730FFF7C4F9FB
:108360002846FFF7EBFF002832D129680B682EB9A9
:108370000A68A868824238BF561C0E60EA686968BD
:10838000501E07281ED8DFE800F0040E1D121D1D28
:108390001D16CB5C237000249DF80700FFF7C8F979
:1083A000204602B070BD31F813302380F3E751F856
:1083B00023302360EFE701EBC301D1E90023C4E9D7
:1083C0000023E8E703FB0211204603F062FEE2E728
:1083D0000524E1E7836800225A60C3E904229A6019
:1083E000DA601A6070470B684A684360934208BFBE
:1083F0000023016008BF43607047436843B10268CF
:10840000916852680B449342436004BF0023436069
:10841000704770B5446806460D46206818B1B368C9
:108420002946984718B923682B60256070BD2468D9
:10843000F3E74368186808B102681A607047436838
:10844000186870474368186800B97047884203D1BC
:1084500002681A600120704703460068F4E70000D4
:1084600010B50D49A1F59472914201D800200FE09A
:108470008C1AE30F03EBE4035B1002EBC30452F826
:108480003330834205D802D204F10802ECE7606879
:1084900010BD2146E8E700BF7CD0020008B5FFF719
:1084A000DFFF024B002808BF184608BD3FCF02007F
:1084B00010B50446C0B2FFF7EFF8204610BD00002B
:1084C0000C4B1B78062B10D10B4B1B681A070CD1D9
:1084D0000A4B186800F0F003302B08D000F0E000E1
:1084E000A0F14003584258417047002070470120D6
:1084F000704700BFE00F00F0E40F00F0E80F00F05D
:10850000094B1B78062B0CD1084B1B681A0708D1A6
:10851000074B186800F0F000A0F1300358425841B2
:1085200070470020704700BFE00F00F0E40F00F03C
:10853000E80F00F008B5FFF7C3FF28B17D4B7E4A76
:108540001B68C3F304231360FFF7DAFF10B17B4B02
:108550007B4A1A60FFF7B4FF28B17A4B7A4A1B684E
:10856000C3F342331360FFF7CBFF20B1774AD368E0
:1085700023F08073D360FFF7A3FF40B14FF0804337
:108580000022C3F80C21C3F81021C3F83825FFF7E7
:10859000B7FF10B16E4B03221A60FFF7B1FF40B175
:1085A0006C4B05221A6001229A6700229A603F22D2
:1085B0005A60694B1B78062B50D1684B1B68190712
:1085C0004CD1674B1B6803F0F003502B46D14FF0A2
:1085D0008052644BD2F80414C3F82015D2F8081462
:1085E000C3F82415D2F80C14C3F82815D2F81014C7
:1085F000C3F82C15D2F81414C3F83015D2F8181497
:10860000C3F83415D2F81C14C3F84015D2F820145E
:10861000C3F84415D2F82414C3F84815D2F8281426
:10862000C3F84C15D2F82C14C3F85015D2F83014F6
:10863000C3F85415D2F83414C3F86015D2F83814BE
:10864000C3F86415D2F83C14C3F86815D2F8401486
:10865000C3F86C15D2F84424C3F87025FFF730FF37
:1086600028B1414B414A1B6803F04F031360FFF7E9
:1086700027FF48B14FF08043D3F80024D20744BF0E
:108680006FF00102C3F80024394B1B68062B08D198
:10869000384B1B68062B01BF374A136843F48063CD
:1086A0001360364AD2F8883043F47003C2F8883039
:1086B000BFF34F8FBFF36F8F4FF01023D3F800221B
:1086C000002A03DBD3F80432002B2FDA2C4B0122D3
:1086D000C3F80425D3F80024002AFBD04FF0102261
:1086E0001521C2F80012D3F80024002AFBD04FF065
:1086F00010231522C3F80422214B1A46D3F8001484
:108700000029FBD00021C3F80415D2F80034002B57
:10871000FBD0BFF34F8F19491A4BCA6802F4E062CD
:108720001343CB60BFF34F8F00BFFDE7164B174AD3
:108730001A6008BD240300104035014074C0074092
:108740000DF0ADBA440200103C050040F0ED00E031
:10875000A005004010560040E00F00F0E40F00F0CC
:10876000E80F00F000C0004058020010E40E004086
:1087700030010010340100103C17004000ED00E013
:1087800000E001400400FA054C2A00200090D003CC
:10879000054A4FF0A043105CD3F8043523FA00F0EB
:1087A000C04300F00100704780D00200044B1A5C07
:1087B000012393404FF0A042C2F80C35704700BF30
:1087C00080D00200044B1A5C012393404FF0A0427A
:1087D000C2F80835704700BF80D0020008B50020FD
:1087E000FFF7F0FF0120FFF7EDFF0220FFF7EAFFA0
:1087F000BDE808400320FFF7E5BF08B50020FFF7FC
:10880000D5FF0120FFF7D2FF0220FFF7CFFFBDE821
:1088100008400320FFF7CABF074A4FF0A041105C91
:10882000D1F804350122824022EA03001340C1F846
:108830000805C1F80C35704780D00200054A4FF09A
:10884000A043105CD3F8103523FA00F0C04300F0C9
:10885000010070477CD002000D2809D00E2809D0F5
:108860000F2809D010280CBF03204FF0FF307047AD
:10887000002070470120704702207047C20708B5EA
:1088800001460CD54FF0A0430322C3F84427C3F898
:108890004827C3F84C27C3F85027FFF79FFF8B07E3
:1088A0000AD54FF0A0430C22C3F83427C3F8382769
:1088B000C3F83C27C3F8402708BD000038B5074C73
:1088C000051E04F1080318BF1C4623682BB11A6863
:1088D00022605B6828469847F7E738BD4837002094
:1088E00020B9054B01225A70FFF7E8BF012802D1D9
:1088F000014A9070F8E770474037002020B9034BD9
:1089000001225A70FFF7DABF704700BF40370020DE
:1089100038B50B4C237883B90A486360A3602361A0
:10892000E36000F0C9F8054603F0C8F808B900F0A4
:10893000CFF801232370284638BD8525FBE700BF0B
:1089400040370020E188020037B50B4C00230DF1C1
:1089500007008DF80730FEF7C7FEE368013BE360D0
:10896000E56815B900F0C6F8A5709DF80700FEF798
:10897000DFFE03B030BD00BF40370020012813B533
:1089800008D003281CD018B9104B0122C3F880204E
:1089900002B010BD0E4C00230DF107008DF807301A
:1089A000FEF7A2FE23780BB9FFF7B2FFE3689DF84C
:1089B00007000133E3600123A370FEF7B9FEE7E788
:1089C00000F086F8FFF7C0FFE2E700BF00E100E03B
:1089D000403700201FB503788DF8003043680193BD
:1089E00083688DF80830C368054A0393054B6846D1
:1089F00053F8213052F82110984705B05DF804FB78
:108A000054370020583700201FB503788DF8003008
:108A10004368019383688DF80830C368054A03935F
:108A2000054B684653F8213052F82110984705B09D
:108A30005DF804FB5437002058370020F0B5194B7F
:108A400090F800C091F81DE043F82C20164B164614
:108A50000A6943F82C20154B03F80CE00C46074636
:108A60000FCC89B06D460FC594E80F0085E80F0064
:108A7000CDF810C0BEF1000F09D0002E0C4A694697
:108A800008BF3246381D00F09FFD09B0F0BD002E32
:108A9000084A694608BF324607F10C0000F06AFB3D
:108AA000F3E700BF58370020543700205C37002020
:108AB000D5890200098A0200044A137923B90121E9
:108AC00010609180184670478520704760370020FD
:108AD000074B1A68D2075FBFC02283F80023012228
:108AE0001A604FF080430122C3F81825704700BF79
:108AF00000E100E0044B01221A604FF08042D2F8FE
:108B00001834DB03FBD470470C000040154B07B54D
:108B10001A687AB100221A601B680093009B4FF01C
:108B200080430122C3F808230F4B587910B95A71BA
:108B30001B6898470D4B1A6882B100221A601B68A7
:108B40000193019B4FF080430222C3F80823064B98
:108B50001B68012003B05DF804EB184703B05DF813
:108B600004FB00BF0001004060370020040100400A
:108B700000F1804000F5C040002382B0036003682C
:108B80000193019B02B07047800000F1A040D0F833
:108B9000002722F44032C0F80027D0F8003743EA1B
:108BA0000141C0F800177047054B4FF0FF3207280E
:108BB00043F8202084BFC01880F84820704700BFC9
:108BC0006837002010B5174C94F8583043BB04F1B7
:108BD00030032021FF22013911F0FF0103F8012B9E
:108BE000F9D1C8B2FFF7E0FF01310C29F9D1042215
:108BF00000210D4803F076FA0C4BC02283F80623BF
:108C000040221A604FF4BE70FFF7B2FF084B4FF0DE
:108C10000042C3F80423012384F85830002010BD1B
:108C20000820FCE768370020BC37002000E100E0A6
:108C300000600040034B93F85800003818BF012033
:108C4000704700BF68370020F0B5364D2C1894F9F6
:108C50003040002C64DA8C78C4F34004002C0BBF45
:108C6000082300230C260826B34201D10420F0BDBE
:108C700055F8237001373FD12E1845F8232086F888
:108C8000303014B9EA1882F848008A78540713D4AF
:108C9000D60733D5820002F1A042D2F8004724F073
:108CA0000204C2F80047204EC20800F00707012462
:108CB000BC40B75C3C43B4548A780C7812F0020292
:108CC00025D09B0003F1804303F5C0430202D3F893
:108CD000101521F4473121F44071C3F81015240414
:108CE000D3F8101502F4F85204F4403422430A4336
:108CF000C3F810250020BAE70133B5E74C7800F53A
:108D0000E0724FF0A046A40046F82240CBE7083BB3
:108D10002B4493F8501041EA841483F85040E9E75B
:108D20000820A4E768370020BC37002038B51F4C66
:108D3000251895F93020072A16DD224492F848308C
:108D40009B09032B0BD14FF0A043D3F81015C14062
:108D500001F001010231BDE83840FFF715BF012BDA
:108D60000CBF02210321F6E7D3B2072B1CD89300D6
:108D700003F1804303F5C043D3F8100540F0010030
:108D8000C3F8100502F14000800080B2FFF7F0FE4A
:108D900051B195F9303054F823302BB1012303FA47
:108DA00002F2034BC3F8042338BD00BF683700202C
:108DB000006000404FF0A043D3F8103523FA00F0D4
:108DC00000F00100704700002DE9F04F87B000244B
:108DD0005A4D03944FF48072012102F1804303F550
:108DE000C04390B21B68012B06D1D5F804330B4267
:108DF00002D0FFF7BDFE0C430432B2F5907F4FEA7C
:108E00004101EAD14E4B1B68012B0AD14FF4BE70D1
:108E1000FFF7AEFE4FF0A04344F00044D3F8103506
:108E2000039314F0FF0F1AD0464F00250126344259
:108E300010D0AB0003F1804303F5C043D3F8100515
:108E4000D3F8101557F8253023B1C1F30141C0F311
:108E5000042098470135082D4FEA4606E7D1002C3B
:108E600065DA00214FF0FF33CDE90413354D0127BA
:108E70004FF0000A344ED1464FF0A04816F9013B9E
:108E80005A1C45D0C3F3C20106AA5018DCB210F830
:108E9000042C03F03F0B03F0070307FA03F31A4215
:108EA00036D005EB0B02A40992F9302055F82220A8
:108EB00052B9032C2CD10DF1100E1EF801C04CEA52
:108EC000030C0EF801C001E0032CF4D00BF5E071A7
:108ED00010F80C0C58F821101842C1F3014105D0CC
:108EE000022915D1032C0FD1214604E003290FD10B
:108EF000032C09D102215846019209F10109FFF71B
:108F000043FE019A5FFA89F912B12146584690470B
:108F10000AF1010ABAF1040FB0D1B9F1000F06D07D
:108F20004FF0A043039AD3F81035934202D107B013
:108F3000BDE8F08F0393049B059399E70060004020
:108F40007C61004068370020B8370020014B1B6867
:108F5000184700BFC43700200E4B984237B50C4667
:108F600002D0002003B030BD00230DF107008DF8C2
:108F70000730FEF7B9FB084B1D7915B901221C60BB
:108F80001A719DF80700FEF7D3FB002DE9D01120E0
:108F9000E8E700BF00200040C43700200023435012
:108FA00082B043580193019B02B070470A4610B546
:108FB0004FF48E71FFF7F2FF136A9168C95C136A70
:108FC00001331362C0F81C1510BD024608B50068D5
:108FD0004FF49271FFF7E2FF4FF484711068FFF7CE
:108FE000DDFF136801221A6008BD8B690A4610B5BF
:108FF0004FF4847123B9FFF7D1FFD0F8183510BDB5
:10900000FFF7CCFF536AD168D0F81805C854536AEB
:1090100001335362F3E700001FB501238DF80030E0
:10902000044BCDE90110D3E900126846904705B022
:109030005DF804FBCC37002030B54C48D0F8043341
:1090400013F4007F85B005464DD0D0F82431002BB5
:1090500049D04FF49271FFF7A1FF4FF40173C0F8AC
:109060000833434B93F829200AB9012242603F4953
:1090700002228DF80020D1F88024C1F880240392C8
:109080009A690292DA6801920022C3E906226846D0
:10909000D3E9001290473548D0F81C315BB1344910
:1090A0004A690B6A9A420A464AD991F82830002B3D
:1090B00046D1FFF77BFF2D48D0F844318BB14FF4F8
:1090C000A271FFF76BFF2A4B93F829200AB1012206
:1090D00002609A692AB10022586AD9689A61FFF73A
:1090E0009BFF05B030BDD5F804335B07D3D5D5F869
:1090F0000831002BCFD01E4C1C482146FFF775FFCE
:10910000636AA2699A422346C5D1E269E1684AB11D
:109110002369E3600023606AA261E3616362FFF791
:109120007BFFB8E794F829200AB901226A600F4A48
:109130004FF40170C2F808030022586A9A61EEE702
:109140000A484FF48E71FFF729FF5369002BB2D004
:1091500051690291002391688DF8003001915361AB
:109160006846D2E900139847A5E700BF00200040F9
:10917000CC3700202DE9F843574B057991462C2236
:1091800002FB0532064692F82A200C469846002A31
:1091900040F09D8051490068FFF7DEFE0746002839
:1091A00040F0978021683368481C0BD04FF0A040F6
:1091B00001228A40C0F8082501F5E0724FF0030C47
:1091C00040F822C06068421C1FBF00F5E0724FF0FB
:1091D000A04C4FF0000E4CF822E0A269C3F8242501
:1091E00094F814C0627DBCF1010F4CEA0202C3F88E
:1091F0006C25C3F81405C3F80C151DD1A1684A1CD1
:109200001FBF01F5E0724FF0A0404FF0000C40F896
:1092100022C0E268501C0BD04FF0A04C01209040BF
:10922000CCF8080502F5E0704FF0030E4CF820E092
:10923000C3F80825C3F810152C236B4308EB030271
:10924000C2F80490226948F80320B9F1000F2BD02E
:109250003068247F4FF48E71FFF7A0FE30684FF422
:10926000A271FFF79BFE32681D4BC2F80433110B4D
:1092700042F30732002AA8BF02F160404FEA4413CC
:10928000BABF184801F00F0400F56140DBB2B4BF6B
:10929000035580F8003301F01F01012303FA01F1A7
:1092A0005209114B43F8221033680422C3F80025F9
:1092B0002C2303FB05830022C3E9062283F829201F
:1092C0005A61012283F82A203846BDE8F88308272E
:1092D000FAE71127F8E700BFCC37002039900200E9
:1092E0008000020014ED00E000E100E02DE9F0470D
:1092F000204F90F804904FF02C0808FB09740546A5
:109300006669002E34D162610068A16026624FF464
:109310008E7184F82860FFF741FE2868012383607E
:109320002146FFF743FE6368A0468BB92868D4F84E
:1093300014A0236A9A4511D82A68D2F81C31002B50
:10934000FBD00123D3602C2303FB097300225A6155
:109350003046BDE8F08794F828303BB9D0F81C318E
:10936000002BF8D04146FFF721FEE2E70F26EAE79F
:109370001126EDE7CC3700200379044A2C2101FBAC
:1093800003235869003818BF01207047CC370020EC
:109390002DE9F843394F05792C2303FB0573064665
:1093A0005C6824B103684FF40170C3F808032C23F0
:1093B00003FB0573986950B1D86900283ED024B1E9
:1093C00033684FF40172C3F80423112433E09A6127
:1093D000D9605862D8612C2303FB057393F82930B8
:1093E0001BB910B93046FFF7F0FD4FF02C0909FB0F
:1093F00005783068D8F80430002B34D14FF4A271CE
:10940000C146FFF7CBFD3068D0F82431D0F80821F1
:10941000D0F84441B2B90CB9002BF4D02C2202FB95
:1094200005750022AA6123BB2CBB95F8291033686F
:109430000122B1B11A602046BDE8F8831961DA61F2
:109440000120C8E7002BE9D1002CE7D14946FFF7FE
:10945000CCFDD8F82430D8F818209A42D3D8234627
:10946000DCE75A60E7E74FF40173C0F804330024E7
:10947000E1E70324DFE70F24DDE700BFCC3700205E
:109480000023435082B043580193019B02B07047C0
:109490001FB501238DF80030044BCDE90110D3E94D
:1094A00000126846904705B05DF804FBF8370020CD
:1094B0007FB5434AD2F82461002E60D010464FF4A5
:1094C0009271FFF7DDFF02238DF80030D2F880346F
:1094D000C2F880340393D2F83C350293394BDA68F2
:1094E00001920022C3E906226846D3E900129047A0
:1094F0003348D0F8443173B14FF4A271FFF7C0FF85
:10950000304B9A693AB10022C3E90622D968D0F8F3
:109510003C05FFF7BDFF2A48D0F82031ABB14FF42E
:109520009071FFF7ADFF0123C360264B5A6962B10A
:10953000D0F84C150291002299688DF80020019115
:109540005A616846D3E9001290471D48D0F8583157
:109550009BB14FF4AC71FFF793FF1A4B5A6962B19C
:10956000D0F84C150291002299688DF800200191E5
:109570005A616846D3E90012904704B070BDD2F832
:109580001031002BB4D04FF488711046FFF778FFEC
:109590000C4BD2F83C0599698842A9D1DC69D9689D
:1095A00064B1D2F8005225F02005C2F800521A69C1
:1095B0009C61DA60DE61FFF76BFF99E79C61FAE777
:1095C00000200040F83700202DE9F8435D4B067974
:1095D0009146242202FB0632044692F820200D46D2
:1095E0009846002A40F0AA8057490068FFF7B4FC6B
:1095F0000746002840F0A48029682368481C0BD047
:109600004FF0A04001228A40C0F8082501F5E07221
:109610004FF0030C40F822C06868421C1FBF00F5E1
:10962000E0724FF0A04C4FF0000E4CF822E0AA6917
:10963000C3F8242595F814C06A7DBCF1010F4CEAEB
:109640000202C3F86C25C3F80C15C3F814051DD12C
:10965000A9684A1C1FBF01F5E0724FF0A0404FF00F
:10966000000C40F822C0EA68501C0BD04FF0A04C10
:1096700001209040CCF8080502F5E0704FF0030E91
:109680004CF820E0C3F80825C3F8101524237343D1
:1096900008EB0302C2F804902A6948F80320B9F1E4
:1096A000000F3AD020682A7F4FF48871FFF7E8FE58
:1096B00020684FF49071FFF7E3FE20684FF4927139
:1096C000FFF7DEFE20684FF4A271FFF7D9FE206895
:1096D0004FF4AC71FFF7D4FE23681C49C3F80413A0
:1096E000190B43F30733002BAEBF03F1604001F0C9
:1096F0000F0517484FEA4212A8BF00F56140D2B2E9
:10970000B4BF425580F8002301F01F01012202FA84
:1097100001F15B090F4A42F8231023680822C3F8BD
:109720000025242303FB06830022C3E906225A6195
:10973000012283F820203846BDE8F8830827FAE79D
:109740001127F8E7F8370020B19402001003420017
:1097500014ED00E000E100E001F06043B3F1005FD0
:109760002DE9F041064638D11E4B0779242505FB2B
:10977000073598466C69002C31D16A610068A96090
:109780004FF49071FFF77CFE4FF4AC713068FFF737
:1097900077FE33686A69A968C3F84415C3F8482599
:1097A00001229A606A68AAB9D3F82021D3F85841F7
:1097B0001AB9002CF8D00F2407E0002CFBD10122AD
:1097C000DA60D3F85821002AFBD0242303FB078753
:1097D00000237B612046BDE8F0811024FAE71124C4
:1097E000F8E700BFF83700200379044A242101FB81
:1097F00003235869003818BF01207047F83700204C
:10980000F8B501F06043B3F1005F04460F465ED146
:109810000379304D242101FB0351496821B10068CF
:109820004FF40476C0F80863242000FB03539E69BC
:1098300056B1D869002839D021B123684FF4047299
:10984000C3F80423112030E09A61DF60DE612068F4
:109850004FF48871FFF714FE20684FF4A271FFF7F0
:109860000FFE2368C3F83475C3F8382516BB0122F0
:109870001A602179242202FB015252680ABBD3F8F4
:109880001041D3F84421D3F82401144302D1002815
:10989000F5D02246242303FB01550023984218BF2C
:1098A00003209A42AB6118BF0F20F8BD1F61DA6137
:1098B0000126CCE7D3F8002242F02002C3F80022B0
:1098C000D7E74FF40472C3F804230020EDE710201B
:1098D000EBE700BFF83700200220FEF79DBF000035
:1098E0002DE9F04780460D46FEF7B6FF03280446F3
:1098F00010D8012D10D0022D30D05DB91A48FDF7D7
:1099000024FD1A4B04EB440213449E78184B1B5D54
:10991000B34219D0BDE8F087144D00EB4002A918FE
:10992000AE5C4A78470052B1DFF84C900E484A4688
:109930004FF48041FDF7F1FC08B989F800803B192C
:109940002B449A780A4B1A55002EE3D0094B1B681A
:10995000002BDFD03046BDE8F047184700EB40044D
:10996000024804446678EFE7403800208038002041
:1099700099380020943800201C38002000780221FB
:10998000FFF7AEBF08B5094B1B7853B10020FEF7B7
:1099900019FF0120FEF716FFBDE808400320FEF77F
:1099A00011BFBDE80840FEF719BF00BF1D380020F9
:1099B000F8B57B4C237805461BB100232370FFF7D5
:1099C000E1FF172D00F28880DFE805F00C17174340
:1099D00054657680888D888D959A9A9A9A9AC4C98A
:1099E000D1D9E4E4FFF7CEFF6E48FDF7AEFC6E4B35
:1099F000002204461A702046F8BD0020FEF7C8FE7B
:109A0000F8B10020FEF7DEFE022D0CBF4FF4E1613D
:109A10004FF47A61644B1D704FF400404FF47A7438
:109A20000025E0FB01454FF4FA6200232046294659
:109A300002F0D2F900220146BDE8F8405948FDF78E
:109A40006CBCFEF7B3FE022D0CBFC8214FF4C871E9
:109A5000E0E70020FEF79CFE40B10020FEF7B2FEDA
:109A60004FF44871504B03221A70D5E7FEF79EFE63
:109A7000C821F7E70020FEF78BFE38B10020FEF783
:109A8000A1FE4FF47A61484B0422EDE7FEF78EFE0B
:109A90004FF4C871F7E70020FEF77AFE48B10020C6
:109AA000FEF790FE404B05221A7040F6CD41002291
:109AB000C2E7FEF77BFEF5E70020FEF7ADFE3A4B6E
:109AC00006221A70002240F26661B5E70020FEF718
:109AD0006DFE354B07221A7000248CE701202070A0
:109AE000FEF79AFEEEE701202070FEF795FE0022B9
:109AF0004FF40051A0E7FEF780FE2B4B0C22EAE763
:109B00002A482B4EFDF721FCD5F1110504461CD047
:109B1000D8B9012D13D0C8235D434FF400474FF44B
:109B20007A7000214FF4FA620023C7FB050102F0AE
:109B300053F9224601461D48FDF7EFFB044602207B
:109B4000FEF734FE0123337055E70220FEF73AFE9C
:109B50000023F8E7FFF716FF134B1222BBE7FFF7CE
:109B600011FF0020FEF722FE0F4B1322B3E7FFF791
:109B700009FF0120FEF71AFE0B4B1422ABE7FFF79B
:109B800001FF0020FEF712FE0120FEF70FFE064B3C
:109B90001522A0E7FEF731FE034B1D709CE700BFC6
:109BA00090380020603800209838002020380020AD
:109BB0001D380020044B1B68DB0703D5034B1878C6
:109BC000FFF7F6BE704700BF8C38002098380020A1
:109BD000032801D8FEF732BE00207047044B1B68F3
:109BE00013F0010301D0FFF7E3BE1846704700BF32
:109BF0008C38002038B51C4B18601C4B10F0020448
:109C0000054619601AD01A4B1A480E221A700F22F4
:109C1000DA7010229A7111225A72042140F2333202
:109C2000FDF7DEF9044648B9FDF730FA044628B9D5
:109C30000146114A1148FDF765FB0446EB0711D5B3
:109C40000120FEF71BFE6CB921460D4A0D48FDF7B9
:109C500059FB044630B9BDE838400B4A0B48012196
:109C6000FDF750BB204638BD8C38002094380020CA
:109C700080380020A8D002007D990200CCD00200DC
:109C8000B59B0200D0D00200D9980200C8D00200D3
:109C9000032811D8012A0AD101290FD100F10E029F
:109CA000D2B20D4B00EB40001A540020704701293E
:109CB000F7D0022904D049B1072070470022F8E705
:109CC000054B00EB400018444270EEE7024B00EBFE
:109CD000400018448270E8E78038002008B501226F
:109CE00002210020FFF7D4FF08B1072810D1072276
:109CF00002210120FFF7CCFF08B1072808D100217D
:109D00000A220846FFF7C4FF10B1072808BF002049
:109D100008BD00000388102B10B502D0112B1ED0F7
:109D200010BD1A4C2168B1B901220846FFF7B0FFF7
:109D300008B1072824D1072202210120FFF7A8FF3C
:109D400008B107281CD1042202210020FFF7A0FF40
:109D500008B1072814D1236801332360E0E70B4AD8
:109D60001368013B1360002BDAD1FFF7B7FF00281F
:109D7000D6D0074B1B68002BD2D0BDE81040184747
:109D8000034B1B68002BE6D09847E4E7A43800207B
:109D9000A03800200D4B10B518600C4629B10120E9
:109DA000FFF716FF40B102232370094B1B6853B91C
:109DB000BDE81040FFF792BFFFF70AFF08B10B2381
:109DC000F2E72070F1E7002010BD00BFA0380020AE
:109DD000A438002075DF704776DF70477FDF70475B
:109DE0008FDF7047704708B50020FFF7F7FE08B116
:109DF000FDF762F9012008BDFDF75EB90146014893
:109E000000F0DCBAB83A00200388212B13B50446D1
:109E10000FD80F2B11D9103B112B0ED8DFE803F010
:109E20000F260D410D0D0D0D0D0D0D330D0D0D48B2
:109E30000D4E3B2B54D0562B48D002B010BD81881C
:109E40002A48002200F008FC08B1FDF735F9072088
:109E5000FFF7C4FE08B1FDF72FF9A188244800F0F0
:109E60000DFF0028E9D0FDF727F9E6E7214B22484E
:109E7000A2882249C01AC0080004237A40F00300D7
:109E8000FCF7CFFDD9E7037A022BD6D1194B1A483C
:109E90001B49C01AC008000440F00300FCF7B4FDE1
:109EA000CBE700231A4685218088FFF797FFD8E784
:109EB00000F108018088FFF78DFFD2E7002301A998
:109EC0008088ADF80430FFF78BFFCAE70A48094BDA
:109ED0000C49C01AC008000440F00300FCF794FDD0
:109EE000A0881321FFF778FFBBE700BFB83A002036
:109EF0006C2A002064C802008CC80200D4D0020082
:109F000002D1020020D1020008B5074801F046FC4A
:109F100008B1FDF7D1F80120FFF760FE18B1BDE8E8
:109F20000840FDF7C9B808BD483A002073B50B7862
:109F300006460C46032B62D8DFE803F00231445298
:109F4000304B314D3149ED1AED082D0445F0030534
:109F50002846FCF759FD618804F11002304600F0F4
:109F60007BFB08B1FDF7A8F80121304600F001FBAA
:109F700008B1FDF7A1F80121304600F00EFB08B151
:109F8000FDF79AF828462249FCF73EFD21480022B9
:109F90004FF4404102B0BDE87040FDF7BEB9194B27
:109FA00019481D49C01AC008000440F00300019080
:109FB000FCF72AFDA288A168019802B0BDE87040B4
:109FC000FCF758BD0F4B10481449C01AC0080004D4
:109FD00040F003000190FCF717FDA288E168EBE771
:109FE000084B09480E49C01AC008000440F003009D
:109FF000FCF70AFD02B0BDE87040FFF785BF02B074
:10A0000070BD00BF64C802008CC8020035D10200D8
:10A0100049D10200983A002070D102008BD1020091
:10A02000A8D102000A8840F677239A4209D1054850
:10A03000054B0649C01AC008000440F00300FCF7B5
:10A04000E3BC70478CC8020064C80200C8D102009B
:10A05000042808B510D00A281AD10E4B0E480F4913
:10A06000C01AC008000440F00300FCF7CDFCBDE8B6
:10A0700008400020FEF79AB8094B13215888FFF7D3
:10A08000ABFE30F0080303D0BDE80840FDF714B87C
:10A0900008BD00BF64C802008CC80200E4D1020001
:10A0A000B83A00200D4B0E480E49C01AC00810B532
:10A0B00000040D4C40F00300FCF7A6FC237833B1FC
:10A0C0000A48012100F07EFA0023237010BD0748E2
:10A0D000022100F077FA0123F7E700BF64C802000D
:10A0E0008CC80200F9D10200502A0020B83A0020A2
:10A0F0001FB50378062B12D0072B22D0042B35D1A5
:10A100001B4B1C481C49C01AC008000440F0030047
:10A11000FCF77AFC04B0BDE81040FFF7F5BE4468D8
:10A12000134B14481549C01AC008000440F003003E
:10A13000FCF76AFCD4B1204604B0BDE81040FCF73F
:10A14000BBBF41680A4C0B488B784A78001B8C795E
:10A1500003944C7902940C790194C008C978009159
:10A160000004074940F00300FCF771FC04B010BD87
:10A1700064C802008CC8020065D2020015D2020039
:10A1800037D2020008B50849084800F045FF08B179
:10A19000FCF792FF0548F72100F052FF18B1BDE827
:10A1A0000840FCF789BF08BD25A00200343A002012
:10A1B00000B54FF480418BB00020FCF76FFA08B176
:10A1C000FCF77AFFFCF7A0F9FDF76AF808B1FCF795
:10A1D00073FF4F4A4F480121FDF794F808B1FCF78F
:10A1E0006BFF4D4D0FCD04AC0FC495E803004B4BF6
:10A1F0004B4A00934FF4807384E80300CDE90223B7
:10A200000193484A0723694604A8FDF7EDF908B110
:10A21000FCF752FF44490120FFF7ECFC08B1FCF7C2
:10A220004BFF04A90020FFF7B5FD08B1FCF744FF80
:10A230000822002104A801F055FF3C4C3C4B04933C
:10A2400004A8059400F0DCFC08B1FCF735FFFDF72D
:10A2500071FF08B1FCF730FF01F0F2FB08B1FCF729
:10A260002BFF002304A90120049301F077FC08B11F
:10A27000FCF722FF04A801F043FD08B1FCF71CFF26
:10A28000FFF780FF2B4B04932B4B2C4804A9CDE9FF
:10A29000053400F0FBF808B1FCF70EFF1022002196
:10A2A0000DEB020001F01EFF0123254A25488DF821
:10A2B000143004A98DF81C3001F015FA08B1FCF730
:10A2C000FBFE214A1F48032101F0E2F908B1FCF727
:10A2D000F3FE1C480022042101F0F1F908B1FCF75B
:10A2E000EBFE1A4801F0A4FE194B1A481A49C01A8D
:10A2F000C008000440F00300FCF786FBFFF704FEF3
:10A30000FCF726FA0028FBD1FDF72AFFF8E700BF8B
:10A31000A5A00200E0D20200B4D20200D43A00208C
:10A32000D43B0020E59D020051A00200542A0020E9
:10A33000FD9D02002D9F0200F99D0200B83A002009
:10A34000F1A00200483A0020E4D2020075D20200D7
:10A3500064C802008CC8020095D2020062DF704718
:10A360004B6903B11847704770B58AB004460D4673
:10A3700016460021202202A801F0B4FE00238DF829
:10A38000053001238DF808300B4B6288A0698DF8E9
:10A390000460CDE904344FF40033079301AB089314
:10A3A00002A940F20113ADF81A50ADF8183001F0CF
:10A3B00043F80AB070BD00BF61A302002DE9F04F61
:10A3C0000C468BB01C220546002103A801F08AFE32
:10A3D0002278002A3BD1A388B3F5A05F37D1A179B9
:10A3E0002B78994233D1217ABDF82460BDF81C0046
:10A3F000BDF822C0BDF81E70BDF820804FF0120ECF
:10A400001EFB0141234601919646914641F2014BC4
:10A4100001998B421ED1B9F1000F01D0ADF8208017
:10A42000BEF1000F03D0ADF822C0ADF81E701AB116
:10A43000ADF82460ADF81C002B6943B16288ADF81B
:10A440000E2000228DF80C2003A9284698470BB057
:10A45000BDE8F08FD98941F2024A51450BD041F253
:10A46000034A51450DD0594503D1B3F816804FF03A
:10A4700001091233CCE7B3F816C01F8B4FF0010E61
:10A48000F7E7DE8A188B0122F3E70000F0B5194BDD
:10A4900087B002AA04460D4603F1100C174618684F
:10A4A0005968164603C6083363453246F7D1F4B1FE
:10A4B000EDB1AB68DBB121463846FFF74FFFA0B9DD
:10A4C00023788DF806304FF4A053ADF804304FF6E2
:10A4D000FF7363802B6823616B686361AB68A06066
:10A4E000A081A36101A800F0A7FB07B0F0BD0E207A
:10A4F000FBE700BF11D3020010B5034688B0084641
:10A50000F9B1F3B149884FF6FF72914219D09C8896
:10A510008C4216D11988112921D0392911D1046909
:10A520007CB15A8941898A420DD162B101228DF8EC
:10A53000042003F110020392DB89ADF8083001A971
:10A54000A04708B010BD81898A42F8D1002AF6D010
:10A5500002228DF8042003F110020492ECE7036953
:10A56000002BEED003218DF80410428001A99847FA
:10A57000E7E710B40A4650B144884FF6FF718C42A9
:10A5800009D0C18839B15DF8044BFFF7EDBE0E204C
:10A590005DF8044B70470820FAE710B40A4650B142
:10A5A00044884FF6FF718C4209D0818839B15DF83B
:10A5B000044BFFF7D9BE0E205DF8044B704708200E
:10A5C000FAE7000010B58AB004468DF8071000289D
:10A5D00035D02022002102A801F084FD194B1A4831
:10A5E0006288C01A4FF6FF73C0089A424FEA0040D3
:10A5F00007D140F002001549FCF706FA08200AB01E
:10A6000010BD01238DF80830114B1249CDE90434F7
:10A610002389ADF81A304FF480330DF10702079308
:10A6200040F003004FF481730892ADF81830FCF746
:10A63000EFF96288A06902A900F0FEFEDFE70E20B4
:10A64000DDE700BF64C802008CC80200E8D2020047
:10A6500061A3020003D3020070B141804AB1538864
:10A66000C380D3884381138883801389838193882F
:10A670000381806900F080BF0E2070470369C168C4
:10A680008B429DBF8268D21802F1FF3203F1FF3383
:10A6900094BF501A581A70472DE9F843D0E9029434
:10A6A0000546A9EB04084068904520440F46144431
:10A6B00004D901F0EEFCEC60BDE8F8834246A4EB5F
:10A6C000090401F0E6FC6868224607EB0801F0E7A0
:10A6D0002DE9F843C5680646894617464FF000083D
:10A6E0003469B3687068A54228BFE418013C621B56
:10A6F0005C1BBC4228BF3C46944228BF14464946D6
:10A700002844224601F0C5FCB3682544AB4208BF8B
:10A7100000253F1BA044A144F560E1D14046BDE8BF
:10A72000F883000010B5114C114AA2610223C4E95C
:10A730000433104BE361A2644FF400730E4A0F49D7
:10A740002362E26400231022E01DA3626362E362DD
:10A75000A3656365E365226501F0F7FC08492046BF
:10A7600001F0F3FC2023A37110BD00BFD43C0020F6
:10A7700021D302005C3D00204C3D00202AD3020082
:10A780002ED30200F8B5184C182300FB033503FB49
:10A7900000402544C46A012C0F4616460FD0022CF7
:10A7A0001AD0F4B92846FFF769FF864205D8324629
:10A7B00039462846FFF770FF34462046F8BD284644
:10A7C000FFF75CFF8642344628BF044622463946DE
:10A7D0002846FFF761FFF0E72846BDE8F840FFF79D
:10A7E00077BF0024E9E700BFD43C0020FFF79ABF01
:10A7F00064DF704770B5E8B14AB116880024B442EE
:10A8000003D305196D789D4208D0A14201D80020DC
:10A8100010E0055D01352C44A4B2F0E7A142F6D961
:10A82000005D0138A31C80B29DB210FA83F38B4205
:10A83000EDDC158070BDF0B587B0002306460C46F0
:10A840001046ADF8063002AA10230DF105018DF86F
:10A850000530FFF7CDFF16B9002007B0F0BD002886
:10A86000FAD19DF80550042D2BD0102D2BD0022DA0
:10A87000F3D10323BDF806207AB90DF10602214673
:10A880003046FFF7B7FFBDF806302BB92B460DF168
:10A8900006023046FFF7AEFF0446BDF80670002FF3
:10A8A000DAD00025AC42D7D9E8199DF8052002A9D5
:10A8B000304401F08AFB48B19DF805301D44ADB22B
:10A8C000F0E70523D6E706250723D3E70120C4E7F1
:10A8D00030B50B4B19680B4B0022914201D100207F
:10A8E00009E09D788478A54206D11D880488A54298
:10A8F00002D1054B186830BD01320433EDE700BFCB
:10A90000643F0020683F00205C3F00202DE9F84FA5
:10A9100090F8C6A24FF0760B04460AFB0B0088465F
:10A920009146FFF7D5FF074670B3D4F8CC52052DFA
:10A930002AD804EBC5165A46A6F8D2920BFB0A4158
:10A9400006F5357001F0A5FBB8F1000F14BF002328
:10A95000022386F8D0320D4BC6F84C731A680135C5
:10A960009542C4F8CC521D460ED104F5347600272A
:10A97000F36F304698472B6801379F4206F18006F7
:10A98000F6D30023C4F8CC32BDE8F88F643F002032
:10A9900030B5A1B004460D467C22002101A801F08B
:10A9A000A1FB03238DF80430044BADF806501B685F
:10A9B00002940BB101A8984721B030BD5C3F002044
:10A9C0002DE9F041074691F8C60276234FF00008C2
:10A9D000A0B081F8C88200FB03100C461546FFF7B3
:10A9E00077FF064660B17C22414601A801F07AFB60
:10A9F00001238DF80430ADF80650029701A8B04746
:10AA000029462046FFF7C4FF20B0BDE8F0810000D2
:10AA100030B58BB0044620220D4602A8002101F07B
:10AA200061FB04220DEB0200002101F05BFB94F8B6
:10AA3000C53294F8C62213B3013B7621DBB25143F1
:10AA4000122000FB031323445B8A01339BB2ADF851
:10AA50000430762303FB024202A91389ADF80630C5
:10AA600003238DF80830019BCDE90543064B049381
:10AA7000064B2A46186800F0DFFC0BB030BD762389
:10AA800003FB0243DB88E2E7C1A90200803F00200C
:10AA9000F0B5044689B020220D466846002101F039
:10AAA00021FB94F8C7321E4A01331268DBB293428D
:10AAB00084F8C7324FF000022BD294F8C632194FF7
:10AAC00084F8C5220133DBB2762113FB01F057F87D
:10AAD000237084F8C6322618275001FB03433271D5
:10AAE0001B68CDF81230104B029302220F4B8DF8E9
:10AAF00000200122ADF81020186803942A46694608
:10AB000000F09AFC18B12A462146FFF759FF09B018
:10AB1000F0BD84F8C82229462046FFF739FFF6E742
:10AB2000643F0020683F0020C1A90200803F002050
:10AB30002DE9F047044688B00D4616460021202234
:10AB4000684601F0CFFA94F8C62294F8C51276232D
:10AB500012FB03F2A018122790F804C017FB012380
:10AB600001F1010E0A33E645234411D004F11C091A
:10AB700000F1220E0CF1FF389144CAB294450BD972
:10AB800088451B890ED102899A421BD1002312E00D
:10AB90001B890289934215D101232B70002008B034
:10ABA000BDE8F08707FB01FA01333EF80A20934223
:10ABB0001DD109EB0A0394F8C522013284F8C5229D
:10ABC0000131DAE701339BB2ADF810300A4B029342
:10ABD00000210A4B297004218DF80010ADF81220D5
:10ABE000186803943246694600F026FCD7E7013A1C
:10ABF0009BB292B2E8E700BFC1A90200803F0020EB
:10AC000010B570B1026862B1436853B106490020C3
:10AC10000860064901240C7005490A60054A136062
:10AC200010BD0E20FCE700BF643F0020603F002005
:10AC30005C3F0020803F002010B5044680B10C4BE3
:10AC40001B787BB1FFF744FE70B90A4A1368052BE5
:10AC50000CD80949246841F823400133136010BD22
:10AC60000E20FCE70820FAE70020F8E70420F6E7CA
:10AC7000603F0020643F0020683F0020F0B50D4693
:10AC80008BB0044600283BD0204B1B78002B39D0DA
:10AC90001F4B1B68002B35D090F8C812002933D108
:10ACA0004FF4BA621B4F019101F01CFA0199202266
:10ACB00002A801F017FA3868294600F05DFCE8B9EF
:10ACC000154BC4F8CC0284F8C502A4F8C602186873
:10ACD000206002238DF808300126104BCDF81A00B1
:10ACE000A4F8CA523868ADF818602A4602A905943B
:10ACF000049300F0A1FB08B984F8C8620BB0F0BD62
:10AD00000E20FBE70820F9E71120F7E7603F00205D
:10AD1000643F0020803F0020683F0020C1A902005E
:10AD20002DE9FF410C46054660B159B1904B1B78A7
:10AD300043B10388322B64D007D8112B00F00A816D
:10AD4000302B20D004B0BDE8F081332BFAD18288BB
:10AD5000B1F8CA329342F5D1C68891F8C6C291F8CB
:10AD6000C572002E00F0C080762101FB0C4C002340
:10AD70009CF804108DF80F307B1C8B4200F0E480AF
:10AD800084F8C532A2E08388B1F8CA229A42D9D1A8
:10AD9000C3886BBB91F8C632762202FB03130269AB
:10ADA000C3F8062091F8C432827A1344062B0CDCD7
:10ADB00081F8C432A9882046FFF72AFE0028C1D0B6
:10ADC000AA882146FFF7FCFDBCE7062381F8C432C0
:10ADD0006848694B6949C01AC008000440F0020085
:10ADE0000190FBF711FE66490198FBF70DFEE1E7C4
:10ADF00000212046FFF78AFDA9882046FFF748FE7C
:10AE0000A0E78288B1F8CA329A429BD1C388002B4E
:10AE100058D191F8C672762317FB03F701EB0708A8
:10AE2000837A98F804603344062B26DC88F80430D3
:10AE3000334603EBC30207EB420205F10C06224442
:10AE4000002198F80400834206F10A0602F112027A
:10AE500027D31222013B02FB034394F8C62276213A
:10AE60003B4401FB0242598A138999422AD206289F
:10AE700028D0A98884F8C5029DE7062388F8043005
:10AE80003C483D4BCA5B3F49C01AC008000440F033
:10AE900002000190FBF7BCFD3B490198FBF7B4FDB4
:10AEA000C6E73046013350F80ACD42F808CCD0F856
:10AEB00004C042F804CC0089108051809180D18078
:10AEC0001181BEE7002384F8C532AA880DF10F0175
:10AED0002046FFF72DFE00287FF472AF9DF80F305B
:10AEE000002B3FF42FAF32E0762303FB0CF112234B
:10AEF00003FB0713B0F80AE023447645BFF434AFF0
:10AF0000C189A1F52451082908D8DFE801F01417F8
:10AF10000507070707071A0081899982998A39B1BD
:10AF2000D98A29B1198B19B1598B00297FF41CAF2B
:10AF300001360630E1E78189D982EFE781891983FB
:10AF4000ECE781895983E9E701238DF80F30AA885E
:10AF500001214EE7B1F8CA3282889A4201BF00232C
:10AF600081F8C8324FF6FF73A1F8CA32EAE600BF93
:10AF7000603F0020A4C8020064C8020035D302006C
:10AF800054D3020099D30200DFD3020090DF704750
:10AF9000A5DF7047B5DF70477FB50023ADF8081017
:10AFA000ADF80A106A4602A9064603930093ADF86D
:10AFB0000430FFF7EBFF054600B3124B124CE41AC6
:10AFC000E408FDF76BFA240444F0010403460F493A
:10AFD00032462046FBF725FDBDF80020BDF80230C3
:10AFE00052EA030103D00A492046FBF71AFDBDF8D7
:10AFF00004201AB107492046FBF70AFD284604B091
:10B0000070BD00BF64C80200C4C8020045D402007D
:10B010008FD40200CED4020080B14FF0F71303604A
:10B02000FB230371F723C3801723038141F6FB320F
:10B030000023016143818281184670470E207047CA
:10B0400030B1A1F11703E02B04D8418000207047F4
:10B050000E2070470720704713B5034680880C46C2
:10B06000B8B91A88242A00F0968014D8112A71D011
:10B07000232A00F09E80102A3BD0A37A4BB1E188AE
:10B080000020FFF785FF002840F099804FF480737F
:10B09000638102B010BD3A2A65D0552AEDD1DB8814
:10B0A000C988A072172B38BF17238B4228BF0B46C5
:10B0B0002381FFF76FFF60B1FDF7F0F9484B494975
:10B0C000024649481B1ADB081B0443F00100FBF74A
:10B0D0009FFCE37A002BD0D12369002BCDD040F622
:10B0E000772200922289ADF80420694620469847CD
:10B0F000C3E7DB7B0A790A73012B13D0022B14D030
:10B10000E18823898B4205D20020FFF741FF70B907
:10B110000123E372217B637B8B42AED20020FFF7D9
:10B120003BFFAAE70B88E380EAE74B88FBE711289F
:10B1300002D10123A372EDE7FDF7B0F9284B2B49AB
:10B14000024629481B1ADB081B0443F00100FBF7E9
:10B150005FFCDFE7F723CB8017230B8141F6FB333E
:10B1600048818B8189E75B89CA88934228BF13464F
:10B17000172B0A6938BF17230B814AB1C97A39B135
:10B1800040F677210091ADF804306946204690479B
:10B190000023638171E71A7A0B694A73002B3FF42D
:10B1A0006CAF4DF67A218DF8050000918DF80420E2
:10B1B0009BE7197A237B994228BF1946AFE71128EC
:10B1C0003FF467AFFDF76AF9054B084902460648A8
:10B1D0001B1ADB081B0443F00100FBF719FC58E7BE
:10B1E000C4C8020055D5020064C8020024D502007C
:10B1F0009BDF70479DDF70479EDF7047A1DF704780
:10B20000A3DF7047AEDF704730B5048800239AB2E1
:10B21000944206D9456835F813508D4203F1010375
:10B22000F5D1104630BD8B6910B50C461988102930
:10B2300012D80231FCF723FF606078B1A1690023C6
:10B240000222FCF75EFFA26960681288E1690223AE
:10B25000FCF757FF002010BD0920FCE70420FAE7A7
:10B2600010B50C46C98A10290AD8FCF708FF60609F
:10B2700040B1E28AA1690023FCF743FF002010BD22
:10B280000920FCE70420FAE7F0B58BB00022044661
:10B290000DF10601C068124EFDF757F8142502465D
:10B2A0000AB10BB0F0BDBDF80670A36805FB073707
:10B2B00002A93846FDF749F838B10022E0680DF1DF
:10B2C0000601FDF742F80246EAE79DF8083056F815
:10B2D000233013B10398FCF7BCFE0022E8E700BF5F
:10B2E00004D60200F7B505460C4C0D480092241A0E
:10B2F000E40824040B460F4616460A492A7844F00F
:10B300000100FBF798FBAB6833B1E9683A46304679
:10B3100003B0BDE8F040184703B0F0BDCCC8020050
:10B3200064C8020091D50200F0B58FB00D4601222D
:10B3300006A90646FDF709F8044690B99DF81830AD
:10B34000052B65D8DFE803F0030F1C24292EBDF878
:10B350002A20BDF828102846FFF750FF0446112C7C
:10B3600040D10FB0F0BD02A90798BDF82E200C9176
:10B370000023FCF7D0FE0AA92846FFF741FFEDE7BE
:10B38000BDF828100DF12A022846FFF731FFE5E746
:10B390000AA92846FFF72EFFE0E70AA92846FFF78B
:10B3A0002BFFDBE70DF1060402AB214607980D9356
:10B3B00002220023FCF7AFFEBDF806200D99079886
:10B3C0000C940223FCF7A7FE0AA92846BDF80670D4
:10B3D000FFF718FF04460028C1D1BDF80630BB4274
:10B3E00018BF0C249DF818200F4B53F8223013B1CE
:10B3F0000798FCF72EFE002206A93046FCF7A5FFB1
:10B40000002CAED02246294606A8FFF76BFFA8E71E
:10B410000648074B07491B1ADB081B0443F00200D0
:10B42000FBF7F2FADEE700BF04D6020064C80200B0
:10B43000CCC80200DBD502002DE9F8430F461446C4
:10B44000054620B94FF00E084046BDE8F8830029B4
:10B45000F8D0FFF719FF3B78052B6AD8214628461C
:10B46000FFF7D2FE2B88834263D014264643A86898
:10B470003044FCF763FF002860D03B78052B3BD8B5
:10B48000DFE803F00311171E242A7A8A398A20463E
:10B49000FFF7B4FE112851D058B302462146384672
:10B4A000FFF720FF25E007F110012046FFF7A8FE77
:10B4B000F0E7398A07F112022046FFF799FEE9E723
:10B4C00007F110012046FFF795FEE3E707F11001B1
:10B4D0002046FFF791FEDDE7BB6907F1100120462A
:10B4E000B3F80080FFF78EFE30BBBB691B88434575
:10B4F0000DD14FF00008A7E71B4B1C481C49C01A90
:10B50000C008000440F00200FBF77EFAF1E70C20CF
:10B51000C3E72869002895D0394698478046A0B1EE
:10B5200092E73B7859F82330BBB17868FCF791FD7E
:10B5300013E04FF0070887E71128AED10D4A3B789A
:10B5400052F823309146002BE3D1A86839463044A5
:10B55000FCF79EFE80460028E3D1A86821463044CF
:10B56000FFF7E2FE70E700BF64C80200CCC802002B
:10B57000DBD5020004D60200F8B50D46044678B3C8
:10B58000FFF782FE29462046FFF73EFE22888242D0
:10B5900011D00020F8BD616831F81310814203F129
:10B5A00001030BD0208800234FF6FF769AB2824227
:10B5B0000BD30420EEE700234FF6FF7099B28A42C6
:10B5C000E9D82069FCF743FDECE761685A0001EB1C
:10B5D00043078A5AB24203F10103E7D13D80D8E71D
:10B5E0000E20D7E737B50C4608B301B30588112DF7
:10B5F00015D181882046FFF707FE2388ADF80600A5
:10B60000834214D0112D14D163684FF6FF7223F8D2
:10B6100010200DF10601E068FCF73AFE07E0A5F105
:10B6200030031F2BE5D9A5F150031F2BE1D903B03F
:10B6300030BDA368142202FB0030FFF775FEF6E769
:10B640008ADF70478BDF70478CDF704730B5037A35
:10B6500089B004460D46CBB1837C0193FFF7F2FF1E
:10B660001422002103A800F03DFD019B04F10A0211
:10B6700004F11401A81CFFF7E7FF06238DF80C3036
:10B68000049018B1636A0BB103A8984709B030BDA4
:10B6900010B5034668B162B103290CD1007960B9D5
:10B6A0001C8811888C4203D00121197112681A601C
:10B6B00010BD0E20FCE70720FAE70420F8E750B1A0
:10B6C000CB060AD011F0040116BF0123417143716A
:10B6D0008271002070470E20704707207047007D60
:10B6E000C0F3C0007047F8B50D460446002852D09C
:10B6F00042620021082200F0F5FC002D38D02B79A1
:10B7000023722B7BA3742B68FBB104F1140203F1A9
:10B71000080718685968164603C60833BB42324604
:10B72000F7D1186830609B88B380AA68C2B11368EB
:10B73000C4F80A305368C4F80E3004F12803A36437
:10B740001F23A4F84C300020F8BD636903F0E30325
:10B7500043F4200343F4827363615023A361E4E75D
:10B76000062363811823E3604FF4C8732382E4E760
:10B770006369257203F0E30343F4200343F4827307
:10B7800063615023A361062363811823E3604FF4B0
:10B79000C8732382D1E70E20D6E7000010B5044617
:10B7A00086B048B31422002101A800F09BFCFFF7EB
:10B7B00049FF2046FFF793FF30B1636A23B10122AE
:10B7C0008DF8042001A8984704F1480104F1140001
:10B7D000FFF736FF044630F008000BD00748084B4F
:10B7E00008491B1ADB081B0443F001002246FBF743
:10B7F0000FF9204606B010BD0E20FBE764C802001A
:10B80000B4C802001CD602002DE9F04F05468BB0EB
:10B8100035F8083B1D2B07460C4622D008D8102BC4
:10B8200000F0B0801B2B00F095800BB0BDE8F08FCE
:10B83000202BFAD114220DEB0200002100F052FC63
:10B84000626A002AF1D02868696805238DF81430EF
:10B8500006AB03C31434297A0994197005A89047DC
:10B86000E3E7142200210DEB020000F03BFC04F1A1
:10B87000140320460993FFF732FF04F1480A78B118
:10B8800002238DF8143005A8636A0695984751463F
:10B890000020FFF7D5FE29462046FFF7D7FEC4E774
:10B8A00094F8058094F80690B8F1000F45D094F80C
:10B8B00004B0B98C224604EB8B03064693420CD1AC
:10B8C000B9F1000F18D0B34518D19DF81C3043F0E2
:10B8D00004038DF81C30012313E0386A0191CDE98F
:10B8E0000223FEF7A8FFDDE90112039B00B3013636
:10B8F000F6B2B9F1000F1ED1002EE6D14FF00008CC
:10B90000434601220695B9F1000F19D09A421DD184
:10B9100000238DF8143029462046FFF797FE636A0E
:10B920000BB105A8984751460020FFF789FE7CE738
:10B93000B9F1000FC7D10432C0E743464246E1E700
:10B94000B8F1000F02D08DF81490E4E703238DF8CE
:10B950001430E4E714220DEB0200002100F0C2FBDA
:10B960003A7A012A7FF461AF636A002B3FF45DAF3E
:10B97000042114348DF8141009948DF8182005A8AA
:10B98000984752E7142200210DEB020000F0AAFBB9
:10B9900007238DF81430BB88ADF81C3004F1140374
:10B9A0000993636A0695002BE9D13EE710DF7047E3
:10B9B00013B5044609496846FCF715FD019808B916
:10B9C00002B010BDD0E900212046904718B168466A
:10B9D000FCF713FDF2E71120F2E700BF60D602008A
:10B9E00013B5044607496846FCF7FDFC019B0BB9FB
:10B9F00002B010BD2046D3E9002190476846FCF70D
:10BA0000FCFCF3E778D602000B4991F816335A098B
:10BA1000EC231341DB0706D5084B9A683AB94FF47B
:10BA200080030B60704742F20200FBF745BB1A68C7
:10BA300042F480021A60704700E100E018370020ED
:10BA4000F7B5194F3C7864BB184E01252046357078
:10BA5000FFF7AEFF112821D02046FFF7C1FF144B9E
:10BA60008DF80340186801900DF10300FBF73CFED0
:10BA7000104901A8FFF79AFF0446B0FA80F0400988
:10BA800038709DF80300FBF753FE3CB90A4B347045
:10BA90001C70FFF7B9FF2846FFF7A2FF204603B04E
:10BAA000F0BD0824FAE700BF853F0020843F002056
:10BAB0005BD60200D5700200863F0020014B18784B
:10BAC000704700BF853F002007B508496846FCF76E
:10BAD0008AFC019B13B903B05DF804FBD3E9002095
